:020000040800F2
:1000000088090020CD180008C1140008C314000896
:10001000C7140008CB140008CF140008000000002B
:10002000000000000000000000000000D3140008E1
:10003000D514000800000000D7140008D9140008E7
:10004000E7180008E7180008E7180008E718000894
:10005000E7180008E7180008E7180008E718000884
:10006000E7180008E7180008E7180008E718000874
:10007000E7180008E7180008E7180008E718000864
:10008000E7180008E7180008E7180008E718000854
:10009000E7180008E7180008E7180008E718000844
:1000A000E7180008BD160008E7180008E718000860
:1000B000E7180008E7180008E7180008E718000824
:1000C000E7180008E7180008E7180008E718000814
:1000D000E718000837140008E7180008E7180008B8
:1000E000E7180008E7180008E7180008E7180008F4
:1000F000E7180008E7180008E7180008E7180008E4
:10010000E7180008E7180008E7180008E7180008D3
:10011000E7180008E7180008E7180008E7180008C3
:10012000E7180008E7180008E7180008E7180008B3
:1001300000F002F800F06AF80AA090E8000C82448F
:100140008344AAF10107DA4501D100F05FF8AFF26C
:10015000090EBAE80F0013F0010F18BFFB1A43F0A5
:1001600001031847E87D0000087E00000A444FF0B4
:10017000000C10F8013B13F0070408BF10F8014B06
:100180001D1108BF10F8015B641E05D010F8016B4B
:10019000641E01F8016BF9D113F0080F1EBF10F8AF
:1001A000014BAD1C0C1B09D16D1E58BF01F801CBD2
:1001B000FAD505E014F8016B01F8016B6D1EF9D555
:1001C0009142D6D37047000000230024002500266A
:1001D000103A28BF78C1FBD8520728BF30C148BFAA
:1001E0000B607047662907F0E484642904F0F48307
:1001F000002070471FB504F03BFF040000200021E1
:1002000006F096FBE0601FBD10B510BD05F050F87C
:100210001146FFF7EFFF00F009F805F06EF803B4A0
:10022000FFF7F2FF03BC01F0ABF8000001F03EF86D
:100230004FF4A06001F06AFB4FF4E13001F0AFF839
:1002400000F0CFFE00F095FC00F04DF8472141F2A0
:10025000873000F0F7FF01221146024802F08FFBC1
:1002600000BFFEE7002C014070B505460C4600F0CB
:10027000D1FE182000F082FF00F00DFF18B100F051
:10028000E9FE012070BD284600F078FF00F003FF72
:10029000204600F073FF00F0FEFE18B100F0DAFE19
:1002A0000120EFE700F0D6FE0020EBE770B5044632
:1002B00000F0B0FE182000F061FF00F0ECFE2046D8
:1002C00000F05CFF00F0E7FE00F0A4FE192000F053
:1002D00055FF00F0E0FE002000F07BFF054600F037
:1002E000B9FE284670BD10B500240020FFF7DEFFE0
:1002F0000446482C04D0FAA004F062FB012010BD93
:10030000FCA004F05DFB11210A20FFF7ADFF0020E7
:10031000FE498861C86108624FF07E50C862486239
:100320008862FB488864FB48C864FB480865FB4852
:100330000863FB484863FB488863FB48C863FB4885
:100340000864FB4848640A2000F0EDFF0020D6E76F
:100350002DE9F04106460F4614461D4600F05AFEB0
:10036000002141EA4601C8B200F008FF00F093FE08
:1003700020B100F06FFE0120BDE8F081384600F0AA
:10038000FDFE00F088FE00F045FE012101EB460174
:10039000C8B200F0F3FE00F07EFE0DE0012C04D1A7
:1003A000002000F016FF287003E0012000F011FF8C
:1003B0002870601EC4B26D1C002CEFD100F04AFE04
:1003C0000020D9E72DE9F04F89B007AB06220321C1
:1003D0000C20FFF7BDFF06900698B8B99DF81C00E9
:1003E0009DF81D1040EA01200FFA80F99DF81E00CB
:1003F0009DF81F1040EA01200FFA80FA9DF82000B6
:100400009DF8211040EA01200FFA80FBBF49886C5B
:1004100007F05AF8CDE90201484606F014FD002223
:10042000C44BCDE9000106F087FB0746DDE9022356
:1004300006F060FFCDE9040106F090FA0446B349E6
:10044000C86C07F041F8CDE90201504606F0FBFC0C
:100450000022B84BCDE9000106F06EFB0746DDE94E
:10046000022306F047FFCDE9040106F077FA0546BE
:10047000A649086D07F028F8CDE90201584606F0B4
:10048000E2FC07460022AB4B06F056FBCDE900012B
:10049000DDE9022306F02EFFCDE9040106F05EFA45
:1004A00006469A49886B314607F006FA9749059047
:1004B000486B294607F000FA80469449086B2146AC
:1004C00007F0FAF94146049007F02AF80746059923
:1004D00007F026F88D490860086C314607F0ECF902
:1004E0008A490590C86B294607F0E6F98046874996
:1004F000486B214607F0E0F94146049007F010F8F8
:100500000746059907F00CF880494860486C314669
:1005100007F0D2F97D490590086C294607F0CCF91F
:1005200080467A49886B214607F0C6F94146049017
:1005300006F0F6FF0746059906F0F2FF734988605A
:100540000846006880F00047384606F0BDFF0022EC
:10055000784BCDE9020106F0DDFCCDE9040106F09F
:10056000FDF96A49C860486806F0AEFF07460022F8
:10057000704B06F0CFFCCDE9040106F0EFF96349BA
:100580000861886806F0A0FF07460022694B06F064
:10059000C1FCCDE9040106F0E1F95C494861112193
:1005A0000A20FFF761FE002009B0BDE8F08F2DE9B9
:1005B000F04F93B0604C650C2646670CA04647F69A
:1005C000FF794FF0000A5DA004F0FAF94FF47A7059
:1005D00000F0A9FE4FF47A7000F0A5FE4FF47A7097
:1005E00000F0A1FE4FF47A7000F09DFE00BF67E0BE
:1005F000FFF7E8FE204607F013F983464348C16839
:10060000584607F025F904D84049C86807F0ECF8C7
:1006100004B2304607F004F983463C480169584665
:1006200007F016F904D83949086907F0DDF806B271
:10063000404607F0F5F8834634484169584607F0CC
:1006400007F905D83149486907F0CEF80FFA80F864
:10065000284607F0E5F883462C48C168584607F05D
:10066000F7F904D82949C86807F0BEF805B238463A
:1006700007F0D6F8834625480169584607F0E8F99F
:1006800004D82249086907F0AFF807B2484607F0D6
:10069000C7F883461D484169584607F0D9F905D87F
:1006A0001A49486907F0A0F80FFA80F927A004F06A
:1006B00087F90A2000F037FE0AF101000FFA80FAEC
:1006C000BAF5FA6F94DD22A004F07AF94FF47A704B
:1006D00000F029FE4FF47A7000F025FE40E00000A3
:1006E000414B3839373520494E4954204552524FF5
:1006F000520A0000414B3839373520494E495420C1
:10070000535543434553530A000000007C01002029
:100710003CE8C839C000803E7B7AC83C7F94783F73
:1007200015F4E83CD1AA22BC4155813FBA16B93B29
:100730004E96823F005075400180FFFF66697273DC
:10074000742063616C204D41470A00002E20000098
:100750007365636F6E642063616C204D41470A00CE
:100760004FF47A7000F0DFFD4FF47A7000F0DBFD9B
:100770004FF0000A68E0FFF725FE204607F050F82A
:1007800083469E48C168584607F062F804D89B49E2
:10079000C86807F029F804B2304607F041F88346EC
:1007A00096480169584607F053F804D893490869F8
:1007B00007F01AF806B2404607F032F883468F4831
:1007C0004169584607F044F805D88C49486907F054
:1007D0000BF80FFA80F8284607F022F8834687487E
:1007E000C168584607F034F904D88449C86806F04F
:1007F000FBFF05B2384607F013F883467F480169CE
:10080000584607F025F904D87C49086906F0ECFF42
:1008100007B2484607F004F88346784841695846CD
:1008200007F016F905D87549486906F0DDFF0FFA9B
:1008300080F9AFF2E80004F0C3F80A2000F073FD7D
:100840000AF101000FFA80FABAF5FA6F93DD434618
:10085000324621466AA004F0B3F84B463A46294690
:100860006EA004F0ADF8281906F0EDFA00224FF062
:100870008043CDE90E0106F05FF9CDE9100106F0E5
:100880006DF85E498861B81906F0DDFA00224FF074
:100890008043CDE90E0106F04FF9CDE9100106F0D5
:1008A0005DF85649C86109EB080006F0CCFA002251
:1008B0004FF08043CDE90E0106F03EF9CDE910017D
:1008C00006F04CF84D490862F01B06F0BCFACDE981
:1008D0000E01601B06F0B7FA0022574BCDE90A0162
:1008E00006F018FBCDE90C01DDE90E2306F024F932
:1008F000CDE9100106F032F840494862A8EB090042
:1009000006F0A1FACDE90E01601B06F09CFA002268
:10091000494BCDE90A0106F0FDFACDE90C01DDE90C
:100920000E2306F009F9CDE9100106F017F8334956
:100930008862886A06F0C8FDCDE910012F49486A2F
:1009400006F0C2FDCDE90E012C49086A06F0BCFD97
:10095000CDE90C012949C86906F0B6FDCDE90A01C7
:100960002649886906F0B0FDCDE90801DDE91001EE
:10097000CDE90601DDE90E01CDE90401DDE90C0157
:10098000CDE90201DDE90A01CDE900012BA0DDE995
:10099000082304F015F813B0BDE8F08F2DE9F041FD
:1009A00005460E461746984600F034FB002141EA02
:1009B0004501C8B200F0E2FB00F06DFB20B100F091
:1009C00049FB0120BDE8F081304600F0D7FB00F084
:1009D00062FB00240CE018F8040000F0CFFB00F0EC
:1009E0005AFB18B100F036FB0120EBE7601CC4B2E3
:1009F000BC42F0DB00F02EFB0020E3E77C0100208E
:100A0000786D61783A256409796D61783A256409D1
:100A10007A6D61783A25640900000000786D696E8E
:100A20003A256409796D696E3A2564097A6D696EB3
:100A30003A25640A000000000000F03F786F252E80
:100A400032660920796F252E326609207A6F252EAD
:100A500032660920252E32660920252E32660A00CC
:100A600070B505460C4600F0D5FAD02000F086FBA4
:100A700000F011FB18B100F0EDFA012070BD28461E
:100A800000F07CFB00F007FB204600F077FB00F055
:100A900002FB18B100F0DEFA0120EFE700F0DAFA0D
:100AA0000020EBE770B504460025BC2C01DB0125D6
:100AB00010E0622C01DB02250CE02A2C01DB03256F
:100AC00008E0142C01DB042504E00A2C01DB0525D9
:100AD00000E0062529461A20FFF7C2FF70BD70B559
:100AE0000446B4F57A7F01DD4FF47A74042C00DA01
:100AF00004244FF47A7090FBF4F0401EC5B22946EE
:100B00001920FFF7ADFF0546264604EBD671C1F369
:100B10004F00FFF7C7FF70BD70B5044600F07AFACA
:100B2000D02000F02BFB00F0B6FA204600F026FBA8
:100B300000F0B1FA00F06EFAD12000F01FFB00F0D7
:100B4000AAFA002000F045FB054600F083FA28468B
:100B500070BD10B50446E006010E1C20FFF780FFB3
:100B600010BD10B50446E006010E1B20FFF778FF0C
:100B700010BD10B580216B20FFF772FF642000F0DC
:100B8000D2FB00216B20FFF76BFF0320FFF7E9FF8B
:100B90000020FFF7DEFF3220FFF7A1FF0021382001
:100BA000FFF75EFF00216A20FFF75AFF0021232094
:100BB000FFF756FF80213720FFF752FF7520FFF720
:100BC000ABFF0446682C0FD101216B20FFF748FFD3
:100BD00000216C20FFF744FF4FF49670FFF77FFF72
:100BE000E7A003F0EDFE04E0EAA003F0E9FE012037
:100BF00010BD6FF06F00EB49C880652008810420AC
:100C000048810020E849C8800881488100BFEFE79B
:100C10002DE9F04106460F4614461D4600F0FAF94C
:100C2000002141EA4601C8B200F0A8FA00F033FA08
:100C300020B100F00FFA0120BDE8F081384600F045
:100C40009DFA00F028FA00F0E5F9012101EB4601D8
:100C5000C8B200F093FA00F01EFA0DE0012C04D1A6
:100C6000002000F0B6FA287003E0012000F0B1FA8D
:100C70002870601EC4B26D1C002CEFD100F0EAF9A0
:100C80000020D9E72DE9F84F6B4602224121682068
:100C9000FFF7BEFF9DF801009DF8001040EA01201B
:100CA0000FFA80FA504606F0CEF880460022BF4B7D
:100CB00005F042FF0646BE4ABE4B05F081FE0446E3
:100CC00005F04CFE8346BC49584606F0F5FD044647
:100CD00006F08AFD00B2BDE8F88F2DE9FC4780469A
:100CE000894692466B46062243216820FFF790FF13
:100CF0000446A4B99DF801009DF8001040EA0120C7
:100D000005B29DF803009DF8021040EA012006B2EA
:100D10009DF805009DF8041040EA012007B2A148A3
:100D2000C088281A00B29F49088008460089301AF6
:100D300000B2488008464089381A00B288802046B0
:100D4000BDE8FC872DE9FC478046894692466B4604
:100D500006223B216820FFF75BFF0446A4B99DF8FB
:100D600001009DF8001040EA012005B29DF8030043
:100D70009DF8021040EA012006B29DF805009DF89A
:100D8000041040EA012007B28748C088281A00B240
:100D90008549088008460089301A00B24880084614
:100DA0004089381A00B288802046BDE8FC872DE9CA
:100DB000F04105460E461746984600F02BF90021F3
:100DC00041EA4501C8B200F0D9F900F064F920B158
:100DD00000F040F90120BDE8F081304600F0CEF986
:100DE00000F059F900240CE018F8040000F0C6F9EE
:100DF00000F051F918B100F02DF90120EBE7601C6B
:100E0000C4B2BC42F0DB00F025F90020E3E72DE995
:100E1000F04F89B01E2008904FF000094FF0000AF3
:100E20004FF0000B002006900790052003906FF014
:100E30000400029053E000BF0A2000F074FA6B46F1
:100E4000062243216820FFF7E3FE0746A7B99DF875
:100E500001009DF8001040EA012004B29DF8030053
:100E60009DF8021040EA012005B29DF805009DF8AA
:100E7000041040EA012006B2BDF81800201A00B2A2
:100E8000ADF81000BDF81A00281A00B2ADF8120033
:100E9000BDF81C00301A00B2ADF81400ADF81840CF
:100EA000ADF81A50ADF81C60BDF910000528C3DC80
:100EB000BDF9100010F1050FBEDBBDF912000528C9
:100EC000BADCBDF9120010F1050FB5DBBDF9140055
:100ED0000528B1DCBDF9140010F1050FACDB089852
:100EE000411EC9B208910028A5D1804626E0052000
:100EF00000F019FA6B46062243216820FFF788FEAE
:100F00000746A7B99DF801009DF8001040EA0120AE
:100F100004B29DF803009DF8021040EA012005B2DA
:100F20009DF805009DF8041040EA012006B2A14496
:100F3000AA44B34408F1010000F0FF08B8F1640FBF
:100F4000D5DB642099FBF0F000B21649C88064201C
:100F50009AFBF0F000B2088164209BFBF0F000B235
:100F600048810846B0F90A30B0F90820B0F90610F7
:100F700012A003F025FD09B0BDE8F08F7047000016
:100F80004D505520494E49542053554343455353E2
:100F90000A0000004D505520494E495420455252F8
:100FA0004F520A00DC010020D001002000407540B3
:100FB000A4703D0AD74342400000C84267786F667C
:100FC000663A25640967796F66663A256409677A27
:100FD0006F66663A25640A0010B5022000F07FF9BA
:100FE00010BD08B50121082001F01AF84FF4406047
:100FF000ADF8000010208DF8030003208DF80200EA
:1010000069468D4800F050FD4FF440618A4800F079
:10101000F8FD08BD10B58848001D006820F4704038
:101020008549091D08600846006840F44050086082
:101030000120824908608249C1F8A801FFF7CCFF6E
:1010400000207E490860FFF7C7FF00207C49C1F8F7
:10105000A80110BD10B57848001D006820F470404C
:101060007549091D08600846006840F44050086052
:1010700000207249091F08607149C1F8AC01FFF7EF
:10108000ABFF01206D49091F08606D49C1F8AC0133
:10109000FFF7A2FF10BD10B500246748001D0068CF
:1010A00020F470406449091D08600846006840F457
:1010B00000400860012061490860FFF78DFF0120B2
:1010C0005F49C1F8A801FFF787FF07E0601CC4B2C1
:1010D000FA2C03DDFFF7BEFF012010BD5748803812
:1010E00000680028F2D15549091F086000BFF4E7E5
:1010F00010B500205149091F08604F48001D0068C5
:1011000020F470404C49091D08600846006840F40E
:101110004050086000204A49C1F8AC01FFF75CFF6D
:1011200001204649091F0860FFF756FF0020444987
:10113000C1F8A80110BD10B500204049091F086082
:101140003D48001D006820F470403B49091D0860BF
:101150000846006840F44050086001203849C1F852
:10116000AC01FFF739FF01203449091F0860FFF780
:1011700033FF00203249C1F8A80110BD70B5044604
:101180002D48001D006820F470402B49091D08609F
:101190000846006840F44050086000202749091FB5
:1011A0000860002512E0E009244908606006040E8A
:1011B00001202349C1F8A801FFF70EFF00201F49B5
:1011C000091F0860FFF708FF681CC5B2082DEADB9D
:1011D00070BD70B5054600241748001D006820F456
:1011E00070401549091D08600846006840F4004039
:1011F0000860002615E000201049091F0860FFF76D
:10120000EBFE01200E49C1F8A8016006040E0B4850
:101210008038006808B1601CC4B2FFF7DDFE701CA6
:10122000C6B2082EE7DB15B9FFF785FF01E0FFF72F
:101230005FFF204670BD0000000C0140AC812142E0
:10124000008021427FB505460C460121C80200F00E
:10125000E7FEADF80850ADF804400020ADF80A00F4
:10126000ADF806008DF80C0001A90F4801F010F848
:1012700001210D4801F068FB19208DF800000120C4
:101280008DF801008DF802008DF80300684600F02B
:1012900042FB0121044801F01DFE00220121024809
:1012A00001F06DFB7FBD0000002C014010B56FF018
:1012B000040000F07AFB2E4800682E49B0FBF1F0E4
:1012C0002D4908700846007800EB4001C1EBC010C2
:1012D0004FF6FF7101EAC0002849088010BD0146A1
:1012E000254A12784A434FF0E0235A6100229A615E
:1012F0001A46126942F001021A6100BF4FF0E02263
:10130000106900F001021AB100F48032002AF5D011
:101310004FF0E022126922F001024FF0E0231A613F
:1013200000229A6170470146144A12884A434FF0DE
:10133000E0235A6100229A611A46126942F00102C2
:101340001A6100BF4FF0E022106900F001021AB1EB
:1013500000F48032002AF5D04FF0E022126922F02A
:1013600001024FF0E0231A6100229A6170470000E9
:101370000C00002000127A00000000200200002073
:10138000014600BF704700BF494A128802F0400280
:10139000002AF9D0C2B2464B1B1D1A80704710B507
:1013A00086B00446012144F2040000F039FE4FF4F7
:1013B0000070ADF8140003208DF8160018208DF889
:1013C000170005A93B4800F06FFB4FF48060ADF8B3
:1013D000140004208DF8170005A9364800F064FBBE
:1013E00025208DF8000003208DF801008DF8020003
:1013F00001208DF80300684600F08DFA019400206A
:10140000ADF80800ADF80A00ADF80C00ADF810001A
:101410000C20ADF80E0001A9254801F0B6FD01220F
:1014200040F22551224801F048FE0121204801F0F8
:1014300038FE06B010BD10B540F225511C4801F031
:1014400021FF10B31A4801F09DFEC4B21A4800886B
:1014500000F40040C8B91848008800F4804060B12A
:101460000A2C03D000201449088020E0124800888C
:1014700040F400401049088019E00D2C06D10E48B8
:10148000008840F480400C49088010E00A48008839
:10149000C0F30D0009490C5407480088401C064958
:1014A000088008460088C72801DD0020088010BD9C
:1014B000003801400008014008000020E801002039
:1014C000704700BFFEE700BFFEE700BFFEE700BFBA
:1014D000FEE7704770477047704700000CB500206A
:1014E000019000906C48006840F480306A490860C0
:1014F00000BF6948006800F4003000900198401C6B
:101500000190009818B90198B0F5A06FF1D1624828
:10151000006800F4003010B10120009001E00020CC
:1015200000900098012843D15C48006840F010000A
:101530005A4908600846006820F003000860084621
:10154000006840F002000860534840685249486013
:101550000846406848600846406840F4806048603B
:101560000846406820F47C1048600846406840F413
:10157000E81048600846006840F08070086000BFCE
:101580004548006800F000700028F9D042484068E3
:1015900020F00300404948600846406840F00200DF
:1015A000486000BF3C48406800F00C000828F9D1B2
:1015B0000CBD10B5FFF792FF10BD10B5364800689E
:1015C00040F001003449086008464068344908404A
:1015D0003149486008460068324908402E49086091
:1015E0000846006820F4802008600846406820F41F
:1015F000FE0048604FF41F008860FFF7DAFF4FF0ED
:1016000000602949086010BD10B5002100200022AB
:10161000214B5B6803F00C0121B1042906D0082995
:1016200028D107E0214B224C236027E01F4B204CA0
:10163000236023E0184B5B6803F47010164B5B6863
:1016400003F48032022303EB904022B9194B434349
:10165000174C23600DE0104B5B6803F4003323B19B
:10166000144B4343124C236003E0104B4343104C94
:10167000236003E00D4B0E4C236000BF00BF064B00
:101680005B68C3F303130C4CE15C094B1B68CB4054
:10169000074C236010BD00000010024000200240F3
:1016A0000000FFF8FFFFF6FE08ED00E000127A00F0
:1016B0000C00002000093D00100000202DE9F04F33
:1016C0008BB001216F4801F008FC00287ED0012179
:1016D0006C4801F013FC6C480068401C6A490860C3
:1016E00008AA09A90AA8FFF7F8FA08AA09A90AA8E6
:1016F000FFF728FB03F0B9F803F066F86349B1F986
:10170000040006F08DF805466049B1F9020006F0C4
:1017100087F804465D49B1F9000006F081F80646F5
:101720005B49B1F9040006F07BF807465849B1F966
:10173000020006F075F880465549B1F9000006F040
:101740006FF881465348406952490969514AD26845
:101750003346CDE90045CDE9022104903A464146A1
:10176000484602F0C6FA484800680321B0FBF1F28F
:1017700001FB120000287BD1FEF724FE03F0C9F81C
:10178000454A5169434A506906F096F80446424A70
:101790001169404AD06806F08FF80546214605F0E9
:1017A000BFFE07903C4A11693A4A506906F084F836
:1017B00006463948C169304606F07EF80446364A86
:1017C0009169344A106906F077F800E057E007465F
:1017D000314AD1692F4AD06806F06EF880462E480B
:1017E0004169404606F068F80646394605F098FE1D
:1017F0000546214606F068F90690069805F064FE55
:1018000082468B46079805F05FFE804652465B464F
:1018100004F00AFF0646214A214B05F07BFB0446F3
:1018200005F09CF81C49C860C86805F04DFE0446E8
:101830000D461849486905F047FE06460F4615490A
:10184000086905F041FE804689461249C86805F0DE
:101850003BFE824652460B4600E009E011A0CDE96E
:101860000089CDE90267CDE9044503F0A9F800BF7E
:1018700005480068782802D10020034908600BB0B1
:10188000BDE8F08F002C014020000020D001002096
:10189000DC0100207C010020F0020020D9CEF753AB
:1018A000E3A54C406D7820252E3266096D79202500
:1018B0002E3266096D7A20252E3266097961775FAE
:1018C0006D616720252E32660A00000009488047B6
:1018D00009480047FEE7FEE7FEE7FEE7FEE7FEE712
:1018E000FEE7FEE7FEE7FEE704480549054A064B2A
:1018F00070470000BB150008310100088803002074
:10190000880900208805002088050020314901430E
:10191000314A1160704770B5002100230F22C4784E
:1019200004B32D4C246804F4E064C4F5E064210A97
:10193000C1F10403CA40447804FA03F184781440E6
:1019400021430901254C0678A155047804F01F05B0
:101950000124AC4005786D11AD0005F1E025C5F816
:10196000004109E0047804F01F050124AC401C4D3F
:101970000678761145F8264070BD1A4A0A4002439F
:10198000154B1B1F1A60704739B1134A121D12689C
:101990000243114B1B1D1A6006E00F4A121D12680C
:1019A00082430D4B1B1D1A607047042808D14FF06D
:1019B000E021096941F004014FF0E022116107E0E4
:1019C0004FF0E021096921F004014FF0E02211619C
:1019D000704700000000FA050CED00E000E400E0B4
:1019E00080E100E080FFFF1F10B50446CC48844230
:1019F00008D10121042000F02DFB0021042000F07B
:101A000029FB46E0C748844208D10121082000F0A4
:101A100021FB0021082000F01DFB3AE0C24884426F
:101A200008D10121102000F015FB0021102000F04A
:101A300011FB2EE0BD48844208D10121202000F096
:101A400009FB0021202000F005FB22E0B848844279
:101A500008D10121402000F0FDFA0021402000F0D3
:101A6000F9FA16E0B348844208D10121802000F041
:101A7000F1FA0021802000F0EDFA0AE0AE4884423D
:101A800007D10121801500F0E5FA0021A01500F032
:101A9000E1FA10BD10B50121084600F0DBFA002183
:101AA000012000F0D7FA10BD2DE9F04102460025D3
:101AB0000026002000230024002791F803C00CF02A
:101AC0000F0591F803C00CF0100CBCF1000F03D00F
:101AD00091F802C04CEA050591F800C0BCF1000F76
:101AE00031D0146800202BE04FF0010C0CFA00F309
:101AF000B1F800C00CEA03069E4220D183004FF0EB
:101B00000F0C0CFA03F7BC4305FA03FC4CEA04047F
:101B100091F803C0BCF1280F06D14FF0010C0CFA6C
:101B200000FCC2F814C00AE091F803C0BCF1480FF1
:101B300005D14FF0010C0CFA00FCC2F810C0401C9B
:101B40000828D1D31460B1F800C0BCF1FF0F34DD18
:101B5000546800202EE000F1080C4FF0010808FA4C
:101B60000CF3B1F800C00CEA03069E4221D18300B9
:101B70004FF00F0C0CFA03F7BC4305FA03FC4CEAD8
:101B8000040491F803C0BCF1280F05D100F1080C42
:101B900008FA0CF8C2F8148091F803C0BCF1480FA1
:101BA00007D100F1080C4FF0010808FA0CF8C2F850
:101BB0001080401C0828CED35460BDE8F0814FF659
:101BC000FF710180022181700421C17070470246BB
:101BD000002093680B400BB1012000E0002070470B
:101BE0000146886880B2704702460020D3680B40E7
:101BF0000BB1012000E0002070470146C86880B2A8
:101C0000704701617047416170470AB1016100E0AE
:101C100041617047C16070474FF480320A4382616E
:101C20008161826182698269704702460020434B6C
:101C300018684FF68073184040EA021008433F4B83
:101C4000186070473E49C8617047F0B50A460023E6
:101C500000240021002500F00046B6F1004F02D11B
:101C6000364EF16901E0354E7168C0F3034583B229
:101C700000F44016B6F5401F08D121F070612F4ED8
:101C8000766826F070662D4F7E6012E000F48016B4
:101C9000B6F5801F06D1032606FA05F4A14341F0EC
:101CA000706106E0460D360103FA06F6B14341F0D5
:101CB000706122B1460D360103FA06F6314300F099
:101CC0000046B6F1004F02D11C4EF16101E01B4EFF
:101CD0007160F0BD30B500228B071C0F0F2303FA93
:101CE00004F2164B08338C1053F824309343134CF2
:101CF00008348D1044F8253023468C1053F82430D6
:101D00008C07240F00FA04F423430C4C08348D1084
:101D100044F8253030BD0A49DC31086070470000C6
:101D200000080140000C0140001001400014014077
:101D300000180140001C014000200140000001404B
:101D400000002042DF48006840F00100DD490860E3
:101D500008464068DC490840DA494860084600689F
:101D6000DA490840D74908600846006820F4802016
:101D700008600846406820F4FE0048604FF41F00E9
:101D800088607047CF49096821F48031CD4A1160DD
:101D90001146096821F480211160B0F5803F03D01D
:101DA000B0F5802F0ED106E0C649096841F48031B4
:101DB000C44A116007E0C349096841F4A021C14A3F
:101DC000116000E000BF00BF704710B5014600225F
:101DD000002300204A11012A02D1BA4C236806E0F0
:101DE000022A02D1B74C236A01E0B64C636A01F0C3
:101DF0001F02012494401C400CB1012000E000208F
:101E000010BD38B5002000900024002500BF31200F
:101E1000FFF7DBFF05460098401C00900098B0F5E6
:101E2000A06F01D0002DF2D03120FFF7CEFF08B116
:101E3000012400E00024204638BD01460020A14ACC
:101E4000106820F0F80040EAC10010607047A04917
:101E500008607047024600209A4B586820F47C10B6
:101E600042EA01031843974B586070479849086647
:101E7000704701460020934A506820F00300084351
:101E8000506070478F48406800F00C007047014672
:101E900000208C4A506820F0F000084350607047E2
:101EA00001460020874A506820F4E06008435060F3
:101EB000704701460020834A506820F4605040EA91
:101EC000C1005060704729B17E4A527A02437D4B6F
:101ED0005A7204E07B4A527A82437A4B5A727047B4
:101EE0007B49D8310860704701460020754A506828
:101EF00020F440400843506070470021714A20326E
:101F00001170704A82F82010012802D004280AD1EA
:101F100004E001216B4A2032117005E00521694A75
:101F20002032117000E000BF00BF704769490860AF
:101F300070476449096A0143624A11627047654902
:101F400044390860704730B5002100220024002386
:101F50005C4D6D6805F00C0121B1042905D00829FC
:101F600023D105E05C4D056022E05B4D05601FE07C
:101F7000544D6D6805F47012524D6D6805F480344F
:101F8000022505EB92421CB9544D554305600BE008
:101F90004C4D6D6805F400351DB1504D554305603D
:101FA00002E04D4D5543056002E04B4D056000BF1A
:101FB00000BF444D6D6805F0F0010909484D6B5CA8
:101FC0000568DD4045603F4D6D6805F4E061090A34
:101FD000434D6B5C4568DD4085603A4D6D6805F4A6
:101FE0006051C90A3E4D6B5C4568DD40C560354DAA
:101FF0006D6805F44041890B3A4D6B5CC568B5FBD3
:10200000F3F5056130BD29B12E4A526902432D4BCB
:102010005A6104E02B4A526982432A4B5A61704745
:1020200029B1284A92690243264B9A6104E0254A65
:1020300092698243234B9A61704729B1214AD26940
:102040000243204BDA6104E01E4AD26982431D4BF1
:10205000DA61704729B11B4AD2680243194BDA6032
:1020600004E0184AD2688243164BDA60704729B1FF
:10207000144A12690243134B1A6104E0114A1269AF
:102080008243104B1A61704712494039086070470B
:102090000F49C86470470B49C87170470948406AC6
:1020A00040F0807007494862704701460020054AA9
:1020B00092680A400AB1012000E0002070470149FF
:1020C00088727047001002400000FFF8FFFFF6FE24
:1020D000000042428004424200127A0000093D00A2
:1020E000240000203400002010B50446FE4884423D
:1020F00008D10121C014FFF7ADFF0021E014FFF764
:10210000A9FFC4E0B4F1804F08D101210846FFF7D0
:10211000AEFF00210120FFF7AAFFB8E0F348844298
:1021200008D101210220FFF7A2FF00210220FFF7C2
:102130009EFFACE0EE48844208D101210420FFF765
:1021400096FF00210420FFF792FFA0E0E9488442B7
:1021500008D101210820FFF78AFF00210820FFF79E
:1021600086FF94E0E448844208D101211020FFF763
:102170007EFF00211020FFF77AFF88E0DF488442CD
:1021800008D101212020FFF772FF00212020FFF756
:102190006EFF7CE0DA48844208D101214014FFF749
:1021A00059FF00216014FFF755FF70E0D5488442C5
:1021B00009D10121C804FFF74DFF00214FF4002091
:1021C000FFF748FF63E0D048844209D101210805A8
:1021D000FFF740FF00214FF48010FFF73BFF56E070
:1021E000CA48844209D101214805FFF733FF002185
:1021F0004FF40010FFF72EFF49E0C548844208D194
:1022000001214020FFF733FF00214020FFF72FFF7F
:102210003DE0C048844208D101218020FFF727FF1C
:1022200000218020FFF723FF31E0BB48844208D122
:1022300001218015FFF71BFF0021A015FFF717FFF5
:1022400025E0B648844209D101210804FFF702FFC6
:1022500000214FF48030FFF7FDFE18E0B0488442C3
:1022600009D101214804FFF7F5FE00214FF40030A9
:10227000FFF7F0FE0BE0AB48844208D1012188044F
:10228000FFF7E8FE00214FF48020FFF7E3FE10BDCA
:1022900000220288944B98420ED0994B98420BD062
:1022A000B0F1804F08D0914B984205D0904B9842A6
:1022B00002D0904B984204D14FF68F731A404B884E
:1022C0001A438D4B984207D08C4B984204D04FF65E
:1022D000FF431A40CB881A4302808B8883850B8882
:1022E0000385814B98420BD0854B984208D08B4B8D
:1022F000984205D08A4B984202D08A4B984201D12D
:102300000B7A038601238382704770B50024002274
:102310000023058C4FF6FE7635400584028C8388B9
:10232000048B4FF68F752C40B51E2C400D882C4326
:10233000751E2A400D892A434D882A436A4DA842BA
:102340000BD06F4DA84208D0744DA84205D0744DF3
:10235000A84202D0734DA84213D14FF6F7752A4018
:102360004D892A434FF6FB752A408D882A434FF644
:10237000FF652B404FF6FF552B408D892B43CD89B0
:102380002B4383800483CD888586028470BD70B51D
:10239000002400220023058C4FF6EF76354005849B
:1023A000028C8388048B48F6FF752C404FF6FF455E
:1023B0002C400D884FF6FF7606EA05252C434FF694
:1023C000DF752A400D8906EA05152A434D8806EA7D
:1023D00005152A43444DA84202D0494DA8421DD1BB
:1023E0004FF67F752A404D894FF6FF7606EA0515B0
:1023F0002A434FF6BF752A408D8806EA05152A4301
:102400004FF6FF352B404FF2FF752B408D8906EAC2
:1024100085052B43CD8906EA85052B4383800483FC
:10242000CD880587028470BD70B50024002200238A
:10243000058C4FF6FF6635400584028C8388848BBB
:102440004FF68F752C404FF6FC752C400D882C43B1
:102450004FF6FF552A400D894FF6FF7606EA05250F
:102460002A434D8806EA05252A431F4DA84202D07B
:10247000234DA8421DD14FF2FF752A404D894FF6DA
:10248000FF7606EA05252A434FF6FF352A408D8858
:1024900006EA05252A434EF6FF752B404DF6FF75DB
:1024A0002B408D8906EA05152B43CD8906EA0515D3
:1024B0002B4383808483CD888587028470BD70B56B
:1024C000002200230024058C4EF6FF76354005845B
:1024D000038C8488828B48F6FF752A404FF6FF45AF
:1024E0002A400D8820E00000002C0140000400403C
:1024F00000080040000C00400010004000140040A4
:1025000000340140004C01400050014000540140A3
:1025100000180040001C0040002000400040014026
:1025200000440140004801404FF6FF7606EA0525C9
:102530002A434DF6FF752B400D8906EA05352B43DE
:102540004D8806EA05352B43FA4DA84202D0FA4DD4
:10255000A84208D14BF6FF752C408D894FF6FF76C7
:1025600006EA85152C4384808283CD88A0F84050EC
:10257000038470BD828B4FF2FF331A408283828BBB
:102580004FF6FF7303EA01231A4382837047F0B5C5
:102590000C461546002200210026078C4EF6FF7CD3
:1025A00007EA0C070784828B018C4FF6FF7707EA56
:1025B000043640F6FF473A404FF6FF7707EA052713
:1025C0003A434FF6FF7707EA03373A43D94FB84209
:1025D0000ED0D94FB8420BD0B0F1804F08D0D74FB2
:1025E000B84205D0D64FB84202D0D64FB84206D135
:1025F0004DF6FF77394046F48057394305E047F6FA
:10260000FF57394044F48057394382830184F0BD39
:10261000828B4FF6F3731A408283828B0A43828344
:102620007047F0B50C461546002200210026078CA5
:102630004FF6FF6C07EA0C070784828B018C4FF67C
:10264000FF7707EA04264FF60C773A404FF6FF77FC
:1026500007EA03172F433A43B64FB8420ED0B64F9E
:10266000B8420BD0B0F1804F08D0B44FB84205D07B
:10267000B34FB84202D0B34FB84206D14FF6FF571E
:10268000394046F48077394305E04FF2FF5739402F
:1026900044F48077394382830184F0BD028B4FF28A
:1026A000FF331A400283028B4FF6FF7303EA0123C4
:1026B0001A4302837047F0B50C46154600220021EC
:1026C0000026078C4FF6EF7C07EA0C070784028B85
:1026D000018C4FF6FF7707EA041640F6FF473A40B1
:1026E0004FF6FF7707EA03373A434FF6FF7707EADB
:1026F00005273A438F4FB8420ED08F4FB8420BD0C8
:10270000B0F1804F08D08D4FB84205D08C4FB84201
:1027100002D08C4FB84206D14FF6DF77394046F0F1
:102720001007394305E04FF65F77394044F0100752
:10273000394302830184F0BD028B4FF6F3731A40D4
:102740000283028B0A4302837047F0B50C4615469C
:1027500000220021068C4FF6FE773E400684028B55
:10276000018C4FF60C7632407E1C06EA03162E438F
:102770003243704EB0420ED06F4EB0420BD0B0F12B
:10278000804F08D06D4EB04205D06D4EB04202D0A1
:102790006C4EB04206D14FF6FD76314044F0010652
:1027A000314305E04FF6F576314044F00106314300
:1027B00002830184F0BD70B505460C465D48854234
:1027C0000ED05D4885420BD0B5F1804F08D05B48F4
:1027D000854205D05A48854202D05A48854200D1E8
:1027E00000E000BF208850B92389A288618828466C
:1027F000FFF7ABFFE1882846FFF79EFF25E0208822
:1028000004280AD12389A28861882846FFF753FF4C
:10281000E1882846FFF742FF17E0208808280AD100
:102820002389A28861882846FFF7FBFEE1882846B5
:10283000FFF7EEFE09E02389A28861882846FFF7AA
:10284000A6FEE1882846FFF795FE70BD2DE9F04110
:1028500005460C4600260127608808B9022600E0DC
:102860000026A088012801D1022700E00127208846
:10287000A0B92389A28861882846FFF766FFE1880E
:102880002846FFF759FF23893A4631462846FFF785
:1028900012FFE1882846FFF701FF13E02389A28891
:1028A00061882846FFF707FFE1882846FFF7F6FE14
:1028B00023893A4631462846FFF747FFE1882846F4
:1028C000FFF73AFFBDE8F0810A884B881A438B88EE
:1028D0001A43CB881A430B891A434B891A438B89B5
:1028E0001A43A0F8442070474FF6FF718180002101
:1028F0000180C180418001727047002101804180C8
:102900008180C180018141818181C1817047002125
:1029100001804180012181800021C18001817047B7
:102920000021018041808180C180018141818181BC
:1029300070470000002C01400034014000040040BA
:1029400000080040000C004021B1028842F0010262
:10295000028004E002884FF6FE731A40028070473E
:1029600031B1B0F8442042F40042A0F8442005E020
:10297000B0F84420C2F30E02A0F8442070471AB108
:1029800083890B43838102E083898B438381704772
:102990008182704741EA0203A0F8483070471AB1BB
:1029A00083890B43838102E083898B438381704752
:1029B00001894FF6F8721140018170470A460021E3
:1029C00001894FF68F73194011430181704730B56B
:1029D00004460D4629462046FFF7F0FF208940F0C7
:1029E0000700208130BD2DE9F04104460D46164612
:1029F0001F46602D06D13B46012231462046FFF797
:102A00005AFE05E03B46012231462046FFF79DFE77
:102A100029462046FFF7D2FF208940F00700208199
:102A2000BDE8F08130B50C4600210189C9B24FF6EE
:102A3000FF7505EA0325154325432943018130BD70
:102A40002DE9F04105460E461746984600244346B8
:102A50003A4631462846FFF7E5FF2C894FF6F870D5
:102A6000044044F007044FF68F70044044F07004B3
:102A70002C81BDE8F081F0B504460D4616461F4690
:102A80003B46324629462046FFF7CCFF208940F4DA
:102A900080402081F0BD0185828270470A46002176
:102AA00001884FF68F731940114301807047F0B5CC
:102AB0000C4615461E460021002200230189028B88
:102AC000038C4FF6F877394021434FF6FC473A40E4
:102AD00040F201173A434FF6DD773B404FF6FF7760
:102AE00007EA06172F433B43018102830384F0BDAD
:102AF0000A460021018B4FF68F7319401143018361
:102B000070470A460021018B48F6FF7319404FF6C3
:102B1000FF7303EA02231943018370470A46002129
:102B2000818B4FF68F7319401143818370470A469A
:102B30000021818B48F6FF7319404FF6FF7303EABB
:102B4000022319438183704721B1028842F0800239
:102B5000028004E002884FF67F731A4002807047BB
:102B600021B1828842F00402828004E082884FF61C
:102B7000FB731A408280704721B1828842F00802BC
:102B8000828004E082884FF6F7731A408280704793
:102B900021B1828842F00102828004E082884FF6EF
:102BA000FE731A40828070470A460021018B4FF65F
:102BB000F77319401143018370470A460021018BC6
:102BC0004FF2FF7319404FF6FF7303EA02231943D4
:102BD000018370470A460021818B4FF6F773194035
:102BE0001143818370470A460021818B4FF2FF73A6
:102BF00019404FF6FF7303EA02231943818370479C
:102C00000A460021018B4FF6FB73194011430183E3
:102C100070470A460021018B4FF6FF3319404FF6EB
:102C2000FF7303EA02231943018370470A46002118
:102C3000818B4FF6FB7319401143818370470A461D
:102C40000021818B4FF6FF3319404FF6FF7303EAE3
:102C500002231943818370470A460021018B4FF6F6
:102C60007F7319401143018370470A460021018B8D
:102C7000C1F30E014FF6FF7303EA022319430183E8
:102C800070470A460021818B4FF67F73194011432C
:102C9000818370470A460021818BC1F30E014FF6F4
:102CA000FF7303EA02231943818370470A46002118
:102CB000018C4FF6FD7319401143018470470A4699
:102CC0000021018C4FF6F7731940114301847047BE
:102CD0000A460021018C4FF6DF7319404FF6FF734F
:102CE00003EA02131943018470470A460021018C4C
:102CF0004FF67F7319404FF6FF7303EA021319432F
:102D0000018470470A460021018C4FF6FF53194099
:102D10004FF6FF7303EA02231943018470470A4602
:102D20000021018C4FF2FF7319404FF6FF7303EA45
:102D300002231943018470470A460021018C4DF695
:102D4000FF7319404FF6FF7303EA023319430184FE
:102D5000704730B5002301248C40A3B2048C9C43FF
:102D60000484048C02FA01F5ADB22C43048430BD16
:102D700030B5002304248C40A3B2048C9C4304840B
:102D8000048C02FA01F5ADB22C43048430BD70B559
:102D90000346002000241846183001258D40ACB2AF
:102DA0001D8CA5431D8409B1082909D100EB6100E0
:102DB000056825F0700505600568154305600EE09F
:102DC0000D1FC5F34E052844056825F4E045056050
:102DD00005684FF6FF7606EA02263543056070BDAA
:102DE00021B1028842F00202028004E002884FF61C
:102DF000FD731A400280704721B1028842F004023C
:102E0000028004E002884FF6FB731A40028070478C
:102E100021B1828842F08002828004E082884FF6ED
:102E20007F731A408280704702884FF6F7731A400A
:102E3000028002880A430280704782884FF68F73AF
:102E40001A40828082880A438280704702894FF646
:102E5000F8731A40028102890A430281704702898D
:102E60004FF67F731A40028102890A43028170473C
:102E700081847047818570478186704701877047DC
:102E800081877047A0F84010704702884FF6FF43D3
:102E90001A40028002880A43028070470146888EE9
:102EA00070470146088F70470146888F704701467A
:102EB000B1F8400070470146888C70470146088D84
:102EC000704702460020138A0B400BB1012000E03E
:102ED00000207047CA430282704730B50246002086
:102EE00000230024158A05EA0103958905EA0104F7
:102EF00013B10CB1012000E0002030BDCA430282B2
:102F00007047000010B50446FB48844209D10121F6
:102F10008803FFF79FF800214FF48040FFF79AF8ED
:102F200032E0F648844209D101214804FFF79FF8B6
:102F300000214FF40030FFF79AF825E0F048844272
:102F400009D101218804FFF792F800214FF4802075
:102F5000FFF78DF818E0EB48844209D10121C8043D
:102F6000FFF785F800214FF40020FFF780F80BE011
:102F7000E548844208D101210805FFF778F80021CF
:102F80004FF48010FFF773F810BD2DE9F04786B0BD
:102F900005460E460024A24600BFA1460027B08980
:102FA00000B100BF2F462C8A4CF6FF700440F08819
:102FB00004432C82AC894EF6F3100440B08831896A
:102FC0000843718908430443AC81AC8A4FF6FF4043
:102FD0000440B0890443AC8201A8FEF7B4FFC648A0
:102FE000874202D1DDF810A001E0DDF80CA0A8892D
:102FF00000F4004040B10AEBCA0000EB0A1031684F
:103000004900B0FBF1F807E00AEBCA0000EB0A1038
:1030100031688900B0FBF1F86420B8FBF0F00401DE
:103020002009642101FB1089A88900F4004040B107
:10303000322000EBC900B0FBF1F000F007000443C0
:1030400008E0322000EB09106421B0FBF1F000F041
:103050000F0004432C8106B0BDE8F0874FF41651F1
:10306000016000218180C18001810C21418100210A
:103070008181704710B502460020108A4FF2FF038D
:1030800018400B884C8823438C882343CC882343E7
:103090001843108210BD0021018041808180C180D1
:1030A000704721B1828942F40052828104E0828912
:1030B0004DF6FF731A4082817047F0B50346002435
:1030C00000260025002040F66A17B94200D100BF53
:1030D0001846C1F3421401F01F06012707FA06F54E
:1030E000012C01D10C3004E0022C01D1103000E0A1
:1030F00014301AB107682F43076002E00768AF4336
:103100000760F0BD1AB1838A0B43838202E0838A91
:103110008B4383827047028A4FF6F0731A40028213
:10312000028A0A430282704782894FF2FF731A4073
:10313000828182890A438281704721B1828942F06B
:103140000202828104E082894FF6FD731A40828177
:103150007047028A4FF6DF731A400282028A0A43DE
:103160000282704721B1028A42F48042028204E066
:10317000028A4BF6FF731A4002827047C1F30802BD
:103180008280704701468888C0F3080070478189B3
:1031900041F0010181817047028BD2B20283028B20
:1031A00042EA012202837047028B02F47F420283CB
:1031B000028B0A430283704721B1828A42F02002C7
:1031C000828204E0828A4FF6DF731A40828270475F
:1031D00021B1828A42F01002828204E0828A4FF694
:1031E000EF731A408282704721B1828A42F008024E
:1031F000828204E0828A4FF6F7731A408282704717
:1032000021B1828942F40042828103E08289C2F3C3
:103210000E028281704721B1828A42F4006282826A
:1032200004E0828A4FF2FF731A4082827047828ADA
:103230004FF6FB731A408282828A0A438282704769
:1032400021B1828A42F00202828204E0828A4FF631
:10325000FD731A408282704702460020B1F5007F5C
:1032600000D100BF13880B400BB1012000E000200B
:10327000704701F40072B2F5007F00D100BFCA436D
:103280000280704770B5024600240023002500200C
:1032900040F66A16B14200D100BFC1F3421501F0F9
:1032A0001F03012606FA03F3012D02D1968933404C
:1032B00006E0022D02D1168A334001E0968A33409F
:1032C0000C12012606FA04F41688344013B10CB12E
:1032D000012000E0002070BD10B50022002340F660
:1032E0006A14A14200D100BF0A1201249440A3B283
:1032F000DC43048010BD0000003801400044004061
:1033000000480040004C0040005000402DE9F041D2
:1033100004460D462169206804F002F96060616985
:10332000606804F0FDF806463146606804F066F90E
:10333000E0602846A16804F0C7FB0746E16804F096
:10334000BBFA0646A16804F0EBF8A0604FF07E508F
:10335000E16804F0B9FB0646616804F0ADFA20604C
:10336000BDE8F0812DE9F04F8DB007460D461646B9
:103370004FF07C5B4FF07E500C90FE480B900A9013
:10338000FD480168284604F09FFB3146019004F097
:1033900093FA8246F9480168504604F0C1F8F749AB
:1033A0004860F7484168F34804F08EFB8246F448D1
:1033B0008168504604F088FB0290F148C06880F0B4
:1033C00000400390EE48C06880F000400490E94857
:1033D00005903146029804F06FFA8246E848016889
:1033E000504604F09DF8E64908603146039804F021
:1033F00063FA8246E2484168504604F091F8E04999
:1034000048603146049804F057FA8246DC488168E7
:10341000504604F085F8DA4988603146059804F092
:103420004BFA8246D648C168504604F079F8D44930
:10343000C860084601684FF07E5004F03DFA04462B
:10344000CF4881684FF07E5004F036FA069021464E
:103450004FF07E5004F030FA8246594604F060F88E
:1034600081464946204604F0C9F809904946069825
:1034700004F0C4F80890A046C14841684FF07E505F
:1034800004F01AFA07904146099804F015FA8246AA
:10349000BB480168504604F00CFBB9490860079925
:1034A000099804F009FA8246B5484168504604F08C
:1034B00000FBB34948604146089804F0FDF9824694
:1034C000AF488168504604F0F4FAAD498860DDE900
:1034D000071004F0F1F98246A948C168504604F08B
:1034E000E8FAA749C860A5484168384604F0ECFAF4
:1034F0000190099904F0E0F98246A04841685046DD
:1035000004F00EF89D49886008464168384604F08A
:10351000DBFA0190089904F0CFF9824696480168D9
:10352000504603F0FDFF9449086094488068934931
:103530000860084680680DB0BDE8F08F0160426009
:103540004FF07E538360C3608E4B03618E4B4361AB
:1035500070472DE9F04704460D462168A06804F045
:10356000ABF92060A168084604F0A6F90746616837
:1035700004F0A2F90646216903F0D2FF6060E16819
:10358000606804F099F98146E16804F095F907460E
:10359000616903F0C5FF0646E168606804F08CF9D4
:1035A0008046314604F02AF8A0612168E06804F002
:1035B00083F98046294604F07CFA0746A16904F0A5
:1035C0007BF90646216803F0ABFF2060E168A06943
:1035D00004F072F907464FF07E5104F06AFA06468D
:1035E000616804F069F960602068BDE8F08710B593
:1035F0000B6803604B684360136883605468C46061
:1036000094680461D46844614FF07E5383615F4CD9
:10361000C461002404621C46446283620024C462C4
:103620005B4B03631C464463836310BD2DE9F05F6D
:1036300004460D466168E06904F03EF98146216860
:10364000A06904F039F98246494603F069FF206019
:103650006168606A04F030F981462168206A04F0EC
:103660002BF98246494603F05BFF60602169E069FF
:1036700004F022F98246A168A06904F01DF983468E
:10368000514603F04DFF8146216B03F049FFA060D6
:103690006169606A04F010F98146E168A06904F08C
:1036A0000BF98246494603F03BFFE0602169E0697F
:1036B00004F002F98146A168206A04F0FDF8824610
:1036C000494603F02DFF20616169606A04F0F4F857
:1036D0008246E168206A04F0EFF88346514603F021
:1036E0001FFF8146616B03F01BFF6061E16AE068C8
:1036F00004F0E2F88146A16AA06804F0DDF8824691
:10370000494603F00DFF0646E16A606904F0D4F80B
:103710008146A16A206904F0CFF88246494603F049
:10372000FFFE07463946E06A04F0C6F88246314695
:10373000A06A04F0C1F88346A16B03F0F1FE814654
:10374000514603F0EDFE80464146304603F056FFF9
:10375000E0634146384603F051FF20646168E06A47
:1037600004F0AAF881462168A06A04F0A5F8824610
:1037700049460FE06F12833ACC000020D4020020AB
:10378000E0020020000048430000FA43CDCCCC3DCD
:10379000BD37863503F0C4FE80464146284604F016
:1037A00093F98246E16B04F087F88146216803F0C3
:1037B000B7FE20604146284604F086F98246216C17
:1037C00004F07AF88146616803F0AAFE6060A16A9D
:1037D000E06B04F071F882464FF07E5104F069F915
:1037E0008146A16804F068F8A060E16AE06B04F02B
:1037F00063F882464FF07E5104F05BF98146E16840
:1038000004F05AF8E060A16A206C04F055F8824692
:103810004FF07E5104F04DF98146216904F04CF8D7
:103820002061E16A206C04F047F882464FF07E5137
:1038300004F03FF98146616904F03EF86061206858
:10384000BDE8F09F2DE9F04106460F469046002462
:1038500018E0002512E004EB44022A4457F8221035
:1038600004EB44022A4456F8220003F059FE04EB0C
:103870004401294448F82100681CC5B2032DEADB45
:10388000601CC4B2032CE4DBBDE8F0812DE9F041FB
:1038900006460F469046002418E0002512E004EB8F
:1038A00044022A4457F8221004EB44022A4456F8F2
:1038B000220004F009F904EB4401294448F82100EE
:1038C000681CC5B2032DEADB601CC4B2032CE4DB28
:1038D000BDE8F0812DE9F047804689461646002470
:1038E0002DE0002527E0002004EB4401294446F8A0
:1038F000210000271BE007EB47022A4459F8221059
:1039000004EB44023A4458F8220003F0D5FF824603
:1039100004EB4400284456F82010504603F000FE03
:1039200004EB4401294446F82100781CC7B2032F58
:10393000E1DB681CC5B2032DD5DB601CC4B2032CCF
:10394000CFDBBDE8F08703B5CFB0CC4A1046509925
:10395000FFF778FFCA4ACB491046FFF773FF44AA26
:10396000C6494F98FFF792FF17AAC749C448FFF707
:1039700069FF189809901F980890099903F09CFF17
:103980000A901A98014609900A9803F095FF0C9046
:103990001E9807901C980690079903F08DFF0890D9
:1039A000179801460790089803F086FF0A901B9825
:1039B000059019980490059903F07EFF06901D98D4
:1039C00001460590069803F077FF08901A98039037
:1039D00019980290039903F06FFF04901E98014616
:1039E0000390049803F068FF06901C9801901898C3
:1039F0000090019903F060FF02901D98014601902C
:103A0000029803F059FF04901B98019017980090BA
:103A1000019903F051FF02901F980146019002980E
:103A200003F04AFF0390049903F07AFD059006998C
:103A300003F076FD0790089904F046F809900A997A
:103A400004F042F80B900C9904F03EF80D901E988B
:103A500009901C980890099903F02EFF0B901F986D
:103A600009901B980890099903F026FF0A900B997A
:103A700004F02AF80C900D9903F0C0FD0E901F98E9
:103A8000099018980890099903F016FF0B901E985A
:103A9000099019980890099903F00EFF0A900B9964
:103AA00004F012F80C900D9903F0A8FD0F901D98EA
:103AB00009901B980890099903F0FEFE0B901E9840
:103AC000099018980890099903F0F6FE0A900B994E
:103AD00003F0FAFF0C900D9903F090FD10901F98E1
:103AE00009901A980890099903F0E6FE0B901D982A
:103AF00009901C980890099903F0DEFE0A900B9932
:103B000003F0E2FF0C900D9903F078FD11901D98E1
:103B1000099019980890099903F0CEFE0B901F9810
:103B2000099017980890099903F0C6FE0A900B991E
:103B300003F0CAFF0C900D9903F060FD12901C98E1
:103B4000099017980890099903F0B6FE0B901A98FF
:103B5000099019980890099903F0AEFE0A900B9904
:103B600003F0B2FF0C900D9903F048FD13901D98DF
:103B700009901B980890099903F09EFE0B901E98DF
:103B800009901A980890099903F096FE0A900B99EB
:103B900003F09AFF0C900D9903F030FD14901E98DD
:103BA000099017980890099903F086FE0B901D98CC
:103BB000099018980890099903F07EFE0A900B99D5
:103BC00003F082FF0C900D9903F018FD15901A98E0
:103BD000099018980890099903F06EFE0B901B98B5
:103BE000099017980890099903F066FE0A900B99BE
:103BF00003F06AFF0C900D9903F000FD169032AAB5
:103C00000EA91F48FFF766FE29AA44A932A8FFF7AC
:103C100061FE1A4A29A91046FFF714FE20AA32A90C
:103C20001A48FFF733FE3BAA154920A8FFF752FEBA
:103C300000204E901DE000204D9013E04E9800EBC8
:103C400040014D9808443BA951F820104E9800EBD4
:103C500040024D9810440A4A42F820104D98401CEA
:103C6000C0B24D904D980328E8DB4E98401CC0B27E
:103C70004E904E980328DEDB51B000BDB00200200C
:103C80003C000020A80000208400002060000020EC
:103C90002DE9F05F04464FF07F594FF07C512046EC
:103CA00003F00AFE824625462E46FE48A0EB660635
:103CB00035462946504603F0FFFD8346294603F06A
:103CC000FBFD8046494603F0F4FE0746294603F013
:103CD000F3FD05462846BDE8F09F10B504460021D7
:103CE000204603F0B5FD02D284F0004010BD20460E
:103CF000FCE70FB5A9B0EC480168006803F0DCFDF3
:103D00001290EA480168E848006803F0D5FD119078
:103D1000E7480168E448006803F0CEFD1090E548EC
:103D20000168E148006803F0C7FD0F90DF480168B3
:103D3000006803F0C1FD0E90DD480168DB480068B3
:103D400003F0BAFD0D90DB480168D848006803F025
:103D5000B3FD0C90D6480168006803F0ADFD0B90F0
:103D6000D4480168D248006803F0A6FD0A90D14803
:103D70000168006803F0A0FD09902B9803F0A4FBF4
:103D8000CD4ACE4BCDE9040103F0C4F8CDE90601DC
:103D900002F0E4FD0890299803F096FBC84AC94B4D
:103DA000CDE9020102F0C8FEC74AC84BCDE90401C3
:103DB00003F0B0F8CDE9060102F0D0FD29902A9871
:103DC00003F082FBBE4ABF4BCDE9020102F0B4FE14
:103DD000BD4ABE4BCDE9040103F09CF8CDE90601D4
:103DE00002F0BCFD2A902B9803F06EFBB44AB54B51
:103DF000CDE9020102F0A0FEB34AB44BCDE90401C3
:103E000003F088F8CDE9060102F0A8FD2B902F9968
:103E1000084603F051FD06902E99084603F04CFD2C
:103E200004902C99084603F047FD0390049903F091
:103E300077FB0590069903F073FB0790FFF728FFC7
:103E4000219021992C9803F037FD2C9021992E98E0
:103E500003F032FD2E9021992F9803F02DFD2F9025
:103E60003299084603F028FD06903199084603F080
:103E700023FD04903099084603F01EFD0390049939
:103E800003F04EFB0590069903F04AFB0790FFF7FD
:103E9000FFFE21902199309803F00EFD309021997A
:103EA000319803F009FD31902199329803F004FD17
:103EB000329010990C9803F033FB0490329903F080
:103EC000FBFC06900F990D9803F0FEFD02903199CE
:103ED00003F0F2FC04904FF07C500B9903F0F4FDDA
:103EE0000190099903F0F0FD0290309903F0E4FC91
:103EF0000390049903F014FB0590069903F010FB5E
:103F00004FF08041079003F0D7FC209011990A9858
:103F100003F0DAFD0490329903F0CEFC06904FF0E6
:103F20007C500E9903F0D0FD0190099903F0CCFD6F
:103F30000290319903F0C0FC04900F990D9803F0A2
:103F4000EFFA0290309903F0B7FC0390049903F064
:103F5000E7FA0590069903F0E3FA4FF080410790E5
:103F600003F0AAFC1F904FF07C500E9903F0ACFDBB
:103F700003900B9903F0A8FD05904FF08040329913
:103F800003F09AFC0490059903F096FC07901199B0
:103F90000A9803F0C5FA03904FF08040319903F07E
:103FA0008BFC0290039903F087FC059010990C9804
:103FB00003F08AFD03904FF08040309903F07CFCC1
:103FC0000290039903F078FC0490059903F0A8FA95
:103FD0000690079903F0A4FA1E901F99084603F073
:103FE0006BFC02902099084603F066FC0190029950
:103FF00003F096FA039003F067FACDE9040102F0AA
:1040000071FCCDE9060102F0A9FC1D901E981C90E0
:1040100010990C9803F058FD4FF08041079003F081
:104020004BFC1B900A99119803F07AFA4FF08041EB
:10403000079003F041FC1A900E99129803F044FD8A
:1040400006900B9903F040FD0790099903F068FA78
:10405000199010990C9803F037FD05904FF08040AF
:104060001C9903F029FC0490059903F025FC0790A6
:104070004FF07C500B9903F027FD0390099903F052
:1040800023FD05904FF080401D9903F015FC04902E
:10409000059903F011FC0690079903F041FA189076
:1040A0000A9915E0DF59375FD0000020D4000020C6
:1040B000D8000020DC00002030689DC8FE3F9F3FF4
:1040C00052B81E85EB614040AF99D76C40DF913FFD
:1040D000119803F025FA05904FF080401C9903F0E9
:1040E000EBFB0490059903F0E7FB07900F990D98FF
:1040F00003F0EAFC05904FF080401D9903F0DCFBD3
:104100000490059903F0D8FB0690079903F008FA8C
:1041100017904FF07C500E9903F0D6FC03900B994A
:1041200003F0D2FC05904FF080401C9903F0C4FBD3
:104130000490059903F0C0FB07900C99109803F0C8
:10414000EFF905904FF080401D9903F0B5FB049006
:10415000059903F0B1FB0690079903F0E1F9169079
:104160001799329803F0A8FB05901699319803F03F
:10417000A3FB0490059903F0A7FC07901A992F98C8
:1041800003F09AFB059019992E9803F095FB049083
:10419000059903F099FC0690079903F0C1F9159071
:1041A0001699309803F088FB05901899329803F01F
:1041B00083FB0490059903F087FC079019992C98CC
:1041C00003F07AFB05901B992F9803F075FB049080
:1041D000059903F079FC0690079903F0A1F9149072
:1041E0001899319803F068FB05901799309803F0FF
:1041F00063FB0490059903F067FC07901B992E98C8
:1042000003F05AFB05901A992C9803F055FB049083
:10421000059903F059FC0690079903F081F9139072
:104220000021159803F0ACFA2DD00021149803F06A
:10423000A7FA28D00021139803F0A2FA23D0FE4950
:10424000159803F039FB0790FC480168079803F0C4
:1042500067F9FA490860F849149803F02DFB0790B4
:10426000F7480168079803F05BF9F5490860F249DF
:10427000139803F021FB0790F2480168079803F0B8
:104280004FF9F04908602E98FFF727FD059003F0DD
:104290001BF9ED4AED4BCDE9060102F0FFFD21D2FD
:1042A0004FF07E512F9803F00FFC0490FFF715FD9F
:1042B000059003F009F9E44AE44BCDE9060102F068
:1042C000EDFD0FD2E248159903F0F6FA0690299910
:1042D00003F026F90790D9480168079803F020F900
:1042E000299001E0299829902C98FFF7F6FC059079
:1042F00003F0EAF8D44AD54BCDE9060102F0CEFD31
:1043000021D24FF07E512F9803F0DEFB0490FFF78F
:10431000E4FC059003F0D8F8CB4ACC4BCDE906017C
:1043200002F0BCFD0FD2CA48149903F0C5FA0690FA
:104330002A9903F0F5F80790C1480168079803F03F
:10434000EFF82A9001E02A982A902C98FFF7C5FCF4
:10435000059003F0B9F8BC4ABC4BCDE9060102F068
:104360009DFD1CD22E98FFF7B8FC059003F0ACF829
:10437000B54AB64BCDE9060102F090FD0FD2B44824
:10438000139903F099FA06902B9903F0C9F8079056
:10439000AC480168079803F0C3F82B9001E02B9814
:1043A0002B90AC482B99006803F086FA0590AA4838
:1043B0002A99006803F080FA0390A848006880F00A
:1043C00000400190299903F077FA0290039903F0D5
:1043D0007BFB0490059903F077FBA149069003F05D
:1043E0006BFA07909F480168079803F099F89D4978
:1043F000086098482A99006803F05EFA059096488C
:104400002B99006803F058FA0390964801682998A0
:1044100003F052FA0290039903F082F80490059990
:1044200003F052FB8E49069003F046FA07908B4842
:104430000168079803F074F88849086085480168A6
:10444000299803F039FA059084482B99006803F005
:1044500033FA039083482A99006803F02DFA0290FA
:10446000039903F031FB0490059903F059F87C4956
:10447000069003F021FA079077480168079803F047
:104480004FF87549086008460168299803F014FA46
:10449000059072482A99006803F00EFA039071485B
:1044A0002B99006803F008FA0290039903F038F89A
:1044B0000490059903F008FB6949069003F0FCF9A4
:1044C000079064480168079803F02AF8614908607A
:1044D0000E99129803F024F805900B9903F020F838
:1044E0000690099903F01CF80790FFF7D1FB219083
:1044F0005C482199006803F0DFF95A490860574881
:104500002199006803F0D8F954490860524821996C
:10451000006803F0D1F9504908604E4821990068BD
:1045200003F0CAF94B4908604FF080400B9903F043
:10453000C3F901904FF040400E9903F0BDF900908F
:10454000019903F0C1FA4FF07E51029002F0E8FFAA
:10455000039002F0B9FFCDE906014FF080401199B8
:1045600003F0AAF902904FF080400A9903F0A4F9F1
:104570000190029902F0D4FF039002F0A5FFCDE96B
:104580000401DDE9062302F04FF8CDE926014FF0E2
:104590008040109903F090F904904FF040400C993E
:1045A00003F08AF90390049902F0BAFF059002F033
:1045B0008BFFCDE9060101F0EFFDCDE924014FF0BD
:1045C0008040099903F078F902904FF080400B99F0
:1045D00003F072F94FF07E51009003F06AFA0190F7
:1045E000029903F071FA039002F06EFFCDE9060123
:1045F0004FF080400F9903F05FF902904FF0804038
:104600000D9903F059F90190029902F089FF039086
:1046100002F05AFFCDE90401DDE9062302F004F8B7
:10462000CDE92201104A114BDDE9260102F072FCAE
:10463000CDE926010C4A1BE017B7D138E000002075
:10464000E4000020E8000020CDCCCCCCCCCCEC3F6A
:1046500000002041DC000020D8000020D400002011
:104660000AD7233BD000002031B3CF6394A94C403C
:10467000504BDDE9240102F04DFCCDE924014E4A06
:104680004C4BDDE9220102F045FCCDE92201DDE9D8
:10469000240102F063F949498860DDE9260102F04E
:1046A0005DF946494860DDE9220102F057F94349C6
:1046B000086008464068019002F006FF404A414BFE
:1046C000CDE9020102F026FCCDE9040102F06CF80C
:1046D000CDE9060102F042F9384988610846406890
:1046E000019002F0F1FE364A364BCDE9020102F0AC
:1046F00011FCCDE9040102F0A5F8CDE9060102F0B4
:104700002DF92E49C86108468068019002F0DCFE50
:104710002B4A2C4BCDE9020102F0FCFBCDE9040150
:1047200002F042F8CDE9060102F018F923490861C8
:1047300008468068019002F0C7FE214A214BCDE96E
:10474000020102F0E7FBCDE9040102F07BF8CDE9BC
:10475000060102F003F91949486108460068019012
:1047600002F0B2FE164A174BCDE9020102F0D2FB6D
:10477000CDE9040102F018F8CDE9060102F0EEF8E7
:104780000E49086208460068019002F09DFE0C4A3E
:104790000C4BCDE9020102F0BDFBCDE9040102F0B2
:1047A00051F8CDE9060102F0D9F8044948622DB06C
:1047B00000BD000094A94C4031B3CF63F00200204B
:1047C0005F40D42247DF913F2DE9F0417249B1F9B2
:1047D000000002F038FB07460022704B02F09AFB03
:1047E000054602F0BBF8044621466D48FEF78EFDF3
:1047F0006949B1F9020002F026FB07460022674B27
:1048000002F088FB054602F0A9F8044621466448F8
:104810001830FEF77BFD6049B1F9040002F013FB8C
:10482000074600225D4B02F075FB054602F096F844
:10483000044621465A483030FEF768FD58498868DA
:1048400002F0D2FF00B2544908805549086A02F0CC
:10485000CBFF00B2504948805149886B02F0C4FF39
:1048600000B24D498880BDE8F0812DE9F0414D4E00
:104870004D49B1F9000002F0D3FF8046314603F004
:104880001BF8054649490868494903F015F80746E9
:10489000294602F045FE45490446086002F0A4FF9F
:1048A00000B241490880B1F9020002F0B9FF804628
:1048B000314603F001F805463C4948683C4902F09E
:1048C000FBFF0746294602F02BFE384904464860A4
:1048D00002F08AFF00B234494880B1F9040002F0C6
:1048E0009FFF8046314602F0E7FF05462F49886862
:1048F0002F4902F0E1FF0746294602F011FE2B493D
:104900000446886002F070FF00B227498880BDE845
:10491000F0812DE9F0412749C86802F0D5FD07462E
:1049200000221E4B02F0F6FA054602F017F8044684
:1049300021462148FEF7EAFC1E49086902F0C4FD41
:1049400007460022154B02F0E5FA054602F006F88C
:104950000446214618481830FEF7D8FC1549486926
:1049600002F0B2FD074600220C4B02F0D3FA0546D6
:1049700001F0F4FF044621460F483030FEF7C6FC34
:104980000D4880680B49C8600B48006A08610A48F6
:10499000806B4861BDE8F081D00100200000F03F4D
:1049A000EC0000209A99193EDC0100201803002039
:1049B0009A99593F7C010020340100207047000083
:1049C0000FB4044910B503AA029800F03FFB10BCD5
:1049D0005DF814FB040000202DE9F0410646002498
:1049E00010687529314616A510D0AFF30080002855
:1049F00002DA404213A507E031688A0701D512A503
:104A000002E0490704D511A5012401E0AFF30080BD
:104A100000210A2206F1240709E0B0FBF2FCB0FBFA
:104A2000F2F302FB1C00303078541846491C002871
:104A3000F3D123462A463046BDE8F04100F09EB847
:104A4000000000002D0000002B00000020000000EE
:104A50002DE9F0474FF0000A89460446C0F820A02F
:104A60002046E1688847002876D0252806D0D4E97A
:104A700001219047206A401C2062F1E7E16820464E
:104A800000258847C4F81CA006460027C4F818A0D3
:104A90002A2E09D0304601F077FB38B304EB8708A3
:104AA000303EC8F8186019E059F8041B204604EBA2
:104AB00087029161E1688847012F064618D1E069B5
:104AC000002820DA25F020051DE0D8F8180000EBBA
:104AD000800006EB40003038C8F818002046E16836
:104AE0008847064601F050FB0028EED1012F0AD07E
:104AF0002E2E08D12046E16888477F1C0646022FEB
:104B000045F02005C4DBA069002803DA404245F0E7
:104B10000105A061E80701D025F01005B6B1A6F1A6
:104B20004100192802D8203645F400654A4631462E
:104B3000204625604D46FBF755FB58B1012806D0AD
:104B4000ED1D25F0070000F1080989E704E005F1F3
:104B5000040985E730468AE7206ABDE8F087704798
:104B600070477047704710B500F086FA006810BDB6
:104B700010B5044600F080FA046010BD2DE9F0473E
:104B80000D4699469246044600F1240801688806BD
:104B900004D5E06921F01001216000E00120A84265
:104BA00001DD471B00E00027A1697A1902EB09002B
:104BB000081AA0612078C00602D42046AFF3008016
:104BC000002608E0D4E901211AF806009047206A7F
:104BD000401C761C20624E45F4DB2078C0060AD5C6
:104BE0002046AFF3008006E0D4E901213020904751
:104BF000206A401C2062381EA7F10107F4DC07E0A0
:104C0000D4E9012118F805009047206A401C206271
:104C1000281EA5F10105F3DC2046AFF300802078C3
:104C2000000602D50220BDE8F0870120FBE77047AF
:104C30002DE9FF4F0C461E464FF0FF378BB0D2E9EF
:104C40000001DDF860800A908A46C1F30A5505B973
:104C50003D46002108464FF00000BAF1000F00F475
:104C6000400005DA00EB80004FF4400101EA5000FB
:104C70004FEA9059B9F1010F00DDB9460A9850EAA0
:104C80004A000ED044F61050A5F2FF3545432F14CC
:104C9000B8F1000F1ED07542291E1EDDC9F10002B9
:104CA0001CE0B8F1010F4FF0000001D0302103E00B
:104CB000F24305E02154401CB042FBDB30460022A9
:104CC000002121540B99C1F80880C1E900200FB0E0
:104CD000BDE8F08FBD1B6D1CDEE74A4600DA694275
:104CE00006A800F06BFA06AB93E8070003AB83E875
:104CF000070050460A9900F049FB8DE80700A0F52F
:104D000000501F3800900398002D0ADD42F21F0169
:104D10004A460844002303A90390684600F0B2FD08
:104D200009E0A0F500504A461F38002303A903906C
:104D3000684600F0BCFD8DE807000004000C03D0BD
:104D40004FF0FF30410800E01046B8F1000F03D0EB
:104D50000022009215461EE0751E05D400F090F961
:104D6000303262556D1EF9D5B3460122084302D098
:104D700000227F1C04E02078302801D100227F1E11
:104D8000002A099784D01DE0112D07DA00F078F988
:104D9000303262556D1C50EA0102F5D1084302D051
:104DA0000098C8B10EE00021681E05E0235C625C3B
:104DB00063542254401E491C8142F7DBAB46A81BBA
:104DC000401E0990002004F80B000B98099AC0F8C7
:104DD0000880C0E9002B7AE711264FF0000857E75A
:104DE0002DE9F04F88460446D21D22F0070191B00C
:104DF000D1E90001CDE90A0100F090FE02460B98CE
:104E0000C00F01D02D2007E02068810701D52B209D
:104E100002E0202101EAC000032A099001D0072AFC
:104E200005DB03464146204600F088F90BE1207877
:104E3000800601D5E06900E00620B8F1650F8146E3
:104E400006D0B8F1660F18D0B8F1670F70D131E015
:104E50000020B9F1110F009001DB112301E009F1ED
:104E600001030AAA01A90CA8FFF7E2FEDDE90C7014
:104E7000002609F10105834647E001204B460090DA
:104E80004FF000470AAA01A90CA8FFF7D1FEDDE9FF
:104E90000DB00C995D46002610B909F101000D18FE
:104EA000B9EB050003D4C0F1FF3609F10105A5EB0C
:104EB00009002BE0B9F1010F01DA4FF001090020E0
:104EC000B9F1110F0090484601DD112300E00346BF
:104ED0000AAA01A90CA8FFF7ABFEDDE90C704D464C
:104EE00000268346207800070AD4AB4500DA5D46E9
:104EF00001A8012D04DD411911F8011C302907D04A
:104F00004F4502DA17F1040F04DA012082460FE060
:104F10006D1EEEE7002F02DCED1B3E4403E0781C23
:104F2000A84200DD7D1CB81B00F1010A4FF00047CC
:104F30002078000703D4AA4501DB4FF0FF3A002197
:104F4000B7F1004F0DF143088DF8431024D0022033
:104F50002B23002F01DA7F422D230A21021EA0F10C
:104F6000010000DC5FB197FBF1FC97FBF1F201FB64
:104F70001C7C17460CF1300C08F801CDEEE7A8F1C7
:104F8000010003702188090501D5452100E0652154
:104F9000A0F1010800F8011C09980FA9A1EB08076E
:104FA000FF1D00B10120411901EBEA70A1693844ED
:104FB000081A401EA0612078C00602D42046AFF334
:104FC0000080099828B1D4E901219047206A401C4B
:104FD00020622078C00622D52046AFF300801EE074
:104FE000002E04DBB34502DD01A8805D00E0302027
:104FF000D4E901219047206A401C2062761CAAF166
:1050000001005FEA000A0AD100F032F8C0680168C6
:10501000405CD4E901219047206A401C2062281E90
:10502000A5F10105DCDC07E0D4E9012118F8010B4A
:105030009047206A401C2062381EA7F10107F3DC6C
:105040002046AFF30080032011B041E6074B70B556
:105050000D467B4400F05FF80446284600F020F936
:1050600010B14FF0FF3070BD204670BD31C3FFFF5F
:105070000048704744030020004870472403002084
:1050800030B5B0F10A024FEA900E71F100034EEA1A
:10509000817EB0EB0E0061EB91014FEA101E4EEAEB
:1050A000017E10EB0E0041EB11114FEA102E4EEA7B
:1050B000016E10EB0E0041EB11214FEA104E4EEA4B
:1050C000014E10EB0E0041EB1141401841F100017F
:1050D0004FEAD00040EA41704FEAD10110EB800561
:1050E0004FEA810444EA907444EB01046D1944EBE7
:1050F0000404521BA3414FF0000348BF0A3200D5FD
:1051000030BD401C41F1000130BD000001694A1C66
:1051100002610878704700B58FB0CDE901310021F8
:10512000059105497944CDE9031011466846FFF71A
:105130008FFC0FB000BD0000E5FFFFFF2DE9F0413F
:105140001F46044603260168072A01F4006004DBB9
:1051500008B116A505E016A503E008B115A500E005
:1051600015A521F010002060A069C01EA0610FB13C
:10517000401EA0612046AFF300804FB1D4E9012169
:1051800038469047206A401C2062C01C206206E01E
:10519000206AFAE7D4E9012115F8010B9047761E41
:1051A000F8D22046AFF30080BDE8F0814E414E00BA
:1051B0006E616E00494E4600696E66002DE9F0474B
:1051C000814616468AB0354878440DC88DE80D00F2
:1051D00032487844801C03AC0DC884E80D0041F6C9
:1051E0009B300844372190FBF1F290FBF1F5A5F1DB
:1051F000800501FB12041B3C02D56442012000E043
:105200000020DFF898A080460027FA44AAF1BE0AE1
:105210000EE0E0070AD03246684607EB470101235B
:105220000AEB810100F043FB8DE8070064107F1C4E
:10523000002CEED1194F7F44AE3F19E0E80715D09E
:1052400007EB04100DF1180A90E80E008AE80E0032
:10525000C068F04201D1981908903246012306A98E
:1052600003A800F024FB03AB83E807006D10641C67
:10527000002DE3D14FF0010332466946B8F1000F2B
:1052800003A802D000F0FEFA01E000F010FBC9E92B
:105290000001C9F808200AB0BDE8F087682D0000B9
:1052A000007B00F080007047004870472403002016
:1052B0007546FFF7F9FFAE4605006946534620F0F4
:1052C0000700854618B020B5FCF70EFBBDE820406E
:1052D0004FF000064FF000074FF000084FF0000BB2
:1052E00021F00701AC46ACE8C009ACE8C009ACE865
:1052F000C009ACE8C0098D46704710B50446AFF34D
:1053000000802046BDE81040FAF789BF4FF0013C0D
:1053100050F8042B51F8043B9A4221D1A2EB0C0324
:10532000934313EACC1317D150F8042B51F8043BE4
:105330009A4215D1A2EB0C03934313EACC130BD181
:1053400050F8042B51F8043B9A4209D1A2EB0C030C
:10535000934313EACC13DBD04FF00000704700BF3B
:10536000D01A01BAB1FA81F101F0180122FA01F064
:10537000CB40C1F12001DBB2C0B2C01A2CFA01F35C
:10538000D11A914311EAC311E6D170475FEA400C8C
:1053900008BF91F0000F4FEA8C234FEAC12243EA85
:1053A00051514FEA1C5018BF00F5F0404FEA300051
:1053B00018BF41F000415FEA6C5C00F02980BCF14D
:1053C000FF3F08BF40F080407047130C06BF120437
:1053D0004FF0100C4FF0000C130E04BF12020CF132
:1053E000080C130F04BF12010CF1040C930F04BF3F
:1053F00092000CF1020CD30F04BF52000CF1010C0F
:1054000011464FF00002A0F11F00A0EB0C00704706
:1054100011F0004F08BF704731F000413FF4D5AFA5
:105420000B0C06BF09044FF0100C4FF0000C0B0ED4
:1054300004BF09020CF1080C0B0F04BF09010CF1A9
:10544000040C8B0F04BF89000CF1020CCB0F04BFBE
:1054500049000CF1010CCCF12003A0EB0C0022FA66
:1054600003F302FA0CF241EA030100F10100704774
:1054700020F07F4C80EA030023F07F47ACEB07036A
:1054800003F57C5300F0004003F1FF032DE9804950
:105490004FEA154B09B44FEA144325EA0B4E24EAB0
:1054A00003480FF2042606EB132749083E785FEA0B
:1054B000320203FB0667C7F5000707FB06F64FEA53
:1054C00054374FEAD64606F1020607FB066CCCF1CC
:1054D000005C4FEA1C472CEA074C07FB06F40CFB68
:1054E00006F504EB15464FEA961634BF00204FF040
:1054F00000404FEAD13706FB07FC4FEA1C4C0CFB7F
:105500000BF7D21B03FB0CF761EB07010CFB0EF74B
:10551000B0EB074072EB17420CFB08F734BFA2EB6D
:105520000742B2EB074261EB17414FEA0C444FEAE6
:10553000910706FB07FC4FEA1C4C0CFB0BF7B0EB8A
:10554000C74072EB573203FB0CF734BFA2EBC742E4
:10555000B2EBC74261EB57310CFB0EF7B0EBC70063
:1055600072EB57720CFB08F734BFA2EBC702B2EB29
:10557000C70261EB5771039F4FEA816141EA9211C3
:1055800004EBCC044FEAD1374FEA826206FB07FCFA
:1055900042EA90124FEA80604FEA1C4C0CFB0BF77A
:1055A000D21B03FB0CF761EB07010CFB0EF7B0EB12
:1055B000074072EB17420CFB08F734BFA2EB07421F
:1055C000B2EB074261EB17414FEA8C554FEA910766
:1055D00004EB9C2406FB07FC4FEA1C4C0CFB0BF76E
:1055E000B0EBC74072EB573203FB0CF734BFA2EBB2
:1055F000C742B2EBC74261EB57310CFB0EF7B0EB81
:10560000C70072EB57720CFB08F734BFA2EBC7025E
:10561000B2EBC70261EB577115EB4C254FEA816184
:1056200041EA92114FEA82624FEAD13742EA901280
:1056300006FB07FC44F100044FEA80604FEA1C4C73
:105640000CFB0BF7D21B03FB0CF761EB07010CFB08
:105650000EF7B0EB074072EB17420CFB08F734BFB4
:10566000A2EB0742B2EB074261EB174115EB1C15A9
:105670004FEA813141EA92414FEA823242EA904256
:105680004FEA80304FEA0C7644F1000448EA0343C5
:105690004EEA0B484FF0000EB2EB080C71EB03071B
:1056A00024BF624639464EEB0E0E4FF0000B001839
:1056B000524149414BEB0B0BB2EB080C71EB03076A
:1056C0007BF1000B24BF624639464EEB0E0E4FF0C5
:1056D000000B0018524149414BEB0B0BB2EB080C8D
:1056E00071EB03077BF1000B24BF624639464EEB9A
:1056F0000E0E51EA020718BF46F0010616EB0E76B1
:1057000055F1000254F1000103D5BDE88901BDE85F
:105710000088BDE88901BDE80048B619524141EB57
:105720000101A3F10103704780807F7E7D7C7B7A3D
:105730007978777676757473727171706F6E6E6D3D
:105740006C6C6B6A6A6968686766666564646363E3
:1057500062616160605F5F5E5E5D5D5C5C5B5B5A69
:105760005A595958585757565655555554545353D6
:1057700052525251515050504F4F4F4E4E4D4D4D31
:105780004C4C4C4B4B4B4A4A4A494949484848477C
:1057900047474746464645454544444444434343BA
:1057A0004342424242414141002B9C4630D4770063
:1057B0002BD01CB54FEA370703B44FF010004FF061
:1057C0001001BAF1000F06D0BCF1000FDCBF40F0B1
:1057D000080040F008014FF000000FBCBDE8104089
:1057E0000BF1010BBBF1010F08BF5FEA170722BFE6
:1057F00012F1010211F101014FF0004143F10003E8
:1058000000F0004043EA00007047F9D35708D0E7A2
:1058100046EA064613F1400F4FEA16461FDD13F124
:10582000200FDFBF16430A46002120335B42BED063
:10583000C3F1200746EA064602FA07F74FEA164682
:1058400046EA0706C3F1200722FA03F201FA07F736
:1058500021FA03F14FF0000342EA0702A7E746EA04
:10586000020646EA06464FEA164646EA0106BCBF6D
:1058700046EA0646360C4FF000034FF000024FF0A8
:10588000000194E72DE9804C9A46934670B491E864
:10589000380007C831EA400C48BF34EA430C03D54E
:1058A000FFF7E6FDFFF780FFF0BCBDE8008C2DE9B7
:1058B000804C9A46934670B491E8380007C810F0BF
:1058C000804F08BF13F0804F03D100F005F8FFF7B9
:1058D0006BFFF0BCBDE8008C20F07F4780EA03003E
:1058E00023F07F4C07EB0C03A3F57C5300F0004042
:1058F000A3F1FE0392F0000F00F0B38095F0000FCB
:1059000000F077802DE901494FEA11404FEA144633
:1059100021EA004800FB06FC24EA064708FB06F6DD
:1059200007FB08F800FB07F718EB06484CEB164C92
:105930004FEA124B18EB07484FEA15464CEB17405D
:1059400022EA0B4E0BFB06FC25EA06470EFB06F689
:1059500007FB0EFE0BFB07F71EEB064E4CEB164C3F
:105960004FF000061EEB074E4CEB174B18EB0B08E5
:1059700040F1000018EB0E0B58EB000840F100005E
:105980008F1A4FF000013CBFC943661B14BFB5EB33
:10599000040C00213CBFC943F61B4FEA17444EEAF2
:1059A0008E0E27EA04454FEA1C4704FB07622CEAE7
:1059B000074C05FB07F70CFB05F604FB0CFC16EB8C
:1059C000074642EB174216EB0C4642EB1C421BEB20
:1059D000060658EB0202414146EA9E0601D5BDE8A3
:1059E0000189B619524141EB0101A3F10103BDE860
:1059F00001894FEA14454FEA114724EA054621EA96
:105A0000074C05FB07F406FB07F70CFB06F105FB4B
:105A10000CFC11EB074144EB17444FEA124711EB22
:105A20000C4144EB1C4422EA074C05FB07F206FB41
:105A300007F70CFB06F605FB0CFC16EB074642EBE2
:105A4000174216EB0C4642EB1C456A1854F1000154
:105A500048BF7047B619524141EB0101A3F1010360
:105A6000704795F0000F37D04FEA11424FEA1447C4
:105A700021EA024624EA074C02FB07F106FB07F77E
:105A80000CFB06F402FB0CFC14EB074441EB174142
:105A90004FEA154714EB0C4441EB1C4125EA074C37
:105AA00002FB07F506FB07F70CFB06F602FB0CFCF6
:105AB00016EB074645EB174516EB0C4645EB1C422B
:105AC000121951F1000148BF7047B619524141EB1C
:105AD0000101A3F1010370474FEA14454FEA114752
