:020000040800F2
:1000000088090020291900082D1700082F1700085B
:1000100033170008371700083B17000800000000DE
:100020000000000000000000000000003F17000872
:10003000411700080000000043170008451700089A
:100040004319000843190008431900084319000820
:100050004319000843190008431900084319000810
:100060004319000843190008431900084319000800
:1000700043190008431900084319000843190008F0
:1000800043190008431900084319000843190008E0
:1000900043190008431900084319000843190008D0
:1000A0004319000835500008431900084319000897
:1000B00043190008431900084319000843190008B0
:1000C00043190008431900084319000843190008A0
:1000D00043190008A3160008431900084319000833
:1000E0004319000843190008431900084319000880
:1000F0004319000843190008431900084319000870
:10010000431900084319000843190008431900085F
:10011000431900084319000843190008431900084F
:10012000431900084319000843190008431900083F
:1001300000F002F800F06AF80AA090E8000C82448F
:100140008344AAF10107DA4501D100F05FF8AFF26C
:10015000090EBAE80F0013F0010F18BFFB1A43F0A5
:1001600001031847F87C0000187D00000A444FF096
:10017000000C10F8013B13F0070408BF10F8014B06
:100180001D1108BF10F8015B641E05D010F8016B4B
:10019000641E01F8016BF9D113F0080F1EBF10F8AF
:1001A000014BAD1C0C1B09D16D1E58BF01F801CBD2
:1001B000FAD505E014F8016B01F8016B6D1EF9D555
:1001C0009142D6D37047000000230024002500266A
:1001D000103A28BF78C1FBD8520728BF30C148BFAA
:1001E0000B607047662907F0FC84642904F0A68739
:1001F000002070471FB505F0EDFA04000020002133
:1002000006F0F0FBE0601FBD10B510BD05F002FC6C
:100210001146FFF7EFFF00F009F805F020FC03B4EA
:10022000FFF7F2FF03BC01F0E1F9000086B001F036
:1002300073F94FF4A06001F097FB284801F0E5F94D
:1002400000F015FF00F0DBFC00F093F8472141F2CD
:10025000873001F03DF8472144F61F6001F0F3F8C4
:10026000472144F61F6001F066F8012211461C4840
:1002700002F0B3FB31E01B49486907F0CDFA04B244
:100280001849086907F0C8FA05B21649C86807F0A6
:10029000C3FA06B20020CDE90265CDE90440124858
:1002A000B0F904001049B1F902100F4FCDE9001068
:1002B000B7F900300D4FB7F90420B7F90210B7F9BC
:1002C000000004F09AFC00200090094B01901A688D
:1002D00059689868002304F007FECCE720A10700C6
:1002E000002C01407C010020DC010020D001002016
:1002F000F002002070B505460C4600F0D1FE182033
:1003000000F082FF00F00DFF18B100F0E9FE0120BF
:1003100070BD284600F078FF00F003FF204600F093
:1003200073FF00F0FEFE18B100F0DAFE0120EFE7E7
:1003300000F0D6FE0020EBE770B5044600F0B0FEFA
:10034000182000F061FF00F0ECFE204600F05CFF9A
:1003500000F0E7FE00F0A4FE192000F055FF00F0C9
:10036000E0FE002000F07BFF054600F0B9FE2846C5
:1003700070BD10B500240020FFF7DEFF0446482CB6
:1003800004D0FAA004F0CEFE012010BDFCA004F0C1
:10039000C9FE11210A20FFF7ADFF0020FE49886148
:1003A000C86108624FF07E50C86248628862FB48AC
:1003B0008864FB48C864FB480865FB480863FB4841
:1003C0004863FB488863FB48C863FB480864FB48F4
:1003D00048640A2001F0DDF80020D6E72DE9F0415D
:1003E00006460F4614461D4600F05AFE002141EA1B
:1003F0004601C8B200F008FF00F093FE20B100F003
:100400006FFE0120BDE8F081384600F0FDFE00F0EF
:1004100088FE00F045FE012101EB4601C8B200F064
:10042000F3FE00F07EFE0DE0012C04D1002000F070
:1004300016FF287003E0012000F011FF2870601EF5
:10044000C4B26D1C002CEFD100F04AFE0020D9E7A9
:100450002DE9F04F89B007AB062203210C20FFF7EE
:10046000BDFF06900698B8B99DF81C009DF81D10B8
:1004700040EA01200FFA80F99DF81E009DF81F1038
:1004800040EA01200FFA80FA9DF820009DF8211023
:1004900040EA01200FFA80FBBF49886C07F02CF876
:1004A000CDE90201484606F0F9FC0022C44BCDE933
:1004B000000106F09BFB0746DDE9022306F032FF50
:1004C000CDE9040106F0A4FA0446B349C86C07F06C
:1004D00013F8CDE90201504606F0E0FC0022B84BCB
:1004E000CDE9000106F082FB0746DDE9022306F0B4
:1004F00019FFCDE9040106F08BFA0546A649086DFF
:1005000006F0FAFFCDE90201584606F0C7FC07469F
:100510000022AB4B06F06AFBCDE90001DDE90223C6
:1005200006F000FFCDE9040106F072FA06469A498A
:10053000886B314607F0D8F997490590486B2946F2
:1005400007F0D2F980469449086B214607F0CCF9B0
:100550004146049006F0FCFF0746059906F0F8FFB7
:100560008D490860086C314607F0BEF98A4905904C
:10057000C86B294607F0B8F980468749486B214681
:1005800007F0B2F94146049006F0E2FF07460599EC
:1005900006F0DEFF80494860486C314607F0A4F958
:1005A0007D490590086C294607F09EF980467A49F6
:1005B000886B214607F098F94146049006F0C8FF81
:1005C0000746059906F0C4FF73498860084600682D
:1005D00080F00047384606F08FFF0022784BCDE9C7
:1005E000020106F0AFFCCDE9040106F011FA6A49F8
:1005F000C860486806F080FF07460022704B06F08E
:10060000A1FCCDE9040106F003FA6349086188689A
:1006100006F072FF07460022694B06F093FCCDE915
:10062000040106F0F5F95C49486111210A20FFF741
:1006300061FE002009B0BDE8F08F2DE9F04F93B0C6
:10064000604C650C2646670CA04647F6FF794FF0D4
:10065000000A5DA004F066FD4FF47A7000F099FF87
:100660004FF47A7000F095FF4FF47A7000F091FF2C
:100670004FF47A7000F08DFF00BF67E0FFF7E8FEEF
:10068000204607F0E5F883464348C168584607F01E
:10069000F7F804D84049C86807F0BEF804B23046FD
:1006A00007F0D6F883463C480169584607F0E8F859
:1006B00004D83949086907F0AFF806B2404607F098
:1006C000C7F8834634484169584607F0D9F805D839
:1006D0003149486907F0A0F80FFA80F8284607F07A
:1006E000B7F883462C48C168584607F0C9F904D8C2
:1006F0002949C86807F090F805B2384607F0A8F80D
:10070000834625480169584607F0BAF904D82249BA
:10071000086907F081F807B2484607F099F8834660
:100720001D484169584607F0ABF905D81A49486990
:1007300007F072F80FFA80F927A004F0F3FC0A2002
:1007400000F027FF0AF101000FFA80FABAF5FA6FFC
:1007500094DD22A004F0E6FC4FF47A7000F019FF5B
:100760004FF47A7000F015FF40E00000414B38393B
:10077000373520494E4954204552524F520A000005
:10078000414B3839373520494E495420535543435E
:100790004553530A000000007C0100203CE8C839A2
:1007A000C000803E7B7AC83C7F94783F15F4E83CDB
:1007B000D1AA22BC4155813FBA16B93B4E96823F21
:1007C000005075400180FFFF666972737420636199
:1007D0006C204D41470A00002E2000007365636FB6
:1007E0006E642063616C204D41470A004FF47A70BB
:1007F00000F0CFFE4FF47A7000F0CBFE4FF0000A0D
:1008000068E0FFF725FE204607F022F883469E4861
:10081000C168584607F034F804D89B49C86806F008
:10082000FBFF04B2304607F013F88346964801698F
:10083000584607F025F804D89349086906F0ECFFFC
:1008400006B2404607F004F883468F48416958468F
:1008500007F016F805D88C49486906F0DDFF0FFA55
:1008600080F8284606F0F4FF83468748C16858465A
:1008700007F006F904D88449C86806F0CDFF05B230
:10088000384606F0E5FF83467F480169584607F081
:10089000F7F804D87C49086906F0BEFF07B248465D
:1008A00006F0D6FF834678484169584607F0E8F8D5
:1008B00005D87549486906F0AFFF0FFA80F9AFF225
:1008C000E80004F02FFC0A2000F063FE0AF10100AA
:1008D0000FFA80FABAF5FA6F93DD434632462146A5
:1008E0006AA004F01FFC4B463A4629466EA004F06D
:1008F00019FC281906F0D2FA00224FF08043CDE906
:100900000E0106F073F9CDE9100106F081F85E4999
:100910008861B81906F0C2FA00224FF08043CDE991
:100920000E0106F063F9CDE9100106F071F85649A1
:10093000C86109EB080006F0B1FA00224FF08043CD
:10094000CDE90E0106F052F9CDE9100106F060F88C
:100950004D490862F01B06F0A1FACDE90E01601BBB
:1009600006F09CFA0022574BCDE90A0106F0EAFA9C
:10097000CDE90C01DDE90E2306F038F9CDE91001CF
:1009800006F046F840494862A8EB090006F086FAEE
:10099000CDE90E01601B06F081FA0022494BCDE93A
:1009A0000A0106F0CFFACDE90C01DDE90E2306F0CD
:1009B0001DF9CDE9100106F02BF833498862886AE9
:1009C00006F09AFDCDE910012F49486A06F094FD22
:1009D000CDE90E012C49086A06F08EFDCDE90C0127
:1009E0002949C86906F088FDCDE90A0126498869C8
:1009F00006F082FDCDE90801DDE91001CDE906012F
:100A0000DDE90E01CDE90401DDE90C01CDE90201CA
:100A1000DDE90A01CDE900012BA0DDE9082304F09E
:100A200081FB13B0BDE8F08F2DE9F04105460E467D
:100A30001746984600F034FB002141EA4501C8B250
:100A400000F0E2FB00F06DFB20B100F049FB01205B
:100A5000BDE8F081304600F0D7FB00F062FB0024D7
:100A60000CE018F8040000F0CFFB00F05AFB18B1BE
:100A700000F036FB0120EBE7601CC4B2BC42F0DBA7
:100A800000F02EFB0020E3E77C010020786D617808
:100A90003A256409796D61783A2564097A6D61783F
:100AA0003A25640900000000786D696E3A256409F2
:100AB000796D696E3A2564097A6D696E3A25640A22
:100AC000000000000000F03F786F252E32660920FC
:100AD000796F252E326609207A6F252E326609201D
:100AE000252E32660920252E32660A0070B505468D
:100AF0000C4600F0D5FAD02000F086FB00F011FB88
:100B000018B100F0EDFA012070BD284600F07CFB22
:100B100000F007FB204600F077FB00F002FB18B165
:100B200000F0DEFA0120EFE700F0DAFA0020EBE750
:100B300070B504460025BC2C01DB012510E0622CB9
:100B400001DB02250CE02A2C01DB032508E0142C34
:100B500001DB042504E00A2C01DB052500E0062565
:100B600029461A20FFF7C2FF70BD70B50446B4F5E0
:100B70007A7F01DD4FF47A74042C00DA04244FF4F8
:100B80007A7090FBF4F0401EC5B229461920FFF799
:100B9000ADFF0546264604EBD671C1F34F00FFF7C3
:100BA000C7FF70BD70B5044600F07AFAD02000F09F
:100BB0002BFB00F0B6FA204600F026FB00F0B1FA5D
:100BC00000F06EFAD12000F01FFB00F0AAFA00201E
:100BD00000F045FB054600F083FA284670BD10B5CD
:100BE0000446E006010E1C20FFF780FF10BD10B583
:100BF0000446E006010E1B20FFF778FF10BD10B57C
:100C000080216B20FFF772FF642000F0C2FC0021FE
:100C10006B20FFF76BFF0320FFF7E9FF0020FFF7D2
:100C2000DEFF3220FFF7A1FF00213820FFF75EFF33
:100C300000216A20FFF75AFF00212320FFF756FF0B
:100C400080213720FFF752FF7520FFF7ABFF0446E6
:100C5000682C0FD101216B20FFF748FF00216C2089
:100C6000FFF744FF4FF49670FFF77FFFE7A004F013
:100C700059FA04E0EAA004F055FA012010BD6FF023
:100C80006F00EB49C880652008810420488100205E
:100C9000E849C8800881488100BFEFE72DE9F041AD
:100CA00006460F4614461D4600F0FAF9002141EAB7
:100CB0004601C8B200F0A8FA00F033FA20B100F003
:100CC0000FFA0120BDE8F081384600F09DFA00F0EF
:100CD00028FA00F0E5F9012101EB4601C8B200F065
:100CE00093FA00F01EFA0DE0012C04D1002000F070
:100CF000B6FA287003E0012000F0B1FA2870601EF7
:100D0000C4B26D1C002CEFD100F0EAF90020D9E745
:100D10002DE9F84F6B46022241216820FFF7BEFF04
:100D20009DF801009DF8001040EA01200FFA80FABA
:100D3000504606F0B3F880460022BF4B05F056FF40
:100D40000646BE4ABE4B05F095FE044605F060FE21
:100D50008346BC49584606F0C7FD044606F05CFDD4
:100D600000B2BDE8F88F2DE9FC47804689469246DF
:100D70006B46062243216820FFF790FF0446A4B982
:100D80009DF801009DF8001040EA012005B29DF891
:100D900003009DF8021040EA012006B29DF805000C
:100DA0009DF8041040EA012007B2A148C088281A23
:100DB00000B29F49088008460089301A00B2488076
:100DC00008464089381A00B288802046BDE8FC8772
:100DD0002DE9FC478046894692466B4606223B2118
:100DE0006820FFF75BFF0446A4B99DF801009DF859
:100DF000001040EA012005B29DF803009DF80210A2
:100E000040EA012006B29DF805009DF8041040EA72
:100E1000012007B28748C088281A00B28549088097
:100E200008460089301A00B2488008464089381ABE
:100E300000B288802046BDE8FC872DE9F0410546D8
:100E40000E461746984600F02BF9002141EA45016D
:100E5000C8B200F0D9F900F064F920B100F040F90F
:100E60000120BDE8F081304600F0CEF900F059F9DC
:100E700000240CE018F8040000F0C6F900F051F965
:100E800018B100F02DF90120EBE7601CC4B2BC42A0
:100E9000F0DB00F025F90020E3E72DE9F04F89B001
:100EA0001E2008904FF000094FF0000A4FF0000B91
:100EB000002006900790052003906FF00400029038
:100EC00053E000BF0A2000F064FB6B46062243217A
:100ED0006820FFF7E3FE0746A7B99DF801009DF8DB
:100EE000001040EA012004B29DF803009DF80210B2
:100EF00040EA012005B29DF805009DF8041040EA83
:100F0000012006B2BDF81800201A00B2ADF810009A
:100F1000BDF81A00281A00B2ADF81200BDF81C0086
:100F2000301A00B2ADF81400ADF81840ADF81A5000
:100F3000ADF81C60BDF910000528C3DCBDF9100038
:100F400010F1050FBEDBBDF912000528BADCBDF9B2
:100F5000120010F1050FB5DBBDF914000528B1DC56
:100F6000BDF9140010F1050FACDB0898411EC9B2A1
:100F700008910028A5D1804626E0052000F009FB55
:100F80006B46062243216820FFF788FE0746A7B973
:100F90009DF801009DF8001040EA012004B29DF880
:100FA00003009DF8021040EA012005B29DF80500FB
:100FB0009DF8041040EA012006B2A144AA44B344BB
:100FC00008F1010000F0FF08B8F1640FD5DB6420E0
:100FD00099FBF0F000B21649C88064209AFBF0F04B
:100FE00000B2088164209BFBF0F000B24881084603
:100FF000B0F90A30B0F90820B0F9061012A004F0D8
:1010000091F809B0BDE8F08F704700004D505520B1
:10101000494E495420535543434553530A00000059
:101020004D505520494E4954204552524F520A00C6
:10103000DC010020D001002000407540A4703D0A72
:10104000D74342400000C84267786F66663A25641D
:101050000967796F66663A256409677A6F66663A4A
:1010600025640A0010B5022000F06FFA10BD08B523
:101070000121082001F002F84FF44060ADF80000B3
:1010800010208DF8030003208DF8020069468D487A
:1010900000F038FD4FF440618A4800F0E0FD08BDE3
:1010A00010B58848001D006820F470408549091D6E
:1010B00008600846006840F44050086001208249FA
:1010C00008608249C1F8A801FFF7CCFF00207E49E3
:1010D0000860FFF7C7FF00207C49C1F8A80110BDD8
:1010E00010B57848001D006820F470407549091D4E
:1010F00008600846006840F44050086000207249CB
:10110000091F08607149C1F8AC01FFF7ABFF01206E
:101110006D49091F08606D49C1F8AC01FFF7A2FFD6
:1011200010BD10B500246748001D006820F4704011
:101130006449091D08600846006840F400400860E2
:10114000012061490860FFF78DFF01205F49C1F868
:10115000A801FFF787FF07E0601CC4B2FA2C03DD8B
:10116000FFF7BEFF012010BD5748803800680028F7
:10117000F2D15549091F086000BFF4E710B50020FF
:101180005149091F08604F48001D006820F4704055
:101190004C49091D08600846006840F4405008604A
:1011A00000204A49C1F8AC01FFF75CFF0120464925
:1011B000091F0860FFF756FF00204449C1F8A80145
:1011C00010BD10B500204049091F08603D48001DB2
:1011D000006820F470403B49091D0860084600681B
:1011E00040F44050086001203849C1F8AC01FFF7D5
:1011F00039FF01203449091F0860FFF733FF002041
:101200003249C1F8A80110BD70B504462D48001D33
:10121000006820F470402B49091D086008460068EA
:1012200040F44050086000202749091F086000254D
:1012300012E0E009244908606006040E01202349F9
:10124000C1F8A801FFF70EFF00201F49091F086021
:10125000FFF708FF681CC5B2082DEADB70BD70B54A
:10126000054600241748001D006820F47040154909
:10127000091D08600846006840F400400860002628
:1012800015E000201049091F0860FFF7EBFE012060
:101290000E49C1F8A8016006040E0B4880380068AA
:1012A00008B1601CC4B2FFF7DDFE701CC6B2082E88
:1012B000E7DB15B9FFF785FF01E0FFF75FFF204689
:1012C00070BD0000000C0140AC8121420080214231
:1012D0007FB505460C460121C80200F0CFFEADF8EF
:1012E0000850ADF804400020ADF80A00ADF8060043
:1012F0008DF80C0001A9844800F0F8FF0121824814
:1013000001F050FB19208DF8000002208DF801003B
:1013100000208DF8020001208DF80300684600F0DF
:1013200028FB0121784801F003FE002201217648C4
:1013300001F053FB7FBD30B589B005460C46012155
:10134000042000F0A8FE0121082000F097FE4FF4D1
:101350007070ADF8140028208DF8170005A96B48AF
:1013600000F0D0FB4FF47071684800F07AFCADF8E3
:101370000C50ADF808400020ADF80E00ADF80A00A2
:1013800002A9634800F0B2FF0020ADF81800ADF8E4
:101390001A000120ADF81C000020ADF81E00ADF8C9
:1013A000200006A95A4801F034FA0420ADF81800CC
:1013B0000020ADF81A000120ADF81C000020ADF8A7
:1013C0001E00ADF8200006A9514801F022FA0820BD
:1013D000ADF818000020ADF81A000120ADF81C008F
:1013E0000020ADF81E00ADF8200006A9484801F025
:1013F00010FA0C20ADF818000020ADF81A000120FA
:10140000ADF81C000020ADF81E00ADF8200006A9C4
:101410003F4801F0FEF91E208DF8040001208DF8F0
:1014200005008DF806008DF8070001A800F0A1FA6C
:1014300001221E21364801F0D0FA0121344801F082
:10144000B1FA09B030BD30B589B005460C4601216E
:10145000042000F013FE0121084600F01CFE0F20BE
:10146000ADF8040003208DF8060018208DF8070061
:1014700001A9284800F046FBADF81C50ADF8184013
:101480000020ADF81E00ADF81A0006A94FF080400C
:1014900000F02CFF6020ADF808000120ADF80A0034
:1014A0000020ADF80E00ADF8100002A94FF080400A
:1014B00000F059FF0821C80601F0A4FB02A94FF073
:1014C000804000F092FF0821C80601F0A4FB02A9A9
:1014D0004FF0804000F0D6FF0821C80601F0A8FBBD
:1014E00002A94FF0804001F018F80821C80601F069
:1014F000A8FB0121880701F055FB0121880701F0B5
:1015000051FA09B030BD0000002C0140000C014030
:10151000000800400008014010B56FF0040000F022
:1015200072FA2E4800682E49B0FBF1F02D49087080
:101530000846007800EB4001C1EBC0104FF6FF7188
:1015400001EAC0002849088010BD0146254A1278EA
:101550004A434FF0E0235A6100229A611A46126909
:1015600042F001021A6100BF4FF0E022106900F062
:1015700001021AB100F48032002AF5D04FF0E022C7
:10158000126922F001024FF0E0231A6100229A61F1
:1015900070470146144A12884A434FF0E0235A61CB
:1015A00000229A611A46126942F001021A6100BFD4
:1015B0004FF0E022106900F001021AB100F480320D
:1015C000002AF5D04FF0E022126922F001024FF01C
:1015D000E0231A6100229A61704700000C0000208D
:1015E00000127A000000002002000020014600BF27
:1015F000704700BF494A128802F04002002AF9D021
:10160000C2B2464B1B1D1A80704710B586B0044607
:10161000012144F2040000F031FD4FF40070ADF8F8
:10162000140003208DF8160018208DF8170005A966
:101630003B4800F067FA4FF48060ADF814000420D6
:101640008DF8170005A9364800F05CFA25208DF8C2
:10165000000003208DF801008DF8020001208DF8B4
:101660000300684600F085F901940020ADF80800F9
:10167000ADF80A00ADF80C00ADF810000C20ADF884
:101680000E0001A9254801F0AEFC012240F22551CF
:10169000224801F040FD0121204801F030FD06B054
:1016A00010BD10B540F225511C4801F019FE10B3D1
:1016B0001A4801F095FDC4B21A48008800F40040B1
:1016C000C8B91848008800F4804060B10A2C03D0E3
:1016D00000201449088020E01248008840F40040AF
:1016E0001049088019E00D2C06D10E48008840F4FE
:1016F00080400C49088010E00A480088C0F30D00C3
:1017000009490C5407480088401C064908800846CF
:101710000088C72801DD0020088010BD0038014086
:101720000008014008000020E8010020704700BFC9
:10173000FEE700BFFEE700BFFEE700BFFEE7704721
:1017400070477047704700000CB500200190009072
:101750006C48006840F480306A49086000BF6948FE
:10176000006800F4003000900198401C019000983F
:1017700018B90198B0F5A06FF1D16248006800F483
:10178000003010B10120009001E00020009000988E
:10179000012843D15C48006840F010005A490860B5
:1017A0000846006820F0030008600846006840F022
:1017B0000200086053484068524948600846406843
:1017C00048600846406840F48060486008464068C9
:1017D00020F47C1048600846406840F4E8104860F7
:1017E0000846006840F08070086000BF4548006807
:1017F00000F000700028F9D04248406820F0030053
:10180000404948600846406840F00200486000BF18
:101810003C48406800F00C000828F9D10CBD10B518
:10182000FFF792FF10BD10B53648006840F0010088
:1018300034490860084640683449084031494860E6
:1018400008460068324908402E490860084600688A
:1018500020F4802008600846406820F4FE004860BC
:101860004FF41F008860FFF7DAFF4FF0006029494E
:10187000086010BD10B5002100200022214B5B68DC
:1018800003F00C0121B1042906D0082928D107E072
:10189000214B224C236027E01F4B204C236023E088
:1018A000184B5B6803F47010164B5B6803F48032CE
:1018B000022303EB904022B9194B4343174C23609A
:1018C0000DE0104B5B6803F4003323B1144B43432A
:1018D000124C236003E0104B4343104C236003E0A1
:1018E0000D4B0E4C236000BF00BF064B5B68C3F37B
:1018F00003130C4CE15C094B1B68CB40074C236085
:1019000010BD000000100240002002400000FFF85F
:10191000FFFFF6FE08ED00E000127A000C00002048
:1019200000093D0010000020094880470948004791
:10193000FEE7FEE7FEE7FEE7FEE7FEE7FEE7FEE77F
:10194000FEE7FEE704480549054A064B70470000DC
:1019500027180008310100088803002088090020AA
:10196000880500208805002031490143314A116073
:10197000704770B5002100230F22C47804B32D4CAA
:10198000246804F4E064C4F5E064210AC1F10403AE
:10199000CA40447804FA03F18478144021430901D1
:1019A000254C0678A155047804F01F050124AC40AD
:1019B00005786D11AD0005F1E025C5F8004109E09D
:1019C000047804F01F050124AC401C4D0678761104
:1019D00045F8264070BD1A4A0A400243154B1B1FAA
:1019E0001A60704739B1134A121D12680243114B35
:1019F0001B1D1A6006E00F4A121D126882430D4B30
:101A00001B1D1A607047042808D14FF0E0210969B6
:101A100041F004014FF0E022116107E04FF0E021B6
:101A2000096921F004014FF0E022116170470000C4
:101A30000000FA050CED00E000E400E080E100E0C9
:101A400080FFFF1F10B50446CC48844208D1012115
:101A5000042000F02DFB0021042000F029FB46E0CB
:101A6000C748844208D10121082000F021FB002151
:101A7000082000F01DFB3AE0C248844208D1012151
:101A8000102000F015FB0021102000F011FB2EE0CB
:101A9000BD48844208D10121202000F009FB00212B
:101AA000202000F005FB22E0B848844208D1012143
:101AB000402000F0FDFA0021402000F0F9FA16E085
:101AC000B348844208D10121802000F0F1FA0021BE
:101AD000802000F0EDFA0AE0AE48844207D10121EF
:101AE000801500F0E5FA0021A01500F0E1FA10BD24
:101AF00010B50121084600F0DBFA0021012000F0BA
:101B0000D7FA10BD2DE9F04102460025002600203D
:101B100000230024002791F803C00CF00F0591F872
:101B200003C00CF0100CBCF1000F03D091F802C000
:101B30004CEA050591F800C0BCF1000F31D01468E3
:101B400000202BE04FF0010C0CFA00F3B1F800C0BC
:101B50000CEA03069E4220D183004FF00F0C0CFAD2
:101B600003F7BC4305FA03FC4CEA040491F803C0F4
:101B7000BCF1280F06D14FF0010C0CFA00FCC2F8A2
:101B800014C00AE091F803C0BCF1480F05D14FF032
:101B9000010C0CFA00FCC2F810C0401C0828D1D37C
:101BA0001460B1F800C0BCF1FF0F34DD54680020B0
:101BB0002EE000F1080C4FF0010808FA0CF3B1F820
:101BC00000C00CEA03069E4221D183004FF00F0CA7
:101BD0000CFA03F7BC4305FA03FC4CEA040491F841
:101BE00003C0BCF1280F05D100F1080C08FA0CF86D
:101BF000C2F8148091F803C0BCF1480F07D100F17E
:101C0000080C4FF0010808FA0CF8C2F81080401CCC
:101C10000828CED35460BDE8F0814FF6FF710180F3
:101C2000022181700421C170704702460020936830
:101C30000B400BB1012000E000207047014688688E
:101C400080B2704702460020D3680B400BB10120E0
:101C500000E0002070470146C86880B2704701610B
:101C60007047416170470AB1016100E0416170470E
:101C7000C16070474FF480320A43826181618261A2
:101C800082698269704702460020434B18684FF60C
:101C90008073184040EA021008433F4B18607047B9
:101CA0003E49C8617047F0B50A4600230024002170
:101CB000002500F00046B6F1004F02D1364EF16922
:101CC00001E0354E7168C0F3034583B200F440165D
:101CD000B6F5401F08D121F070612F4E766826F0CE
:101CE00070662D4F7E6012E000F48016B6F5801FFE
:101CF00006D1032606FA05F4A14341F0706106E01F
:101D0000460D360103FA06F6B14341F0706122B187
:101D1000460D360103FA06F6314300F00046B6F1EF
:101D2000004F02D11C4EF16101E01B4E7160F0BD0D
:101D300030B500228B071C0F0F2303FA04F2164B59
:101D400008338C1053F824309343134C08348D100F
:101D500044F8253023468C1053F824308C07240F88
:101D600000FA04F423430C4C08348D1044F8253059
:101D700030BD0A49DC3108607047000000080140AE
:101D8000000C014000100140001401400018014007
:101D9000001C0140002001400000014000002042E2
:101DA000DF48006840F00100DD49086008464068EF
:101DB000DC490840DA49486008460068DA490840CA
:101DC000D74908600846006820F48020086008466B
:101DD000406820F4FE0048604FF41F0088607047A0
:101DE000CF49096821F48031CD4A11601146096854
:101DF00021F480211160B0F5803F03D0B0F5802F31
:101E00000ED106E0C649096841F48031C44A116028
:101E100007E0C349096841F4A021C14A116000E00C
:101E200000BF00BF704710B501460022002300200C
:101E30004A11012A02D1BA4C236806E0022A02D1D3
:101E4000B74C236A01E0B64C636A01F01F0201241B
:101E500094401C400CB1012000E0002010BD38B5BA
:101E6000002000900024002500BF3120FFF7DBFF99
:101E700005460098401C00900098B0F5A06F01D076
:101E8000002DF2D03120FFF7CEFF08B1012400E091
:101E90000024204638BD01460020A14A106820F0E9
:101EA000F80040EAC10010607047A0490860704720
:101EB000024600209A4B586820F47C1042EA010345
:101EC0001843974B58607047984908667047014619
:101ED0000020934A506820F0030008435060704788
:101EE0008F48406800F00C007047014600208C4A83
:101EF000506820F0F0000843506070470146002011
:101F0000874A506820F4E0600843506070470146FB
:101F10000020834A506820F4605040EAC1005060BD
:101F2000704729B17E4A527A02437D4B5A7204E0CF
:101F30007B4A527A82437A4B5A7270477B49D83136
:101F40000860704701460020754A506820F4404000
:101F50000843506070470021714A20321170704A66
:101F600082F82010012802D004280AD104E00121BF
:101F70006B4A2032117005E00521694A2032117048
:101F800000E000BF00BF70476949086070476449BE
:101F9000096A0143624A1162704765494439086021
:101FA000704730B500210022002400235C4D6D688D
:101FB00005F00C0121B1042905D0082923D105E041
:101FC0005C4D056022E05B4D05601FE0544D6D687F
:101FD00005F47012524D6D6805F48034022505EB4E
:101FE00092421CB9544D554305600BE04C4D6D6851
:101FF00005F400351DB1504D5543056002E04D4DCF
:102000005543056002E04B4D056000BF00BF444DE5
:102010006D6805F0F0010909484D6B5C0568DD400D
:1020200045603F4D6D6805F4E061090A434D6B5C06
:102030004568DD4085603A4D6D6805F46051C90A18
:102040003E4D6B5C4568DD40C560354D6D6805F4FF
:102050004041890B3A4D6B5CC568B5FBF3F50561F2
:1020600030BD29B12E4A526902432D4B5A6104E01A
:102070002B4A526982432A4B5A61704729B1284A38
:1020800092690243264B9A6104E0254A9269824391
:10209000234B9A61704729B1214AD2690243204BF0
:1020A000DA6104E01E4AD26982431D4BDA6170474F
:1020B00029B11B4AD2680243194BDA6004E0184A7E
:1020C000D2688243164BDA60704729B1144A12690C
:1020D0000243134B1A6104E0114A12698243104B08
:1020E0001A61704712494039086070470F49C86447
:1020F00070470B49C87170470948406A40F08070CA
:1021000007494862704701460020054A92680A4024
:102110000AB1012000E00020704701498872704731
:10212000001002400000FFF8FFFFF6FE00004242F0
:102130008004424200127A0000093D002000002085
:102140003000002010B50446FE48844208D1012129
:10215000C014FFF7ADFF0021E014FFF7A9FFC4E0B2
:10216000B4F1804F08D101210846FFF7AEFF0021EE
:102170000120FFF7AAFFB8E0F348844208D101210B
:102180000220FFF7A2FF00210220FFF79EFFACE034
:10219000EE48844208D101210420FFF796FF002178
:1021A0000420FFF792FFA0E0E948844208D1012112
:1021B0000820FFF78AFF00210820FFF786FF94E040
:1021C000E448844208D101211020FFF77EFF00215E
:1021D0001020FFF77AFF88E0DF48844208D1012110
:1021E0002020FFF772FF00212020FFF76EFF7CE028
:1021F000DA48844208D101214014FFF759FF002139
:102200006014FFF755FF70E0D548844209D10121E1
:10221000C804FFF74DFF00214FF40020FFF748FFEF
:1022200063E0D048844209D101210805FFF740FF4F
:1022300000214FF48010FFF73BFF56E0CA4884426C
:1022400009D101214805FFF733FF00214FF40010A9
:10225000FFF72EFF49E0C548844208D10121402004
:10226000FFF733FF00214020FFF72FFF3DE0C0487C
:10227000844208D101218020FFF727FF0021802020
:10228000FFF723FF31E0BB48844208D101218015CC
:10229000FFF71BFF0021A015FFF717FF25E0B64849
:1022A000844209D101210804FFF702FF00214FF405
:1022B0008030FFF7FDFE18E0B048844209D10121CB
:1022C0004804FFF7F5FE00214FF40030FFF7F0FE61
:1022D0000BE0AB48844208D101218804FFF7E8FEF7
:1022E00000214FF48020FFF7E3FE10BD002202889A
:1022F000944B98420ED0994B98420BD0B0F1804F3E
:1023000008D0914B984205D0904B984202D0904B08
:10231000984204D14FF68F731A404B881A438D4B65
:10232000984207D08C4B984204D04FF6FF431A4096
:10233000CB881A4302808B8883850B880385814B69
:1023400098420BD0854B984208D08B4B984205D0D1
:102350008A4B984202D08A4B984201D10B7A03866D
:1023600001238382704770B5002400220023058C6E
:102370004FF6FE7635400584028C8388048B4FF639
:102380008F752C40B51E2C400D882C43751E2A409D
:102390000D892A434D882A436A4DA8420BD06F4DC0
:1023A000A84208D0744DA84205D0744DA84202D06E
:1023B000734DA84213D14FF6F7752A404D892A4331
:1023C0004FF6FB752A408D882A434FF6FF652B4058
:1023D0004FF6FF552B408D892B43CD892B438380AE
:1023E0000483CD888586028470BD70B500240022E8
:1023F0000023058C4FF6EF7635400584028C8388E8
:10240000048B48F6FF752C404FF6FF452C400D8895
:102410004FF6FF7606EA05252C434FF6DF752A4076
:102420000D8906EA05152A434D8806EA05152A4353
:10243000444DA84202D0494DA8421DD14FF67F75A8
:102440002A404D894FF6FF7606EA05152A434FF6D6
:10245000BF752A408D8806EA05152A434FF6FF35D9
:102460002B404FF2FF752B408D8906EA85052B43E3
:10247000CD8906EA85052B4383800483CD880587B3
:10248000028470BD70B5002400220023058C4FF635
:10249000FF6635400584028C8388848B4FF68F75E8
:1024A0002C404FF6FC752C400D882C434FF6FF5501
:1024B0002A400D894FF6FF7606EA05252A434D8806
:1024C00006EA05252A431F4DA84202D0234DA84203
:1024D0001DD14FF2FF752A404D894FF6FF7606EA6F
:1024E00005252A434FF6FF352A408D8806EA052543
:1024F0002A434EF6FF752B404DF6FF752B408D8914
:1025000006EA05152B43CD8906EA05152B43838082
:102510008483CD888587028470BD70B50022002336
:102520000024058C4EF6FF7635400584038C8488A4
:10253000828B48F6FF752A404FF6FF452A400D88EA
:1025400020E00000002C0140000400400008004092
:10255000000C004000100040001400400034014016
:10256000004C014000500140005401400018004060
:10257000001C004000200040004001400044014099
:10258000004801404FF6FF7606EA05252A434DF63E
:10259000FF752B400D8906EA05352B434D8806EA69
:1025A00005352B43FA4DA84202D0FA4DA84208D176
:1025B0004BF6FF752C408D894FF6FF7606EA8515A0
:1025C0002C4384808283CD88A0F84050038470BD62
:1025D000828B4FF2FF331A408283828B4FF6FF7358
:1025E00003EA01231A4382837047F0B50C4615466F
:1025F000002200210026078C4EF6FF7C07EA0C071C
:102600000784828B018C4FF6FF7707EA043640F689
:10261000FF473A404FF6FF7707EA05273A434FF660
:10262000FF7707EA03373A43D94FB8420ED0D94F64
:10263000B8420BD0B0F1804F08D0D74FB84205D088
:10264000D64FB84202D0D64FB84206D14DF6FF77EA
:10265000394046F48057394305E047F6FF57394083
:1026600044F48057394382830184F0BD828B4FF656
:10267000F3731A408283828B0A4382837047F0B5DA
:102680000C461546002200210026078C4FF6FF6CF1
:1026900007EA0C070784828B018C4FF6FF7707EA65
:1026A00004264FF60C773A404FF6FF7707EA0317F8
:1026B0002F433A43B64FB8420ED0B64FB8420BD074
:1026C000B0F1804F08D0B44FB84205D0B34FB842F4
:1026D00002D0B34FB84206D14FF6FF57394046F407
:1026E0008077394305E04FF2FF57394044F4807753
:1026F000394382830184F0BD028B4FF2FF331A40CD
:102700000283028B4FF6FF7303EA01231A4302830D
:102710007047F0B50C461546002200210026078CB4
:102720004FF6EF7C07EA0C070784028B018C4FF60B
:10273000FF7707EA041640F6FF473A404FF6FF7767
:1027400007EA03373A434FF6FF7707EA05273A438C
:102750008F4FB8420ED08F4FB8420BD0B0F1804FA0
:1027600008D08D4FB84205D08C4FB84202D08C4F64
:10277000B84206D14FF6DF77394046F010073943AB
:1027800005E04FF65F77394044F010073943028384
:102790000184F0BD028B4FF6F3731A400283028B63
:1027A0000A4302837047F0B50C461546002200210B
:1027B000068C4FF6FE773E400684028B018C4FF666
:1027C0000C7632407E1C06EA03162E433243704ECE
:1027D000B0420ED06F4EB0420BD0B0F1804F08D057
:1027E0006D4EB04205D06D4EB04202D06C4EB0423C
:1027F00006D14FF6FD76314044F00106314305E045
:102800004FF6F576314044F00106314302830184EE
:10281000F0BD70B505460C465D4885420ED05D485A
:1028200085420BD0B5F1804F08D05B48854205D07A
:102830005A48854202D05A48854200D100E000BF84
:10284000208850B92389A28861882846FFF7ABFF0A
:10285000E1882846FFF79EFF25E0208804280AD15A
:102860002389A28861882846FFF753FFE18828461C
:10287000FFF742FF17E0208808280AD12389A288A1
:1028800061882846FFF7FBFEE1882846FFF7EEFE49
:1028900009E02389A28861882846FFF7A6FEE1881F
:1028A0002846FFF795FE70BD2DE9F04105460C4620
:1028B00000260127608808B9022600E00026A088CB
:1028C000012801D1022700E001272088A0B923892F
:1028D000A28861882846FFF766FFE1882846FFF74F
:1028E00059FF23893A4631462846FFF712FFE1880F
:1028F0002846FFF701FF13E02389A2886188284654
:10290000FFF707FFE1882846FFF7F6FE23893A46DE
:1029100031462846FFF747FFE1882846FFF73AFF90
:10292000BDE8F0810A884B881A438B881A43CB880C
:102930001A430B891A434B891A438B891A43A0F80F
:10294000442070474FF6FF71818000210180C180D3
:102950004180017270470021018041808180C180E7
:10296000018141818181C1817047002101804180C5
:10297000012181800021C1800181704700210180F7
:1029800041808180C1800181418181817047000047
:10299000002C0140003401400004004000080040C9
:1029A000000C004021B1028842F00102028004E0E4
:1029B00002884FF6FE731A400280704731B1B0F8BA
:1029C000442042F40042A0F8442005E0B0F844203E
:1029D000C2F30E02A0F8442070471AB183890B435A
:1029E000838102E083898B438381704781827047B2
:1029F00041EA0203A0F8483070471AB183890B43BB
:102A0000838102E083898B438381704701894FF67C
:102A1000F8721140018170470A46002101894FF682
:102A20008F73194011430181704730B504460D463C
:102A300029462046FFF7F0FF208940F0070020815B
:102A400030BD2DE9F04104460D4616461F46602D67
:102A500006D13B46012231462046FFF75AFE05E0EB
:102A60003B46012231462046FFF79DFE294620467F
:102A7000FFF7D2FF208940F007002081BDE8F081F8
:102A800030B50C4600210189C9B24FF6FF7505EA41
:102A90000325154325432943018130BD2DE9F0412C
:102AA00005460E4617469846002443463A463146A8
:102AB0002846FFF7E5FF2C894FF6F870044044F0F4
:102AC00007044FF68F70044044F070042C81BDE879
:102AD000F081F0B504460D4616461F463B46324689
:102AE00029462046FFF7CCFF208940F48040208112
:102AF000F0BD0185828270470A46002101884FF6A9
:102B00008F731940114301807047F0B50C4615468C
:102B10001E460021002200230189028B038C4FF600
:102B2000F877394021434FF6FC473A4040F201170D
:102B30003A434FF6DD773B404FF6FF7707EA06173B
:102B40002F433B43018102830384F0BD0A460021E9
:102B5000018B4FF68F7319401143018370470A466A
:102B60000021018B48F6FF7319404FF6FF7303EA0B
:102B700002231943018370470A460021818B4FF6D7
:102B80008F7319401143818370470A460021818B5E
:102B900048F6FF7319404FF6FF7303EA0223194307
:102BA0008183704721B1028842F08002028004E0F4
:102BB00002884FF67F731A400280704721B18288E5
:102BC00042F00402828004E082884FF6FB731A40D0
:102BD0008280704721B1828842F00802828004E03E
:102BE00082884FF6F7731A408280704721B182883D
:102BF00042F00102828004E082884FF6FE731A40A0
:102C0000828070470A460021018B4FF6F773194006
:102C10001143018370470A460021018B4FF2FF7375
:102C200019404FF6FF7303EA0223194301837047EB
:102C30000A460021818B4FF6F773194011438183B7
:102C400070470A460021818B4FF2FF7319404FF6FF
:102C5000FF7303EA02231943818370470A46002168
:102C6000018B4FF6FB7319401143018370470A46ED
:102C70000021018B4FF6FF3319404FF6FF7303EA33
:102C800002231943018370470A460021818B4FF6C6
:102C9000FB7319401143818370470A460021818BE1
:102CA0004FF6FF3319404FF6FF7303EA022319432F
:102CB000818370470A460021018B4FF67F731940CC
:102CC0001143018370470A460021018BC1F30E01B5
:102CD0004FF6FF7303EA02231943018370470A4644
:102CE0000021818B4FF67F73194011438183704718
:102CF0000A460021818BC1F30E014FF6FF7303EAF0
:102D000002231943818370470A460021018C4FF644
:102D1000FD7319401143018470470A460021018C5C
:102D20004FF6F77319401143018470470A4600219A
:102D3000018C4FF6DF7319404FF6FF7303EA02135D
:102D40001943018470470A460021018C4FF67F73B6
:102D500019404FF6FF7303EA0213194301847047C9
:102D60000A460021018C4FF6FF5319404FF6FF73BE
:102D700003EA02231943018470470A460021018CAB
:102D80004FF2FF7319404FF6FF7303EA0223194312
:102D9000018470470A460021018C4DF6FF731940EB
:102DA0004FF6FF7303EA023319430184704730B5CD
:102DB000002301248C40A3B2048C9C430484048C23
:102DC00002FA01F5ADB22C43048430BD30B50023C6
:102DD00004248C40A3B2048C9C430484048C02FA27
:102DE00001F5ADB22C43048430BD70B5034600201C
:102DF00000241846183001258D40ACB21D8CA54327
:102E00001D8409B1082909D100EB6100056825F08E
:102E1000700505600568154305600EE00D1FC5F3DC
:102E20004E052844056825F4E045056005684FF621
:102E3000FF7606EA02263543056070BD21B102889F
:102E400042F00202028004E002884FF6FD731A404D
:102E50000280704721B1028842F00402028004E03F
:102E600002884FF6FB731A400280704721B18288B6
:102E700042F08002828004E082884FF67F731A401D
:102E80008280704702884FF6F7731A4002800288EA
:102E90000A430280704782884FF68F731A408280FF
:102EA00082880A438280704702894FF6F8731A407D
:102EB000028102890A430281704702894FF67F73BB
:102EC0001A40028102890A43028170478184704757
:102ED0008185704781867047018770478187704779
:102EE000A0F84010704702884FF6FF431A40028056
:102EF00002880A43028070470146888E7047014667
:102F0000088F70470146888F70470146B1F840002E
:102F100070470146888C70470146088D704702460D
:102F20000020138A0B400BB1012000E00020704705
:102F3000CA430282704730B50246002000230024B5
:102F4000158A05EA0103958905EA010413B10CB15C
:102F5000012000E0002030BDCA430282704700001B
:102F600010B50446FB48844209D101218803FFF7CC
:102F70009FF800214FF48040FFF79AF832E0F648BE
:102F8000844209D101214804FFF79FF800214FF442
:102F90000030FFF79AF825E0F048844209D101217A
:102FA0008804FFF792F800214FF48020FFF78DF896
:102FB00018E0EB48844209D10121C804FFF785F8E5
:102FC00000214FF40020FFF780F80BE0E548844231
:102FD00008D101210805FFF778F800214FF480108F
:102FE000FFF773F810BD2DE9F04786B005460E4691
:102FF0000024A24600BFA1460027B08900B100BF4F
:103000002F462C8A4CF6FF700440F08804432C8233
:10301000AC894EF6F3100440B088318908437189B9
:1030200008430443AC81AC8A4FF6FF400440B089AA
:103030000443AC8201A8FEF7B4FFC648874202D120
:10304000DDF810A001E0DDF80CA0A88900F4004034
:1030500040B10AEBCA0000EB0A1031684900B0FB2E
:10306000F1F807E00AEBCA0000EB0A1031688900AA
:10307000B0FBF1F86420B8FBF0F0040120096421F2
:1030800001FB1089A88900F4004040B1322000EB18
:10309000C900B0FBF1F000F00700044308E0322063
:1030A00000EB09106421B0FBF1F000F00F000443C5
:1030B0002C8106B0BDE8F0874FF416510160002165
:1030C0008180C18001810C21418100218181704773
:1030D00010B502460020108A4FF2FF0318400B88FB
:1030E0004C8823438C882343CC8823431843108285
:1030F00010BD0021018041808180C180704721B1D5
:10310000828942F40052828104E082894DF6FF7385
:103110001A4082817047F0B503460024002600253E
:10312000002040F66A17B94200D100BF1846C1F32B
:10313000421401F01F06012707FA06F5012C01D100
:103140000C3004E0022C01D1103000E014301AB130
:1031500007682F43076002E00768AF430760F0BDD0
:103160001AB1838A0B43838202E0838A8B43838272
:103170007047028A4FF6F0731A400282028A0A43AD
:103180000282704782894FF2FF731A4082818289DE
:103190000A438281704721B1828942F00202828112
:1031A00004E082894FF6FD731A4082817047028ADB
:1031B0004FF6DF731A400282028A0A430282704786
:1031C00021B1028A42F48042028204E0028A4BF674
:1031D000FF731A4002827047C1F308028280704771
:1031E00001468888C0F308007047818941F00101D9
:1031F00081817047028BD2B20283028B42EA0122A4
:1032000002837047028B02F47F420283028B0A43DF
:103210000283704721B1828A42F02002828204E058
:10322000828A4FF6DF731A408282704721B1828A08
:1032300042F01002828204E0828A4FF6EF731A4055
:103240008282704721B1828A42F00802828204E0C1
:10325000828A4FF6F7731A408282704721B18289C1
:1032600042F40042828103E08289C2F30E0282812D
:10327000704721B1828A42F40062828204E0828A2D
:103280004FF2FF731A4082827047828A4FF6FB73B7
:103290001A408282828A0A438282704721B1828ADE
:1032A00042F00202828204E0828A4FF6FD731A40E5
:1032B0008282704702460020B1F5007F00D100BF36
:1032C00013880B400BB1012000E00020704701F48F
:1032D0000072B2F5007F00D100BFCA430280704780
:1032E00070B50246002400230025002040F66A162F
:1032F000B14200D100BFC1F3421501F01F03012606
:1033000006FA03F3012D02D19689334006E0022D1F
:1033100002D1168A334001E0968A33400C1201260E
:1033200006FA04F41688344013B10CB1012000E011
:10333000002070BD10B50022002340F66A14A1429F
:1033400000D100BF0A1201249440A3B2DC430480E0
:1033500010BD00000038014000440040004800401B
:10336000004C0040005000402DE9F04104460D465D
:103370002169206804F0ECF860606169606804F01D
:10338000E7F806463146606804F050F9E0602846E8
:10339000A16804F0B1FB0746E16804F0A5FA06460F
:1033A000A16804F0D5F8A0604FF07E50E16804F009
:1033B000A3FB0646616804F097FA2060BDE8F0813F
:1033C0002DE9F04F8DB007460D4616464FF07C5B59
:1033D0004FF07E500C90FE480B900A90FD4801681B
:1033E000284604F089FB3146019004F07DFA8246BC
:1033F000F9480168504604F0ABF8F7494860F748CF
:103400004168F34804F078FB8246F44881685046EE
:1034100004F072FB0290F148C06880F00040039015
:10342000EE48C06880F000400490E94805903146BD
:10343000029804F059FA8246E8480168504604F0C0
:1034400087F8E64908603146039804F04DFA824651
:10345000E2484168504604F07BF8E0494860314654
:10346000049804F041FA8246DC488168504604F032
:103470006FF8DA4988603146059804F035FA8246DB
:10348000D648C168504604F063F8D449C86008467D
:1034900001684FF07E5004F027FA0446CF48816857
:1034A0004FF07E5004F020FA069021464FF07E50F7
:1034B00004F01AFA8246594604F04AF88146494611
:1034C000204604F0B3F809904946069804F0AEF897
:1034D0000890A046C14841684FF07E5004F004FABD
:1034E00007904146099804F0FFF98246BB480168FD
:1034F000504604F0F6FAB94908600799099804F0B3
:10350000F3F98246B5484168504604F0EAFAB349F7
:1035100048604146089804F0E7F98246AF48816860
:10352000504604F0DEFAAD498860DDE9071004F08A
:10353000DBF98246A948C168504604F0D2FAA7498F
:10354000C860A5484168384604F0D6FA0190099948
:1035500004F0CAF98246A0484168504603F0F8FFDB
:103560009D49886008464168384604F0C5FA0190D4
:10357000089904F0B9F9824696480168504603F06C
:10358000E7FF9449086094488068934908600846BA
:1035900080680DB0BDE8F08F016042604FF07E534F
:1035A0008360C3608E4B03618E4B436170472DE98E
:1035B000F04704460D462168A06804F095F92060A4
:1035C000A168084604F090F90746616804F08CF998
:1035D0000646216903F0BCFF6060E168606804F0A2
:1035E00083F98146E16804F07FF90746616903F0D9
:1035F000AFFF0646E168606804F076F98046314620
:1036000004F014F8A0612168E06804F06DF98046C8
:10361000294604F066FA0746A16904F065F90646F2
:10362000216803F095FF2060E168A06904F05CF96F
:1036300007464FF07E5104F054FA0646616804F0E4
:1036400053F960602068BDE8F08710B50B6803602F
:103650004B684360136883605468C4609468046175
:10366000D46844614FF07E5383615F4CC461002491
:1036700004621C46446283620024C4625B4B0363A1
:103680001C464463836310BD2DE9F05F04460D467C
:103690006168E06904F028F981462168A06904F0B6
:1036A00023F98246494603F053FF20606168606A4F
:1036B00004F01AF981462168206A04F015F982465F
:1036C000494603F045FF60602169E06904F00CF9A8
:1036D0008246A168A06904F007F98346514603F0C9
:1036E00037FF8146216B03F033FFA0606169606A98
:1036F00004F0FAF88146E168A06904F0F5F8824622
:10370000494603F025FFE0602169E06904F0ECF828
:103710008146A168206A04F0E7F88246494603F032
:1037200017FF20616169606A04F0DEF88246E16893
:10373000206A04F0D9F88346514603F009FF814618
:10374000616B03F005FF6061E16AE06804F0CCF8AA
:103750008146A16AA06804F0C7F88246494603F092
:10376000F7FE0646E16A606904F0BEF88146A16A88
:10377000206904F0B9F88246494603F0E9FE07469D
:103780003946E06A04F0B0F882463146A06A04F097
:10379000ABF88346A16B03F0DBFE8146514603F094
:1037A000D7FE80464146304603F040FFE063414685
:1037B000384603F03BFF20646168E06A04F094F847
:1037C00081462168A06A04F08FF8824649460FE0DE
:1037D0006F12833AC8000020D4020020E0020020CB
:1037E000000048430000FA43CDCCCC3DBD378635C0
:1037F00003F0AEFE80464146284604F07DF982463D
:10380000E16B04F071F88146216803F0A1FE2060AD
:103810004146284604F070F98246216C04F064F8B1
:103820008146616803F094FE6060A16AE06B04F079
:103830005BF882464FF07E5104F053F98146A1684F
:1038400004F052F8A060E16AE06B04F04DF88246A3
:103850004FF07E5104F045F98146E16804F044F8E8
:10386000E060A16A206C04F03FF882464FF07E5180
:1038700004F037F98146216904F036F82061E16AE5
:10388000206C04F031F882464FF07E5104F029F9A3
:103890008146616904F028F860612068BDE8F09F06
:1038A0002DE9F04106460F469046002418E0002519
:1038B00012E004EB44022A4457F8221004EB4402BD
:1038C0002A4456F8220003F043FE04EB4401294445
:1038D00048F82100681CC5B2032DEADB601CC4B2A5
:1038E000032CE4DBBDE8F0812DE9F04106460F46EC
:1038F0009046002418E0002512E004EB44022A441C
:1039000057F8221004EB44022A4456F8220004F02F
:10391000F3F804EB4401294448F82100681CC5B2BF
:10392000032DEADB601CC4B2032CE4DBBDE8F081AC
:103930002DE9F04780468946164600242DE00025F3
:1039400027E0002004EB4401294446F82100002729
:103950001BE007EB47022A4459F8221004EB44020B
:103960003A4458F8220003F0BFFF824604EB4400BB
:10397000284456F82010504603F0EAFD04EB4401B9
:10398000294446F82100781CC7B2032FE1DB681CEC
:10399000C5B2032DD5DB601CC4B2032CCFDBBDE860
:1039A000F08703B5CFB0CC4A10465099FFF778FFA7
:1039B000CA4ACB491046FFF773FF44AAC6494F983D
:1039C000FFF792FF17AAC749C448FFF769FF189885
:1039D00009901F980890099903F086FF0A901A9899
:1039E000014609900A9803F07FFF0C901E980790FB
:1039F0001C980690079903F077FF089017980146E6
:103A00000790089803F070FF0A901B98059019988A
:103A10000490059903F068FF06901D9801460590F3
:103A2000069803F061FF08901A9803901998029085
:103A3000039903F059FF04901E98014603900498DF
:103A400003F052FF06901C9801901898009001997D
:103A500003F04AFF02901D9801460190029803F07E
:103A600043FF04901B98019017980090019903F070
:103A70003BFF02901F9801460190029803F034FF2B
:103A80000390049903F064FD0590069903F060FD2E
:103A90000790089904F030F809900A9904F02CF87E
:103AA0000B900C9904F028F80D901E9809901C9822
:103AB0000890099903F018FF0B901F9809901B9824
:103AC0000890099903F010FF0A900B9904F014F87C
:103AD0000C900D9903F0AAFD0E901F98099018986C
:103AE0000890099903F000FF0B901E98099019980F
:103AF0000890099903F0F8FE0A900B9903F0FCFF77
:103B00000C900D9903F092FD0F901D9809901B9851
:103B10000890099903F0E8FE0B901E9809901898F8
:103B20000890099903F0E0FE0A900B9903F0E4FF76
:103B30000C900D9903F07AFD10901F9809901A9837
:103B40000890099903F0D0FE0B901D9809901C98DD
:103B50000890099903F0C8FE0A900B9903F0CCFF76
:103B60000C900D9903F062FD11901D980990199821
:103B70000890099903F0B8FE0B901F9809901798C8
:103B80000890099903F0B0FE0A900B9903F0B4FF76
:103B90000C900D9903F04AFD12901C98099017980B
:103BA0000890099903F0A0FE0B901A9809901998B3
:103BB0000890099903F098FE0A900B9903F09CFF76
:103BC0000C900D9903F032FD13901D9809901B98ED
:103BD0000890099903F088FE0B901E9809901A9896
:103BE0000890099903F080FE0A900B9903F084FF76
:103BF0000C900D9903F01AFD14901E9809901798D7
:103C00000890099903F070FE0B901D980990189880
:103C10000890099903F068FE0A900B9903F06CFF75
:103C20000C900D9903F002FD15901A9809901898C0
:103C30000890099903F058FE0B901B98099017986B
:103C40000890099903F050FE0A900B9903F054FF75
:103C50000C900D9903F0EAFC169032AA0EA91F48A9
:103C6000FFF766FE29AA44A932A8FFF761FE1A4AA7
:103C700029A91046FFF714FE20AA32A91A48FFF717
:103C800033FE3BAA154920A8FFF752FE00204E90B4
:103C90001DE000204D9013E04E9800EB40014D9840
:103CA00008443BA951F820104E9800EB40024D9873
:103CB00010440A4A42F820104D98401CC0B24D9062
:103CC0004D980328E8DB4E98401CC0B24E904E98A9
:103CD0000328DEDB51B000BDB00200203800002018
:103CE000A4000020800000205C0000202DE9F05F8F
:103CF00004464FF07F594FF07C51204603F0F4FD0D
:103D0000824625462E46FE48A0EB660635462946E5
:103D1000504603F0E9FD8346294603F0E5FD804661
:103D2000494603F0DEFE0746294603F0DDFD054661
:103D30002846BDE8F09F10B504460021204603F058
:103D40009FFD02D284F0004010BD2046FCE70FB575
:103D5000ABB0EC480168006803F0C6FD1490EA4877
:103D60000168E848006803F0BFFD1390E748016868
:103D7000E448006803F0B8FD1290E5480168E148A6
:103D8000006803F0B1FD1190DF480168006803F09E
:103D9000ABFD1090DD480168DB48006803F0A4FD2E
:103DA0000F90DB480168D848006803F09DFD0E9035
:103DB000D6480168006803F097FD0D90D44801686B
:103DC000D248006803F090FD0C90D148016800686B
:103DD00003F08AFD0B902D9803F08EFBCD4ACE4B5D
:103DE000CDE9060103F0AEF8CDE9080102F010FEBE
:103DF0000A902B9803F080FBC84AC94BCDE9040117
:103E000002F0F4FEC74AC84BCDE9060103F09AF868
:103E1000CDE9080102F0FCFD2B902C9803F06CFB1F
:103E2000BE4ABF4BCDE9040102F0E0FEBD4ABE4BE5
:103E3000CDE9060103F086F8CDE9080102F0E8FDBE
:103E40002C902D9803F058FBB44AB54BCDE90401F2
:103E500002F0CCFEB34AB44BCDE9060103F072F890
:103E6000CDE9080102F0D4FD2D903199084603F008
:103E70003BFD08903099084603F036FD06902E99D8
:103E8000084603F031FD0590069903F061FB0790A9
:103E9000089903F05DFB0990FFF728FF2390239911
:103EA0002E9803F021FD2E902399309803F01CFDED
:103EB00030902399319803F017FD319034990846DA
:103EC00003F012FD08903399084603F00DFD0690AB
:103ED0003299084603F008FD0590069903F038FB77
:103EE0000790089903F034FB0990FFF7FFFE239039
:103EF0002399329803F0F8FC32902399339803F019
:103F0000F3FC33902399349803F0EEFC349012992B
:103F10000E9803F01DFB0690349903F0E5FC089021
:103F200011990F9803F0E8FD0490339903F0DCFC3D
:103F300006904FF07C500D9903F0DEFD03900B9935
:103F400003F0DAFD0490329903F0CEFC0590069957
:103F500003F0FEFA0790089903F0FAFA4FF0804157
:103F6000099003F0C1FC229013990C9803F0C4FD52
:103F70000690349903F0B8FC08904FF07C501099EB
:103F800003F0BAFD03900B9903F0B6FD049033994A
:103F900003F0AAFC069011990F9803F0D9FA049047
:103FA000329903F0A1FC0590069903F0D1FA07902D
:103FB000089903F0CDFA4FF08041099003F094FC8A
:103FC00021904FF07C50109903F096FD05900D99CB
:103FD00003F092FD07904FF08040349903F084FC89
:103FE0000690079903F080FC099013990C9803F050
:103FF000AFFA05904FF08040339903F075FC0490C0
:10400000059903F071FC079012990E9803F074FD66
:1040100005904FF08040329903F066FC04900599BA
:1040200003F062FC0690079903F092FA0890099950
:1040300003F08EFA20902199084603F055FC049075
:104040002299084603F050FC0390049903F080FA8B
:10405000059003F051FACDE9060102F09DFCCDE98F
:10406000080102F0D5FC1F9020981E9012990E981E
:1040700003F042FD4FF08041099003F035FC1D90A4
:104080000C99139803F064FA4FF08041099003F003
:104090002BFC1C901099149803F02EFD08900D999C
:1040A00003F02AFD09900B9903F052FA1B90129924
:1040B0000E9803F021FD07904FF080401E9903F009
:1040C00013FC0690079903F00FFC09904FF07C5009
:1040D0000D9903F011FD05900B9903F00DFD07906C
:1040E0004FF080401F9903F0FFFB0690079903F003
:1040F000FBFB0890099903F02BFA1A900C9915E034
:10410000DF59375FCC000020D0000020D400002011
:10411000D800002030689DC8FE3F9F3F52B81E85E2
:10412000EB614040AF99D76C40DF913F139803F0AB
:104130000FFA07904FF080401E9903F0D5FB0690D0
:10414000079903F0D1FB099011990F9803F0D4FC63
:1041500007904FF080401F9903F0C6FB0690079927
:1041600003F0C2FB0890099903F0F2F919904FF09F
:104170007C50109903F0C0FC05900D9903F0BCFC35
:1041800007904FF080401E9903F0AEFB0690079910
:1041900003F0AAFB09900E99129803F0D9F9079041
:1041A0004FF080401F9903F09FFB0690079903F0A2
:1041B0009BFB0890099903F0CBF918901999349852
:1041C00003F092FB07901899339803F08DFB06904B
:1041D000079903F091FC09901C99319803F084FB36
:1041E00007901B99309803F07FFB0690079903F026
:1041F00083FC0890099903F0ABF91790189932984D
:1042000003F072FB07901A99349803F06DFB069047
:10421000079903F071FC09901B992E9803F064FB39
:1042200007901D99319803F05FFB0690079903F002
:1042300063FC0890099903F08BF916901A9933984A
:1042400003F052FB07901999329803F04DFB06904A
:10425000079903F051FC09901D99309803F044FB35
:1042600007901C992E9803F03FFB0690079903F0E6
:1042700043FC0890099903F06BF9159000211798F9
:1042800003F096FA2DD00021169803F091FA28D069
:104290000021159803F08CFA23D0FE49179803F0FB
:1042A00023FB0990FC480168099803F051F9FA4989
:1042B0000860F849169803F017FB0990F748016861
:1042C000099803F045F9F5490860F249159803F09B
:1042D0000BFB0990F2480168099803F039F9F0499D
:1042E00008603098FFF727FD079003F005F9ED4AC5
:1042F000ED4BCDE9080102F0E9FD21D24FF07E51EE
:10430000319803F0F9FB0690FFF715FD079003F0D5
:10431000F3F8E44AE44BCDE9080102F0D7FD0FD2EF
:10432000E248179903F0E0FA08902B9903F010F98E
:104330000990D9480168099803F00AF92B9001E027
:104340002B982B902E98FFF7F6FC079003F0D4F8EB
:10435000D44AD54BCDE9080102F0B8FD21D24FF087
:104360007E51319803F0C8FB0690FFF7E4FC0790FC
:1043700003F0C2F8CB4ACC4BCDE9080102F0A6FD10
:104380000FD2CA48169903F0AFFA08902C9903F09F
:10439000DFF80990C1480168099803F0D9F82C901A
:1043A00001E02C982C902E98FFF7C5FC079003F0A5
:1043B000A3F8BC4ABC4BCDE9080102F087FD1CD232
:1043C0003098FFF7B8FC079003F096F8B54AB64B63
:1043D000CDE9080102F07AFD0FD2B448159903F037
:1043E00083FA08902D9903F0B3F80990AC4801685E
:1043F000099803F0ADF82D9001E02D982D90AC4870
:104400002D99006803F070FA0790AA482C9900686B
:1044100003F06AFA0590A848006880F00040039015
:104420002B9903F061FA0490059903F065FB06905F
:10443000079903F061FBA149089003F055FA099030
:104440009F480168099803F083F89D4908609848DF
:104450002C99006803F048FA079096482D99006857
:1044600003F042FA0590964801682B9803F03CFA55
:104470000490059903F06CF80690079903F03CFB53
:104480008E49089003F030FA09908B48016809982A
:1044900003F05EF888490860854801682B9803F0AE
:1044A00023FA079084482D99006803F01DFA0590BF
:1044B00083482C99006803F017FA0490059903F0DB
:1044C0001BFB0690079903F043F87C49089003F022
:1044D0000BFA099077480168099803F039F8754993
:1044E0000860084601682B9803F0FEF907907248AF
:1044F0002C99006803F0F8F9059071482D9900682F
:1045000003F0F2F90490059903F022F80690079958
:1045100003F0F2FA6949089003F0E6F9099064485B
:104520000168099803F014F861490860109914981B
:1045300003F00EF807900D9903F00AF808900B9914
:1045400003F006F80990FFF7D1FB23905C4823990C
:10455000006803F0C9F95A49086057482399006870
:1045600003F0C2F95449086052482399006803F0E7
:10457000BBF9504908604E482399006803F0B4F92C
:104580004B4908604FF080400D9903F0ADF903905E
:104590004FF04040109903F0A7F90290039903F0FF
:1045A000ABFA4FF07E51049002F0D2FF059002F07A
:1045B000A3FFCDE908014FF08040139903F094F96F
:1045C00004904FF080400C9903F08EF90390049909
:1045D00002F0BEFF059002F08FFFCDE90601DDE994
:1045E000082302F019F9CDE928014FF08040129913
:1045F00003F07AF906904FF040400E9903F074F9F9
:104600000590069902F0A4FF079002F075FFCDE92E
:10461000080101F0B9FECDE926014FF080400B9969
:1046200003F062F904904FF080400D9903F05CF9BB
:104630004FF07E51029003F054FA0390049903F076
:104640005BFA059002F058FFCDE908014FF0804079
:10465000119903F049F904904FF080400F9903F04D
:1046600043F90390049902F073FF059002F044FFB0
:10467000CDE90601DDE9082302F0CEF8CDE92401F9
:10468000104A114BDDE9280102F05CFCCDE928015C
:104690000C4A1BE017B7D138DC000020E0000020F6
:1046A000E4000020CDCCCCCCCCCCEC3F00002041B1
:1046B000D8000020D4000020D00000200AD7233BDF
:1046C000CC00002031B3CF6394A94C404C4BDDE9C2
:1046D000260102F037FCCDE926014A4A484BDDE9C4
:1046E000240102F02FFCCDE92401DDE9280102F0CC
:1046F0008FF945498860DDE9260181F00041CDE967
:10470000080102F085F940494860DDE9240102F022
:104710007FF93D49C8604FF080410A9803F0B0F935
:1047200005D34FF040410A9803F0AAF821D22D9802
:1047300002F0E2FE354A364BCDE9000102F002FC00
:10474000344A354BCDE9020102F0FCFBCDE906010C
:104750002D480068039002F0CFFECDE90401DDE9A9
:10476000062302F087F9CDE9080102F051F9264944
:1047700008602548C0682949099003F081F906D2EC
:10478000214800682649099003F07AF80DD31E48A5
:10479000C0682349099003F073F81CD21A480068D6
:1047A0001E49099003F06CF915D21748C0681D49DD
:1047B000079003F099F809901348006880F00040D2
:1047C0001949079003F090F80890099902F0C0FE8B
:1047D0000D49086012E00C48C0681249079003F0C8
:1047E00083F80990084800680F49079003F07CF8A7
:1047F0000890099902F0ACFE034908602FB000BD93
:1048000094A94C4031B3CF63F002002030689DC8BA
:10481000FE3F9F3F7B14AE47E17A743F0000B442F5
:104820000000B4C20AD7A33C48E17A3F2DE9F04129
:104830007249B1F9000002F031FB07460022704BCB
:1048400002F080FB054602F0E3F8044621466D487D
:10485000FEF78AFD6949B1F9020002F01FFB074625
:104860000022674B02F06EFB054602F0D1F80446C9
:10487000214664481830FEF777FD6049B1F904001D
:1048800002F00CFB074600225D4B02F05BFB054685
:1048900002F0BEF8044621465A483030FEF764FD67
:1048A0005849886802F0B8FF00B254490880554959
:1048B000086A02F0B1FF00B2504948805149886B44
:1048C00002F0AAFF00B24D498880BDE8F0812DE9D1
:1048D000F0414D4E4D49B1F9000002F0B9FF80465C
:1048E000314603F001F8054649490868494902F094
:1048F000FBFF0746294602F02BFE454904460860A7
:1049000002F08AFF00B241490880B1F9020002F0CA
:104910009FFF8046314602F0E7FF05463C49486864
:104920003C4902F0E1FF0746294602F011FE3849F2
:104930000446486002F070FF00B234494880B1F983
:10494000040002F085FF8046314602F0CDFF0546A7
:104950002F4988682F4902F0C7FF0746294602F011
:10496000F7FD2B490446886002F056FF00B2274944
:104970008880BDE8F0812DE9F0412749C86802F040
:10498000BBFD074600221E4B02F0DCFA054602F092
:104990003FF8044621462148FEF7E6FC1E49086917
:1049A00002F0AAFD07460022154B02F0CBFA05469D
:1049B00002F02EF80446214618481830FEF7D4FCC1
:1049C0001549486902F098FD074600220C4B02F099
:1049D000B9FA054602F01CF8044621460F4830306B
:1049E000FEF7C2FC0D4880680B49C8600B48006A9E
:1049F00008610A48806B4861BDE8F081D001002061
:104A00000000F03FE80000209A99193EDC010020E8
:104A1000180300209A99593F7C01002030010020A2
:104A200010B5044600BF4021FE48FEF743FC0028B5
:104A3000F9D02146FB48FEF7CFFB10BD70B5054607
:104A40000E46002404E0285DFFF7EAFF601CC4B2B4
:104A5000B442F8DB70BDF0B589B006460F46154686
:104A60001C2D01DD09B0F0BD002101AAE81C115484
:104A700088208DF804008DF805608DF8065000241C
:104A800005E0395DE01C01AA1154601CC4B2AC42BF
:104A9000F7DB00240AE001A9E81C085C095D084472
:104AA000C1B201AAE81C1154601CC4B2E81C8442C3
:104AB000F1DB002405E001A9085DFFF7B1FF601CF0
:104AC000C4B2281D8442F6DB00BFCBE72DE9FE43CC
:104AD00004460D4617461E46DDE90A89200A8DF870
:104AE0000000E0B28DF80100280A8DF80200E8B25B
:104AF0008DF80300380A8DF80400F8B28DF805002F
:104B0000300A8DF80600F0B28DF807004FEA182041
:104B10008DF8080008F0FF008DF809004FEA192011
:104B20008DF80A0009F0FF008DF80B000C22694691
:104B3000A120FFF790FFBDE8FE832DE9F04F87B07D
:104B400004460D4616461F46DDE911ABDDF84090E0
:104B50004FF0000806E000200DF8080008F1010001
:104B600000F0FF08B8F11C0FF5DB200A8DF80000FB
:104B7000E0B28DF80100280A8DF80200E8B28DF845
:104B80000300300A8DF80400F0B28DF80500380AF1
:104B90008DF80600F8B28DF807004FEA19208DF85D
:104BA000080009F0FF008DF809004FEA1A208DF87F
:104BB0000A000AF0FF008DF80B004FEA1B208DF869
:104BC00012000BF0FF008DF813001398000A8DF807
:104BD00014001398C0B28DF815001498000A8DF8CF
:104BE00016001498C0B28DF817001C226946AF2039
:104BF000FFF731FF07B0BDE8F08F2DE9F04F8FB020
:104C000006460F4690469946DDF860B00024A2465D
:104C10000025AA222146641C01A842542146641C96
:104C2000425402222146641C425400222146641C44
:104C300042540E969DF839202146641C42549DF83A
:104C400038202146641C42540E979DF83920214695
:104C5000641C42549DF838202046611CCCB201A946
:104C60000A54CDF838809DF839202046611CCCB21A
:104C700001A90A549DF838202046611CCCB201A934
:104C80000A54CDF838909DF839202046611CCCB2EA
:104C900001A90A549DF838202046611CCCB201A914
:104CA0000A54CDF838B09DF839202046611CCCB2AA
:104CB00001A90A549DF838202046611CCCB201A9F4
:104CC0000A5419980E909DF839202046611CCCB2E8
:104CD00001A90A549DF838202146601CC4B201A8DD
:104CE00042541A980E909DF839202046611CCCB28F
:104CF00001A90A549DF838202046611CCCB201A9B4
:104D00000A541B980E909DF839202046611CCCB2A5
:104D100001A90A549DF838202146601CC4B201A89C
:104D200042541C980E909DF839202046611CCCB24C
:104D300001A90A549DF838202046611CCCB201A973
:104D40000A54201FC0B28DF8070000BF06E001A87A
:104D5000405D504400F0FF0A681CC5B2A542F6DB76
:104D60002046611CCCB201A901F800A0214601A88F
:104D7000FFF764FE0FB0BDE8F08F7FB58EB0002462
:104D800000260025AA222146641C01A8425421467F
:104D9000641C425403222146641C425400222146D2
:104DA000641C42549DF839202146641C42549DF8ED
:104DB00038202146641C42549DF83D202146641C45
:104DC00042549DF83C202046611CCCB201A90A54F3
:104DD0009DF841202046611CCCB201A90A549DF8DF
:104DE00040202046611CCCB201A90A549DF8452000
:104DF0002046611CCCB201A90A549DF844202046EB
:104E0000611CCCB201A90A549DF859202046611CAE
:104E1000CCB201A90A549DF858202046611CCCB29E
:104E200001A901E0003801400A549DF85D202046A8
:104E3000611CCCB201A90A549DF85C202046611C7B
:104E4000CCB201A90A549DF861202046611CCCB265
:104E500001A90A549DF860202046611CCCB201A92A
:104E60000A549DF865202046611CCCB201A90A5461
:104E70009DF864202046611CCCB201A90A549DF81B
:104E800069202046611CCCB201A90A549DF8682013
:104E90002046611CCCB201A90A549DF86D20204621
:104EA000611CCCB201A90A549DF86C202046611CFB
:104EB000CCB201A90A54201FC0B28DF8070000BF70
:104EC00005E001A8405D3044C6B2681CC5B2A542E9
:104ED000F7DB2046611CCCB201A90E54214601A883
:104EE000FFF7ACFD12B070BD2DE9F04F91B08246D6
:104EF0000E4617469846DDF868B00024A146002506
:104F0000CDF80880AA222146641C04A842542146F8
:104F1000641C425401222146641C42540022214652
:104F2000641C42544249504602F0DEFC019002F0FB
:104F300073FC00B203909DF80D202146641C04A868
:104F400042549DF80C202146641C42543849304696
:104F500002F0CAFC019002F05FFC00B203909DF8E1
:104F60000D202146641C04A842549DF80C202046C4
:104F7000611CCCB204A90A542D49384602F0B4FC95
:104F8000019002F049FC00B203909DF80D202146EB
:104F9000601CC4B204A842549DF80C202046611C39
:104FA000CCB204A90A549DF80B202046611CCCB257
:104FB00004A90A549DF80A202046611CCCB204A919
:104FC0000A549DF809202046611CCCB204A90A5459
:104FD0009DF808202146601CC4B204A84254204613
:104FE000611CCCB204A901F800B02146621CD4B205
:104FF00004AA1B985054201FC0B28DF8130000BFA4
:1050000006E004A8405D484400F0FF09681CC5B2F2
:10501000A542F6DB2046611CCCB204A901F8009041
:10502000214604A8FFF70AFD11B0BDE8F08F00008B
:105030000000C8422DE9F04389B001213348FDF753
:105040007AFF00285ED001213048FDF785FF304807
:105050000068401C2E49086006AA07A908A8FBF7AB
:1050600082FE06AA07A908A8FBF7B2FEFFF72FFCED
:10507000FFF7DCFB2749B1F9040002F0E9FB044625
:105080002449B1F9020002F0E3FB05462149B1F9D8
:10509000000002F0DDFB06461F49B1F9040002F0F2
:1050A000D7FB07461C49B1F9020002F0D1FB80464C
:1050B0001949B1F9000002F0CBFB8146174840695D
:1050C00016490969154AD2683346CDE90054CDE93D
:1050D000022104903A4641464846FEF738FE0C4805
:1050E00000680321B0FBF1F201FB120018B9FBF7D5
:1050F000AFF9FFF740FC06480068782802D100208D
:105100000349086009B0BDE8F0830000002C0140AD
:1051100078010020D0010020DC0100207C0100206B
:10512000704700000FB4044910B503AA029800F0BC
:105130003FFB10BC5DF814FB040000202DE9F0419A
:105140000646002410687529314616A510D0AFF325
:105150000080002802DA404213A507E031688A0780
:1051600001D512A502E0490704D511A5012401E0EB
:10517000AFF3008000210A2206F1240709E0B0FB0A
:10518000F2FCB0FBF2F302FB1C00303078541846FE
:10519000491C0028F3D123462A463046BDE8F04199
:1051A00000F09EB8000000002D0000002B00000061
:1051B000200000002DE9F0474FF0000A8946044620
:1051C000C0F820A02046E1688847002876D025282E
:1051D00006D0D4E901219047206A401C2062F1E703
:1051E000E168204600258847C4F81CA00646002731
:1051F000C4F818A02A2E09D0304601F0BDF838B303
:1052000004EB8708303EC8F8186019E059F8041B11
:10521000204604EB87029161E1688847012F06462A
:1052200018D1E069002820DA25F020051DE0D8F823
:10523000180000EB800006EB40003038C8F818007A
:105240002046E1688847064601F096F80028EED12E
:10525000012F0AD02E2E08D12046E16888477F1CF6
:105260000646022F45F02005C4DBA069002803DABA
:10527000404245F00105A061E80701D025F0100586
:10528000B6B1A6F14100192802D8203645F40065D0
:105290004A463146204625604D46FAF7A3FF58B1ED
:1052A000012806D0ED1D25F0070000F1080989E767
:1052B00004E005F1040985E730468AE7206ABDE885
:1052C000F087704770477047704710B500F086FA56
:1052D000006810BD10B5044600F080FA046010BDEF
:1052E0002DE9F0470D4699469246044600F1240800
:1052F0000168880604D5E06921F01001216000E012
:105300000120A84201DD471B00E00027A1697A19AE
:1053100002EB0900081AA0612078C00602D42046DA
:10532000AFF30080002608E0D4E901211AF8060056
:105330009047206A401C761C20624E45F4DB2078A2
:10534000C0060AD52046AFF3008006E0D4E901216B
:1053500030209047206A401C2062381EA7F10107C8
:10536000F4DC07E0D4E9012118F805009047206A31
:10537000401C2062281EA5F10105F3DC2046AFF396
:1053800000802078000602D50220BDE8F0870120C9
:10539000FBE770472DE9FF4F0C461E464FF0FF37E5
:1053A0008BB0D2E90001DDF860800A908A46C1F333
:1053B0000A5505B93D46002108464FF00000BAF1F4
:1053C000000F00F4400005DA00EB80004FF44001CC
:1053D00001EA50004FEA9059B9F1010F00DDB946DA
:1053E0000A9850EA4A000ED044F61050A5F2FF3554
:1053F00045432F14B8F1000F1ED07542291E1EDD43
:10540000C9F100021CE0B8F1010F4FF0000001D01B
:10541000302103E0F24305E02154401CB042FBDBA5
:1054200030460022002121540B99C1F80880C1E9BF
:1054300000200FB0BDE8F08FBD1B6D1CDEE74A46B3
:1054400000DA694206A800F06BFA06AB93E80700A1
:1054500003AB83E8070050460A9900F049FB8DE84A
:105460000700A0F500501F3800900398002D0ADDBA
:1054700042F21F014A460844002303A903906846EC
:1054800000F0B2FD09E0A0F500504A461F380023A5
:1054900003A90390684600F0BCFD8DE807000004F6
:1054A000000C03D04FF0FF30410800E01046B8F187
:1054B000000F03D00022009215461EE0751E05D491
:1054C00000F090F9303262556D1EF9D5B3460122D5
:1054D000084302D000227F1C04E02078302801D14C
:1054E00000227F1E002A099784D01DE0112D07DAC3
:1054F00000F078F9303262556D1C50EA0102F5D1A6
:10550000084302D00098C8B10EE00021681E05E0F3
:10551000235C625C63542254401E491C8142F7DBC9
:10552000AB46A81B401E0990002004F80B000B9806
:10553000099AC0F80880C0E9002B7AE711264FF0DD
:10554000000857E72DE9F04F88460446D21D22F0A7
:10555000070191B0D1E90001CDE90A0100F090FE08
:1055600002460B98C00F01D02D2007E0206881076C
:1055700001D52B2002E0202101EAC000032A099076
:1055800001D0072A05DB03464146204600F088F992
:105590000BE12078800601D5E06900E00620B8F133
:1055A000650F814606D0B8F1660F18D0B8F1670FC5
:1055B00070D131E00020B9F1110F009001DB11230F
:1055C00001E009F101030AAA01A90CA8FFF7E2FE14
:1055D000DDE90C70002609F10105834647E0012052
:1055E0004B4600904FF000470AAA01A90CA8FFF70C
:1055F000D1FEDDE90DB00C995D46002610B909F128
:1056000001000D18B9EB050003D4C0F1FF3609F114
:105610000105A5EB09002BE0B9F1010F01DA4FF00C
:1056200001090020B9F1110F0090484601DD112356
:1056300000E003460AAA01A90CA8FFF7ABFEDDE9CA
:105640000C704D4600268346207800070AD4AB45EF
:1056500000DA5D4601A8012D04DD411911F8011C95
:10566000302907D04F4502DA17F1040F04DA012080
:1056700082460FE06D1EEEE7002F02DCED1B3E447C
:1056800003E0781CA84200DD7D1CB81B00F1010A74
:105690004FF000472078000703D4AA4501DB4FF004
:1056A000FF3A0021B7F1004F0DF143088DF8431088
:1056B00024D002202B23002F01DA7F422D230A2140
:1056C000021EA0F1010000DC5FB197FBF1FC97FB2B
:1056D000F1F201FB1C7C17460CF1300C08F801CDEF
:1056E000EEE7A8F1010003702188090501D54521E5
:1056F00000E06521A0F1010800F8011C09980FA93C
:10570000A1EB0807FF1D00B10120411901EBEA7070
:10571000A1693844081A401EA0612078C00602D44E
:105720002046AFF30080099828B1D4E901219047C1
:10573000206A401C20622078C00622D52046AFF3A4
:1057400000801EE0002E04DBB34502DD01A8805D71
:1057500000E03020D4E901219047206A401C2062FB
:10576000761CAAF101005FEA000A0AD100F032F8C3
:10577000C0680168405CD4E901219047206A401C60
:105780002062281EA5F10105DCDC07E0D4E9012137
:1057900018F8010B9047206A401C2062381EA7F1C0
:1057A0000107F3DC2046AFF30080032011B041E68F
:1057B000074B70B50D467B4400F05FF80446284661
:1057C00000F020F910B14FF0FF3070BD204670BDE1
:1057D00039BEFFFF0048704744030020004870476F
:1057E0002403002030B5B0F10A024FEA900E71F1A7
:1057F00000034EEA817EB0EB0E0061EB91014FEAAF
:10580000101E4EEA017E10EB0E0041EB11114FEA23
:10581000102E4EEA016E10EB0E0041EB11214FEA03
:10582000104E4EEA014E10EB0E0041EB11414018B4
:1058300041F100014FEAD00040EA41704FEAD10146
:1058400010EB80054FEA810444EA907444EB0104B4
:105850006D1944EB0404521BA3414FF0000348BFF1
:105860000A3200D530BD401C41F1000130BD0000BE
:1058700001694A1C02610878704700B58FB0CDE914
:1058800001310021059105497944CDE90310114604
:105890006846FFF78FFC0FB000BD0000E5FFFFFF7B
:1058A0002DE9F0411F46044603260168072A01F44A
:1058B000006004DB08B116A505E016A503E008B1F9
:1058C00015A500E015A521F010002060A069C01EFC
:1058D000A0610FB1401EA0612046AFF300804FB120
:1058E000D4E9012138469047206A401C2062C01C40
:1058F000206206E0206AFAE7D4E9012115F8010BDD
:105900009047761EF8D22046AFF30080BDE8F081C4
:105910004E414E006E616E00494E4600696E660053
:105920002DE9F047814616468AB0354878440DC8BF
:105930008DE80D0032487844801C03AC0DC884E823
:105940000D0041F69B300844372190FBF1F290FBAB
:10595000F1F5A5F1800501FB12041B3C02D5644260
:10596000012000E00020DFF898A080460027FA44DC
:10597000AAF1BE0A0EE0E0070AD03246684607EBFD
:10598000470101230AEB810100F043FB8DE807008A
:1059900064107F1C002CEED1194F7F44AE3F19E0FC
:1059A000E80715D007EB04100DF1180A90E80E0077
:1059B0008AE80E00C068F04201D19819089032467A
:1059C000012306A903A800F024FB03AB83E807002A
:1059D0006D10641C002DE3D14FF00103324669467F
:1059E000B8F1000F03A802D000F0FEFA01E000F0C9
:1059F00010FBC9E90001C9F808200AB0BDE8F0872A
:105A000014250000007B00F08000704700487047BC
:105A1000240300207546FFF7F9FFAE4605006946EE
:105A2000534620F00700854618B020B5FBF78AFFE3
:105A3000BDE820404FF000064FF000074FF000088F
:105A40004FF0000B21F00701AC46ACE8C009ACE810
:105A5000C009ACE8C009ACE8C0098D46704710B574
:105A60000446AFF300802046BDE81040FAF7D7BBEC
:105A70004FF0013C50F8042B51F8043B9A4221D1DD
:105A8000A2EB0C03934313EACC1317D150F8042B69
:105A900051F8043B9A4215D1A2EB0C03934313EA4D
:105AA000CC130BD150F8042B51F8043B9A4209D186
:105AB000A2EB0C03934313EACC13DBD04FF00000AE
:105AC000704700BFD01A01BAB1FA81F101F0180194
:105AD00022FA01F0CB40C1F12001DBB2C0B2C01A02
