:020000040800F2
:10000000580D0020552B0008492900084B290008ED
:100010004F29000853290008572900080000000054
:100020000000000000000000000000005B29000844
:100030005D290008000000005F290008C3270008B0
:100040006F2B00086F2B00086F2B00086F2B000828
:100050006F2B00086F2B00086F2B00086F2B000818
:100060006F2B00086F2B00086F2B00086F2B000808
:100070006F2B00086F2B00086F2B00086F2B0008F8
:100080006F2B00086F2B00086F2B00086F2B0008E8
:10009000612900086F2B00086F2B00086F2B0008E8
:1000A0006F2B0008156900086F2B00086F2B0008E4
:1000B0006F2B00086F2B0008752400086F2B0008B9
:1000C0006F2B00086F2B00086F2B00086F2B0008A8
:1000D0006F2B0008BF2800086F2B00086F2B00084B
:1000E0006F2B00086F2B00086F2B00086F2B000888
:1000F0006F2B00086F2B00086F2B00086F2B000878
:100100006F2B00086F2B00086F2B00086F2B000867
:100110006F2B00086F2B00086F2B00086F2B000857
:100120006F2B00086F2B00086F2B00086F2B000847
:1001300000F002F800F06AF80AA090E8000C82448F
:100140008344AAF10107DA4501D100F05FF8AFF26C
:10015000090EBAE80F0013F0010F18BFFB1A43F0A5
:1001600001031847C8B60000E8B600000A444FF083
:10017000000C10F8013B13F0070408BF10F8014B06
:100180001D1108BF10F8015B641E05D010F8016B4B
:10019000641E01F8016BF9D113F0080F1EBF10F8AF
:1001A000014BAD1C0C1B09D16D1E58BF01F801CBD2
:1001B000FAD505E014F8016B01F8016B6D1EF9D555
:1001C0009142D6D37047000000230024002500266A
:1001D000103A28BF78C1FBD8520728BF30C148BFAA
:1001E0000B60704766290BF09681642908F06084E3
:1001F000002070471FB508F0CFFF04000020002149
:100200000AF0D2F8E0601FBD10B510BD09F0E4F8A7
:100210001146FFF7EFFF00F009F809F002F903B407
:10022000FFF7F2FF03BC02F0EFFA000086B006F021
:10023000F2FB02F065FA4FF4A06002F0ABFC4FF461
:10024000E13002F0F0FA01F0C0FE00F012FD00F023
:10025000CAF8472141F2873001F0E8FF472144F610
:100260001F6002F09EF8472144F61F6002F011F86B
:100270004FF4E16002F081FA002006F093FC4FF4A5
:100280002F7002F07AFA012006F08CFC06F032FCA6
:1002900006F025FC07F0D0FD012211462C4803F0A2
:1002A000B2FC53E02B4948690AF050FF04B22949D7
:1002B00008690AF04BFF05B22649C8680AF046FFF4
:1002C00006B2254988680AF041FF07B2224948680A
:1002D0000AF03CFF0FFA80F81F4908680AF036FF61
:1002E0000FFA80F90020CDE90265CDE904401B48F2
:1002F000B0F904001949B1F90210CDE9001017480E
:10030000B0F900303A464146484606F038F8002039
:100310000090134B01901A6859689868002306F002
:10032000B1F90020029003900490059000900D4CCC
:100330000190A488A3B20B4CA489A2B2094C2489D1
:10034000A1B2084C2488A0B206F0DFF8AAE70000AA
:10035000002C0140FC020020A4030020C403002064
:10036000E8040020D003002070B505460C4601F0DB
:1003700045FE182001F0F6FE01F081FE18B101F0F3
:100380005DFE012070BD284601F0ECFE01F077FE15
:10039000204601F0E7FE01F072FE18B101F04EFEBA
:1003A0000120EFE701F04AFE0020EBE770B50446BC
:1003B00001F024FE182001F0D5FE01F060FE204679
:1003C00001F0D0FE01F05BFE01F018FE192001F0F3
:1003D000C9FE01F054FE002001F0EFFE054601F0D9
:1003E0002DFE284670BD10B500240020FFF7DEFF6B
:1003F0000446482C04D0FAA008F04EFB012010BDA2
:10040000FCA008F049FB11210A20FFF7ADFF0020F6
:10041000FE498861C86108624FF07E50C862486238
:100420008862FB488864FB48C864FB480865FB4851
:100430000863FB484863FB488863FB48C863FB4884
:100440000864FB4848640A2002F097F90020D6E7C8
:100450002DE9F04106460F4614461D4601F0CEFD3B
:10046000002141EA4601C8B201F07CFE01F007FE1E
:1004700020B101F0E3FD0120BDE8F081384601F034
:1004800071FE01F0FCFD01F0B9FD012101EB460117
:10049000C8B201F067FE01F0F2FD0DE0012C04D1BD
:1004A000002001F08AFE287003E0012001F085FEA3
:1004B0002870601EC4B26D1C002CEFD101F0BEFD8F
:1004C0000020D9E72DE9F04F89B007AB06220321C0
:1004D0000C20FFF7BDFF06900698B8B99DF81C00E8
:1004E0009DF81D1040EA01200FFA80F99DF81E00CA
:1004F0009DF81F1040EA01200FFA80FA9DF82000B5
:100500009DF8211040EA01200FFA80FBBF49886C5A
:100510000AF08CFCCDE9020148460AF095F9002268
:10052000C44BCDE900010AF037F80746DDE90223A4
:100530000AF092FBCDE9040109F04CFF0446B349EF
:10054000C86C0AF073FCCDE9020150460AF07CF950
:100550000022B84BCDE900010AF01EF80746DDE99C
:1005600002230AF079FBCDE9040109F033FF0546C7
:10057000A649086D0AF05AFCCDE9020158460AF076
:1005800063F907460022AB4B0AF006F8CDE90001FB
:10059000DDE902230AF060FBCDE9040109F01AFF4E
:1005A00006469A49886B31460AF038FE974905900D
:1005B000486B29460AF032FE80469449086B214672
:1005C0000AF02CFE414604900AF05CFC07460599AF
:1005D0000AF058FC8D490860086C31460AF01EFE8E
:1005E0008A490590C86B29460AF018FE804687495B
:1005F000486B21460AF012FE414604900AF042FC84
:10060000074605990AF03EFC80494860486C31462F
:100610000AF004FE7D490590086C29460AF0FEFDAB
:1006200080467A49886B21460AF0F8FD41460490DD
:100630000AF028FC074605990AF024FC73498860F3
:100640000846006880F0004738460AF0EFFB0022B9
:10065000784BCDE902010AF00FF9CDE9040109F068
:10066000B9FE6A49C86048680AF0E0FB0746002204
:10067000704B0AF001F9CDE9040109F0ABFE6349C2
:10068000086188680AF0D2FB07460022694B0AF02D
:10069000F3F8CDE9040109F09DFE5C4948611121A0
:1006A0000A20FFF761FE002009B0BDE8F08F2DE9B8
:1006B000F04F93B0604C650C2646670CA04647F699
:1006C000FF794FF0000A5DA008F0E6F94FF47A7068
:1006D00002F053F84FF47A7002F04FF84FF47A704A
:1006E00002F04BF84FF47A7002F047F800BF67E071
:1006F000FFF7E8FE20460AF045FD83464348C168FF
:1007000058460AF057FD04D84049C8680AF01EFD53
:1007100004B230460AF036FD83463C48016958462B
:100720000AF048FD04D8394908690AF00FFD06B2FD
:1007300040460AF027FD83463448416958460AF08E
:1007400039FD05D8314948690AF000FD0FFA80F8F3
:1007500028460AF017FD83462C48C16858460AF01F
:1007600029FE04D82949C8680AF0F0FC05B23846C9
:100770000AF008FD83462548016958460AF01AFE2A
:1007800004D8224908690AF0E1FC07B248460AF099
:10079000F9FC83461D48416958460AF00BFE05D80E
:1007A0001A4948690AF0D2FC0FFA80F927A008F02C
:1007B00073F90A2001F0E1FF0AF101000FFA80FA53
:1007C000BAF5FA6F94DD22A008F066F94FF47A705A
:1007D00001F0D3FF4FF47A7001F0CFFF40E000004A
:1007E000414B3839373520494E4954204552524FF4
:1007F000520A0000414B3839373520494E495420C0
:10080000535543434553530A00000000FC020020A7
:100810003CE8C839C000803E7B7AC83C7F94783F72
:1008200015F4E83CD1AA22BC4155813FBA16B93B28
:100830004E96823F005075400180FFFF66697273DB
:10084000742063616C204D41470A00002E20000097
:100850007365636F6E642063616C204D41470A00CD
:100860004FF47A7001F089FF4FF47A7001F085FF40
:100870004FF0000A68E0FFF725FE20460AF082FCF0
:1008800083469E48C16858460AF094FC04D89B49A8
:10089000C8680AF05BFC04B230460AF073FC834679
:1008A0009648016958460AF085FC04D893490869BE
:1008B0000AF04CFC06B240460AF064FC83468F48BE
:1008C000416958460AF076FC05D88C4948690AF017
:1008D0003DFC0FFA80F828460AF054FC834687480E
:1008E000C16858460AF066FD04D88449C8680AF011
:1008F0002DFC05B238460AF045FC83467F48016965
:1009000058460AF057FD04D87C4908690AF01EFCD5
:1009100007B248460AF036FC834678484169584693
:100920000AF048FD05D8754948690AF00FFC0FFA2E
:1009300080F9AFF2E80008F0AFF80A2001F01DFFDF
:100940000AF101000FFA80FABAF5FA6F93DD434617
:10095000324621466AA008F09FF84B463A4629469F
:100960006EA008F099F8281909F06EFF00224FF0E8
:100970008043CDE90E0109F00FFECDE9100109F029
:1009800029FD5E498861B81909F05EFF00224FF029
:100990008043CDE90E0109F0FFFDCDE9100109F01A
:1009A00019FD5649C86109EB080009F04DFF002206
:1009B0004FF08043CDE90E0109F0EEFDCDE91001C5
:1009C00009F008FD4D490862F01B09F03DFFCDE933
:1009D0000E01601B09F038FF0022574BCDE90A01D8
:1009E00009F04AFFCDE90C01DDE90E2309F0D4FD41
:1009F000CDE9100109F0EEFC40494862A8EB09007E
:100A000009F022FFCDE90E01601B09F01DFF002255
:100A1000494BCDE90A0109F02FFFCDE90C01DDE9D1
:100A20000E2309F0B9FDCDE9100109F0D3FC3349DB
:100A30008862886A0AF0FAF9CDE910012F49486AFC
:100A40000AF0F4F9CDE90E012C49086A0AF0EEF932
:100A5000CDE90C012949C8690AF0E8F9CDE90A0194
:100A6000264988690AF0E2F9CDE90801DDE91001BB
:100A7000CDE90601DDE90E01CDE90401DDE90C0156
:100A8000CDE90201DDE90A01CDE900012BA0DDE994
:100A9000082308F001F813B0BDE8F08F2DE9F0410C
:100AA00005460E461746984601F0A8FA002141EA8D
:100AB0004501C8B201F056FB01F0E1FA20B101F0A6
:100AC000BDFA0120BDE8F081304601F04BFB01F09A
:100AD000D6FA00240CE018F8040001F043FB01F002
:100AE000CEFA18B101F0AAFA0120EBE7601CC4B2FB
:100AF000BC42F0DB01F0A2FA0020E3E7FC02002098
:100B0000786D61783A256409796D61783A256409D0
:100B10007A6D61783A25640900000000786D696E8D
:100B20003A256409796D696E3A2564097A6D696EB2
:100B30003A25640A000000000000F03F786F252E7F
:100B400032660920796F252E326609207A6F252EAC
:100B500032660920252E32660920252E32660A00CB
:100B600070B505460C4601F049FAD02001F0FAFABA
:100B700001F085FA18B101F061FA012070BD284634
:100B800001F0F0FA01F07BFA204601F0EBFA01F0F7
:100B900076FA18B101F052FA0120EFE701F04EFAAF
:100BA0000020EBE770B504460025BC2C01DB0125D5
:100BB00010E0622C01DB02250CE02A2C01DB03256E
:100BC00008E0142C01DB042504E00A2C01DB0525D8
:100BD00000E0062529461A20FFF7C2FF70BD70B558
:100BE0000446B4F57A7F01DD4FF47A74042C00DA00
:100BF00004244FF47A7090FBF4F0401EC5B22946ED
:100C00001920FFF7ADFF0546264604EBD671C1F368
:100C10004F00FFF7C7FF70BD70B5044601F0EEF955
:100C2000D02001F09FFA01F02AFA204601F09AFA4A
:100C300001F025FA01F0E2F9D12001F093FA01F078
:100C40001EFA002001F0B9FA054601F0F7F928462E
:100C500070BD10B50446E006010E1C20FFF780FFB2
:100C600010BD10B50446E006010E1B20FFF778FF0B
:100C700010BD10B580216B20FFF772FF642001F0DA
:100C80007CFD00216B20FFF76BFF0320FFF7E9FFDE
:100C90000020FFF7DEFF3220FFF7A1FF0021382000
:100CA000FFF75EFF00216A20FFF75AFF0021232093
:100CB000FFF756FF80213720FFF752FF7520FFF71F
:100CC000ABFF0446682C0FD101216B20FFF748FFD2
:100CD00000216C20FFF744FF4FF49670FFF77FFF71
:100CE000FAA007F0D9FE04E0FDA007F0D5FE012030
:100CF00010BD6FF06F00FE49C88065200881042098
:100D000048810020FB498881C881088200BFEFE745
:100D10002DE9F04106460F4614461D4601F06EF9D6
:100D2000002141EA4601C8B201F01CFA01F0A7F91E
:100D300020B101F083F90120BDE8F081384601F0CF
:100D400011FA01F09CF901F059F9012101EB46017A
:100D5000C8B201F007FA01F092F90DE0012C04D1BC
:100D6000002001F02AFA287003E0012001F025FAA2
:100D70002870601EC4B26D1C002CEFD101F05EF92A
:100D80000020D9E72DE9F84F6B4602224121682067
:100D9000FFF7BEFF9DF801009DF8001040EA01201A
:100DA0000FFA80FA504609F04FFD80460022D24BE0
:100DB00009F0F2FB0646D14AD14B09F03DFB04464F
:100DC00009F008FB8346CF4958460AF027FA044643
:100DD0000AF0BCF900B2BDE8F88F2DE9FC47804667
:100DE000894692466B46062243216820FFF790FF12
:100DF0000446A4B99DF801009DF8001040EA0120C6
:100E000005B29DF803009DF8021040EA012006B2E9
:100E10009DF805009DF8041040EA012007B2B4488F
:100E2000C088281A00B2B249088008460089301AE2
:100E300000B2488008464089381A00B288802046AF
:100E4000BDE8FC872DE9FC478046894692466B4603
:100E500006223B216820FFF75BFF0446A4B99DF8FA
:100E600001009DF8001040EA012005B29DF8030042
:100E70009DF8021040EA012006B29DF805009DF899
:100E8000041040EA012007B228460AF07BF999498C
:100E9000086030460AF076F99649486038460AF00C
:100EA00071F9944988602046BDE8FC872DE9F0413E
:100EB00005460E461746984601F0A0F8002141EA83
:100EC0004501C8B201F04EF901F0D9F820B101F0A6
:100ED000B5F80120BDE8F081304601F043F901F09A
:100EE000CEF800240CE018F8040001F03BF901F002
:100EF000C6F818B101F0A2F80120EBE7601CC4B2FB
:100F0000BC42F0DB01F09AF80020E3E72DE9F04F56
:100F100089B01E2008904FF000094FF0000A4FF0F2
:100F2000000B002006900790052003906FF004004E
:100F3000029053E000BF0A2001F01FFC6B4606221E
:100F400043216820FFF7E4FE0746A7B99DF801009A
:100F50009DF8001040EA012004B29DF803009DF8BE
:100F6000021040EA012005B29DF805009DF804102A
:100F700040EA012006B2BDF81800201A00B2ADF810
:100F80001000BDF81A00281A00B2ADF81200BDF822
:100F90001C00301A00B2ADF81400ADF81840ADF8DE
:100FA0001A50ADF81C60BDF910000528C3DCBDF96E
:100FB000100010F1050FBEDBBDF912000528BADCE8
:100FC000BDF9120010F1050FB5DBBDF914000528BD
:100FD000B1DCBDF9140010F1050FACDB0898411E1F
:100FE000C9B208910028A5D1804626E0052001F06D
:100FF000C4FB6B46062243216820FFF789FE0746A3
:10100000A7B99DF801009DF8001040EA012004B244
:101010009DF803009DF8021040EA012005B29DF8FA
:1010200005009DF8041040EA012006B2A144AA443C
:10103000B34408F1010000F0FF08B8F1640FD5DBFC
:10104000642099FBF0F000B22949C88064209AFB23
:10105000F0F000B2088164209BFBF0F000B2488100
:101060000846B0F90A30B0F90820B0F9061026A0F9
:1010700007F012FD09B0BDE8F08F704770B5054666
:10108000002400BF05E04FF47A7001F076FB601C8D
:10109000C4B2082CF7DB70BD2DE9FC416B4606227B
:1010A0003B216820FFF734FE074677B99DF8010021
:1010B0009DF8001040EA012004B29DF803009DF85D
:1010C000021040EA012005B22CE032E04D505520DC
:1010D000494E495420535543434553530A00000099
:1010E0004D505520494E4954204552524F520A0006
:1010F000C4030020A403002000407540A4703D0AF2
:10110000D74342400000C84267786F66663A25645C
:101110000967796F66663A256409677A6F66663A89
:1011200025640A009DF805009DF8041040EA01209E
:1011300006B220460AF026F8F749086028460AF069
:1011400021F8F549486030460AF01CF8F2498860F9
:101150000A2001F012FBBDE8FC8130B502460B46C7
:10116000002011E0002442F82040002108E0002483
:1011700000EB400503EBC50545F821404C1C21B2AE
:101180000629F4DB441C20B20628EBDB30BD2DE938
:10119000F05F06460F46914600244AE0601C05B207
:1011A00043E004EB440207EBC20252F8241004EBC4
:1011B000440207EBC20252F8250009F0D1FE824634
:1011C0000021504609F08EFF2DD056F824105046CD
:1011D0000AF024F8834656F825100AF01CF946F860
:1011E0002500A8461CE008EB480007EBC00050F8BB
:1011F000241050460AF012F8834608EB480007EB2B
:10120000C00050F8251058460AF005F908EB4801CF
:1012100007EBC10141F8250008F101000FFA80F841
:10122000B8F1060FDFDB681C05B2062DB9DB601CC8
:1012300004B2062CB2DB052434E004EB440207EBD5
:10124000C20252F8241056F8240009F089FE46F82C
:1012500024004FF07E5004EB440107EBC10141F83C
:10126000240000251AE004EB440007EBC00050F80E
:1012700025A056F82410504609F0D0FF834656F8B2
:1012800025100AF0C8F846F82500002004EB4401B8
:1012900007EBC10141F82500681C05B2A542E2DB5D
:1012A000601E04B2002CC8DA002405E056F82400C1
:1012B00049F82400601C04B2062CF7DBBDE8F09F5F
:1012C0002DE9F04F8BB006460F4690469A464FF0F8
:1012D0007E50099000243DE0E01C58F8209058F81A
:1012E00024105AF824000AF0A1F80A90494648460A
:1012F00009F094FF01900A9909F090FF02900A9971
:1013000009F08CFF834609990AF085F8099049464F
:101310004FF0804009F082FF4946029009F07EFFBD
:1013200083460A9909F07AFF03A941F82400494647
:101330004FF0404009F072FF02900A9909F06EFFE9
:1013400083460A9909F06AFFE11C03AA42F82100CA
:10135000601C04B2032CBFDB00242BE003A951F86E
:101360002400099909F05AFF834656F8241009F021
:1013700089FD46F82400002518E003AA52F825103C
:1013800052F8240009F04AFF834604EB440007EBBF
:10139000C00050F82510584609F074FD04EB4401D4
:1013A00007EBC10141F82500681C05B2062DE4DBFE
:1013B000601C04B2062CD1DB0BB0BDE8F08F2DE928
:1013C000F04FC5B007460E4614464FF00008DFF850
:1013D0004C915348449000204190429043901821F2
:1013E0003BA807F028FC182135A807F024FC182199
:1013F0002FA807F020FC90210BA807F01CFC002070
:101400000A903D903C903B90464840903F903E90E3
:1014100099E008F101000FFA80F80BA92FA8FFF757
:101420009CFE002518E005EB450057F82000419090
:1014300005EB450007EB80004068429005EB450056
:1014400007EB80008068439041AB3BAA0BA92FA813
:10145000FFF736FF681C05B2062DE4DB35AA0BA9A1
:101460002FA8FFF794FE4099084609F0D7FE824660
:101470003A99084609F0D2FE8346514609F070FDBC
:1014800009903F99084609F0C9FE834639990846F4
:1014900009F0C4FE5946069009F062FD82463E9965
:1014A000084609F0BBFE05903899084609F0B6FEDB
:1014B0000490059909F054FD06903799084609F003
:1014C000ADFE05903699084609F0A8FE03903599BF
:1014D000084609F0A3FE01903599084609F09EFEE2
:1014E0000090019909F0CEFC0290039909F0CAFC22
:1014F0000490059909F0C6FC8346069909F0C2FCE0
:101500005146079009F0BEFC0890099909F0BAFC11
:101510004490002515E00000A40300205F7089308E
:101520000000C8427FD6D03D35AA52F825103BAA0C
:1015300052F8250009F07AFF3BA941F82500681C04
:1015400005B2062DF0DBB8F1140F05DA49464498D0
:1015500009F030FFFFF45DAFFE493E9809F05EFEF2
:101560002060FC493F9809F059FE6060F9494098B5
:1015700009F054FEA06021683B9809F04FFE3060EE
:1015800061683C9809F04AFE7060A1683D9809F0D6
:1015900045FEB0604FF07E51206809F047FF20F013
:1015A000004AED49504609F005FF17D34FF07E5130
:1015B000606809F03BFF20F0004AE749504609F017
:1015C000F9FE0BD34FF07E51A06809F02FFF20F0F9
:1015D000004AE149504609F0EDFE01D201200A908F
:1015E000306820F0004ADD49504609F0E3FE0FD391
:1015F000706820F0004AD949504609F0DBFE07D355
:10160000B06820F0004AD549504609F0D3FE01D217
:1016100001200A900A9845B0BDE8F08F00B59FB050
:10162000002019901A901B90CD4A07CA16AB07C329
:101630000020CC49088006E0FFF72EFDC94800884D
:10164000401CC8490880C7480088C828F4DB00202F
:101650001D9016E000211D9800EB4000C24A42F8A0
:1016600020101D9800EB400002EB800041601D98A7
:1016700000EB400002EB800081601D98401CC0B26E
:101680001D901D980628E5DB0020B6490880B74963
:10169000886048600860B6A007F0FEF90520FFF7F3
:1016A000EDFC0020AF49088045E0FFF7F5FCB348AA
:1016B0000068A849139009F0B1FD4FF08D411490D6
:1016C00009F04EFC1590A948006801461490159841
:1016D00009F0D8FBA5490860A84840689D491390C7
:1016E00009F09CFD4FF08D41149009F039FC1590E4
:1016F0009E48406801461490159809F0C3FB9B4929
:1017000048609E4880689349139009F087FD4FF028
:101710008D41149009F024FC15909448806801468E
:101720001490159809F0AEFB904988608D480088A8
:10173000401C8C4908808B480088C828B5DB8B4842
:1017400000688F49159009F00BFC874908608748AD
:1017500040688B49159009F003FC83494860834831
:1017600080688749159009F0FBFB7F49886000205D
:101770007C49088000217D4881604160016081A032
:1017800007F08AF9784880680F9009F04FFBCDE99F
:101790001401754840680F9009F048FBCDE912012B
:1017A000714800680F9009F041FBCDE91001DDE9B7
:1017B0001401CDE90201DDE91201CDE9000173A0B8
:1017C000DDE9102307F068F94FF47A7000F0D5FFD7
:1017D00074A007F061F90520FFF750FC0020614973
:1017E000088045E0FFF758FC6448006859491390A9
:1017F00009F014FD4FF08D41149009F0B1FB1590E4
:101800005A48006801461490159809F03BFB574967
:1018100008605A4840684F49139009F0FFFC4FF0A8
:101820008D41149009F09CFB15905048406801468A
:101830001490159809F026FB4C4948604F48806881
:101840004449139009F0EAFC4FF08D41149009F0DF
:1018500087FB15904548806801461490159809F05B
:1018600011FB424988603F480088401C3D49088080
:101870003C480088C828B5DB3C48006840491590C2
:1018800009F06EFB3849C860384840683C491590FB
:1018900009F066FB3449086134488068384915907E
:1018A00009F05EFB3049486100202E4908802F492D
:1018B0008860486008603EA007F0EEF82A4840695A
:1018C0000F9009F0B3FACDE91401274800690F9091
:1018D00009F0ACFACDE912012348C0680F9009F075
:1018E000A5FACDE91001DDE91401CDE90201DDE938
:1018F0001201CDE9000125A0DDE9102307F0CCF8A5
:101900004FF47A7000F039FF2BA007F0C5F80520DE
:10191000FFF7B4FB0020134908807EE0FFF7BCFB13
:10192000164800680B49139009F078FC4FF08D4180
:10193000149009F015FB15900C48006801461490AE
:10194000159809F09FFA094908600C484068014958
:10195000139037E00AE81C41CDCC4C3E00006040BB
:101960000CB6000818000020500300209803002047
:1019700066697273742063616C0A0000A40300201E
:10198000000048436F6E65206F6B0A00783A252E81
:10199000326609793A252E3266097A3A252E326660
:1019A0000A0A00007365636F6E642063616C0A004D
:1019B00074776F206F6B0A007468697264206361CA
:1019C0006C0A000009F02AFC4FF08D41149009F0D8
:1019D000C7FA1590FE48406801461490159809F022
:1019E00051FAFB494860FB488068FB49139009F0B5
:1019F00015FC4FF08D41149009F0B2FA1590F4489F
:101A0000806801461490159809F03CFAF049886006
:101A1000F2480088401CF1490880F0480088C82836
:101A2000FFF67CAFEA480068ED49159009F098FA96
:101A3000EC498861E6484068E949159009F090FA58
:101A4000E849C861E2488068E549159009F088FADC
:101A5000E44908620020E1490880DD498860486067
:101A60000860E1A007F018F8DE48006A0F9009F05E
:101A7000DDF9CDE91401DB48C0690F9009F0D6F912
:101A8000CDE91201D74880690F9009F0CFF9CDE96F
:101A90001001DDE91401CDE90201DDE91201CDE912
:101AA0000001AFF21810DDE9102306F0F5FF4FF446
:101AB0007A7000F062FECFA006F0EEFF0520FFF77F
:101AC000DDFA0020C549088045E0FFF7E5FAC14886
:101AD0000068C149139009F0A1FB4FF08D411490AB
:101AE00009F03EFA1590BA4800680146149015981E
:101AF00009F0C8F9B6490860B6484068B64913907D
:101B000009F08CFB4FF08D41149009F029FA1590E3
:101B1000AF48406801461490159809F0B3F9AC49F4
:101B20004860AC488068AC49139009F077FB4FF0EF
:101B30008D41149009F014FA1590A548806801466B
:101B40001490159809F09EF9A1498860A34800886F
:101B5000401CA2490880A1480088C828B5DB9C48E1
:101B600000689F49159009F0FBF99E494862984822
:101B700040689B49159009F0F3F99A4988629448A6
:101B800080689749159009F0EBF99649C8620020E2
:101B9000924908808E4988604860086098A006F0E5
:101BA0007BFF9048C06A0F9009F040F9CDE914011D
:101BB0008C48806A0F9009F039F9CDE91201894803
:101BC000406A0F9009F032F9CDE91001DDE9140106
:101BD000CDE90201DDE91201CDE90001AFF25420A7
:101BE000DDE9102306F058FF4FF47A7000F0C5FDD0
:101BF00086A006F051FF0520FFF740FA0020774944
:101C0000088045E0FFF748FA72480068724913906F
:101C100009F004FB4FF08D41149009F0A1F91590E3
:101C20006B48006801461490159809F02BF9684933
:101C30000860684840686849139009F0EFFA4FF06F
:101C40008D41149009F08CF9159061484068014667
:101C50001490159809F016F95D4948605D48806850
:101C60005D49139009F0DAFA4FF08D41149009F0B4
:101C700077F915905648806801461490159809F038
:101C800001F95349886055480088401C5349088031
:101C900052480088C828B5DB4D4800685049159067
:101CA00009F05EF94F490863494840684C4915906E
:101CB00009F056F94B4948634548806848491590F2
:101CC00009F04EF94749886300204449088040499B
:101CD00088604860086050A006F0DEFE4148806BD6
:101CE0000F9009F0A3F8CDE914013E48406B0F9026
:101CF00009F09CF8CDE912013A48006B0F9009F009
:101D000095F8CDE91001DDE91401CDE90201DDE925
:101D10001201CDE90001AFF28C30DDE9102306F0AD
:101D2000BBFE4FF47A7000F028FD3EA006F0B4FE32
:101D30000520FFF7A3F904F049F90020274908809E
:101D400045E0FFF7A9F9234800682349139009F0FB
:101D500065FA4FF08D41149009F002F915901C4876
:101D6000006801461490159809F08CF8184908602D
:101D7000184840681849139009F050FA4FF08D4107
:101D8000149009F0EDF81590114840680146149040
:101D9000159809F077F80E4948600E4880680E499A
:101DA000139009F03BFA4FF08D41149009F0D8F8E8
:101DB00015900748806801461490159809F062F85C
:101DC0000349886005480088401C044908802FE0CA
:101DD00098030020A40300200AE81C4118000020FA
:101DE00000004843500300207468726565206F6BE3
:101DF0000A000000666F75722063616C0A000000C3
:101E0000666F7572206F6B0A000000006669766568
:101E10002063616C0A00000066697665206F6B0ABA
:101E2000000000007369782063616C0A0000000004
:101E300050480088C82884DB4F4800684F491590F7
:101E400009F08EF84E49C8634B4840684B491590DD
:101E500009F086F84A490864474880684749159060
:101E600009F07EF84649486446A006F015FE44484D
:101E7000406C0F9008F0DAFFCDE914014048006C87
:101E80000F9008F0D3FFCDE912013D48C06B0F90D1
:101E900008F0CCFFCDE91001DDE91401CDE9020124
:101EA000DDE91201CDE90001AFF22050DDE9102398
:101EB00006F0F2FD4FF47A7000F05FFC16AA19A943
:101EC0002F48FFF77CFA1C901C9868B92F49199885
:101ED00008601A9848601B9888602D481699016020
:101EE000179941601899816029488068099008F025
:101EF0009DFFCDE9140126484068099008F096FF3F
:101F0000CDE9120122480068099008F08FFFCDE961
:101F100010011E488068099008F088FFCDE90E0185
:101F20001A484068099008F081FFCDE90C01174874
:101F30000068099008F07AFFCDE90A01DDE9140193
:101F4000CDE90801DDE91201CDE90601DDE9100165
:101F5000CDE90401DDE90E01CDE90201DDE90C0165
:101F6000CDE900010BA0DDE90A2306F095FD1FB0C5
:101F700000BD000018000020980300200000484326
:101F800050030020736978206F6B0A000C0000205A
:101F9000000000206230252E3266096231252E3283
:101FA00066096232252E3266096B30252E326609AB
:101FB0006B31252E3266096B32252E32660A0000FF
:101FC00010B5022000F0B5FB10BD08B501210820B6
:101FD00001F06AF94FF44060ADF8000010208DF870
:101FE000030003208DF8020069468D4800F0A0FE32
:101FF0004FF440618A4800F048FF08BD10B588489A
:10200000001D006820F470408549091D08600846DD
:10201000006840F44050086001208249086082490D
:10202000C1F8A801FFF7CCFF00207E490860FFF748
:10203000C7FF00207C49C1F8A80110BD10B5784841
:10204000001D006820F470407549091D08600846AD
:10205000006840F44050086000207249091F086081
:102060007149C1F8AC01FFF7ABFF01206D49091FB1
:1020700008606D49C1F8AC01FFF7A2FF10BD10B5B3
:1020800000246748001D006820F470406449091D61
:1020900008600846006840F400400860012061497B
:1020A0000860FFF78DFF01205F49C1F8A801FFF725
:1020B00087FF07E0601CC4B2FA2C03DDFFF7BEFF08
:1020C000012010BD5748803800680028F2D15549DA
:1020D000091F086000BFF4E710B500205149091F2F
:1020E00008604F48001D006820F470404C49091DED
:1020F00008600846006840F44050086000204A49E3
:10210000C1F8AC01FFF75CFF01204649091F0860D8
:10211000FFF756FF00204449C1F8A80110BD10B5D3
:1021200000204049091F08603D48001D006820F458
:1021300070403B49091D08600846006840F4405063
:10214000086001203849C1F8AC01FFF739FF0120D0
:102150003449091F0860FFF733FF00203249C1F8F6
:10216000A80110BD70B504462D48001D006820F47C
:1021700070402B49091D08600846006840F4405033
:10218000086000202749091F0860002512E0E009C7
:10219000244908606006040E01202349C1F8A80103
:1021A000FFF70EFF00201F49091F0860FFF708FF17
:1021B000681CC5B2082DEADB70BD70B50546002469
:1021C0001748001D006820F470401549091D08607B
:1021D0000846006840F400400860002615E0002032
:1021E0001049091F0860FFF7EBFE01200E49C1F8F6
:1021F000A8016006040E0B488038006808B1601C16
:10220000C4B2FFF7DDFE701CC6B2082EE7DB15B9BD
:10221000FFF785FF01E0FFF75FFF204670BD00007C
:10222000000C0140AC812142008021427FB505466F
:102230000C460121C80201F037F8ADF80850ADF89E
:1022400004400020ADF80A00ADF806008DF80C003F
:1022500001A9844801F060F90121824801F0B8FC2D
:1022600019208DF8000002208DF8010000208DF863
:10227000020001208DF80300684600F090FC012167
:10228000784801F06BFF00220121764801F0BBFC89
:102290007FBD30B589B005460C460121042001F010
:1022A00010F80121082000F0FFFF4FF47070ADF826
:1022B000140028208DF8170005A96B4800F038FDA0
:1022C0004FF47071684800F0E2FDADF80C50ADF8C5
:1022D00008400020ADF80E00ADF80A0002A96348DE
:1022E00001F01AF90020ADF81800ADF81A0001202D
:1022F000ADF81C000020ADF81E00ADF8200006A9C6
:102300005A4801F09CFB0420ADF818000020ADF8FD
:102310001A000120ADF81C000020ADF81E00ADF839
:10232000200006A9514801F08AFB0820ADF81800EA
:102330000020ADF81A000120ADF81C000020ADF817
:102340001E00ADF8200006A9484801F078FB0C20DB
:10235000ADF818000020ADF81A000120ADF81C00FF
:102360000020ADF81E00ADF8200006A93F4801F09E
:1023700066FB1E208DF8040001208DF805008DF805
:1023800006008DF8070001A800F009FC01221E21BB
:10239000364801F038FC0121344801F019FC09B03D
:1023A00030BD30B589B005460C460121042000F04F
:1023B0007BFF0121084600F084FF0F20ADF80400E8
:1023C00003208DF8060018208DF8070001A9284881
:1023D00000F0AEFCADF81C50ADF818400020ADF890
:1023E0001E00ADF81A0006A94FF0804001F094F8E5
:1023F0006020ADF808000120ADF80A000020ADF81B
:102400000E00ADF8100002A94FF0804001F0C1F8B5
:102410000821C80601F00CFD02A94FF0804001F030
:10242000FAF80821C80601F00CFD02A94FF080401F
:1024300001F03EF90821C80601F010FD02A94FF095
:10244000804001F080F90821C80601F010FD01214B
:10245000880701F0BDFC0121880701F0B9FB09B034
:1024600030BD0000002C0140000C0140000800407D
:102470000008014010B59048007800F08000002866
:1024800042D102218D4801F06CFE00283CD002218F
:102490008A4801F077FE8848007800F0400020B3B9
:1024A000864801F03FFE8649088008460088854935
:1024B0000988884204DA44F61F608349086002E014
:1024C0000020814908607E4800887E490988401ABA
:1024D0007D49096808447D49C86000207649087034
:1024E0000021764801F026FD0EE0744801F01AFE46
:1024F000744908807048007840F040006E490870C8
:1025000002216E4801F016FD7148007800F080004D
:10251000002841D10421694801F023FE60B3042161
:10252000664801F02FFE6A48007800F0400020B3B2
:10253000624801F0FAFD674908800846008866494C
:102540000988884204DA44F61F606449086002E0A2
:102550000020624908605F4800885F490988401A86
:102560005E49096808445949486000205849087084
:102570000021524801F0F0FC0EE0504801F0D5FD7A
:10258000554908805248007840F040005049087092
:1025900002214A4801F0E0FC5148007800F0800038
:1025A00088BB0821454801F0DCFD60B308214348A1
:1025B00001F0E8FD4A48007800F0400020B33F48B1
:1025C00001F0B6FD47490880084600884649098859
:1025D000884204DA44F61F604449086002E00020A3
:1025E000424908603F4800883F490988401A3F49EE
:1025F00009680844354908600020394908700021FD
:102600002E4801F0C3FC0EE02C4801F091FD364944
:1026100008803348007840F04000314908700221BA
:10262000264801F0B3FC3248007800F0800088BBF7
:102630001021224801F095FD60B310211F4801F0E0
:10264000A1FD2B48007800F0400020B31B4801F0AA
:1026500072FD284908800846008827490988884271
:1026600004DA44F61F602549086002E0002023498F
:1026700008602048008820490988401A1F490968D5
:1026800008441249886000201949087000210B484D
:1026900001F096FC0EE0094801F04DFD1649088056
:1026A0001348007840F040001149087002210348A7
:1026B00001F086FC10BD00001C0000200008004056
:1026C000200000201E00002034000020D003002045
:1026D00022000020260000202400002038000020D6
:1026E000280000202C0000202A0000203C000020B0
:1026F0002E0000203200002030000020400000208A
:1027000010B56FF0040000F094FA394800683949B8
:10271000B0FBF1F0384908700846007800EB400142
:10272000C1EBC0104FF6FF7101EAC00033490880C9
:1027300010BD0146304A12784A434FF0E0235A61F7
:1027400000229A611A46126942F001021A6100BF22
:102750004FF0E022106900F001021AB100F480325B
:10276000002AF5D04FF0E022126922F001024FF06A
:10277000E0231A6100229A61704701461F4A1288BD
:102780004A434FF0E0235A6100229A611A461269C7
:1027900042F001021A6100BF4FF0E022106900F020
:1027A00001021AB100F48032002AF5D04FF0E02285
:1027B000126922F001024FF0E0231A6100229A61AF
:1027C00070470F480068401C0D49086008460068C3
:1027D00009490978884207D3002009490860094857
:1027E0000068401C07490860704706480068704749
:1027F0005C00002000127A00440000204600002007
:10280000480000204C000020014600BF704700BF78
:10281000494A128802F04002002AF9D0C2B2464B5F
:102820001B1D1A80704710B586B00446012144F282
:10283000040000F039FD4FF40070ADF814000320DF
:102840008DF8160018208DF8170005A93B4800F0F8
:102850006FFA4FF48060ADF8140004208DF8170073
:1028600005A9364800F064FA25208DF80000032001
:102870008DF801008DF8020001208DF803006846F4
:1028800000F08DF901940020ADF80800ADF80A00C1
:10289000ADF80C00ADF810000C20ADF80E0001A949
:1028A000254801F0B6FC012240F22551224801F0F2
:1028B00048FD0121204801F038FD06B010BD10B5DB
:1028C00040F225511C4801F021FE10B31A4801F0D6
:1028D0009DFDC4B21A48008800F40040C8B91848E9
:1028E000008800F4804060B10A2C03D00020144915
:1028F000088020E01248008840F400401049088019
:1029000019E00D2C06D10E48008840F480400C4997
:10291000088010E00A480088C0F30D0009490C54F3
:1029200007480088401C0649088008460088C728D8
:1029300001DD0020088010BD003801400008014082
:1029400058000020E0030020704700BFFEE700BFF2
:10295000FEE700BFFEE700BFFEE770477047704725
:1029600010B504F06BF910BD10B5002004F049FB60
:1029700010BD00000CB50020019000906C4800686C
:1029800040F480306A49086000BF6948006800F47C
:10299000003000900198401C0190009818B90198EF
:1029A000B0F5A06FF1D16248006800F4003010B1BA
:1029B0000120009001E0002000900098012843D100
:1029C0005C48006840F010005A49086008460068FA
:1029D00020F0030008600846006840F0020008602C
:1029E0005348406852494860084640684860084675
:1029F000406840F4806048600846406820F47C10DD
:102A000048600846406840F4E8104860084600689E
:102A100040F08070086000BF4548006800F000701A
:102A20000028F9D04248406820F00300404948603F
:102A30000846406840F00200486000BF3C484068DB
:102A400000F00C000828F9D10CBD10B5FFF792FF7B
:102A500010BD10B53648006840F0010034490860E8
:102A600008464068344908403149486008460068D3
:102A7000324908402E4908600846006820F480204A
:102A800008600846406820F4FE0048604FF41F00CC
:102A90008860FFF7DAFF4FF000602949086010BD39
:102AA00010B5002100200022214B5B6803F00C01CF
:102AB00021B1042906D0082928D107E0214B224C56
:102AC000236027E01F4B204C236023E0184B5B68FA
:102AD00003F47010164B5B6803F48032022303EB9F
:102AE000904022B9194B4343174C23600DE0104B23
:102AF0005B6803F4003323B1144B4343124C23604F
:102B000003E0104B4343104C236003E00D4B0E4C8D
:102B1000236000BF00BF064B5B68C3F303130C4C7C
:102B2000E15C094B1B68CB40074C236010BD0000E3
:102B300000100240002002400000FFF8FFFFF6FEF8
:102B400008ED00E000127A005C00002000093D0062
:102B5000600000200948804709480047FEE7FEE77B
:102B6000FEE7FEE7FEE7FEE7FEE7FEE7FEE7FEE73D
:102B700004480549054A064B70470000532A0008DF
:102B80003101000858070020580D00205809002086
:102B90005809002031490143314A1160704770B52E
:102BA000002100230F22C47804B32D4C246804F4C0
:102BB000E064C4F5E064210AC1F10403CA4044782A
:102BC00004FA03F18478144021430901254C067866
:102BD000A155047804F01F050124AC4005786D115F
:102BE000AD0005F1E025C5F8004109E0047804F0E6
:102BF0001F050124AC401C4D0678761145F826408F
:102C000070BD1A4A0A400243154B1B1F1A607047D9
:102C100039B1134A121D12680243114B1B1D1A6071
:102C200006E00F4A121D126882430D4B1B1D1A60ED
:102C30007047042808D14FF0E021096941F00401F0
:102C40004FF0E022116107E04FF0E021096921F027
:102C500004014FF0E0221161704700000000FA0506
:102C60000CED00E000E400E080E100E080FFFF1FE9
:102C700010B50446CC48844208D10121042000F05C
:102C80002DFB0021042000F029FB46E0C7488442C8
:102C900008D10121082000F021FB0021082000F0CC
:102CA0001DFB3AE0C248844208D10121102000F007
:102CB00015FB0021102000F011FB2EE0BD488442DE
:102CC00008D10121202000F009FB0021202000F084
:102CD00005FB22E0B848844208D10121402000F0E1
:102CE000FDFA0021402000F0F9FA16E0B3488442D2
:102CF00008D10121802000F0F1FA0021802000F0AD
:102D0000EDFA0AE0AE48844207D10121801500F0B7
:102D1000E5FA0021A01500F0E1FA10BD10B501217F
:102D2000084600F0DBFA0021012000F0D7FA10BDC0
:102D30002DE9F04102460025002600200023002452
:102D4000002791F803C00CF00F0591F803C00CF0B8
:102D5000100CBCF1000F03D091F802C04CEA05053D
:102D600091F800C0BCF1000F31D0146800202BE0B6
:102D70004FF0010C0CFA00F3B1F800C00CEA0306A6
:102D80009E4220D183004FF00F0C0CFA03F7BC4396
:102D900005FA03FC4CEA040491F803C0BCF1280FC7
:102DA00006D14FF0010C0CFA00FCC2F814C00AE086
:102DB00091F803C0BCF1480F05D14FF0010C0CFA9B
:102DC00000FCC2F810C0401C0828D1D31460B1F830
:102DD00000C0BCF1FF0F34DD546800202EE000F18C
:102DE000080C4FF0010808FA0CF3B1F800C00CEA27
:102DF00003069E4221D183004FF00F0C0CFA03F71B
:102E0000BC4305FA03FC4CEA040491F803C0BCF18E
:102E1000280F05D100F1080C08FA0CF8C2F814804C
:102E200091F803C0BCF1480F07D100F1080C4FF036
:102E3000010808FA0CF8C2F81080401C0828CED30C
:102E40005460BDE8F0814FF6FF710180022181706E
:102E50000421C17070470246002093680B400BB1FB
:102E6000012000E0002070470146886880B270476A
:102E700002460020D3680B400BB1012000E0002087
:102E800070470146C86880B2704701617047416170
:102E900070470AB1016100E041617047C16070474D
:102EA0004FF480320A438261816182618269826962
:102EB000704702460020434B18684FF68073184055
:102EC00040EA021008433F4B186070473E49C86112
:102ED0007047F0B50A46002300240021002500F0C9
:102EE0000046B6F1004F02D1364EF16901E0354E91
:102EF0007168C0F3034583B200F44016B6F5401F75
:102F000008D121F070612F4E766826F070662D4F43
:102F10007E6012E000F48016B6F5801F06D103260D
:102F200006FA05F4A14341F0706106E0460D360152
:102F300003FA06F6B14341F0706122B1460D360145
:102F400003FA06F6314300F00046B6F1004F02D115
:102F50001C4EF16101E01B4E7160F0BD30B50022E6
:102F60008B071C0F0F2303FA04F2164B08338C1047
:102F700053F824309343134C08348D1044F8253013
:102F800023468C1053F824308C07240F00FA04F4E5
:102F900023430C4C08348D1044F8253030BD0A49C9
:102FA000DC3108607047000000080140000C01405F
:102FB000001001400014014000180140001C0140B5
:102FC000002001400000014000002042DF4800686E
:102FD00040F00100DD49086008464068DC490840CF
:102FE000DA49486008460068DA490840D74908606D
:102FF0000846006820F4802008600846406820F4F5
:10300000FE0048604FF41F0088607047CF49096890
:1030100021F48031CD4A11601146096821F48021E4
:103020001160B0F5803F03D0B0F5802F0ED106E0DF
:10303000C649096841F48031C44A116007E0C349B8
:10304000096841F4A021C14A116000E000BF00BF3F
:10305000704710B501460022002300204A11012AC2
:1030600002D1BA4C236806E0022A02D1B74C236A87
:1030700001E0B64C636A01F01F02012494401C4039
:103080000CB1012000E0002010BD38B500200090F8
:103090000024002500BF3120FFF7DBFF0546009824
:1030A000401C00900098B0F5A06F01D0002DF2D028
:1030B0003120FFF7CEFF08B1012400E000242046B4
:1030C00038BD01460020A14A106820F0F80040EA0F
:1030D000C10010607047A049086070470246002098
:1030E0009A4B586820F47C1042EA01031843974B2E
:1030F0005860704798490866704701460020934A17
:10310000506820F003000843506070478F484068C3
:1031100000F00C007047014600208C4A506820F0F7
:10312000F00008435060704701460020874A50680D
:1031300020F4E06008435060704701460020834A55
:10314000506820F4605040EAC1005060704729B1D7
:103150007E4A527A02437D4B5A7204E07B4A527A8D
:1031600082437A4B5A7270477B49D8310860704766
:1031700001460020754A506820F4404008435060E2
:1031800070470021714A20321170704A82F8201075
:10319000012802D004280AD104E001216B4A203220
:1031A000117005E00521694A2032117000E000BF6E
:1031B00000BF70476949086070476449096A014364
:1031C000624A11627047654944390860704730B5FA
:1031D00000210022002400235C4D6D6805F00C01E5
:1031E00021B1042905D0082923D105E05C4D0560F3
:1031F00022E05B4D05601FE0544D6D6805F47012D0
:10320000524D6D6805F48034022505EB92421CB9DD
:10321000544D554305600BE04C4D6D6805F4003589
:103220001DB1504D5543056002E04D4D55430560BD
:1032300002E04B4D056000BF00BF444D6D6805F0D6
:10324000F0010909484D6B5C0568DD4045603F4D64
:103250006D6805F4E061090A434D6B5C4568DD402B
:1032600085603A4D6D6805F46051C90A3E4D6B5C4E
:103270004568DD40C560354D6D6805F44041890BFA
:103280003A4D6B5CC568B5FBF3F5056130BD29B1FE
:103290002E4A526902432D4B5A6104E02B4A52696F
:1032A00082432A4B5A61704729B1284A92690243E6
:1032B000264B9A6104E0254A92698243234B9A6126
:1032C000704729B1214AD2690243204BDA6104E0F8
:1032D0001E4AD26982431D4BDA61704729B11B4AED
:1032E000D2680243194BDA6004E0184AD26882437C
:1032F000164BDA60704729B1144A12690243134B26
:103300001A6104E0114A12698243104B1A61704736
:1033100012494039086070470F49C86470470B492B
:10332000C87170470948406A40F080700749486298
:10333000704701460020054A92680A400AB1012000
:1033400000E0002070470149887270470010024079
:103350000000FFF8FFFFF6FE0000424280044242F8
:1033600000127A0000093D0070000020800000205B
:1033700010B50446FE48844208D10121C014FFF76D
:10338000ADFF0021E014FFF7A9FFC4E0B4F1804FC6
:1033900008D101210846FFF7AEFF00210120FFF709
:1033A000AAFFB8E0F348844208D101210220FFF7C8
:1033B000A2FF00210220FFF79EFFACE0EE4884420E
:1033C00008D101210420FFF796FF00210420FFF718
:1033D00092FFA0E0E948844208D101210820FFF7CC
:1033E0008AFF00210820FFF786FF94E0E44884422A
:1033F00008D101211020FFF77EFF00211020FFF7E8
:103400007AFF88E0DF48844208D101212020FFF7BD
:1034100072FF00212020FFF76EFF7CE0DA48844233
:1034200008D101214014FFF759FF00216014FFF774
:1034300055FF70E0D548844209D10121C804FFF747
:103440004DFF00214FF40020FFF748FF63E0D04814
:10345000844209D101210805FFF740FF00214FF404
:103460008010FFF73BFF56E0CA48844209D1012192
:103470004805FFF733FF00214FF40010FFF72EFF40
:1034800049E0C548844208D101214020FFF733FFBD
:1034900000214020FFF72FFF3DE0C048844208D1C3
:1034A00001218020FFF727FF00218020FFF723FF65
:1034B00031E0BB48844208D101218015FFF71BFF92
:1034C0000021A015FFF717FF25E0B648844209D177
:1034D00001210804FFF702FF00214FF48030FFF7BD
:1034E000FDFE18E0B048844209D101214804FFF7ED
:1034F000F5FE00214FF40030FFF7F0FE0BE0AB4883
:10350000844208D101218804FFF7E8FE00214FF42E
:103510008020FFF7E3FE10BD00220288944B984202
:103520000ED0994B98420BD0B0F1804F08D0914B00
:10353000984205D0904B984202D0904B984204D1CB
:103540004FF68F731A404B881A438D4B984207D021
:103550008C4B984204D04FF6FF431A40CB881A4355
:1035600002808B8883850B880385814B98420BD022
:10357000854B984208D08B4B984205D08A4B984295
:1035800002D08A4B984201D10B7A038601238382B1
:10359000704770B5002400220023058C4FF6FE769C
:1035A00035400584028C8388048B4FF68F752C4040
:1035B000B51E2C400D882C43751E2A400D892A43C8
:1035C0004D882A436A4DA8420BD06F4DA84208D0BF
:1035D000744DA84205D0744DA84202D0734DA84244
:1035E00013D14FF6F7752A404D892A434FF6FB75E4
:1035F0002A408D882A434FF6FF652B404FF6FF5532
:103600002B408D892B43CD892B4383800483CD8828
:103610008586028470BD70B5002400220023058CCD
:103620004FF6EF7635400584028C8388048B48F68C
:10363000FF752C404FF6FF452C400D884FF6FF7666
:1036400006EA05252C434FF6DF752A400D8906EA68
:1036500005152A434D8806EA05152A43444DA8421C
:1036600002D0494DA8421DD14FF67F752A404D89A1
:103670004FF6FF7606EA05152A434FF6BF752A4036
:103680008D8806EA05152A434FF6FF352B404FF289
:10369000FF752B408D8906EA85052B43CD8906EA07
:1036A00085052B4383800483CD880587028470BD04
:1036B00070B5002400220023058C4FF6FF663540CC
:1036C0000584028C8388848B4FF68F752C404FF6CF
:1036D000FC752C400D882C434FF6FF552A400D8970
:1036E0004FF6FF7606EA05252A434D8806EA0525AA
:1036F0002A431F4DA84202D0234DA8421DD14FF2AC
:10370000FF752A404D894FF6FF7606EA05252A43C4
:103710004FF6FF352A408D8806EA05252A434EF6E6
:10372000FF752B404DF6FF752B408D8906EA051578
:103730002B43CD8906EA05152B4383808483CD88EE
:103740008587028470BD70B5002200230024058C9B
:103750004EF6FF7635400584038C8488828B48F6CC
:10376000FF752A404FF6FF452A400D8820E00000F3
:10377000002C01400004004000080040000C004004
:10378000001000400014004000340140004C014093
:10379000005001400054014000180040001C00404F
:1037A000002000400040014000440140004801402A
:1037B0004FF6FF7606EA05252A434DF6FF752B40A6
:1037C0000D8906EA05352B434D8806EA05352B435E
:1037D000FA4DA84202D0FA4DA84208D14BF6FF7527
:1037E0002C408D894FF6FF7606EA85152C438480A0
:1037F0008283CD88A0F84050038470BD828B4FF245
:10380000FF331A408283828B4FF6FF7303EA012352
:103810001A4382837047F0B50C46154600220021FA
:103820000026078C4EF6FF7C07EA0C070784828B84
:10383000018C4FF6FF7707EA043640F6FF473A401F
:103840004FF6FF7707EA05273A434FF6FF7707EA77
:1038500003373A43D94FB8420ED0D94FB8420BD0B4
:10386000B0F1804F08D0D74FB84205D0D64FB842FC
:1038700002D0D64FB84206D14DF6FF77394046F414
:103880008057394305E047F6FF57394044F48057E5
:10389000394382830184F0BD828B4FF6F3731A4063
:1038A0008283828B0A4382837047F0B50C461546AB
:1038B000002200210026078C4FF6FF6C07EA0C0758
:1038C0000784828B018C4FF6FF7707EA04264FF6B8
:1038D0000C773A404FF6FF7707EA03172F433A4336
:1038E000B64FB8420ED0B64FB8420BD0B0F1804FB1
:1038F00008D0B44FB84205D0B34FB84202D0B34F4E
:10390000B84206D14FF6FF57394046F48077394325
:1039100005E04FF2FF57394044F480773943828302
:103920000184F0BD028B4FF2FF331A400283028BF9
:103930004FF6FF7303EA01231A4302837047F0B581
:103940000C461546002200210026078C4FF6EF7C1E
:1039500007EA0C070784028B018C4FF6FF7707EA12
:10396000041640F6FF473A404FF6FF7707EA033761
:103970003A434FF6FF7707EA05273A438F4FB8429D
:103980000ED08F4FB8420BD0B0F1804F08D08D4F82
:10399000B84205D08C4FB84202D08C4FB84206D105
:1039A0004FF6DF77394046F01007394305E04FF610
:1039B0005F77394044F01007394302830184F0BD3A
:1039C000028B4FF6F3731A400283028B0A43028381
:1039D0007047F0B50C46154600220021068C4FF6C4
:1039E000FE773E400684028B018C4FF60C76324007
:1039F0007E1C06EA03162E433243704EB0420ED0B0
:103A00006F4EB0420BD0B0F1804F08D06D4EB04237
:103A100005D06D4EB04202D06C4EB04206D14FF68A
:103A2000FD76314044F00106314305E04FF6F5766E
:103A3000314044F00106314302830184F0BD70B58A
:103A400005460C465D4885420ED05D4885420BD048
:103A5000B5F1804F08D05B48854205D05A48854271
:103A600002D05A48854200D100E000BF208850B9FA
:103A70002389A28861882846FFF7ABFFE1882846A2
:103A8000FFF79EFF25E0208804280AD12389A28819
:103A900061882846FFF753FFE1882846FFF742FF79
:103AA00017E0208808280AD12389A288618828463F
:103AB000FFF7FBFEE1882846FFF7EEFE09E02389C9
:103AC000A28861882846FFF7A6FEE1882846FFF70E
:103AD00095FE70BD2DE9F04105460C4600260127F4
:103AE000608808B9022600E00026A088012801D1DC
:103AF000022700E001272088A0B92389A2886188D5
:103B00002846FFF766FFE1882846FFF759FF23891B
:103B10003A4631462846FFF712FFE1882846FFF76C
:103B200001FF13E02389A28861882846FFF707FF79
:103B3000E1882846FFF7F6FE23893A4631462846B3
:103B4000FFF747FFE1882846FFF73AFFBDE8F0811D
:103B50000A884B881A438B881A43CB881A430B89EF
:103B60001A434B891A438B891A43A0F844207047A3
:103B70004FF6FF71818000210180C1804180017278
:103B800070470021018041808180C1800181418195
:103B90008181C181704700210180418001218180A4
:103BA0000021C18001817047002101804180818016
:103BB000C18001814181818170470000002C01405A
:103BC000003401400004004000080040000C0040A8
:103BD00021B1028842F00102028004E002884FF61F
:103BE000FE731A400280704731B1B0F8442042F4AD
:103BF0000042A0F8442005E0B0F84420C2F30E02D1
:103C0000A0F8442070471AB183890B43838102E0F6
:103C100083898B43838170478182704741EA020325
:103C2000A0F8483070471AB183890B43838102E0C2
:103C300083898B438381704701894FF6F872114065
:103C4000018170470A46002101894FF68F731940A0
:103C500011430181704730B504460D462946204680
:103C6000FFF7F0FF208940F00700208130BD2DE9EB
:103C7000F04104460D4616461F46602D06D13B46D0
:103C8000012231462046FFF75AFE05E03B4601225D
:103C900031462046FFF79DFE29462046FFF7D2FF1A
:103CA000208940F007002081BDE8F08130B50C4646
:103CB00000210189C9B24FF6FF7505EA03251543B6
:103CC00025432943018130BD2DE9F04105460E46CB
:103CD00017469846002443463A4631462846FFF7A1
:103CE000E5FF2C894FF6F870044044F007044FF6C6
:103CF0008F70044044F070042C81BDE8F081F0B571
:103D000004460D4616461F463B4632462946204687
:103D1000FFF7CCFF208940F480402081F0BD018571
:103D2000828270470A46002101884FF68F7319403E
:103D3000114301807047F0B50C4615461E46002120
:103D4000002200230189028B038C4FF6F87739405B
:103D500021434FF6FC473A4040F201173A434FF6F1
:103D6000DD773B404FF6FF7707EA06172F433B43CB
:103D7000018102830384F0BD0A460021018B4FF6C6
:103D80008F7319401143018370470A460021018B4C
:103D900048F6FF7319404FF6FF7303EA02231943F5
:103DA000018370470A460021818B4FF68F731940BB
:103DB0001143818370470A460021818B48F6FF73C7
:103DC00019404FF6FF7303EA0223194381837047BA
:103DD00021B1028842F08002028004E002884FF69E
:103DE0007F731A400280704721B1828842F004023A
:103DF000828004E082884FF6FB731A40828070470D
:103E000021B1828842F00802828004E082884FF665
:103E1000F7731A408280704721B1828842F0010214
:103E2000828004E082884FF6FE731A4082807047D9
:103E30000A460021018B4FF6F773194011430183A5
:103E400070470A460021018B4FF2FF7319404FF66D
:103E5000FF7303EA02231943018370470A460021D6
:103E6000818B4FF6F77319401143818370470A46DF
:103E70000021818B4FF2FF7319404FF6FF7303EA65
:103E800002231943818370470A460021018B4FF6B4
:103E9000FB7319401143018370470A460021018BCF
:103EA0004FF6FF3319404FF6FF7303EA022319431D
:103EB000018370470A460021818B4FF6FB7319403E
:103EC0001143818370470A460021818B4FF6FF33EF
:103ED00019404FF6FF7303EA0223194381837047A9
:103EE0000A460021018B4FF67F731940114301836D
:103EF00070470A460021018BC1F30E014FF6FF7394
:103F000003EA02231943018370470A460021818B8B
:103F10004FF67F7319401143818370470A46002191
:103F2000818BC1F30E014FF6FF7303EA022319439D
:103F3000818370470A460021018C4FF6FD731940BA
:103F40001143018470470A460021018C4FF6F77334
:103F500019401143018470470A460021018C4FF635
:103F6000DF7319404FF6FF7303EA0213194301840C
:103F700070470A460021018C4FF67F7319404FF6B7
:103F8000FF7303EA02131943018470470A460021B4
:103F9000018C4FF6FF5319404FF6FF7303EA0223DB
:103FA0001943018470470A460021018C4FF2FF73C8
:103FB00019404FF6FF7303EA022319430184704747
:103FC0000A460021018C4DF6FF7319404FF6FF732E
:103FD00003EA023319430184704730B500230124FA
:103FE0008C40A3B2048C9C430484048C02FA01F537
:103FF000ADB22C43048430BD30B5002304248C4082
:10400000A3B2048C9C430484048C02FA01F5ADB283
:104010002C43048430BD70B50346002000241846AC
:10402000183001258D40ACB21D8CA5431D8409B10B
:10403000082909D100EB6100056825F070050560CD
:104040000568154305600EE00D1FC5F34E052844B5
:10405000056825F4E045056005684FF6FF7606EA39
:1040600002263543056070BD21B1028842F002028C
:10407000028004E002884FF6FD731A400280704708
:1040800021B1028842F00402028004E002884FF667
:10409000FB731A400280704721B1828842F080028F
:1040A000828004E082884FF67F731A4082807047D6
:1040B00002884FF6F7731A40028002880A43028092
:1040C000704782884FF68F731A40828082880A4335
:1040D0008280704702894FF6F8731A400281028984
:1040E0000A430281704702894FF67F731A400281AA
:1040F00002890A4302817047818470478185704735
:10410000818670470187704781877047A0F840100B
:10411000704702884FF6FF431A40028002880A4324
:10412000028070470146888E70470146088F7047AD
:104130000146888F70470146B1F84000704701463C
:10414000888C70470146088D704702460020138A0C
:104150000B400BB1012000E000207047CA430282EF
:10416000704730B50246002000230024158A05EA76
:104170000103958905EA010413B10CB1012000E0A7
:10418000002030BDCA4302827047000010B50446CB
:10419000FB48844209D101218803FFF79FF80021E1
:1041A0004FF48040FFF79AF832E0F648844209D194
:1041B00001214804FFF79FF800214FF40030FFF77A
:1041C0009AF825E0F048844209D101218804FFF7DC
:1041D00092F800214FF48020FFF78DF818E0EB48AB
:1041E000844209D10121C804FFF785F800214FF46A
:1041F0000020FFF780F80BE0E548844208D1012158
:104200000805FFF778F800214FF48010FFF773F8E6
:1042100010BD2DE9F04786B005460E460024A246A3
:1042200000BFA1460027B08900B100BF2F462C8AED
:104230004CF6FF700440F08804432C82AC894EF6A3
:10424000F3100440B088318908437189084304435E
:10425000AC81AC8A4FF6FF400440B0890443AC8285
:1042600001A8FEF7B4FFC648874202D1DDF810A0CE
:1042700001E0DDF80CA0A88900F4004040B10AEB91
:10428000CA0000EB0A1031684900B0FBF1F807E002
:104290000AEBCA0000EB0A1031688900B0FBF1F8A4
:1042A0006420B8FBF0F004012009642101FB1089AF
:1042B000A88900F4004040B1322000EBC900B0FBF7
:1042C000F1F000F00700044308E0322000EB091091
:1042D0006421B0FBF1F000F00F0004432C8106B024
:1042E000BDE8F0874FF41651016000218180C18044
:1042F00001810C21418100218181704710B5024666
:104300000020108A4FF2FF0318400B884C8823438B
:104310008C882343CC8823431843108210BD00218E
:10432000018041808180C180704721B1828942F43F
:104330000052828104E082894DF6FF731A40828127
:104340007047F0B50346002400260025002040F603
:104350006A17B94200D100BF1846C1F3421401F0F8
:104360001F06012707FA06F5012C01D10C3004E0E5
:10437000022C01D1103000E014301AB107682F432D
:10438000076002E00768AF430760F0BD1AB1838A97
:104390000B43838202E0838A8B4383827047028AC5
:1043A0004FF6F0731A400282028A0A430282704773
:1043B00082894FF2FF731A40828182890A43828187
:1043C000704721B1828942F00202828104E0828931
:1043D0004FF6FD731A4082817047028A4FF6DF73F1
:1043E0001A400282028A0A430282704721B1028A7D
:1043F00042F48042028204E0028A4BF6FF731A40C4
:1044000002827047C1F308028280704701468888A3
:10441000C0F308007047818941F001018181704734
:10442000028BD2B20283028B42EA012202837047DE
:10443000028B02F47F420283028B0A43028370479D
:1044400021B1828A42F02002828204E0828A4FF601
:10445000DF731A408282704721B1828A42F01002D3
:10446000828204E0828A4FF6EF731A40828270479C
:1044700021B1828A42F00802828204E0828A4FF6E9
:10448000F7731A408282704721B1828942F4004258
:10449000828103E08289C2F30E028281704721B1DA
:1044A000828A42F40062828204E0828A4FF2FF73C1
:1044B0001A4082827047828A4FF6FB731A408282CA
:1044C000828A0A438282704721B1828A42F00202C4
:1044D000828204E0828A4FF6FD731A40828270471E
:1044E00002460020B1F5007F00D100BF13880B40C9
:1044F0000BB1012000E00020704701F40072B2F51A
:10450000007F00D100BFCA430280704770B50246E9
:10451000002400230025002040F66A16B14200D195
:1045200000BFC1F3421501F01F03012606FA03F391
:10453000012D02D19689334006E0022D02D1168A60
:10454000334001E0968A33400C12012606FA04F447
:104550001688344013B10CB1012000E0002070BD7A
:1045600010B50022002340F66A14A14200D100BF1A
:104570000A1201249440A3B2DC43048010BD000061
:10458000003801400044004000480040004C00401A
:104590000050004001460020FE4A106800F038003C
:1045A000084310607047FB49096821F00801F94A87
:1045B000116011460968014311607047F5490968A7
:1045C00021F01001F34A116011460968014311609E
:1045D0007047F148EF494860F04848607047EE483E
:1045E000EC494860ED4848607047EA48006940F08F
:1045F0008000E84908617047E648006940F08000A3
:10460000E449086170470420E249C96801F00101EA
:1046100009B101200EE0DF49C96801F0040109B1C8
:10462000022007E0DB49C96801F0100109B103204D
:1046300000E00420704700B502460423FFF7E3FFC3
:10464000034603E0FFF7DFFF0346521E012B01D1B3
:10465000002AF7D102B90523184600BD30B504463B
:1046600004254FF43020FFF7E6FF0546042D17D14F
:10467000C848006940F00200C64908610846446124
:10468000006940F0400008614FF43020FFF7D3FF8D
:104690000546C048006941F6FD710840BD49086102
:1046A000284630BD10B504244FF43020FFF7C3FF77
:1046B0000446042C16D1B748006940F00400B549FF
:1046C00008610846006940F0400008614FF430205E
:1046D000FFF7B1FF0446AF48006941F6FB7108409F
:1046E000AC490861204610BD00B502460423FFF71F
:1046F0008AFF034603E0FFF786FF0346521E012BA5
:1047000001D1002AF7D102B90523184600BD10B522
:1047100004244FF43020FFF7E7FF0446042C16D1A1
:104720009C48006940F004009A4908610846006905
:1047300040F0400008614FF43020FFF7D5FF0446F9
:104740009448006941F6FB7108409249086120468F
:1047500010BD00208F49C96901F0020109B1012093
:1047600000E00020704730B5A5250424FFF7F1FFD5
:1047700000B100254FF43020FFF75DFF0446042C04
:104780003AD1854883498860844888600846006932
:1047900040F0200008610846006940F040000861D0
:1047A0004FF43020FFF747FF0446042C1BD1794813
:1047B000006941F6DF7108407649086108460069E2
:1047C00040F01000086176480580E002FFF733FFF3
:1047D0000446052C10D06F48006941F6EF7108407F
:1047E0006C49086108E0052C06D06A48006941F66A
:1047F000EF71084067490861204630BD78B506462C
:104800000C46042500200090E802FFF714FF05463F
:10481000042D24D15F48006940F001005D49086122
:104820003480E802FFF707FF0546042D10D1B01CC5
:104830000090200C00990880E802FFF7FCFE054676
:104840005448006941F6FE7108405249086106E08B
:104850005048006941F6FE7108404E4908612846FB
:1048600078BD70B504460D460426F002FFF7E3FE5E
:104870000646042E11D14748006940F00100454921
:1048800008612580F002FFF7D6FE06464148006920
:1048900041F6FE7108403F490861304670BD70B571
:1048A00005460E460424E002FFF7C5FE0446042C2C
:1048B00017D1394837498860384888600846006908
:1048C00040F0100008612E80E002FFF7B4FE0446BD
:1048D000052C06D02F48006941F6EF7108402D499C
:1048E0000861204670BD2DE9F04304464FF6FF767F
:1048F0003746B046B1460425E443E6B2C4F3072781
:10490000C4F307484FEA1469E802FFF794FE05462E
:10491000042D49D120481F498860204888600846F6
:10492000006940F010000861FF2E06D01C480830D6
:104930000680E802FFF77FFE0546042D08D1FF2F11
:1049400006D017480A300780E802FFF774FE0546D4
:10495000042D0AD1B8F1FF0F07D011480C30A0F890
:104960000080E802FFF767FE0546042D0AD1B9F181
:10497000FF0F07D00A480E30A0F80090E802FFF7BA
:104980005AFE0546052D0FD00248006941F6EF7129
:10499000084007E00020024023016745AB89EFCDC6
:1049A00000F8FF1F664908612846BDE8F08330B56E
:1049B000054604244FF43020FFF73DFE0446042C46
:1049C00041D160485E4988605F4888600846006958
:1049D00040F0200008610846006940F0400008618E
:1049E0004FF43020FFF727FE0446042C22D1544810
:1049F000006941F6DF7108405149086108460069C5
:104A000040F0100008611DB100205049088002E00C
:104A1000A5204E4908804FF43020FFF70CFE0446D5
:104A2000052C10D04648006941F6EF710840444912
:104A3000086108E0052C06D04148006941F6DF71A5
:104A400008403F490861204630BDF0B505460E4696
:104A5000174604243B483A4988603B488860E00296
:104A6000FFF7E9FD0446042C19D13548006940F0F0
:104A700010003349086147F0F800304328433349B8
:104A8000891C0880E002FFF7D6FD0446052C06D0FD
:104A90002B48006941F6EF7108402949086120461A
:104AA000F0BD2748C069800870472548006A7047F4
:104AB00000202349096801F0200109B1012000E02C
:104AC0000020704729B11E4A126902431C4B1A612B
:104AD00004E01B4A12698243194B1A617047014670
:104AE0000020012908D1164AD26902F001020AB158
:104AF000012008E0002006E0114AD2680A400AB10D
:104B0000012000E0002070470D49C8607047042074
:104B10000B49C96801F0010109B101200EE0084903
:104B2000C96801F0040109B1022007E00449C9681D
:104B300001F0100109B1032000E0042070470000DB
:104B40000020024023016745AB89EFCD00F8FF1F2D
:104B50002DE9F04104460D462169206806F092F9DE
:104B600060606169606806F08DF9064631466068EC
:104B700006F0F6F9E0602846A16806F057FC074603
:104B8000E16806F04BFB0646A16806F07BF9A060E1
:104B90004FF07E50E16806F049FC0646616806F079
:104BA0003DFB2060BDE8F0812DE9F04F8DB0074658
:104BB0000D4616464FF07C5B4FF07E500C90FE4841
:104BC0000B900A90FD480168284606F02FFC3146FC
:104BD000019006F023FB8246F9480168504606F032
:104BE00051F9F7494860F7484168F34806F01EFC60
:104BF0008246F4488168504606F018FC0290F1485D
:104C0000C06880F000400390EE48C06880F000402B
:104C10000490E94805903146029806F0FFFA824672
:104C2000E8480168504606F02DF9E649086031462B
:104C3000039806F0F3FA8246E2484168504606F0CF
:104C400021F9E04948603146049806F0E7FA8246C7
:104C5000DC488168504606F015F9DA49886031462B
:104C6000059806F0DBFA8246D648C168504606F041
:104C700009F9D449C860084601684FF07E5006F033
:104C8000CDFA0446CF4881684FF07E5006F0C6FA50
:104C9000069021464FF07E5006F0C0FA82465946F3
:104CA00006F0F0F881464946204606F059F9099089
:104CB0004946069806F054F90890A046C148416854
:104CC0004FF07E5006F0AAFA07904146099806F088
:104CD000A5FA8246BB480168504606F09CFBB949DC
:104CE00008600799099806F099FA8246B548416824
:104CF000504606F090FBB34948604146089806F0DC
:104D00008DFA8246AF488168504606F084FBAD4973
:104D10008860DDE9071006F081FA8246A948C1687B
:104D2000504606F078FBA749C860A5484168384658
:104D300006F07CFB0190099906F070FA8246A048C3
:104D40004168504606F09EF89D49886008464168D3
:104D5000384606F06BFB0190089906F05FFA824630
:104D600096480168504606F08DF8944908609448CA
:104D7000806893490860084680680DB0BDE8F08FF0
:104D8000016042604FF07E538360C3608E4B0361CD
:104D90008E4B436170472DE9F04704460D4621686C
:104DA000A06806F03BFA2060A168084606F036FAD3
:104DB0000746616806F032FA0646216906F062F895
:104DC0006060E168606806F029FA8146E16806F0F3
:104DD00025FA0746616906F055F80646E1686068FD
:104DE00006F01CFA8046314606F0BAF8A061216848
:104DF000E06806F013FA8046294606F00CFB0746E9
:104E0000A16906F00BFA0646216806F03BF820601F
:104E1000E168A06906F002FA07464FF07E5106F0FD
:104E2000FAFA0646616806F0F9F960602068BDE8A4
:104E3000F08710B50B6803604B68436013688360AC
:104E40005468C46094680461D46844614FF07E5330
:104E500083615F4CC461002404621C464462836227
:104E60000024C4625B4B03631C464463836310BD30
:104E70002DE9F05F04460D466168E06906F0CEF961
:104E800081462168A06906F0C9F98246494605F0C5
:104E9000F9FF20606168606A06F0C0F98146216808
:104EA000206A06F0BBF98246494605F0EBFF6060D8
:104EB0002169E06906F0B2F98246A168A06906F0AE
:104EC000ADF98346514605F0DDFF8146216B05F0C3
:104ED000D9FFA0606169606A06F0A0F98146E168C7
:104EE000A06906F09BF98246494605F0CBFFE060D9
:104EF0002169E06906F092F98146A168206A06F00E
:104F00008DF98246494605F0BDFF20616169606AFE
:104F100006F084F98246E168206A06F07FF983464C
:104F2000514605F0AFFF8146616B05F0ABFF606154
:104F3000E16AE06806F072F98146A16AA06806F0AD
:104F40006DF98246494605F09DFF0646E16A6069B3
:104F500006F064F98146A16A206906F05FF982468D
:104F6000494605F08FFF07463946E06A06F056F9D4
:104F700082463146A06A06F051F98346A16B05F0DE
:104F800081FF8146514605F07DFF8046414630460F
:104F900005F0E6FFE0634146384605F0E1FF206496
:104FA0006168E06A06F03AF981462168A06A06F075
:104FB00035F9824649460FE06F12833A1801002006
:104FC000CC040020D8040020000048430000FA432D
:104FD000CDCCCC3DBD37863505F054FF80464146EB
:104FE000284606F023FA8246E16B06F017F981465F
:104FF000216805F047FF20604146284606F016FA72
:105000008246216C06F00AF98146616805F03AFF94
:105010006060A16AE06B06F001F982464FF07E51B4
:1050200006F0F9F98146A16806F0F8F8A060E16A97
:10503000E06B06F0F3F882464FF07E5106F0EBF994
:105040008146E16806F0EAF8E060A16A206C06F0AB
:10505000E5F882464FF07E5106F0DDF98146216980
:1050600006F0DCF82061E16A206C06F0D7F8824691
:105070004FF07E5106F0CFF98146616906F0CEF817
:1050800060612068BDE8F09F2DE9F04106460F46BB
:105090009046002418E0002512E004EB44022A4464
:1050A00057F8221004EB44022A4456F8220005F077
:1050B000E9FE04EB4401294448F82100681CC5B20C
:1050C000032DEADB601CC4B2032CE4DBBDE8F081F5
:1050D0002DE9F04106460F469046002418E00025D1
:1050E00012E004EB44022A4457F8221004EB440275
:1050F0002A4456F8220006F099F904EB44012944A9
:1051000048F82100681CC5B2032DEADB601CC4B25C
:10511000032CE4DBBDE8F0812DE9F04780468946A9
:10512000164600242DE0002527E0002004EB440172
:10513000294446F8210000271BE007EB47022A44D8
:1051400059F8221004EB44023A4458F8220006F0C1
:1051500065F8824604EB4400284456F82010504677
:1051600005F090FE04EB4401294446F82100781C28
:10517000C7B2032FE1DB681CC5B2032DD5DB601C71
:10518000C4B2032CCFDBBDE8F08703B5CFB0CC4A67
:1051900010465099FFF778FFCA4ACB491046FFF7EF
:1051A00073FF44AAC6494F98FFF792FF17AAC74951
:1051B000C448FFF769FF189809901F98089009994B
:1051C00006F02CF80A901A98014609900A9806F001
:1051D00025F80C901E9807901C980690079906F0E9
:1051E0001DF80890179801460790089806F016F8E1
:1051F0000A901B98059019980490059906F00EF8EE
:1052000006901D9801460590069806F007F808904C
:105210001A98039019980290039905F0FFFF0490E3
:105220001E9801460390049805F0F8FF06901C981C
:10523000019018980090019905F0F0FF02901D98D8
:1052400001460190029805F0E9FF04901B98019037
:1052500017980090019905F0E1FF02901F98014610
:105260000190029805F0DAFF0390049905F00AFE18
:105270000590069905F006FE0790089906F0D6F805
:1052800009900A9906F0D2F80B900C9906F0CEF826
:105290000D901E9809901C980890099905F0BEFF82
:1052A0000B901F9809901B980890099905F0B6FF7C
:1052B0000A900B9906F0BAF80C900D9905F050FE83
:1052C0000E901F98099018980890099905F0A6FF6C
:1052D0000B901E98099019980890099905F09EFF67
:1052E0000A900B9906F0A2F80C900D9905F038FE83
:1052F0000F901D9809901B980890099905F08EFF52
:105300000B901E98099018980890099905F086FF4F
:105310000A900B9906F08AF80C900D9905F020FE82
:1053200010901F9809901A980890099905F076FF37
:105330000B901D9809901C980890099905F06EFF34
:105340000A900B9906F072F80C900D9905F008FE82
:1053500011901D98099019980890099905F05EFF21
:105360000B901F98099017980890099905F056FF1F
:105370000A900B9906F05AF80C900D9905F0F0FD83
:1053800012901C98099017980890099905F046FF0B
:105390000B901A98099019980890099905F03EFF0A
:1053A0000A900B9906F042F80C900D9905F0D8FD83
:1053B00013901D9809901B980890099905F02EFFED
:1053C0000B901E9809901A980890099905F026FFED
:1053D0000A900B9906F02AF80C900D9905F0C0FD83
:1053E00014901E98099017980890099905F016FFD7
:1053F0000B901D98099018980890099905F00EFFD8
:105400000A900B9906F012F80C900D9905F0A8FD82
:1054100015901A98099018980890099905F0FEFEC1
:105420000B901B98099017980890099905F0F6FEC3
:105430000A900B9905F0FAFF0C900D9905F090FD7C
:10544000169032AA0EA91F48FFF766FE29AA44A9A2
:1054500032A8FFF761FE1A4A29A91046FFF714FE89
:1054600020AA32A91A48FFF733FE3BAA154920A803
:10547000FFF752FE00204E901DE000204D9013E0FB
:105480004E9800EB40014D9808443BA951F820107C
:105490004E9800EB40024D9810440A4A42F8201002
:1054A0004D98401CC0B24D904D980328E8DB4E98B3
:1054B000401CC0B24E904E980328DEDB51B000BDB8
:1054C000A804002088000020F4000020D000002064
:1054D000AC0000202DE9F05F04464FF07F594FF0FB
:1054E0007C51204605F09AFE824625462E46FE480F
:1054F000A0EB660635462946504605F08FFE8346EA
:10550000294605F08BFE8046494605F084FF074694
:10551000294605F083FE05462846BDE8F09F10B5F4
:1055200004460021204605F045FE02D284F00040EA
:1055300010BD2046FCE70FB5ABB0EC480168006831
:1055400005F06CFE1490EA480168E848006805F030
:1055500065FE1390E7480168E448006805F05EFEC8
:105560001290E5480168E148006805F057FE119087
:10557000DF480168006805F051FE1090DD480168C1
:10558000DB48006805F04AFE0F90DB480168D84808
:10559000006805F043FE0E90D6480168006805F0EB
:1055A0003DFE0D90D4480168D248006805F036FEF3
:1055B0000C90D1480168006805F030FE0B902D98E2
:1055C00005F034FCCD4ACE4BCDE9060105F054F987
:1055D000CDE9080104F0FEFE0A902B9805F026FCA8
:1055E000C84AC94BCDE9040104F0D6FFC74AC84BED
:1055F000CDE9060105F040F9CDE9080104F0EAFE25
:105600002B902C9805F012FCBE4ABF4BCDE904014B
:1056100004F0C2FFBD4ABE4BCDE9060105F02CF9EE
:10562000CDE9080104F0D6FE2C902D9805F0FEFB84
:10563000B44AB54BCDE9040104F0AEFFB34AB44B14
:10564000CDE9060105F018F9CDE9080104F0C2FE24
:105650002D903199084605F0E1FD089030990846F3
:1056600005F0DCFD06902E99084605F0D7FD059063
:10567000069905F007FC0790089905F003FC0990CE
:10568000FFF728FF239023992E9805F0C7FD2E9051
:105690002399309805F0C2FD30902399319805F098
:1056A000BDFD31903499084605F0B8FD0890339956
:1056B000084605F0B3FD06903299084605F0AEFDA8
:1056C0000590069905F0DEFB0790089905F0DAFBD6
:1056D0000990FFF7FFFE23902399329805F09EFD75
:1056E00032902399339805F099FD3390239934989B
:1056F00005F094FD349012990E9805F0C3FB0690C6
:10570000349905F08BFD089011990F9805F08EFEE5
:105710000490339905F082FD06904FF07C500D996E
:1057200005F084FE03900B9905F080FE04903299F9
:1057300005F074FD0590069905F0A4FB0790089903
:1057400005F0A0FB4FF08041099005F067FD229025
:1057500013990C9805F06AFE0690349905F05EFDE9
:1057600008904FF07C50109905F060FE03900B9963
:1057700005F05CFE0490339905F050FD06901199F8
:105780000F9805F07FFB0490329905F047FD0590D6
:10579000069905F077FB0790089905F073FB4FF029
:1057A0008041099005F03AFD21904FF07C5010990E
:1057B00005F03CFE05900D9905F038FE07904FF07E
:1057C0008040349905F02AFD0690079905F026FDE2
:1057D000099013990C9805F055FB05904FF0804007
:1057E000339905F01BFD0490059905F017FD07900E
:1057F00012990E9805F01AFE05904FF080403299EC
:1058000005F00CFD0490059905F008FD0690079938
:1058100005F038FB0890099905F034FB2090219998
:10582000084605F0FBFC04902299084605F0F6FCBA
:105830000390049905F026FB059005F0F7FACDE9F1
:10584000060104F08BFDCDE9080104F0C3FD1F90B3
:1058500020981E9012990E9805F0E8FD4FF08041B7
:10586000099005F0DBFC1D900C99139805F00AFBDC
:105870004FF08041099005F0D1FC1C9010991498CC
:1058800005F0D4FD08900D9905F0D0FD09900B9915
:1058900005F0F8FA1B9012990E9805F0C7FD0790D5
:1058A0004FF080401E9905F0B9FC0690079905F06D
:1058B000B5FC09904FF07C500D9905F0B7FD0590AF
:1058C0000B9905F0B3FD07904FF080401F9905F04C
:1058D000A5FC0690079905F0A1FC0890099905F030
:1058E000D1FA1A900C9915E0DF59375F1C0100209E
:1058F00020010020240100202801002030689DC8DC
:10590000FE3F9F3F52B81E85EB613040AF99D76C88
:1059100040DF913F139805F0B5FA07904FF08040B3
:105920001E9905F07BFC0690079905F077FC09901D
:1059300011990F9805F07AFD07904FF080401F995C
:1059400005F06CFC0690079905F068FC0890099931
:1059500005F098FA19904FF07C50109905F066FD0B
:1059600005900D9905F062FD07904FF080401E995B
:1059700005F054FC0690079905F050FC09900E992B
:10598000129805F07FFA07904FF080401F9905F0BC
:1059900045FC0690079905F041FC0890099905F02F
:1059A00071FA18901999349805F038FC07901899F5
:1059B000339805F033FC0690079905F037FD099000
:1059C0001C99319805F02AFC07901B99309805F036
:1059D00025FC0690079905F029FD0890099905F026
:1059E00051FA17901899329805F018FC07901A99F7
:1059F000349805F013FC0690079905F017FD0990FF
:105A00001B992E9805F00AFC07901D99319805F016
:105A100005FC0690079905F009FD0890099905F025
:105A200031FA16901A99339805F0F8FB07901999F6
:105A3000329805F0F3FB0690079905F0F7FC099002
:105A40001D99309805F0EAFB07901C992E9805F0F7
:105A5000E5FB0690079905F0E9FC0890099905F027
:105A600011FA15900021179805F03CFB6FD000212A
:105A7000169805F037FB6AD00021159805F032FB27
:105A800065D0179805F0D2F9FD4AFE4BCDE900012B
:105A900004F0F2FE4FF06042FB4BCDE9020104F04E
:105AA000EBFECDE90601F948006805F0BFF9CDE944
:105AB0000401DDE9062304F0BFFCCDE9080104F090
:105AC00089FCF2490860169805F0B0F9EC4AED4BF4
:105AD000CDE9000104F0D0FE4FF06042EA4BCDE981
