:020000040800F2
:10000000B80C0020211C0008151A0008171A000857
:100010001B1A00081F1A0008231A0008000000001D
:10002000000000000000000000000000271A000887
:10003000291A0008000000002B1A00082D1A0008D9
:100040003B1C00083B1C00083B1C00083B1C000834
:100050003B1C00083B1C00083B1C00083B1C000824
:100060003B1C00083B1C00083B1C00083B1C000814
:100070003B1C00083B1C00083B1C00083B1C000804
:100080003B1C00083B1C00083B1C00083B1C0008F4
:100090002F1A00083B1C00083B1C00083B1C0008F2
:1000A0003B1C0008455A00083B1C00083B1C00088C
:1000B0003B1C00083B1C0008751500083B1C000891
:1000C0003B1C00083B1C00083B1C00083B1C0008B4
:1000D0003B1C00088B1900083B1C00083B1C000857
:1000E0003B1C00083B1C00083B1C00083B1C000894
:1000F0003B1C00083B1C00083B1C00083B1C000884
:100100003B1C00083B1C00083B1C00083B1C000873
:100110003B1C00083B1C00083B1C00083B1C000863
:100120003B1C00083B1C00083B1C00083B1C000853
:1001300000F002F800F06AF80AA090E8000C82448F
:100140008344AAF10107DA4501D100F05FF8AFF26C
:10015000090EBAE80F0013F0010F18BFFB1A43F0A5
:100160000103184718A8000038A800000A444FF0FF
:10017000000C10F8013B13F0070408BF10F8014B06
:100180001D1108BF10F8015B641E05D010F8016B4B
:10019000641E01F8016BF9D113F0080F1EBF10F8AF
:1001A000014BAD1C0C1B09D16D1E58BF01F801CBD2
:1001B000FAD505E014F8016B01F8016B6D1EF9D555
:1001C0009142D6D37047000000230024002500266A
:1001D000103A28BF78C1FBD8520728BF30C148BFAA
:1001E0000B60704766290AF04482642907F0EE84A8
:1001F000002070471FB508F035F8040000200021EA
:1002000009F038F9E0601FBD10B510BD08F04AF9DB
:100210001146FFF7EFFF00F009F808F068F903B4A2
:10022000FFF7F2FF03BC01F055FB000086B005F0BC
:1002300080FC01F0E5FA4FF4A06001F011FD3D48AB
:1002400001F057FB00F041FF00F007FD00F0BFF8A0
:10025000472141F2873001F069F8472144F61F60D9
:1002600001F01FF9472144F61F6001F092F84FF4A6
:10027000E16001F002FB002005F022FD4FF42F7039
:1002800001F0FBFA012005F01BFD05F0C1FC05F0B3
:10029000B4FC06F05FFE01221146274802F019FD6A
:1002A00046E02649486909F0FFFF04B2234908697E
:1002B00009F0FAFF05B22149C86809F0F5FF06B256
:1002C0000020CDE90265CDE904401D48B0F90400E5
:1002D0001B49B1F902101A4FCDE90010B7F90030EF
:1002E000184FB7F90420B7F90210B7F9000005F06C
:1002F000DEF800200090144B01901A685968986845
:10030000002305F057FA0020029003900490059016
:1003100000900E4C0190A488A3B20C4CA489A2B208
:100320000A4C2489A1B2094C2488A0B205F085F9B1
:10033000B7E7000020A10700002C0140C002002008
:100340002003002014030020440400202C0300207C
:1003500070B505460C4600F0D1FE182000F082FF73
:1003600000F00DFF18B100F0E9FE012070BD284635
:1003700000F078FF00F003FF204600F073FF00F06C
:10038000FEFE18B100F0DAFE0120EFE700F0D6FE25
:100390000020EBE770B5044600F0B0FE182000F036
:1003A00061FF00F0ECFE204600F05CFF00F0E7FE8D
:1003B00000F0A4FE192000F055FF00F0E0FE002040
:1003C00000F07BFF054600F0B9FE284670BD10B571
:1003D00000240020FFF7DEFF0446482C04D0FAA0DA
:1003E00007F0E8FB012010BDFCA007F0E3FB1121A2
:1003F0000A20FFF7ADFF0020FE498861C86108624E
:100400004FF07E50C86248628862FB488864FB48AF
:10041000C864FB480865FB480863FB484863FB4821
:100420008863FB48C863FB480864FB4848640A20AB
:1004300001F023FA0020D6E72DE9F04106460F46E9
:1004400014461D4600F05AFE002141EA4601C8B29A
:1004500000F008FF00F093FE20B100F06FFE0120D5
:10046000BDE8F081384600F0FDFE00F088FE00F0A7
:1004700045FE012101EB4601C8B200F0F3FE00F099
:100480007EFE0DE0012C04D1002000F016FF287044
:1004900003E0012000F011FF2870601EC4B26D1C43
:1004A000002CEFD100F04AFE0020D9E72DE9F04FF3
:1004B00089B007AB062203210C20FFF7BDFF069091
:1004C0000698B8B99DF81C009DF81D1040EA01205F
:1004D0000FFA80F99DF81E009DF81F1040EA0120D8
:1004E0000FFA80FA9DF820009DF8211040EA0120C3
:1004F0000FFA80FBBF49886C09F046FDCDE9020187
:10050000484609F013FA0022C44BCDE9000109F076
:10051000B5F80746DDE9022309F04CFCCDE90401FA
:1005200008F0BEFF0446B349C86C09F02DFDCDE9C3
:100530000201504609F0FAF90022B84BCDE900015A
:1005400009F09CF80746DDE9022309F033FCCDE908
:10055000040108F0A5FF0546A649086D09F014FD41
:10056000CDE90201584609F0E1F907460022AB4BFC
:1005700009F084F8CDE90001DDE9022309F01AFC55
:10058000CDE9040108F08CFF06469A49886B314694
:1005900009F0F2FE97490590486B294609F0ECFEF8
:1005A00080469449086B214609F0E6FE41460490D6
:1005B00009F016FD0746059909F012FD8D490860FE
:1005C000086C314609F0D8FE8A490590C86B294667
:1005D00009F0D2FE80468749486B214609F0CCFEDF
:1005E0004146049009F0FCFC0746059909F0F8FC27
:1005F00080494860486C314609F0BEFE7D4905904F
:10060000086C294609F0B8FE80467A49886B214675
:1006100009F0B2FE4146049009F0E2FC0746059954
:1006200009F0DEFC734988600846006880F00047E6
:10063000384609F0A9FC0022784BCDE9020109F007
:10064000C9F9CDE9040108F02BFF6A49C860486880
:1006500009F09AFC07460022704B09F0BBF9CDE97E
:10066000040108F01DFF63490861886809F08CFCEB
:1006700007460022694B09F0ADF9CDE9040108F005
:100680000FFF5C49486111210A20FFF761FE00203D
:1006900009B0BDE8F08F2DE9F04F93B0604C650CC8
:1006A0002646670CA04647F6FF794FF0000A5DA08A
:1006B00007F080FA4FF47A7001F0DFF84FF47A70A7
:1006C00001F0DBF84FF47A7001F0D7F84FF47A704C
:1006D00001F0D3F800BF67E0FFF7E8FE204609F01D
:1006E000FFFD83464348C168584609F011FE04D80F
:1006F0004049C86809F0D8FD04B2304609F0F0FD61
:1007000083463C480169584609F002FE04D839493D
:10071000086909F0C9FD06B2404609F0E1FD8346CB
:1007200034484169584609F0F3FD05D83149486914
:1007300009F0BAFD0FFA80F8284609F0D1FD83468A
:100740002C48C168584609F0E3FE04D82949C86816
:1007500009F0AAFD05B2384609F0C2FD83462548D6
:100760000169584609F0D4FE04D82249086909F005
:100770009BFD07B2484609F0B3FD83461D48416919
:10078000584609F0C5FE05D81A49486909F08CFD9C
:100790000FFA80F927A007F00DFA0A2001F06DF892
:1007A0000AF101000FFA80FABAF5FA6F94DD22A07F
:1007B00007F000FA4FF47A7001F05FF84FF47A70A6
:1007C00001F05BF840E00000414B383937352049F3
:1007D0004E4954204552524F520A0000414B38397D
:1007E000373520494E495420535543434553530A06
:1007F00000000000C00200203CE8C839C000803E74
:100800007B7AC83C7F94783F15F4E83CD1AA22BC9F
:100810004155813FBA16B93B4E96823F0050754014
:100820000180FFFF66697273742063616C204D4123
:10083000470A00002E2000007365636F6E6420631A
:10084000616C204D41470A004FF47A7001F015F8B1
:100850004FF47A7001F011F84FF0000A68E0FFF7EA
:1008600025FE204609F03CFD83469E48C168584657
:1008700009F04EFD04D89B49C86809F015FD04B283
:10088000304609F02DFD834696480169584609F027
:100890003FFD04D89349086909F006FD06B24046B9
:1008A00009F01EFD83468F484169584609F030FD26
:1008B00005D88C49486909F0F7FC0FFA80F82846FA
:1008C00009F00EFD83468748C168584609F020FEAE
:1008D00004D88449C86809F0E7FC05B2384609F035
:1008E000FFFC83467F480169584609F011FE04D891
:1008F0007C49086909F0D8FC07B2484609F0F0FCC9
:10090000834678484169584609F002FE05D8754982
:10091000486909F0C9FC0FFA80F9AFF2E80007F066
:1009200049F90A2000F0A9FF0AF101000FFA80FA44
:10093000BAF5FA6F93DD4346324621466AA007F0C6
:1009400039F94B463A4629466EA007F033F9281983
:1009500008F0ECFF00224FF08043CDE90E0108F0D3
:100960008DFECDE9100108F09BFD5E498861B81944
:1009700008F0DCFF00224FF08043CDE90E0108F0C3
:100980007DFECDE9100108F08BFD5649C86109EBE9
:10099000080008F0CBFF00224FF08043CDE90E01A4
:1009A00008F06CFECDE9100108F07AFD4D490862AF
:1009B000F01B08F0BBFFCDE90E01601B08F0B6FF8D
:1009C0000022574BCDE90A0109F004F8CDE90C01EA
:1009D000DDE90E2308F052FECDE9100108F060FDBC
:1009E00040494862A8EB090008F0A0FFCDE90E01DC
:1009F000601B08F09BFF0022494BCDE90A0108F07B
:100A0000E9FFCDE90C01DDE90E2308F037FECDE961
:100A1000100108F045FD33498862886A09F0B4FA8C
:100A2000CDE910012F49486A09F0AEFACDE90E016F
:100A30002C49086A09F0A8FACDE90C012949C869CE
:100A400009F0A2FACDE90A012649886909F09CFA61
:100A5000CDE90801DDE91001CDE90601DDE90E016E
:100A6000CDE90401DDE90C01CDE90201DDE90A016E
:100A7000CDE900012BA0DDE9082307F09BF813B0B6
:100A8000BDE8F08F2DE9F04105460E461746984621
:100A900000F034FB002141EA4501C8B200F0E2FB5E
:100AA00000F06DFB20B100F049FB0120BDE8F081B2
:100AB000304600F0D7FB00F062FB00240CE018F891
:100AC000040000F0CFFB00F05AFB18B100F036FB39
:100AD0000120EBE7601CC4B2BC42F0DB00F02EFB4F
:100AE0000020E3E7C0020020786D61783A256409B0
:100AF000796D61783A2564097A6D61783A256409DF
:100B000000000000786D696E3A256409796D696EA0
:100B10003A2564097A6D696E3A25640A000000007E
:100B20000000F03F786F252E32660920796F252E60
:100B3000326609207A6F252E32660920252E32660C
:100B40000920252E32660A0070B505460C4600F0D5
:100B5000D5FAD02000F086FB00F011FB18B100F0B0
:100B6000EDFA012070BD284600F07CFB00F007FB89
:100B7000204600F077FB00F002FB18B100F0DEFA2F
:100B80000120EFE700F0DAFA0020EBE770B5044649
:100B90000025BC2C01DB012510E0622C01DB0225C5
:100BA0000CE02A2C01DB032508E0142C01DB0425D2
:100BB00004E00A2C01DB052500E0062529461A2061
:100BC000FFF7C2FF70BD70B50446B4F57A7F01DD52
:100BD0004FF47A74042C00DA04244FF47A7090FBFA
:100BE000F4F0401EC5B229461920FFF7ADFF0546B7
:100BF000264604EBD671C1F34F00FFF7C7FF70BD67
:100C000070B5044600F07AFAD02000F02BFB00F01B
:100C1000B6FA204600F026FB00F0B1FA00F06EFABA
:100C2000D12000F01FFB00F0AAFA002000F045FBE5
:100C3000054600F083FA284670BD10B50446E0066C
:100C4000010E1C20FFF780FF10BD10B50446E00622
:100C5000010E1B20FFF778FF10BD10B580216B201F
:100C6000FFF772FF642000F008FE00216B20FFF701
:100C70006BFF0320FFF7E9FF0020FFF7DEFF3220C4
:100C8000FFF7A1FF00213820FFF75EFF00216A2057
:100C9000FFF75AFF00212320FFF756FF802137205E
:100CA000FFF752FF7520FFF7ABFF0446682C0FD10A
:100CB00001216B20FFF748FF00216C20FFF744FF64
:100CC0004FF49670FFF77FFFE7A006F073FF04E094
:100CD000EAA006F06FFF012010BD6FF06F00EB4936
:100CE000C88065200881042048810020E849C88028
:100CF0000881488100BFEFE72DE9F04106460F4625
:100D000014461D4600F0FAF9002141EA4601C8B236
:100D100000F0A8FA00F033FA20B100F00FFA012039
:100D2000BDE8F081384600F09DFA00F028FA00F0A6
:100D3000E5F9012101EB4601C8B200F093FA00F099
:100D40001EFA0DE0012C04D1002000F0B6FA287044
:100D500003E0012000F0B1FA2870601EC4B26D1CDF
:100D6000002CEFD100F0EAF90020D9E72DE9F84F87
:100D70006B46022241216820FFF7BEFF9DF801006B
:100D80009DF8001040EA01200FFA80FA504608F062
:100D9000CDFD80460022BF4B08F070FC0646BE4ADF
:100DA000BE4B08F0AFFB044608F07AFB8346BC4913
:100DB000584609F0E1FA044609F076FA00B2BDE8B7
:100DC000F88F2DE9FC478046894692466B460622FD
:100DD00043216820FFF790FF0446A4B99DF8010065
:100DE0009DF8001040EA012005B29DF803009DF82F
:100DF000021040EA012006B29DF805009DF804109B
:100E000040EA012007B2A148C088281A00B29F49D1
:100E1000088008460089301A00B248800846408998
:100E2000381A00B288802046BDE8FC872DE9FC47CF
:100E30008046894692466B4606223B216820FFF792
:100E40005BFF0446A4B99DF801009DF8001040EA3C
:100E5000012005B29DF803009DF8021040EA012030
:100E600006B29DF805009DF8041040EA012007B283
:100E70008748C088281A00B285490880084600893A
:100E8000301A00B2488008464089381A00B288807B
:100E90002046BDE8FC872DE9F04105460E46174681
:100EA000984600F02BF9002141EA4501C8B200F054
:100EB000D9F900F064F920B100F040F90120BDE853
:100EC000F081304600F0CEF900F059F900240CE032
:100ED00018F8040000F0C6F900F051F918B100F05C
:100EE0002DF90120EBE7601CC4B2BC42F0DB00F03E
:100EF00025F90020E3E72DE9F04F89B01E20089086
:100F00004FF000094FF0000A4FF0000B0020069050
:100F10000790052003906FF00400029053E000BF9B
:100F20000A2000F0AAFC6B46062243216820FFF746
:100F3000E3FE0746A7B99DF801009DF8001040EABE
:100F4000012004B29DF803009DF8021040EA012040
:100F500005B29DF805009DF8041040EA012006B294
:100F6000BDF81800201A00B2ADF81000BDF81A0044
:100F7000281A00B2ADF81200BDF81C00301A00B2F9
:100F8000ADF81400ADF81840ADF81A50ADF81C607B
:100F9000BDF910000528C3DCBDF9100010F1050FE4
:100FA000BEDBBDF912000528BADCBDF9120010F154
:100FB000050FB5DBBDF914000528B1DCBDF914003F
:100FC00010F1050FACDB0898411EC9B2089100284A
:100FD000A5D1804626E0052000F04FFC6B46062296
:100FE00043216820FFF788FE0746A7B99DF8010056
:100FF0009DF8001040EA012004B29DF803009DF81E
:10100000021040EA012005B29DF805009DF8041089
:1010100040EA012006B2A144AA44B34408F1010009
:1010200000F0FF08B8F1640FD5DB642099FBF0F005
:1010300000B21649C88064209AFBF0F000B2088123
:1010400064209BFBF0F000B248810846B0F90A30FA
:10105000B0F90820B0F9061012A006F0ABFD09B0F7
:10106000BDE8F08F704700004D505520494E49545F
:1010700020535543434553530A0000004D5055201B
:10108000494E4954204552524F520A002003002035
:101090001403002000407540A4703D0AD74342402D
:1010A0000000C84267786F66663A25640967796F01
:1010B00066663A256409677A6F66663A25640A00AF
:1010C00010B5022000F0B5FB10BD08B501210820C5
:1010D00001F050F94FF44060ADF8000010208DF899
:1010E000030003208DF8020069468D4800F086FE5B
:1010F0004FF440618A4800F02EFF08BD10B58848C3
:10110000001D006820F470408549091D08600846EC
:10111000006840F44050086001208249086082491C
:10112000C1F8A801FFF7CCFF00207E490860FFF757
:10113000C7FF00207C49C1F8A80110BD10B5784850
:10114000001D006820F470407549091D08600846BC
:10115000006840F44050086000207249091F086090
:101160007149C1F8AC01FFF7ABFF01206D49091FC0
:1011700008606D49C1F8AC01FFF7A2FF10BD10B5C2
:1011800000246748001D006820F470406449091D70
:1011900008600846006840F400400860012061498A
:1011A0000860FFF78DFF01205F49C1F8A801FFF734
:1011B00087FF07E0601CC4B2FA2C03DDFFF7BEFF17
:1011C000012010BD5748803800680028F2D15549E9
:1011D000091F086000BFF4E710B500205149091F3E
:1011E00008604F48001D006820F470404C49091DFC
:1011F00008600846006840F44050086000204A49F2
:10120000C1F8AC01FFF75CFF01204649091F0860E7
:10121000FFF756FF00204449C1F8A80110BD10B5E2
:1012200000204049091F08603D48001D006820F467
:1012300070403B49091D08600846006840F4405072
:10124000086001203849C1F8AC01FFF739FF0120DF
:101250003449091F0860FFF733FF00203249C1F805
:10126000A80110BD70B504462D48001D006820F48B
:1012700070402B49091D08600846006840F4405042
:10128000086000202749091F0860002512E0E009D6
:10129000244908606006040E01202349C1F8A80112
:1012A000FFF70EFF00201F49091F0860FFF708FF26
:1012B000681CC5B2082DEADB70BD70B50546002478
:1012C0001748001D006820F470401549091D08608A
:1012D0000846006840F400400860002615E0002041
:1012E0001049091F0860FFF7EBFE01200E49C1F805
:1012F000A8016006040E0B488038006808B1601C25
:10130000C4B2FFF7DDFE701CC6B2082EE7DB15B9CC
:10131000FFF785FF01E0FFF75FFF204670BD00008B
:10132000000C0140AC812142008021427FB505467E
:101330000C460121C80201F01DF8ADF80850ADF8C7
:1013400004400020ADF80A00ADF806008DF80C004E
:1013500001A9844801F046F90121824801F09EFC70
:1013600019208DF8000002208DF8010000208DF872
:10137000020001208DF80300684600F076FC012190
:10138000784801F051FF00220121764801F0A1FCCC
:101390007FBD30B589B005460C460121042000F020
:1013A000F6FF0121082000F0E5FF4FF47070ADF862
:1013B000140028208DF8170005A96B4800F01EFDC9
:1013C0004FF47071684800F0C8FDADF80C50ADF8EE
:1013D00008400020ADF80E00ADF80A0002A96348ED
:1013E00001F000F90020ADF81800ADF81A00012056
:1013F000ADF81C000020ADF81E00ADF8200006A9D5
:101400005A4801F082FB0420ADF818000020ADF826
:101410001A000120ADF81C000020ADF81E00ADF848
:10142000200006A9514801F070FB0820ADF8180013
:101430000020ADF81A000120ADF81C000020ADF826
:101440001E00ADF8200006A9484801F05EFB0C2004
:10145000ADF818000020ADF81A000120ADF81C000E
:101460000020ADF81E00ADF8200006A93F4801F0AD
:101470004CFB1E208DF8040001208DF805008DF82E
:1014800006008DF8070001A800F0EFFB01221E21E5
:10149000364801F01EFC0121344801F0FFFB09B081
:1014A00030BD30B589B005460C460121042000F05E
:1014B00061FF0121084600F06AFF0F20ADF804002B
:1014C00003208DF8060018208DF8070001A9284890
:1014D00000F094FCADF81C50ADF818400020ADF8B9
:1014E0001E00ADF81A0006A94FF0804001F07AF80E
:1014F0006020ADF808000120ADF80A000020ADF82A
:101500000E00ADF8100002A94FF0804001F0A7F8DE
:101510000821C80601F0F2FC02A94FF0804001F05A
:10152000E0F80821C80601F0F2FC02A94FF0804063
:1015300001F024F90821C80601F0F6FC02A94FF0D9
:10154000804001F066F90821C80601F0F6FC01218F
:10155000880701F0A3FC0121880701F09FFB09B077
:1015600030BD0000002C0140000C0140000800408C
:101570000008014010B59048007800F08000002875
:1015800042D102218D4801F052FE00283CD00221B8
:101590008A4801F05DFE8848007800F0400020B3E2
:1015A000864801F025FE864908800846008885495E
:1015B0000988884204DA44F61F608349086002E023
:1015C0000020814908607E4800887E490988401AC9
:1015D0007D49096808447D49C86000207649087043
:1015E0000021764801F00CFD0EE0744801F000FE89
:1015F000744908807048007840F040006E490870D7
:1016000002216E4801F0FCFC7148007800F0800077
:10161000002841D10421694801F009FE60B304218A
:10162000664801F015FE6A48007800F0400020B3DB
:10163000624801F0E0FD6749088008460088664975
:101640000988884204DA44F61F606449086002E0B1
:101650000020624908605F4800885F490988401A95
:101660005E49096808445949486000205849087093
:101670000021524801F0D6FC0EE0504801F0BBFDBD
:10168000554908805248007840F0400050490870A1
:1016900002214A4801F0C6FC5148007800F0800061
:1016A00088BB0821454801F0C2FD60B308214348CA
:1016B00001F0CEFD4A48007800F0400020B33F48DA
:1016C00001F09CFD47490880084600884649098882
:1016D000884204DA44F61F604449086002E00020B2
:1016E000424908603F4800883F490988401A3F49FD
:1016F000096808443549086000203949087000210C
:101700002E4801F0A9FC0EE02C4801F077FD364987
:1017100008803348007840F04000314908700221C9
:10172000264801F099FC3248007800F0800088BB20
:101730001021224801F07BFD60B310211F4801F009
:1017400087FD2B48007800F0400020B31B4801F0D3
:1017500058FD28490880084600882749098888429A
:1017600004DA44F61F602549086002E0002023499E
:1017700008602048008820490988401A1F490968E4
:1017800008441249886000201949087000210B485C
:1017900001F07CFC0EE0094801F033FD1649088099
:1017A0001348007840F040001149087002210348B6
:1017B00001F06CFC10BD000000000020000800409B
:1017C0000400002002000020180000202C0300204C
:1017D000060000200A000020080000201C00002055
:1017E0000C000020100000200E000020200000202F
:1017F0001200002016000020140000202400002009
:1018000010B56FF0040000F07AFA2E4800682E49F7
:10181000B0FBF1F02D4908700846007800EB40015C
:10182000C1EBC0104FF6FF7101EAC00028490880E3
:1018300010BD0146254A12784A434FF0E0235A6111
:1018400000229A611A46126942F001021A6100BF31
:101850004FF0E022106900F001021AB100F480326A
:10186000002AF5D04FF0E022126922F001024FF079
:10187000E0231A6100229A6170470146144A1288D7
:101880004A434FF0E0235A6100229A611A461269D6
:1018900042F001021A6100BF4FF0E022106900F02F
:1018A00001021AB100F48032002AF5D04FF0E02294
:1018B000126922F001024FF0E0231A6100229A61BE
:1018C000704700003400002000127A002800002039
:1018D0002A000020014600BF704700BF494A128815
:1018E00002F04002002AF9D0C2B2464B1B1D1A80FA
:1018F000704710B586B00446012144F2040000F0A0
:1019000039FD4FF40070ADF8140003208DF8160077
:1019100018208DF8170005A93B4800F06FFA4FF426
:101920008060ADF8140004208DF8170005A9364832
:1019300000F064FA25208DF8000003208DF80100E6
:101940008DF8020001208DF80300684600F08DF943
:1019500001940020ADF80800ADF80A00ADF80C00C5
:10196000ADF810000C20ADF80E0001A9254801F0DB
:10197000B6FC012240F22551224801F048FD012128
:10198000204801F038FD06B010BD10B540F22551D9
:101990001C4801F021FE10B31A4801F09DFDC4B2AD
:1019A0001A48008800F40040C8B91848008800F4BC
:1019B000804060B10A2C03D000201449088020E048
:1019C0001248008840F400401049088019E00D2CAE
:1019D00006D10E48008840F480400C49088010E091
:1019E0000A480088C0F30D0009490C5407480088D4
:1019F000401C0649088008460088C72801DD0020F1
:101A0000088010BD0038014000080140300000206F
:101A10003C030020704700BFFEE700BFFEE700BFA9
:101A2000FEE700BFFEE7704770477047704710B58C
:101A300004F092F910BD10B5002004F070FB10BD49
:101A40000CB50020019000906C48006840F4803094
:101A50006A49086000BF6948006800F400300090DF
:101A60000198401C0190009818B90198B0F5A06F3A
:101A7000F1D16248006800F4003010B101200090FC
:101A800001E0002000900098012843D15C480068E4
:101A900040F010005A4908600846006820F0030032
:101AA00008600846006840F002000860534840683B
:101AB000524948600846406848600846406840F41B
:101AC000806048600846406820F47C104860084602
:101AD000406840F4E81048600846006840F08070B4
:101AE000086000BF4548006800F000700028F9D089
:101AF0004248406820F0030040494860084640687A
:101B000040F00200486000BF3C48406800F00C0014
:101B10000828F9D10CBD10B5FFF792FF10BD10B524
:101B20003648006840F001003449086008464068C3
:101B30003449084031494860084600683249084045
:101B40002E4908600846006820F480200860084696
:101B5000406820F4FE0048604FF41F008860FFF7E3
:101B6000DAFF4FF000602949086010BD10B5002170
:101B700000200022214B5B6803F00C0121B10429F5
:101B800006D0082928D107E0214B224C236027E00A
:101B90001F4B204C236023E0184B5B6803F470104C
:101BA000164B5B6803F48032022303EB904022B9AA
:101BB000194B4343174C23600DE0104B5B6803F453
:101BC000003323B1144B4343124C236003E0104B0A
:101BD0004343104C236003E00D4B0E4C236000BFC9
:101BE00000BF064B5B68C3F303130C4CE15C094B6D
:101BF0001B68CB40074C236010BD00000010024062
:101C0000002002400000FFF8FFFFF6FE08ED00E0B4
:101C100000127A003400002000093D003800002046
:101C20000948804709480047FEE7FEE7FEE7FEE770
:101C3000FEE7FEE7FEE7FEE7FEE7FEE704480549AC
:101C4000054A064B704700001F1B000831010008C1
:101C5000B8060020B80C0020B8080020B808002002
:101C600031490143314A1160704770B500210023AA
:101C70000F22C47804B32D4C246804F4E064C4F546
:101C8000E064210AC1F10403CA40447804FA03F174
:101C90008478144021430901254C0678A155047825
:101CA00004F01F050124AC4005786D11AD0005F16D
:101CB000E025C5F8004109E0047804F01F0501247F
:101CC000AC401C4D0678761145F8264070BD1A4A86
:101CD0000A400243154B1B1F1A60704739B1134A63
:101CE000121D12680243114B1B1D1A6006E00F4AB9
:101CF000121D126882430D4B1B1D1A607047042889
:101D000008D14FF0E021096941F004014FF0E022D1
:101D1000116107E04FF0E021096921F004014FF063
:101D2000E0221161704700000000FA050CED00E0B0
:101D300000E400E080E100E080FFFF1F10B50446F2
:101D4000CC48844208D10121042000F02DFB002161
:101D5000042000F029FB46E0C748844208D1012155
:101D6000082000F021FB0021082000F01DFB3AE0D4
:101D7000C248844208D10121102000F015FB002147
:101D8000102000F011FB2EE0BD48844208D1012153
:101D9000202000F009FB0021202000F005FB22E0BC
:101DA000B848844208D10121402000F0FDFA00210A
:101DB000402000F0F9FA16E0B348844208D101212E
:101DC000802000F0F1FA0021802000F0EDFA0AE016
:101DD000AE48844207D10121801500F0E5FA0021C8
:101DE000A01500F0E1FA10BD10B50121084600F081
:101DF000DBFA0021012000F0D7FA10BD2DE9F041F7
:101E0000024600250026002000230024002791F828
:101E100003C00CF00F0591F803C00CF0100CBCF1DE
:101E2000000F03D091F802C04CEA050591F800C0FC
:101E3000BCF1000F31D0146800202BE04FF0010CF2
:101E40000CFA00F3B1F800C00CEA03069E4220D160
:101E500083004FF00F0C0CFA03F7BC4305FA03FCA8
:101E60004CEA040491F803C0BCF1280F06D14FF0EE
:101E7000010C0CFA00FCC2F814C00AE091F803C08F
:101E8000BCF1480F05D14FF0010C0CFA00FCC2F870
:101E900010C0401C0828D1D31460B1F800C0BCF1B8
:101EA000FF0F34DD546800202EE000F1080C4FF0E5
:101EB000010808FA0CF3B1F800C00CEA03069E42D0
:101EC00021D183004FF00F0C0CFA03F7BC4305FA45
:101ED00003FC4CEA040491F803C0BCF1280F05D1BF
:101EE00000F1080C08FA0CF8C2F8148091F803C04D
:101EF000BCF1480F07D100F1080C4FF0010808FAB7
:101F00000CF8C2F81080401C0828CED35460BDE8FD
:101F1000F0814FF6FF710180022181700421C170B0
:101F200070470246002093680B400BB1012000E08F
:101F3000002070470146886880B270470246002042
:101F4000D3680B400BB1012000E000207047014630
:101F5000C86880B2704701617047416170470AB13B
:101F6000016100E041617047C16070474FF4803209
:101F70000A43826181618261826982697047024697
:101F80000020434B18684FF68073184040EA021057
:101F900008433F4B186070473E49C8617047F0B531
:101FA0000A46002300240021002500F00046B6F177
:101FB000004F02D1364EF16901E0354E7168C0F331
:101FC000034583B200F44016B6F5401F08D121F056
:101FD00070612F4E766826F070662D4F7E6012E09D
:101FE00000F48016B6F5801F06D1032606FA05F424
:101FF000A14341F0706106E0460D360103FA06F692
:10200000B14341F0706122B1460D360103FA06F684
:10201000314300F00046B6F1004F02D11C4EF16191
:1020200001E01B4E7160F0BD30B500228B071C0F24
:102030000F2303FA04F2164B08338C1053F82430A4
:102040009343134C08348D1044F8253023468C10EC
:1020500053F824308C07240F00FA04F423430C4C6B
:1020600008348D1044F8253030BD0A49DC31086051
:102070007047000000080140000C014000100140C2
:102080000014014000180140001C014000200140E4
:102090000000014000002042DF48006840F00100DD
:1020A000DD49086008464068DC490840DA49486074
:1020B00008460068DA490840D749086008460068C1
:1020C00020F4802008600846406820F4FE00486044
:1020D0004FF41F0088607047CF49096821F48031B0
:1020E000CD4A11601146096821F480211160B0F5D4
:1020F000803F03D0B0F5802F0ED106E0C6490968B5
:1021000041F48031C44A116007E0C349096841F4D1
:10211000A021C14A116000E000BF00BF704710B5A8
:1021200001460022002300204A11012A02D1BA4CA4
:10213000236806E0022A02D1B74C236A01E0B64CBC
:10214000636A01F01F02012494401C400CB101207D
:1021500000E0002010BD38B50020009000240025CC
:1021600000BF3120FFF7DBFF05460098401C0090C0
:102170000098B0F5A06F01D0002DF2D03120FFF70C
:10218000CEFF08B1012400E00024204638BD0146FE
:102190000020A14A106820F0F80040EAC100106059
:1021A0007047A04908607047024600209A4B586863
:1021B00020F47C1042EA01031843974B58607047A3
:1021C00098490866704701460020934A506820F0FD
:1021D00003000843506070478F48406800F00C00CF
:1021E0007047014600208C4A506820F0F0000843F8
:1021F0005060704701460020874A506820F4E06034
:1022000008435060704701460020834A506820F41C
:10221000605040EAC1005060704729B17E4A527A4E
:1022200002437D4B5A7204E07B4A527A82437A4BD6
:102230005A7270477B49D8310860704701460020C8
:10224000754A506820F440400843506070470021B0
:10225000714A20321170704A82F82010012802D091
:1022600004280AD104E001216B4A2032117005E0F4
:102270000521694A2032117000E000BF00BF70479D
:102280006949086070476449096A0143624A1162FA
:102290007047654944390860704730B50021002215
:1022A000002400235C4D6D6805F00C0121B1042968
:1022B00005D0082923D105E05C4D056022E05B4D87
:1022C00005601FE0544D6D6805F47012524D6D6845
:1022D00005F48034022505EB92421CB9544D554358
:1022E00005600BE04C4D6D6805F400351DB1504D97
:1022F0005543056002E04D4D5543056002E04B4DEE
:10230000056000BF00BF444D6D6805F0F00109098C
:10231000484D6B5C0568DD4045603F4D6D6805F4D8
:10232000E061090A434D6B5C4568DD4085603A4DCC
:102330006D6805F46051C90A3E4D6B5C4568DD402F
:10234000C560354D6D6805F44041890B3A4D6B5CB5
:10235000C568B5FBF3F5056130BD29B12E4A526958
:1023600002432D4B5A6104E02B4A526982432A4BA7
:102370005A61704729B1284A92690243264B9A61F3
:1023800004E0254A92698243234B9A61704729B140
:10239000214AD2690243204BDA6104E01E4AD26925
:1023A00082431D4BDA61704729B11B4AD268024350
:1023B000194BDA6004E0184AD2688243164BDA609F
:1023C000704729B1144A12690243134B1A6104E0A1
:1023D000114A12698243104B1A6170471249403901
:1023E000086070470F49C86470470B49C87170474F
:1023F0000948406A40F080700749486270470146CA
:102400000020054A92680A400AB1012000E000203D
:102410007047014988727047001002400000FFF8C1
:10242000FFFFF6FE000042428004424200127A00A2
:1024300000093D00480000205800002010B5044667
:10244000FE48844208D10121C014FFF7ADFF0021EE
:10245000E014FFF7A9FFC4E0B4F1804F08D10121D7
:102460000846FFF7AEFF00210120FFF7AAFFB8E002
:10247000F348844208D101210220FFF7A2FF002186
:102480000220FFF79EFFACE0EE48844208D1012114
:102490000420FFF796FF00210420FFF792FFA0E041
:1024A000E948844208D101210820FFF78AFF002172
:1024B0000820FFF786FF94E0E448844208D1012118
:1024C0001020FFF77EFF00211020FFF77AFF88E041
:1024D000DF48844208D101212020FFF772FF00214C
:1024E0002020FFF76EFF7CE0DA48844208D101210A
:1024F0004014FFF759FF00216014FFF755FF70E00B
:10250000D548844209D10121C804FFF74DFF0021BD
:102510004FF40020FFF748FF63E0D048844209D120
:1025200001210805FFF740FF00214FF48010FFF75D
:102530003BFF56E0CA48844209D101214805FFF714
:1025400033FF00214FF40010FFF72EFF49E0C5488C
:10255000844208D101214020FFF733FF00214020B1
:10256000FFF72FFF3DE0C048844208D101218020C1
:10257000FFF727FF00218020FFF723FF31E0BB4852
:10258000844208D101218015FFF71BFF0021A0150F
:10259000FFF717FF25E0B648844209D1012108045E
:1025A000FFF702FF00214FF48030FFF7FDFE18E037
:1025B000B048844209D101214804FFF7F5FE00210B
:1025C0004FF40030FFF7F0FE0BE0AB48844208D137
:1025D00001218804FFF7E8FE00214FF48020FFF777
:1025E000E3FE10BD00220288944B98420ED0994B16
:1025F00098420BD0B0F1804F08D0914B984205D053
:10260000904B984202D0904B984204D14FF68F7372
:102610001A404B881A438D4B984207D08C4B9842F6
:1026200004D04FF6FF431A40CB881A4302808B88B0
:1026300083850B880385814B98420BD0854B98424C
:1026400008D08B4B984205D08A4B984202D08A4BD7
:10265000984201D10B7A038601238382704770B5BB
:10266000002400220023058C4FF6FE7635400584B9
:10267000028C8388048B4FF68F752C40B51E2C403E
:102680000D882C43751E2A400D892A434D882A4304
:102690006A4DA8420BD06F4DA84208D0744DA84295
:1026A00005D0744DA84202D0734DA84213D14FF605
:1026B000F7752A404D892A434FF6FB752A408D88CD
:1026C0002A434FF6FF652B404FF6FF552B408D896F
:1026D0002B43CD892B4383800483CD888586028458
:1026E00070BD70B5002400220023058C4FF6EF76F4
:1026F00035400584028C8388048B48F6FF752C4096
:102700004FF6FF452C400D884FF6FF7606EA05256B
:102710002C434FF6DF752A400D8906EA05152A433A
:102720004D8806EA05152A43444DA84202D0494D7A
:10273000A8421DD14FF67F752A404D894FF6FF768E
:1027400006EA05152A434FF6BF752A408D8806EA2A
:1027500005152A434FF6FF352B404FF2FF752B40EE
:102760008D8906EA85052B43CD8906EA85052B432D
:1027700083800483CD880587028470BD70B50024F2
:1027800000220023058C4FF6FF6635400584028C3D
:102790008388848B4FF68F752C404FF6FC752C4048
:1027A0000D882C434FF6FF552A400D894FF6FF76D2
:1027B00006EA05252A434D8806EA05252A431F4DCA
:1027C000A84202D0234DA8421DD14FF2FF752A40E6
:1027D0004D894FF6FF7606EA05252A434FF6FF3569
:1027E0002A408D8806EA05252A434EF6FF752B40C0
:1027F0004DF6FF752B408D8906EA05152B43CD89D3
:1028000006EA05152B4383808483CD88858702845F
:1028100070BD70B5002200230024058C4EF6FF76B3
:1028200035400584038C8488828B48F6FF752A40E6
:102830004FF6FF452A400D8820E00000002C0140A3
:102840000004004000080040000C00400010004060
:102850000014004000340140004C01400050014091
:102860000054014000180040001C004000200040BF
:102870000040014000440140004801404FF6FF760F
:1028800006EA05252A434DF6FF752B400D8906EA19
:1028900005352B434D8806EA05352B43FA4DA842F2
:1028A00002D0FA4DA84208D14BF6FF752C408D8915
:1028B0004FF6FF7606EA85152C4384808283CD8807
:1028C000A0F84050038470BD828B4FF2FF331A4052
:1028D0008283828B4FF6FF7303EA01231A438283BC
:1028E0007047F0B50C461546002200210026078CE3
:1028F0004EF6FF7C07EA0C070784828B018C4FF6AB
:10290000FF7707EA043640F6FF473A404FF6FF7775
:1029100007EA05273A434FF6FF7707EA03373A43BA
:10292000D94FB8420ED0D94FB8420BD0B0F1804F3A
:1029300008D0D74FB84205D0D64FB84202D0D64FB4
:10294000B84206D14DF6FF77394046F480573943F7
:1029500005E047F6FF57394044F4805739438283F6
:102960000184F0BD828B4FF6F3731A408283828B11
:102970000A4382837047F0B50C46154600220021B9
:102980000026078C4FF6FF6C07EA0C070784828B42
:10299000018C4FF6FF7707EA04264FF60C773A4092
:1029A0004FF6FF7707EA03172F433A43B64FB84273
:1029B0000ED0B64FB8420BD0B0F1804F08D0B44F14
:1029C000B84205D0B34FB84202D0B34FB84206D197
:1029D0004FF6FF57394046F48077394305E04FF210
:1029E000FF57394044F48077394382830184F0BD36
:1029F000028B4FF2FF331A400283028B4FF6FF73B4
:102A000003EA01231A4302837047F0B50C461546CA
:102A1000002200210026078C4FF6EF7C07EA0C0706
:102A20000784028B018C4FF6FF7707EA041640F605
:102A3000FF473A404FF6FF7707EA03373A434FF62E
:102A4000FF7707EA05273A438F4FB8420ED08F4FE2
:102A5000B8420BD0B0F1804F08D08D4FB84205D0AE
:102A60008C4FB84202D08C4FB84206D14FF6DF7778
:102A7000394046F01007394305E04FF65F7739409B
:102A800044F01007394302830184F0BD028B4FF6F6
:102A9000F3731A400283028B0A4302837047F0B536
:102AA0000C46154600220021068C4FF6FE773E406C
:102AB0000684028B018C4FF60C7632407E1C06EAAF
:102AC00003162E433243704EB0420ED06F4EB042CA
:102AD0000BD0B0F1804F08D06D4EB04205D06D4E96
:102AE000B04202D06C4EB04206D14FF6FD76314076
:102AF00044F00106314305E04FF6F576314044F0ED
:102B00000106314302830184F0BD70B505460C46D1
:102B10005D4885420ED05D4885420BD0B5F1804FAF
:102B200008D05B48854205D05A48854202D05A48B1
:102B3000854200D100E000BF208850B92389A288D7
:102B400061882846FFF7ABFFE1882846FFF79EFF24
:102B500025E0208804280AD12389A2886188284694
:102B6000FFF753FFE1882846FFF742FF17E0208870
:102B700008280AD12389A28861882846FFF7FBFE2E
:102B8000E1882846FFF7EEFE09E02389A2886188E4
:102B90002846FFF7A6FEE1882846FFF795FE70BDA0
:102BA0002DE9F04105460C4600260127608808B94A
:102BB000022600E00026A088012801D1022700E0BB
:102BC00001272088A0B92389A28861882846FFF7B9
:102BD00066FFE1882846FFF759FF23893A463146C8
:102BE0002846FFF712FFE1882846FFF701FF13E0B0
:102BF0002389A28861882846FFF707FFE1882846D5
:102C0000FFF7F6FE23893A4631462846FFF747FF8D
:102C1000E1882846FFF73AFFBDE8F0810A884B8833
:102C20001A438B881A43CB881A430B891A434B8962
:102C30001A438B891A43A0F8442070474FF6FF715E
:102C4000818000210180C180418001727047002194
:102C5000018041808180C180018141818181C18168
:102C60007047002101804180012181800021C180C5
:102C7000018170470021018041808180C1800181F4
:102C80004181818170470000002C014000340140E7
:102C90000004004000080040000C004021B1028800
:102CA00042F00102028004E002884FF6FE731A40EF
:102CB0000280704731B1B0F8442042F40042A0F8DD
:102CC000442005E0B0F84420C2F30E02A0F84420EE
:102CD00070471AB183890B43838102E083898B4358
:102CE000838170478182704741EA0203A0F848302F
:102CF00070471AB183890B43838102E083898B4338
:102D00008381704701894FF6F87211400181704745
:102D10000A46002101894FF68F7319401143018142
:102D2000704730B504460D4629462046FFF7F0FFB0
:102D3000208940F00700208130BD2DE9F041044694
:102D40000D4616461F46602D06D13B4601223146F0
:102D50002046FFF75AFE05E03B4601223146204659
:102D6000FFF79DFE29462046FFF7D2FF208940F05D
:102D700007002081BDE8F08130B50C4600210189B3
:102D8000C9B24FF6FF7505EA0325154325432943CC
:102D9000018130BD2DE9F04105460E4617469846A3
:102DA000002443463A4631462846FFF7E5FF2C8982
:102DB0004FF6F870044044F007044FF68F7004405B
:102DC00044F070042C81BDE8F081F0B504460D4656
:102DD00016461F463B46324629462046FFF7CCFFA3
:102DE000208940F480402081F0BD018582827047B7
:102DF0000A46002101884FF68F7319401143018064
:102E00007047F0B50C4615461E46002100220023EF
:102E10000189028B038C4FF6F877394021434FF636
:102E2000FC473A4040F201173A434FF6DD773B400A
:102E30004FF6FF7707EA06172F433B4301810283D2
:102E40000384F0BD0A460021018B4FF68F731940B1
:102E50001143018370470A460021018B48F6FF7336
:102E600019404FF6FF7303EA0223194301837047A9
:102E70000A460021818B4FF68F73194011438183DD
:102E800070470A460021818B48F6FF7319404FF6C0
:102E9000FF7303EA022319438183704721B102883B
:102EA00042F08002028004E002884FF67F731A40ED
:102EB0000280704721B1828842F00402828004E0DF
:102EC00082884FF6FB731A408280704721B1828856
:102ED00042F00802828004E082884FF6F7731A40BD
:102EE0008280704721B1828842F00102828004E032
:102EF00082884FF6FE731A40828070470A4600218E
:102F0000018B4FF6F77319401143018370470A464E
:102F10000021018B4FF2FF7319404FF6FF7303EA54
:102F200002231943018370470A460021818B4FF623
:102F3000F77319401143818370470A460021818B42
:102F40004FF2FF7319404FF6FF7303EA0223194350
:102F5000818370470A460021018B4FF6FB731940AD
:102F60001143018370470A460021018B4FF6FF335E
:102F700019404FF6FF7303EA022319430183704798
:102F80000A460021818B4FF6FB7319401143818360
:102F900070470A460021818B4FF6FF3319404FF6E8
:102FA000FF7303EA02231943818370470A46002115
:102FB000018B4FF67F7319401143018370470A4616
:102FC0000021018BC1F30E014FF6FF7303EA0223C8
:102FD0001943018370470A460021818B4FF67F73A6
:102FE00019401143818370470A460021818BC1F348
:102FF0000E014FF6FF7303EA0223194381837047E2
:103000000A460021018C4FF6FD73194011430184DB
:1030100070470A460021018C4FF6F773194011439F
:10302000018470470A460021018C4FF6DF73194076
:103030004FF6FF7303EA02131943018470470A46EF
:103040000021018C4FF67F7319404FF6FF7303EA9E
:1030500002131943018470470A460021018C4FF680
:10306000FF5319404FF6FF7303EA0223194301840B
:1030700070470A460021018C4FF2FF7319404FF64A
:10308000FF7303EA02231943018470470A460021B3
:10309000018C4DF6FF7319404FF6FF7303EA0233BC
:1030A00019430184704730B5002301248C40A3B23A
:1030B000048C9C430484048C02FA01F5ADB22C43C9
:1030C000048430BD30B5002304248C40A3B2048CAA
:1030D0009C430484048C02FA01F5ADB22C430484B1
:1030E00030BD70B503460020002418461830012575
:1030F0008D40ACB21D8CA5431D8409B1082909D1AE
:1031000000EB6100056825F0700505600568154352
:1031100005600EE00D1FC5F34E052844056825F433
:10312000E045056005684FF6FF7606EA022635435E
:10313000056070BD21B1028842F00202028004E005
:1031400002884FF6FD731A400280704721B1028851
:1031500042F00402028004E002884FF6FB731A403A
:103160000280704721B1828842F08002828004E0B0
:1031700082884FF67F731A408280704702884FF62C
:10318000F7731A40028002880A43028070478288DF
:103190004FF68F731A40828082880A43828070477C
:1031A00002894FF6F8731A40028102890A430281AC
:1031B000704702894FF67F731A40028102890A43E1
:1031C000028170478184704781857047818670478E
:1031D0000187704781877047A0F8401070470288C8
:1031E0004FF6FF431A40028002880A43028070476C
:1031F0000146888E70470146088F70470146888FC8
:1032000070470146B1F8400070470146888C70470E
:103210000146088D704702460020138A0B400BB10F
:10322000012000E000207047CA430282704730B599
:103230000246002000230024158A05EA010395892F
:1032400005EA010413B10CB1012000E0002030BDFB
:10325000CA4302827047000010B50446FB4884420E
:1032600009D101218803FFF79FF800214FF4804026
:10327000FFF79AF832E0F648844209D10121480468
:10328000FFF79FF800214FF40030FFF79AF825E090
:10329000F048844209D101218804FFF792F8002107
:1032A0004FF48020FFF78DF818E0EB48844209D1F5
:1032B0000121C804FFF785F800214FF40020FFF733
:1032C00080F80BE0E548844208D101210805FFF7AA
:1032D00078F800214FF48010FFF773F810BD2DE946
:1032E000F04786B005460E460024A24600BFA14620
:1032F0000027B08900B100BF2F462C8A4CF6FF7022
:103300000440F08804432C82AC894EF6F31004404C
:10331000B08831890843718908430443AC81AC8A81
:103320004FF6FF400440B0890443AC8201A8FEF789
:10333000B4FFC648874202D1DDF810A001E0DDF8F5
:103340000CA0A88900F4004040B10AEBCA0000EBD1
:103350000A1031684900B0FBF1F807E00AEBCA0037
:1033600000EB0A1031688900B0FBF1F86420B8FB6B
:10337000F0F004012009642101FB1089A88900F400
:10338000004040B1322000EBC900B0FBF1F000F08A
:103390000700044308E0322000EB09106421B0FB71
:1033A000F1F000F00F0004432C8106B0BDE8F08777
:1033B0004FF41651016000218180C18001810C21F0
:1033C000418100218181704710B502460020108A9A
:1033D0004FF2FF0318400B884C8823438C8823430B
:1033E000CC8823431843108210BD00210180418006
:1033F0008180C180704721B1828942F4005282816C
:1034000004E082894DF6FF731A4082817047F0B55F
:103410000346002400260025002040F66A17B94222
:1034200000D100BF1846C1F3421401F01F06012766
:1034300007FA06F5012C01D10C3004E0022C01D171
:10344000103000E014301AB107682F43076002E023
:103450000768AF430760F0BD1AB1838A0B438382CC
:1034600002E0838A8B4383827047028A4FF6F073AF
:103470001A400282028A0A430282704782894FF20E
:10348000FF731A40828182890A438281704721B189
:10349000828942F00202828104E082894FF6FD7344
:1034A0001A4082817047028A4FF6DF731A40028207
:1034B000028A0A430282704721B1028A42F48042A2
:1034C000028204E0028A4BF6FF731A4002827047C0
:1034D000C1F308028280704701468888C0F3080063
:1034E0007047818941F0010181817047028BD2B21E
:1034F0000283028B42EA012202837047028B02F4AC
:103500007F420283028B0A430283704721B1828A81
:1035100042F02002828204E0828A4FF6DF731A4072
:103520008282704721B1828A42F01002828204E0D6
:10353000828A4FF6EF731A408282704721B1828AE5
:1035400042F00802828204E0828A4FF6F7731A4042
:103550008282704721B1828942F40042828103E075
:103560008289C2F30E028281704721B1828A42F4BD
:103570000062828204E0828A4FF2FF731A408282E4
:103580007047828A4FF6FB731A408282828A0A430E
:103590008282704721B1828A42F00202828204E074
:1035A000828A4FF6FD731A408282704702460020DD
:1035B000B1F5007F00D100BF13880B400BB1012093
:1035C00000E00020704701F40072B2F5007F00D1E6
:1035D00000BFCA430280704770B502460024002332
:1035E0000025002040F66A16B14200D100BFC1F3A9
:1035F000421501F01F03012606FA03F3012D02D143
:103600009689334006E0022D02D1168A334001E04C
:10361000968A33400C12012606FA04F416883440C8
:1036200013B10CB1012000E0002070BD10B50022E4
:10363000002340F66A14A14200D100BF0A120124FF
:103640009440A3B2DC43048010BD00000038014068
:103650000044004000480040004C00400050004042
:1036600001460020FE4A106800F038000843106050
:103670007047FB49096821F00801F94A11601146B9
:103680000968014311607047F549096821F010018C
:10369000F34A116011460968014311607047F1480F
:1036A000EF494860F04848607047EE48EC49486090
:1036B000ED4848607047EA48006940F08000E849FA
:1036C00008617047E648006940F08000E4490861FD
:1036D00070470420E249C96801F0010109B10120E5
:1036E0000EE0DF49C96801F0040109B1022007E0DA
:1036F000DB49C96801F0100109B1032000E0042092
:10370000704700B502460423FFF7E3FF034603E0DA
:10371000FFF7DFFF0346521E012B01D1002AF7D12C
:1037200002B90523184600BD30B5044604254FF400
:103730003020FFF7E6FF0546042D17D1C848006981
:1037400040F00200C649086108464461006940F043
:10375000400008614FF43020FFF7D3FF0546C04812
:10376000006941F6FD710840BD490861284630BD39
:1037700010B504244FF43020FFF7C3FF0446042C97
:1037800016D1B748006940F00400B5490861084601
:10379000006940F0400008614FF43020FFF7B1FFAE
:1037A0000446AF48006941F6FB710840AC49086126
:1037B000204610BD00B502460423FFF78AFF0346EA
:1037C00003E0FFF786FF0346521E012B01D1002ABA
:1037D000F7D102B90523184600BD10B504244FF4F3
:1037E0003020FFF7E7FF0446042C16D19C480069FF
:1037F00040F004009A4908610846006940F0400022
:1038000008614FF43020FFF7D5FF04469448006963
:1038100041F6FB71084092490861204610BD002026
:103820008F49C96901F0020109B1012000E00020BF
:10383000704730B5A5250424FFF7F1FF00B100253E
:103840004FF43020FFF75DFF0446042C3AD1854841
:1038500083498860844888600846006940F02000F9
:1038600008610846006940F0400008614FF43020CC
:10387000FFF747FF0446042C1BD17948006941F645
:10388000DF710840764908610846006940F0100081
:10389000086176480580E002FFF733FF0446052CF7
:1038A00010D06F48006941F6EF7108406C4908611B
:1038B00008E0052C06D06A48006941F6EF7108401F
:1038C00067490861204630BD78B506460C46042598
:1038D00000200090E802FFF714FF0546042D24D1D4
:1038E0005F48006940F001005D4908613480E802EA
:1038F000FFF707FF0546042D10D1B01C0090200CE7
:1039000000990880E802FFF7FCFE0546544800696C
:1039100041F6FE7108405249086106E050480069CE
:1039200041F6FE7108404E490861284678BD70B5E1
:1039300004460D460426F002FFF7E3FE0646042E79
:1039400011D14748006940F00100454908612580D0
:10395000F002FFF7D6FE06464148006941F6FE71C7
:1039600008403F490861304670BD70B505460E46B7
:103970000424E002FFF7C5FE0446042C17D13948A1
:1039800037498860384888600846006940F0100070
:1039900008612E80E002FFF7B4FE0446052C06D035
:1039A0002F48006941F6EF7108402D490861204613
:1039B00070BD2DE9F04304464FF6FF763746B0461A
:1039C000B1460425E443E6B2C4F30727C4F307482D
:1039D0004FEA1469E802FFF794FE0546042D49D129
:1039E00020481F498860204888600846006940F0E8
:1039F00010000861FF2E06D01C4808300680E8023F
:103A0000FFF77FFE0546042D08D1FF2F06D017488B
:103A10000A300780E802FFF774FE0546042D0AD13C
:103A2000B8F1FF0F07D011480C30A0F80080E80271
:103A3000FFF767FE0546042D0AD1B9F1FF0F07D045
:103A40000A480E30A0F80090E802FFF75AFE05463B
:103A5000052D0FD00248006941F6EF71084007E0DC
:103A60000020024023016745AB89EFCD00F8FF1F1E
:103A7000664908612846BDE8F08330B50546042450
:103A80004FF43020FFF73DFE0446042C41D160483E
:103A90005E4988605F4888600846006940F0200001
:103AA00008610846006940F0400008614FF430208A
:103AB000FFF727FE0446042C22D15448006941F642
:103AC000DF710840514908610846006940F0100064
:103AD00008611DB100205049088002E0A5204E4930
:103AE00008804FF43020FFF70CFE0446052C10D060
:103AF0004648006941F6EF7108404449086108E012
:103B0000052C06D04148006941F6DF7108403F4965
:103B10000861204630BDF0B505460E461746042420
:103B20003B483A4988603B488860E002FFF7E9FD7E
:103B30000446042C19D13548006940F0100033497F
:103B4000086147F0F800304328433349891C088056
:103B5000E002FFF7D6FD0446052C06D02B4800698D
:103B600041F6EF710840294908612046F0BD274819
:103B7000C069800870472548006A704700202349C3
:103B8000096801F0200109B1012000E00020704720
:103B900029B11E4A126902431C4B1A6104E01B4AF8
:103BA00012698243194B1A617047014600200129AE
:103BB00008D1164AD26902F001020AB1012008E0D8
:103BC000002006E0114AD2680A400AB1012000E054
:103BD000002070470D49C860704704200B49C96830
:103BE00001F0010109B101200EE00849C96801F0A6
:103BF000040109B1022007E00449C96801F010017D
:103C000009B1032000E004207047000000200240BA
:103C100023016745AB89EFCD00F8FF1F2DE9F04187
:103C200004460D462169206806F0DAF96060616992
:103C3000606806F0D5F906463146606806F03EFA3F
:103C4000E0602846A16806F09FFC0746E16806F0A0
:103C500093FB0646A16806F0C3F9A0604FF07E50C2
:103C6000E16806F091FC0646616806F085FB20607D
:103C7000BDE8F0812DE9F04F8DB007460D461646A0
:103C80004FF07C5B4FF07E500C90FE480B900A90FA
:103C9000FD480168284606F077FC3146019006F0A1
:103CA0006BFB8246F9480168504606F099F9F749DE
:103CB0004860F7484168F34806F066FC8246F448DD
:103CC0008168504606F060FC0290F148C06880F0C0
:103CD00000400390EE48C06880F000400490E9483E
:103CE00005903146029806F047FB8246E848016895
:103CF000504606F075F9E64908603146039806F02B
:103D00003BFB8246E2484168504606F069F9E049CB
:103D100048603146049806F02FFB8246DC488168F3
:103D2000504606F05DF9DA4988603146059806F09C
:103D300023FB8246D648C168504606F051F9D44963
:103D4000C860084601684FF07E5006F015FB044637
:103D5000CF4881684FF07E5006F00EFB069021465A
:103D60004FF07E5006F008FB8246594606F038F9BF
:103D700081464946204606F0A1F909904946069831
:103D800006F09CF90890A046C14841684FF07E506B
:103D900006F0F2FA07904146099806F0EDFA8246DD
:103DA000BB480168504606F0E4FBB9490860079932
:103DB000099806F0E1FA8246B5484168504606F097
:103DC000D8FBB34948604146089806F0D5FA8246C8
:103DD000AF488168504606F0CCFBAD498860DDE90C
:103DE000071006F0C9FA8246A948C168504606F095
:103DF000C0FBA749C860A5484168384606F0C4FB27
:103E00000190099906F0B8FA8246A04841685046E8
:103E100006F0E6F89D49886008464168384606F095
:103E2000B3FB0190089906F0A7FA8246964801680C
:103E3000504606F0D5F89449086094488068934944
:103E40000860084680680DB0BDE8F08F01604260F0
:103E50004FF07E538360C3608E4B03618E4B436192
:103E600070472DE9F04704460D462168A06806F02A
:103E700083FA2060A168084606F07EFA074661686A
:103E800006F07AFA0646216906F0AAF86060E16851
:103E9000606806F071FA8146E16806F06DFA07463F
:103EA000616906F09DF80646E168606806F064FA0C
:103EB0008046314606F002F9A0612168E06806F00C
:103EC0005BFA8046294606F054FB0746A16906F0D6
:103ED00053FA0646216806F083F82060E168A0697D
:103EE00006F04AFA07464FF07E5106F042FB0646BE
:103EF000616806F041FA60602068BDE8F08710B59F
:103F00000B6803604B684360136883605468C46047
:103F100094680461D46844614FF07E5383615F4CC0
:103F2000C461002404621C46446283620024C462AB
:103F30005B4B03631C464463836310BD2DE9F05F54
:103F400004460D466168E06906F016FA814621686C
:103F5000A06906F011FA8246494606F041F8206051
:103F60006168606A06F008FA81462168206A06F0F6
:103F700003FA8246494606F033F860602169E06939
:103F800006F0FAF98246A168A06906F0F5F98346C1
:103F9000514606F025F88146216B06F021F8A06015
:103FA0006169606A06F0E8F98146E168A06906F097
:103FB000E3F98246494606F013F8E0602169E069BA
:103FC00006F0DAF98146A168206A06F0D5F9824642
:103FD000494606F005F820616169606A06F0CCF98F
:103FE0008246E168206A06F0C7F98346514605F02B
:103FF000F7FF8146616B05F0F3FF6061E16AE068FD
:1040000006F0BAF98146A16AA06806F0B5F98246C1
:10401000494605F0E5FF0646E16A606906F0ACF93D
:104020008146A16A206906F0A7F98246494605F053
:10403000D7FF07463946E06A06F09EF982463146C8
:10404000A06A06F099F98346A16B05F0C9FF814685
:10405000514605F0C5FF80464146304606F02EF831
:10406000E0634146384606F029F820646168E06A5A
:1040700006F082F981462168A06A06F07DF9824641
:1040800049460FE06F12833AF00000202804002018
:1040900034040020000048430000FA43CDCCCC3D5E
:1040A000BD37863505F09CFF80464146284606F020
:1040B0006BFA8246E16B06F05FF98146216805F0F4
:1040C0008FFF20604146284606F05EFA8246216C4A
:1040D00006F052F98146616805F082FF6060A16ACE
:1040E000E06B06F049F982464FF07E5106F041FA46
:1040F0008146A16806F040F9A060E16AE06B06F035
:104100003BF982464FF07E5106F033FA8146E16872
:1041100006F032F9E060A16A206C06F02DF98246C3
:104120004FF07E5106F025FA8146216906F024F908
:104130002061E16A206C06F01FF982464FF07E5143
:1041400006F017FA8146616906F016F96061206889
:10415000BDE8F09F2DE9F04106460F469046002449
:1041600018E0002512E004EB44022A4457F822101C
:1041700004EB44022A4456F8220005F031FF04EB18
:104180004401294448F82100681CC5B2032DEADB2C
:10419000601CC4B2032CE4DBBDE8F0812DE9F041E2
:1041A00006460F469046002418E0002512E004EB76
:1041B00044022A4457F8221004EB44022A4456F8D9
:1041C000220006F0E1F904EB4401294448F82100FB
:1041D000681CC5B2032DEADB601CC4B2032CE4DB0F
:1041E000BDE8F0812DE9F047804689461646002457
:1041F0002DE0002527E0002004EB4401294446F887
:10420000210000271BE007EB47022A4459F822103F
:1042100004EB44023A4458F8220006F0ADF8824616
:1042200004EB4400284456F82010504605F0D8FE10
:1042300004EB4401294446F82100781CC7B2032F3F
:10424000E1DB681CC5B2032DD5DB601CC4B2032CB6
:10425000CFDBBDE8F08703B5CFB0CC4A104650990C
:10426000FFF778FFCA4ACB491046FFF773FF44AA0D
:10427000C6494F98FFF792FF17AAC749C448FFF7EE
:1042800069FF189809901F980890099906F074F82A
:104290000A901A98014609900A9806F06DF80C9059
:1042A0001E9807901C980690079906F065F80890EC
:1042B000179801460790089806F05EF80A901B9838
:1042C000059019980490059906F056F806901D98E7
:1042D00001460590069806F04FF808901A9803904A
:1042E00019980290039906F047F804901E98014629
:1042F0000390049806F040F806901C9801901898D6
:104300000090019906F038F802901D98014601903E
:10431000029806F031F804901B98019017980090CD
:10432000019906F029F802901F9801460190029821
:1043300006F022F80390049905F052FE05900699C4
:1043400005F04EFE0790089906F01EF909900A99AB
:1043500006F01AF90B900C9906F016F90D901E98BC
:1043600009901C980890099906F006F80B901F9880
:1043700009901B980890099905F0FEFF0A900B9987
:1043800006F002F90C900D9905F098FE0E901F981A
:10439000099018980890099905F0EEFF0B901E9867
:1043A000099019980890099905F0E6FF0A900B9971
:1043B00006F0EAF80C900D9905F080FE0F901D981C
:1043C00009901B980890099905F0D6FF0B901E984C
:1043D000099018980890099905F0CEFF0A900B995A
:1043E00006F0D2F80C900D9905F068FE10901F9819
:1043F00009901A980890099905F0BEFF0B901D9836
:1044000009901C980890099905F0B6FF0A900B993D
:1044100006F0BAF80C900D9905F050FE11901D9819
:10442000099019980890099905F0A6FF0B901F981C
:10443000099017980890099905F09EFF0A900B992A
:1044400006F0A2F80C900D9905F038FE12901C9819
:10445000099017980890099905F08EFF0B901A980B
:10446000099019980890099905F086FF0A900B9910
:1044700006F08AF80C900D9905F020FE13901D9817
:1044800009901B980890099905F076FF0B901E98EB
:1044900009901A980890099905F06EFF0A900B99F7
:1044A00006F072F80C900D9905F008FE14901E9815
:1044B000099017980890099905F05EFF0B901D98D8
:1044C000099018980890099905F056FF0A900B99E1
:1044D00006F05AF80C900D9905F0F0FD15901A9819
:1044E000099018980890099905F046FF0B901B98C1
:1044F000099017980890099905F03EFF0A900B99CA
:1045000006F042F80C900D9905F0D8FD169032AAED
:104510000EA91F48FFF766FE29AA44A932A8FFF793
:1045200061FE1A4A29A91046FFF714FE20AA32A9F3
:104530001A48FFF733FE3BAA154920A8FFF752FEA1
:1045400000204E901DE000204D9013E04E9800EBAF
:1045500040014D9808443BA951F820104E9800EBBB
:1045600040024D9810440A4A42F820104D98401CD1
:10457000C0B24D904D980328E8DB4E98401CC0B265
:104580004E904E980328DEDB51B000BD040400209D
:1045900060000020CC000020A80000208400002043
:1045A0002DE9F05F04464FF07F594FF07C512046D3
:1045B00005F0E2FE824625462E46FE48A0EB660642
:1045C00035462946504605F0D7FE8346294605F074
:1045D000D3FE8046494605F0CCFF0746294605F044
:1045E000CBFE05462846BDE8F09F10B504460021E5
:1045F000204605F08DFE02D284F0004010BD20461A
:10460000FCE70FB5ABB0EC480168006805F0B4FEFC
:104610001490EA480168E848006805F0ADFE139080
:10462000E7480168E448006805F0A6FE1290E548F6
:104630000168E148006805F09FFE1190DF480168BD
:10464000006805F099FE1090DD480168DB480068BD
:1046500005F092FE0F90DB480168D848006805F02D
:104660008BFE0E90D6480168006805F085FE0D901F
:10467000D4480168D248006805F07EFE0C90D1480D
:104680000168006805F078FE0B902D9805F07CFC21
:10469000CD4ACE4BCDE9060105F09CF9CDE90801E4
:1046A00004F0FEFE0A902B9805F06EFCC84AC94B38
:1046B000CDE9040104F0E2FFC74AC84BCDE9060189
:1046C00005F088F9CDE9080104F0EAFE2B902C985A
:1046D00005F05AFCBE4ABF4BCDE9040104F0CEFF01
:1046E000BD4ABE4BCDE9060105F074F9CDE90801DC
:1046F00004F0D6FE2C902D9805F046FCB44AB54B3C
:10470000CDE9040104F0BAFFB34AB44BCDE9060188
:1047100005F060F9CDE9080104F0C2FE2D90319951
:10472000084605F029FE08903099084605F024FE59
:1047300006902E99084605F01FFE0590069905F093
:104740004FFC0790089905F04BFC0990FFF728FFF4
:10475000239023992E9805F00FFE2E9023993098E0
:1047600005F00AFE30902399319805F005FE31904E
:104770003499084605F000FE08903399084605F084
:10478000FBFD06903299084605F0F6FD0590069966
:1047900005F026FC0790089905F022FC0990FFF728
:1047A000FFFE23902399329805F0E6FD329023997D
:1047B000339805F0E1FD33902399349805F0DCFD42
:1047C000349012990E9805F00BFC0690349905F080
:1047D000D3FD089011990F9805F0D6FE04903399F7
:1047E00005F0CAFD06904FF07C500D9905F0CCFE07
:1047F00003900B9905F0C8FE0490329905F0BCFDBA
:104800000590069905F0ECFB0790089905F0E8FB88
:104810004FF08041099005F0AFFD229013990C985C
:1048200005F0B2FE0690349905F0A6FD08904FF011
:104830007C50109905F0A8FE03900B9905F0A4FE9A
:104840000490339905F098FD069011990F9805F0A2
:10485000C7FB0490329905F08FFD0590069905F08D
:10486000BFFB0790089905F0BBFB4FF08041099012
:1048700005F082FD21904FF07C50109905F084FEE8
:1048800005900D9905F080FE07904FF08040349917
:1048900005F072FD0690079905F06EFD09901399D9
:1048A0000C9805F09DFB05904FF08040339905F082
:1048B00063FD0490059905F05FFD079012990E982D
:1048C00005F062FE05904FF08040329905F054FDEE
:1048D0000490059905F050FD0690079905F080FBBE
:1048E0000890099905F07CFB20902199084605F075
:1048F00043FD04902299084605F03EFD039004997B
:1049000005F06EFB059005F03FFBCDE9060104F0D4
:104910008BFDCDE9080104F0C3FD1F9020981E9087
:1049200012990E9805F030FE4FF08041099005F085
:1049300023FD1D900C99139805F052FB4FF0804118
:10494000099005F019FD1C901099149805F01CFEB3
:1049500008900D9905F018FE09900B9905F040FBA1
:104960001B9012990E9805F00FFE07904FF08040B3
:104970001E9905F001FD0690079905F0FDFC0990D0
:104980004FF07C500D9905F0FFFD05900B9905F057
:10499000FBFD07904FF080401F9905F0EDFC06905D
:1049A000079905F0E9FC0890099905F019FB1A90A0
:1049B0000C9915E0DF59375FF4000020F800002063
:1049C000FC0000200001002030689DC8FE3F9F3F92
:1049D00052B81E85EB614040AF99D76C40DF913FE4
:1049E000139805F0FDFA07904FF080401E9905F0EE
:1049F000C3FC0690079905F0BFFC099011990F9828
:104A000005F0C2FD07904FF080401F9905F0B4FCFF
:104A10000690079905F0B0FC0890099905F0E0FAB6
:104A200019904FF07C50109905F0AEFD05900D994E
:104A300005F0AAFD07904FF080401E9905F09CFC00
:104A40000690079905F098FC09900E99129805F0C8
:104A5000C7FA07904FF080401F9905F08DFC069033
:104A6000079905F089FC0890099905F0B9FA1890A2
:104A70001999349805F080FC07901899339805F03F
:104A80007BFC0690079905F07FFD09901C993198F1
:104A900005F072FC07901B99309805F06DFC0690AC
:104AA000079905F071FD0890099905F099FA17909A
:104AB0001899329805F060FC07901A99349805F01F
:104AC0005BFC0690079905F05FFD09901B992E98F5
:104AD00005F052FC07901D99319805F04DFC0690A9
:104AE000079905F051FD0890099905F079FA16909B
:104AF0001A99339805F040FC07901999329805F0FF
:104B00003BFC0690079905F03FFD09901D993098F0
:104B100005F032FC07901C992E9805F02DFC0690AC
:104B2000079905F031FD0890099905F059FA15909B
:104B30000021179805F084FB2DD00021169805F070
:104B40007FFB28D00021159805F07AFB23D0FE4981
:104B5000179805F011FC0990FC480168099805F0C8
:104B60003FFAFA490860F849169805F005FC0990E3
:104B7000F7480168099805F033FAF5490860F249E9
:104B8000159805F0F9FB0990F2480168099805F0BD
:104B900027FAF04908603098FFF727FD079005F0E5
:104BA000F3F9ED4AED4BCDE9080104F0D7FE21D22F
:104BB0004FF07E51319805F0E7FC0690FFF715FDA8
:104BC000079005F0E1F9E44AE44BCDE9080104F06F
:104BD000C5FE0FD2E248179905F0CEFB08902B993D
:104BE00005F0FEF90990D9480168099805F0F8F92F
:104BF0002B9001E02B982B902E98FFF7F6FC079056
:104C000005F0C2F9D44AD54BCDE9080104F0A6FE5F
:104C100021D24FF07E51319805F0B6FC0690FFF797
:104C2000E4FC079005F0B0F9CB4ACC4BCDE9080184
:104C300004F094FE0FD2CA48169905F09DFB089027
:104C40002C9905F0CDF90990C1480168099805F043
:104C5000C7F92C9001E02C982C902E98FFF7C5FCFA
:104C6000079005F091F9BC4ABC4BCDE9080104F06E
:104C700075FE1CD23098FFF7B8FC079005F084F958
:104C8000B54AB64BCDE9080104F068FE0FD2B4482E
:104C9000159905F071FB08902D9905F0A1F909907F
:104CA000AC480168099805F09BF92D9001E02D981A
:104CB0002D90AC482D99006805F05EFB0790AA483E
:104CC0002C99006805F058FB0590A848006880F012
:104CD000004003902B9905F04FFB0490059905F0D7
:104CE00053FC0690079905F04FFCA149089005F088
:104CF00043FB09909F480168099805F071F99D49A7
:104D0000086098482C99006805F036FB0790964893
:104D10002D99006805F030FB0590964801682B98A6
:104D200005F02AFB0490059905F05AF906900799B9
:104D300005F02AFC8E49089005F01EFB09908B486F
:104D40000168099805F04CF98849086085480168B0
:104D50002B9805F011FB079084482D99006805F009
:104D60000BFB059083482C99006805F005FB049027
:104D7000059905F009FC0690079905F031F97C4981
:104D8000089005F0F9FA099077480168099805F04C
:104D900027F975490860084601682B9805F0ECFA78
:104DA000079072482C99006805F0E6FA0590714862
:104DB0002D99006805F0E0FA0490059905F010F9C6
:104DC0000690079905F0E0FB6949089005F0D4FAD0
:104DD000099064480168099805F002F96149086082
:104DE0001099149805F0FCF807900D9905F0F8F863
:104DF00008900B9905F0F4F80990FFF7D1FB239088
:104E00005C482399006805F0B7FA5A49086057488A
:104E10002399006805F0B0FA544908605248239974
:104E2000006805F0A9FA504908604E4823990068C7
:104E300005F0A2FA4B4908604FF080400D9905F04B
:104E40009BFA03904FF04040109905F095FA0290BC
:104E5000039905F099FB4FF07E51049005F0C0F8DE
:104E6000059005F091F8CDE908014FF080401399C5
:104E700005F082FA04904FF080400C9905F07CFA1E
:104E80000390049905F0ACF8059005F07DF8CDE9A4
:104E90000601DDE9082304F007FACDE928014FF007
:104EA0008040129905F068FA06904FF040400E9944
:104EB00005F062FA0590069905F092F8079005F062
:104EC00063F8CDE9080103F0A7FFCDE926014FF013
:104ED00080400B9905F050FA04904FF080400D99F6
:104EE00005F04AFA4FF07E51029005F042FB039024
:104EF000049905F049FB059005F046F8CDE9080155
:104F00004FF08040119905F037FA04904FF080403F
:104F10000F9905F031FA0390049905F061F80590B6
:104F200005F032F8CDE90601DDE9082304F0BCF90B
:104F3000CDE92401104A114BDDE9280104F04AFDB6
:104F4000CDE928010C4A1BE017B7D1380401002035
:104F5000080100200C010020CDCCCCCCCCCCEC3F07
:104F60000000204100010020FC000020F80000208B
:104F70000AD7233BF400002031B3CF6394A94C40FF
:104F80004C4BDDE9260104F025FDCDE926014A4A16
:104F9000484BDDE9240104F01DFDCDE92401DDE9E4
:104FA000280104F07DFA45498860DDE9260181F099
:104FB0000041CDE9080104F073FA40494860DDE999
:104FC000240104F06DFA3D49C8604FF080410A9811
:104FD00005F09EFA05D34FF040410A9805F098F984
:104FE00021D22D9804F0D0FF354A364BCDE900018F
:104FF00004F0F0FC344A354BCDE9020104F0EAFC40
:10500000CDE906012D480068039004F0BDFFCDE90D
:105010000401DDE9062304F075FACDE9080104F086
:105020003FFA264908602548C0682949099005F0DB
:105030006FFA06D2214800682649099005F068F900
:105040000DD31E48C0682349099005F061F91CD2B0
:105050001A4800681E49099005F05AFA15D21748F7
:10506000C0681D49079005F087F90990134800684A
:1050700080F000401949079005F07EF908900999E1
:1050800004F0AEFF0D49086012E00C48C0681249F8
:10509000079005F071F90990084800680F490790DA
:1050A00005F06AF90890099904F09AFF034908602D
:1050B0002FB000BD94A94C4031B3CF63440400200D
:1050C00030689DC8FE3F9F3F7B14AE47E17A743F36
:1050D0000000B4420000B4C20AD7A33C48E17A3FC2
:1050E0002DE9F0417249B1F9000004F01FFC0746B8
:1050F0000022704B04F06EFC054604F0D1F9044622
:1051000021466D48FEF78AFD6949B1F9020004F0B5
:105110000DFC07460022674B04F05CFC054604F0DA
:10512000BFF90446214664481830FEF777FD604910
:10513000B1F9040004F0FAFB074600225D4B04F0CD
:1051400049FC054604F0ACF9044621465A48303083
:10515000FEF764FD5849886805F0A6F800B2544986
:1051600008805549086A05F09FF800B25049488008
:105170005149886B05F098F800B24D498880BDE828
:10518000F0812DE9F0414D4E4D49B1F9000005F097
:10519000A7F88046314605F0EFF80546494908680A
:1051A000494905F0E9F80746294604F019FF454941
:1051B0000446086005F078F800B241490880B1F96A
:1051C000020005F08DF88046314605F0D5F8054619
:1051D0003C4948683C4905F0CFF80746294604F0A9
:1051E000FFFE38490446486005F05EF800B23449D5
:1051F0004880B1F9040005F073F88046314605F0A7
:10520000BBF805462F4988682F4905F0B5F80746D1
:10521000294604F0E5FE2B490446886005F044F871
:1052200000B227498880BDE8F0812DE9F041274987
:10523000C86804F0A9FE074600221E4B04F0CAFB12
:10524000054604F02DF9044621462148FEF7E6FC08
:105250001E49086904F098FE07460022154B04F029
:10526000B9FB054604F01CF90446214618481830DD
:10527000FEF7D4FC1549486904F086FE0746002273
:105280000C4B04F0A7FB054604F00AF9044621463E
:105290000F483030FEF7C2FC0D4880680B49C860EB
:1052A0000B48006A08610A48806B4861BDE8F081DC
:1052B000140300200000F03F100100209A99193ECD
:1052C000200300206C0400209A99593FC00200205E
:1052D0005801002010B5044600BF4021FE48FEF7EB
:1052E00065F90028F9D02146FB48FEF7F1F810BD1A
:1052F00070B505460E46002404E0285DFFF7EAFF7E
:10530000601CC4B2B442F8DB70BDF0B589B006468B
:105310000F4615461C2D01DD09B0F0BD002101AA84
:10532000E81C115488208DF804008DF805608DF874
:105330000650002405E0395DE01C01AA1154601CF0
:10534000C4B2AC42F7DB00240AE001A9E81C085C07
:10535000095D0844C1B201AAE81C1154601CC4B222
:10536000E81C8442F1DB002405E001A9085DFFF799
:10537000B1FF601CC4B2281D8442F6DB00BFCBE73E
:105380002DE9FE4304460D4617461E46DDE90A890F
:10539000200A8DF80000E0B28DF80100280A8DF88F
:1053A0000200E8B28DF80300380A8DF80400F8B264
:1053B0008DF80500300A8DF80600F0B28DF8070070
:1053C0004FEA18208DF8080008F0FF008DF809005A
:1053D0004FEA19208DF80A0009F0FF008DF80B0044
:1053E0000C226946A120FFF790FFBDE8FE832DE95E
:1053F000F04F87B004460D4616461F46DDE911AB57
:10540000DDF840904FF0000806E000200DF808009D
:1054100008F1010000F0FF08B8F11C0FF5DB200ACD
:105420008DF80000E0B28DF80100280A8DF8020026
:10543000E8B28DF80300300A8DF80400F0B28DF860
:105440000500380A8DF80600F8B28DF807004FEA1B
:1054500019208DF8080009F0FF008DF809004FEAC7
:105460001A208DF80A000AF0FF008DF80B004FEAB1
:105470001B208DF812000BF0FF008DF8130013981D
:10548000000A8DF814001398C0B28DF81500149816
:10549000000A8DF816001498C0B28DF817001C226F
:1054A0006946AF20FFF731FF07B0BDE8F08F2DE967
:1054B000F04F8FB006460F4690469946DDF860B033
:1054C0000024A2460025AA222146641C01A84254B9
:1054D0002146641C425402222146641C425400228C
:1054E0002146641C42540E969DF839202146641CC6
:1054F00042549DF838202146641C42540E979DF872
:1055000039202146641C42549DF838202046611CF5
:10551000CCB201A90A54CDF838809DF83920204634
:10552000611CCCB201A90A549DF838202046611CA8
:10553000CCB201A90A54CDF838909DF83920204604
:10554000611CCCB201A90A549DF838202046611C88
:10555000CCB201A90A54CDF838B09DF839202046C4
:10556000611CCCB201A90A549DF838202046611C68
:10557000CCB201A90A5419980E909DF83920204602
:10558000611CCCB201A90A549DF838202146601C48
:10559000C4B201A842541A980E909DF839202046B2
:1055A000611CCCB201A90A549DF838202046611C28
:1055B000CCB201A90A541B980E909DF839202046C0
:1055C000611CCCB201A90A549DF838202146601C08
:1055D000C4B201A842541C980E909DF83920204670
:1055E000611CCCB201A90A549DF838202046611CE8
:1055F000CCB201A90A54201FC0B28DF8070000BF29
:1056000006E001A8405D504400F0FF0A681CC5B2E6
:10561000A542F6DB2046611CCCB201A901F800A02E
:10562000214601A800F0F4FD00F005FE214601A886
:10563000FFF75EFE0FB0BDE8F08F7FB58EB000249F
:1056400000260025AA222146641C01A842542146B6
:10565000641C425403222146641C42540022214609
:10566000641C42549DF839202146641C42549DF824
:1056700038202146641C42549DF83D202146641C7C
:1056800042549DF83C202046611CCCB201A90A542A
:105690009DF841202046611CCCB201A90A549DF816
:1056A00040202046611CCCB201A90A549DF8452037
:1056B0002046611CCCB201A90A549DF84420204622
:1056C000611CCCB201A90A549DF859202046611CE6
:1056D000CCB201A90A5401E0003801409DF85820DD
:1056E0002046611CCCB201A90A549DF85D202046D9
:1056F000611CCCB201A90A549DF85C202046611CB3
:10570000CCB201A90A549DF861202046611CCCB29C
:1057100001A90A549DF860202046611CCCB201A961
:105720000A549DF865202046611CCCB201A90A5498
:105730009DF864202046611CCCB201A90A549DF852
:1057400069202046611CCCB201A90A549DF868204A
:105750002046611CCCB201A90A549DF86D20204658
:10576000611CCCB201A90A549DF86C202046611C32
:10577000CCB201A90A54201FC0B28DF8070000BFA7
:1057800005E001A8405D3044C6B2681CC5B2A54220
:10579000F7DB2046611CCCB201A90E54214601A8BA
:1057A00000F036FD00F047FD214601A8FFF7A0FDFF
:1057B00012B070BD2DE9F04F91B082460E461746EB
:1057C0009846DDF868B00024A1460025CDF8088091
:1057D000AA222146641C04A842542146641C425457
:1057E00001222146641C425400222146641C42547A
:1057F0009349504604F0C0FD019004F055FD00B2FD
:1058000003909DF80D202146641C04A842549DF885
:105810000C202146641C42548949304604F0ACFDFA
:10582000019004F041FD00B203909DF80D20214647
:10583000641C04A842549DF80C202046611CCCB284
:1058400004A90A547E49384604F096FD019004F0FC
:105850002BFD00B203909DF80D202146601CC4B2C0
:1058600004A842549DF80C202046611CCCB204A927
:105870000A549DF80B202046611CCCB204A90A549E
:105880009DF80A202046611CCCB204A90A549DF858
:1058900009202046611CCCB204A90A549DF80820B6
:1058A0002146601CC4B204A842542046611CCCB2FC
:1058B00004A901F800B02146621CD4B204AA1B98C6
:1058C0005054201FC0B28DF8130000BF06E004A89A
:1058D000405D484400F0FF09681CC5B2A542F6DBF4
:1058E0002046611CCCB204A901F80090214604A80E
:1058F00000F08EFC00F09FFC214604A8FFF7F8FCA6
:1059000011B0BDE8F08F7FB58EB000240026AA222A
:105910002146641C01A842542146641C42540622BC
:105920002146641C425400222146641C42549DF8C6
:1059300039202146641C42549DF838202146641CBD
:1059400042549DF83D202146641C42549DF83C2061
:105950002146601CC4B201A842549DF84120204653
:10596000611CCCB201A90A549DF840202046611C5C
:10597000CCB201A90A549DF845202046611CCCB246
:1059800001A90A549DF844202046611CCCB201A90B
:105990000A549DF859202046611CCCB201A90A5432
:1059A0009DF858202046611CCCB201A90A549DF8EC
:1059B0005D202046611CCCB201A90A549DF85C20F0
:1059C0002146601CC4B201A842549DF861202046C3
:1059D000611CCCB201A90A549DF860202046611CCC
:1059E000CCB201A90A549DF865202046611CCCB2B6
:1059F00001A90A549DF864202046611CCCB201A97B
:105A00000A54201FC0B28DF80700002505E001A848
:105A1000405D3044C6B2681CC5B2A542F7DB2046E3
:105A2000611CCCB201A90E54214601A800F0F0FB84
:105A300000F001FC214601A8FFF75AFC12B070BD2E
:105A40000000C8422DE9F04389B001213348FDF739
:105A5000EEFB00285ED001213048FDF7F9FB30480D
:105A60000068401C2E49086006AA07A908A8FBF791
:105A7000A8F906AA07A908A8FBF7D8F9FFF781FB40
:105A8000FFF72EFB2749B1F9040004F029FC044676
:105A90002449B1F9020004F023FC05462149B1F97B
:105AA000000004F01DFC06461F49B1F9040004F093
:105AB00017FC07461C49B1F9020004F011FC8046AE
:105AC0001949B1F9000004F00BFC81461748406900
:105AD00016490969154AD2683346CDE90054CDE923
