:020000040800F2
:10000000480E0020152D0008092B00080B2B0008B6
:100010000F2B0008132B0008172B0008000000000E
:100020000000000000000000000000001B2B000882
:100030001D2B0008000000001F2B0008EF290008FE
:100040002F2D00082F2D00082F2D00082F2D000820
:100050002F2D00082F2D00082F2D00082F2D000810
:100060002F2D00082F2D00082F2D00082F2D000800
:100070002F2D00082F2D00082F2D00082F2D0008F0
:100080002F2D00082F2D00082F2D00082F2D0008E0
:10009000212B00082F2D00082F2D00082F2D0008E0
:1000A0002F2D0008D17100082F2D00082F2D0008DA
:1000B0002F2D00082F2D0008ED2400082F2D0008FB
:1000C0002F2D00082F2D00082F2D00082F2D0008A0
:1000D0002F2D0008ED2A00082F2D00082F2D0008D5
:1000E0002F2D00082F2D00082F2D00082F2D000880
:1000F0002F2D00082F2D00082F2D00082F2D000870
:100100002F2D00082F2D00082F2D00082F2D00085F
:100110002F2D00082F2D00082F2D00082F2D00084F
:100120002F2D00082F2D00082F2D00082F2D00083F
:1001300000F002F800F06AF80AA090E8000C82448F
:100140008344AAF10107DA4501D100F05FF8AFF26C
:10015000090EBAE80F0013F0010F18BFFB1A43F0A5
:1001600001031847B8C90000D8C900000A444FF07D
:10017000000C10F8013B13F0070408BF10F8014B06
:100180001D1108BF10F8015B641E05D010F8016B4B
:10019000641E01F8016BF9D113F0080F1EBF10F8AF
:1001A000014BAD1C0C1B09D16D1E58BF01F801CBD2
:1001B000FAD505E014F8016B01F8016B6D1EF9D555
:1001C0009142D6D37047000000230024002500266A
:1001D000103A28BF78C1FBD8520728BF30C148BFAA
:1001E0000B60704766290CF01083642909F0A8851C
:1001F000002070471FB50AF017F904000020002105
:100200000BF01AFAE0601FBD10B510BD0AF02CFA11
:100210001146FFF7EFFF00F009F80AF04AFA03B4BD
:10022000FFF7F2FF03BC02F005FC000086B007F008
:100230001AFD02F07BFB4FF4A06002F08BFD4FF43F
:10024000E13002F006FC01F0FCFE00F04EFD00F093
:1002500006F902F0FCFA472141F2873002F022F859
:10026000472144F61F6002F0D8F8472144F61F608A
:1002700002F04BF807F034F84FF4E16002F093FB22
:10028000002007F0B7FD4FF42F7002F08CFB012027
:1002900007F0B0FD07F056FD07F049FD08F014FF28
:1002A00007F0FAFA01221146414803F08CFD7EE086
:1002B000404948690CF0A4F804B23E4908690CF0C2
:1002C0009FF805B23B49C8680CF09AF806B23A4963
:1002D00088680CF095F807B2374948680CF090F838
:1002E0000FFA80F8344908680CF08AF80FFA80F9A0
:1002F0000020CDE90265CDE904403048B0F90400A2
:100300002E49B1F90210CDE900102C48B0F90030A7
:100310003A464146484606F02AF900200090284B0C
:1003200001901A6859689868002306F0A3FA002023
:1003300002900390049005900090224C0190A488B4
:10034000A3B2204CA489A2B21E4C2489A1B21D4C98
:100350002488A0B206F0D1F900200090019002900C
:10036000194C03902488A4F57A74A3B2174C2488FE
:10037000A4F57A74A2B2164C2488A4F57A74A1B2BA
:10038000144C2488A4F57A74A0B206F01CFB124821
:10039000007820B107F0CEFA00200F4908700F480E
:1003A000007820B107F001FB00200C4908707FE7BE
:1003B000002C01401C030020C4030020E4030020A3
:1003C00040040020F0030020EE010020EC0100209A
:1003D000EA010020E8010020F0010020F1010020E6
:1003E00070B505460C4601F045FE182001F0F6FEFA
:1003F00001F081FE18B101F05DFE012070BD2846BC
:1004000001F0ECFE01F077FE204601F0E7FE01F07E
:1004100072FE18B101F04EFE0120EFE701F04AFE36
:100420000020EBE770B5044601F024FE182001F02F
:10043000D5FE01F060FE204601F0D0FE01F05BFE2B
:1004400001F018FE192001F0C9FE01F054FE002051
:1004500001F0EFFE054601F02DFE284670BD10B5F7
:1004600000240020FFF7DEFF0446482C04D0FAA049
:1004700009F05AFC012010BDFCA009F055FC112127
:100480000A20FFF7ADFF0020FE498861C8610862BD
:100490004FF07E50C86248628862FB488864FB481F
:1004A000C864FB480865FB480863FB484863FB4891
:1004B0008863FB48C863FB480864FB4848640A201B
:1004C00002F071FA0020D6E72DE9F04106460F460A
:1004D00014461D4601F0CEFD002141EA4601C8B296
:1004E00001F07CFE01F007FE20B101F0E3FD0120E8
:1004F000BDE8F081384601F071FE01F0FCFD01F02D
:10050000B9FD012101EB4601C8B201F067FE01F01F
:10051000F2FD0DE0012C04D1002001F08AFE2870CC
:1005200003E0012001F085FE2870601EC4B26D1C3E
:10053000002CEFD101F0BEFD0020D9E72DE9F04FEE
:1005400089B007AB062203210C20FFF7BDFF069000
:100550000698B8B99DF81C009DF81D1040EA0120CE
:100560000FFA80F99DF81E009DF81F1040EA012047
:100570000FFA80FA9DF820009DF8211040EA012032
:100580000FFA80FBBF49886C0BF0AAFDCDE9020190
:1005900048460BF0A1FA0022C44BCDE900010BF054
:1005A00043F90746DDE902230BF0B0FCCDE9040175
:1005B0000BF058F80446B349C86C0BF091FDCDE937
:1005C000020150460BF088FA0022B84BCDE9000139
:1005D0000BF02AF90746DDE902230BF097FCCDE981
:1005E00004010BF03FF80546A649086D0BF078FDB5
:1005F000CDE9020158460BF06FFA07460022AB4BDB
:100600000BF012F9CDE90001DDE902230BF07EFCCD
:10061000CDE904010BF026F806469A49886B31466D
:100620000BF076FF97490590486B29460BF070FF59
:1006300080469449086B21460BF06AFF41460490BE
:100640000BF07AFD074605990BF076FD8D490860A1
:10065000086C31460BF05CFF8A490590C86B29464F
:100660000BF056FF80468749486B21460BF050FF40
:10067000414604900BF060FD074605990BF05CFDC8
:1006800080494860486C31460BF042FF7D49059037
:10069000086C29460BF03CFF80467A49886B21465E
:1006A0000BF036FF414604900BF046FD07460599D6
:1006B0000BF042FD734988600846006880F00047EF
:1006C00038460BF00DFD0022784BCDE902010BF00E
:1006D0002DFACDE904010AF0C5FF6A49C8604868EF
:1006E0000BF0FEFC07460022704B0BF01FFACDE921
:1006F00004010AF0B7FF6349086188680BF0F0FC59
:1007000007460022694B0BF011FACDE904010AF00B
:10071000A9FF5C49486111210A20FFF761FE002012
:1007200009B0BDE8F08F2DE9F04F93B0604C650C37
:100730002646670CA04647F6FF794FF0000A5DA0F9
:1007400009F0F2FA4FF47A7002F02DF94FF47A7052
:1007500002F029F94FF47A7002F025F94FF47A701B
:1007600002F021F900BF67E0FFF7E8FE20460BF03A
:1007700083FE83464348C16858460BF095FE04D873
:100780004049C8680BF03CFE04B230460BF074FEE2
:1007900083463C48016958460BF086FE04D8394927
:1007A00008690BF02DFE06B240460BF065FE83464D
:1007B0003448416958460BF077FE05D831494869FD
:1007C0000BF01EFE0FFA80F828460BF055FE83460C
:1007D0002C48C16858460BF067FF04D82949C868FF
:1007E0000BF00EFE05B238460BF046FE8346254858
:1007F000016958460BF058FF04D8224908690BF0EC
:10080000FFFD07B248460BF037FE83461D4841699D
:1008100058460BF049FF05D81A4948690BF0F0FD1E
:100820000FFA80F927A009F07FFA0A2002F0BBF83E
:100830000AF101000FFA80FABAF5FA6F94DD22A0EE
:1008400009F072FA4FF47A7002F0ADF84FF47A7052
:1008500002F0A9F840E00000414B38393735204913
:100860004E4954204552524F520A0000414B3839EC
:10087000373520494E495420535543434553530A75
:10088000000000001C0300203CE8C839C000803E86
:100890007B7AC83C7F94783F15F4E83CD1AA22BC0F
:1008A0004155813FBA16B93B4E96823F0050754084
:1008B0000180FFFF66697273742063616C204D4193
:1008C000470A00002E2000007365636F6E6420638A
:1008D000616C204D41470A004FF47A7002F063F8D2
:1008E0004FF47A7002F05FF84FF0000A68E0FFF70B
:1008F00025FE20460BF0C0FD83469E48C168584641
:100900000BF0D2FD04D89B49C8680BF079FD04B206
:1009100030460BF0B1FD83469648016958460BF00E
:10092000C3FD04D8934908690BF06AFD06B240463E
:100930000BF0A2FD83468F48416958460BF0B4FD89
:1009400005D88C4948690BF05BFD0FFA80F8284602
:100950000BF092FD83468748C16858460BF0A4FE11
:1009600004D88449C8680BF04BFD05B238460BF03B
:1009700083FD83467F48016958460BF095FE04D8F5
:100980007C4908690BF03CFD07B248460BF074FD4A
:1009900083467848416958460BF086FE05D875496C
:1009A00048690BF02DFD0FFA80F9AFF2E80009F06D
:1009B000BBF90A2001F0F7FF0AF101000FFA80FAF3
:1009C000BAF5FA6F93DD4346324621466AA009F034
:1009D000ABF94B463A4629466EA009F0A5F928190D
:1009E0000BF07AF800224FF08043CDE90E010AF0B7
:1009F0001BFFCDE910010AF035FE5E498861B81988
:100A00000BF06AF800224FF08043CDE90E010AF0A6
:100A10000BFFCDE910010AF025FE5649C86109EB2C
:100A200008000BF059F800224FF08043CDE90E0189
:100A30000AF0FAFECDE910010AF014FE4D490862F1
:100A4000F01B0BF049F8CDE90E01601B0BF044F8E8
:100A50000022574BCDE90A010BF068F8CDE90C01F3
:100A6000DDE90E230AF0E0FECDE910010AF0FAFDFF
:100A700040494862A8EB09000BF02EF8CDE90E01C1
:100A8000601B0BF029F80022494BCDE90A010BF05D
:100A90004DF8CDE90C01DDE90E230AF0C5FECDE9E4
:100AA00010010AF0DFFD33498862886A0BF018FBF9
:100AB000CDE910012F49486A0BF012FBCDE90E0178
:100AC0002C49086A0BF00CFBCDE90C012949C869D7
:100AD0000BF006FBCDE90A01264988690BF000FB03
:100AE000CDE90801DDE91001CDE90601DDE90E01DE
:100AF000CDE90401DDE90C01CDE90201DDE90A01DE
:100B0000CDE900012BA0DDE9082309F00DF913B0B0
:100B1000BDE8F08F2DE9F04105460E461746984690
:100B200001F0A8FA002141EA4501C8B201F056FBE4
:100B300001F0E1FA20B101F0BDFA0120BDE8F08139
:100B4000304601F04BFB01F0D6FA00240CE018F817
:100B5000040001F043FB01F0CEFA18B101F0AAFA4B
:100B60000120EBE7601CC4B2BC42F0DB01F0A2FA4A
:100B70000020E3E71C030020786D61783A256409C2
:100B8000796D61783A2564097A6D61783A2564094E
:100B900000000000786D696E3A256409796D696E10
:100BA0003A2564097A6D696E3A25640A00000000EE
:100BB0000000F03F786F252E32660920796F252ED0
:100BC000326609207A6F252E32660920252E32667C
:100BD0000920252E32660A0070B505460C4601F044
:100BE00049FAD02001F0FAFA01F085FA18B101F0C3
:100BF00061FA012070BD284601F0F0FA01F07BFA9D
:100C0000204601F0EBFA01F076FA18B101F052FA41
:100C10000120EFE701F04EFA0020EBE770B5044643
:100C20000025BC2C01DB012510E0622C01DB022534
:100C30000CE02A2C01DB032508E0142C01DB042541
:100C400004E00A2C01DB052500E0062529461A20D0
:100C5000FFF7C2FF70BD70B50446B4F57A7F01DDC1
:100C60004FF47A74042C00DA04244FF47A7090FB69
:100C7000F4F0401EC5B229461920FFF7ADFF054626
:100C8000264604EBD671C1F34F00FFF7C7FF70BDD6
:100C900070B5044601F0EEF9D02001F09FFA01F0A2
:100CA0002AFA204601F09AFA01F025FA01F0E2F959
:100CB000D12001F093FA01F01EFA002001F0B9FAF8
:100CC000054601F0F7F9284670BD10B50446E00668
:100CD000010E1C20FFF780FF10BD10B50446E00692
:100CE000010E1B20FFF778FF10BD10B580216B208F
:100CF000FFF772FF642001F056FE00216B20FFF722
:100D00006BFF0320FFF7E9FF0020FFF7DEFF4FF442
:100D10009670FFF7A0FF00213820FFF75DFF00214C
:100D20006A20FFF759FF00212320FFF755FF80219C
:100D30003720FFF751FF7520FFF7AAFF0446682C04
:100D40000FD101216B20FFF747FF00216C20FFF737
:100D500043FF4FF49670FFF77EFFFBA008F0E4FF1F
:100D600004E0FEA008F0E0FF012010BD6FF06F006E
:100D7000FE49C88065200881042048810020FC4984
:100D80008881C881088200BFEFE72DE9F04106465F
:100D90000F4614461D4601F06DF9002141EA460157
:100DA000C8B201F01BFA01F0A6F920B101F082F9F6
:100DB0000120BDE8F081384601F010FA01F09BF9FE
:100DC00001F058F9012101EB4601C8B201F006FA21
:100DD00001F091F90DE0012C04D1002001F029FA75
:100DE000287003E0012001F024FA2870601EC4B2CC
:100DF0006D1C002CEFD101F05DF90020D9E72DE941
:100E0000F84F6B46022241216820FFF7BEFF9DF894
:100E100001009DF8001040EA01200FFA80FA5046C8
:100E20000AF05AFE80460022D24B0AF0FDFC06462C
:100E3000D14AD24B0AF048FC04460AF013FC834620
:100E4000CF4958460BF064FB04460BF0D9FA00B2C8
:100E5000BDE8F88F2DE9FC478046894692466B46EF
:100E6000062243216820FFF790FF0446A4B99DF8AD
:100E700001009DF8001040EA012005B29DF8030032
:100E80009DF8021040EA012006B29DF805009DF889
:100E9000041040EA012007B2B448C088281A00B202
:100EA000B249088008460089301A00B248800846D6
:100EB0004089381A00B288802046BDE8FC872DE9B9
:100EC000FC478046894692466B4606223B216820B5
:100ED000FFF75BFF0446A4B99DF801009DF80010E0
:100EE00040EA012005B29DF803009DF8021040EA97
:100EF000012006B29DF805009DF8041040EA01208B
:100F000007B228460BF0B8FA9949086030460BF052
:100F1000B3FA9749486038460BF0AEFA94498860B6
:100F20002046BDE8FC872DE9F04105460E461746F0
:100F3000984601F09FF8002141EA4501C8B201F04E
:100F40004DF901F0D8F820B101F0B4F80120BDE866
:100F5000F081304601F042F901F0CDF800240CE0B8
:100F600018F8040001F03AF901F0C5F818B101F0E1
:100F7000A1F80120EBE7601CC4B2BC42F0DB01F039
:100F800099F80020E3E72DE9F04F89B01E20089082
:100F90004FF000094FF0000A4FF0000B00200690C0
:100FA0000790052003906FF00400029053E000BF0B
:100FB0000A2001F0F8FC6B46062243216820FFF767
:100FC000E4FE0746A7B99DF801009DF8001040EA2D
:100FD000012004B29DF803009DF8021040EA0120B0
:100FE00005B29DF805009DF8041040EA012006B204
:100FF000BDF81800201A00B2ADF81000BDF81A00B4
:10100000281A00B2ADF81200BDF81C00301A00B268
:10101000ADF81400ADF81840ADF81A50ADF81C60EA
:10102000BDF910000528C3DCBDF9100010F1050F53
:10103000BEDBBDF912000528BADCBDF9120010F1C3
:10104000050FB5DBBDF914000528B1DCBDF91400AE
:1010500010F1050FACDB0898411EC9B208910028B9
:10106000A5D1804626E0052001F09DFC6B460622B6
:1010700043216820FFF789FE0746A7B99DF80100C4
:101080009DF8001040EA012004B29DF803009DF88D
:10109000021040EA012005B29DF805009DF80410F9
:1010A00040EA012006B2A144AA44B34408F1010079
:1010B00000F0FF08B8F1640FD5DB642099FBF0F075
:1010C00000B22A49C88064209AFBF0F000B208817F
:1010D00064209BFBF0F000B248810846B0F90A306A
:1010E000B0F90820B0F9061026A008F01DFE09B0DE
:1010F000BDE8F08F704770B50546002400BF05E0DD
:101100004FF47A7001F04FFC601CC4B2082CF7DB7E
:1011100070BD2DE9FC416B4606223B216820FFF79C
:1011200034FE0746E7BB9DF801009DF8001040EA39
:10113000012004B29DF803009DF8021040EA01204E
:1011400005B29DF805002CE04D505520494E4954FC
:1011500020535543434553530A0000004D5055203A
:10116000494E4954204552524F520A00E403002090
:10117000C403002000407540A4703D0AD74342409C
:101180000000C84267786F66663A25640967796F20
:1011900066663A256409677A6F66663A25640A00CE
:1011A00004E09DF8041040EA012006B220460BF04E
:1011B00063F9F749086028460BF05EF9F449486086
:1011C00030460BF059F9F24988600A2001F0EBFB38
:1011D000BDE8FC8130B502460B46002011E000243A
:1011E00042F82040002108E0002400EB400503EB1A
:1011F000C50545F821404C1C21B20629F4DB441CEE
:1012000020B20628EBDB30BD2DE9F05F06460F4625
:10121000914600244AE0601C05B243E004EB44021E
:1012200007EBC20252F8241004EB440207EBC2029F
:1012300052F825000AF0EEFF8246002150460BF0DE
:10124000ABF82DD056F8241050460BF061F98346C8
:1012500056F825100BF059FA46F82500A8461CE070
:1012600008EB480007EBC00050F8241050460BF084
:101270004FF9834608EB480007EBC00050F82510F3
:1012800058460BF042FA08EB480107EBC10141F860
:10129000250008F101000FFA80F8B8F1060FDFDB36
:1012A000681C05B2062DB9DB601C04B2062CB2DB4B
:1012B000052434E004EB440207EBC20252F8241088
:1012C00056F824000AF0A6FF46F824004FF07E509E
:1012D00004EB440107EBC10141F8240000251AE0AA
:1012E00004EB440007EBC00050F825A056F824108A
:1012F00050460BF00DF9834656F825100BF005FA11
:1013000046F82500002004EB440107EBC10141F839
:101310002500681C05B2A542E2DB601E04B2002C69
:10132000C8DA002405E056F8240049F82400601CBF
:1013300004B2062CF7DBBDE8F09F2DE9F04F8BB02F
:1013400006460F4690469A464FF07E50099000247C
:101350003DE0E01C58F8209058F824105AF824007A
:101360000BF0DEF90A90494648460BF0D1F801909F
:101370000A990BF0CDF802900A990BF0C9F8834650
:1013800009990BF0C2F9099049464FF080400BF0E3
:10139000BFF8494602900BF0BBF883460A990BF060
:1013A000B7F803A941F8240049464FF040400BF03C
:1013B000AFF802900A990BF0ABF883460A990BF04C
:1013C000A7F8E11C03AA42F82100601C04B2032C18
:1013D000BFDB00242BE003A951F8240009990BF08E
:1013E00097F8834656F824100AF0A6FE46F8240023
:1013F000002518E003AA52F8251052F824000BF03B
:1014000087F8834604EB440007EBC00050F8251032
:1014100058460AF091FE04EB440107EBC10141F884
:101420002500681C05B2062DE4DB601C04B2062C06
:10143000D1DB0BB0BDE8F08F2DE9F04FC5B007460A
:101440000E4614464FF00008DFF848915248449089
:10145000002041904290439018213BA808F033FDB2
:10146000182135A808F02FFD18212FA808F02BFD12
:1014700090210BA808F027FD00200A903D903C9099
:101480003B90464840903F903E9098E008F1010024
:101490000FFA80F80BA92FA8FFF79CFE002518E093
:1014A00005EB450057F82000419005EB450007EBA0
:1014B00080004068429005EB450007EB80008068A3
:1014C000439041AB3BAA0BA92FA8FFF736FF681C3E
:1014D00005B2062DE4DB35AA0BA92FA8FFF794FE71
:1014E000409908460BF014F882463A9908460BF0EA
:1014F0000FF8834651460AF08DFE09903F99084641
:101500000BF006F88346399908460BF001F8594666
:1015100006900AF07FFE82463E9908460AF0F8FFE0
:101520000590389908460AF0F3FF049005990AF0EF
:1015300071FE0690379908460AF0EAFF0590369941
:1015400008460AF0E5FF0390359908460AF0E0FFE7
:101550000190359908460AF0DBFF009001990AF0E6
:10156000EBFD029003990AF0E7FD049005990AF05B
:10157000E3FD834606990AF0DFFD514607900AF025
:10158000DBFD089009990AF0D7FD4490002514E08E
:10159000C40300205F7089300000C8427FD6D03D70
:1015A00035AA52F825103BAA52F825000BF0B8F8DE
:1015B0003BA941F82500681C05B2062DF0DBB8F107
:1015C000140F05DA494644980BF06EF8FFF45EAF4D
:1015D000FE493E980AF09CFF2060FC493F980AF0C3
:1015E00097FF6060F94940980AF092FFA060216877
:1015F0003B980AF08DFF306061683C980AF088FFE4
:101600007060A1683D980AF083FFB0604FF07E5192
:1016100020680BF085F820F0004AED4950460BF0A9
:1016200043F817D34FF07E5160680BF079F820F043
:10163000004AE74950460BF037F80BD34FF07E5184
:10164000A0680BF06DF820F0004AE14950460BF01D
:101650002BF801D201200A90306820F0004ADD49C1
:1016600050460BF021F80FD3706820F0004AD9499A
:1016700050460BF019F807D3B06820F0004AD5495E
:1016800050460BF011F801D201200A900A9845B09B
:10169000BDE8F08F00B59FB0002019901A901B9004
:1016A000CD4A07CA16AB07C30020CC49088006E024
:1016B000FFF72FFDC9480088401CC8490880C7486B
:1016C0000088C828F4DB00201D9016E000211D983A
:1016D00000EB4000C24A42F820101D9800EB400089
:1016E00002EB800041601D9800EB400002EB80009F
:1016F00081601D98401CC0B21D901D980628E5DB36
:101700000020B6490880B749886048600860B6A0E4
:1017100008F00AFB0520FFF7EEFC0020AF49088027
:1017200045E0FFF7F6FCB3480068A84913900AF0BB
:10173000EFFE4FF08D4114900AF06CFD1590A94812
:1017400000680146149015980AF0F6FCA549086057
:10175000A84840689D4913900AF0DAFE4FF08D4189
:1017600014900AF057FD15909E4840680146149069
:1017700015980AF0E1FC9B4948609E4880689349AF
:1017800013900AF0C5FE4FF08D4114900AF042FD0F
:101790001590944880680146149015980AF0CCFC86
:1017A000904988608D480088401C8C4908808B488F
:1017B0000088C828B5DB8B4800688F4915900AF06F
:1017C00029FD87490860874840688B4915900AF0D1
:1017D00021FD8349486083488068874915900AF055
:1017E00019FD7F49886000207C49088000217D48E0
:1017F00081604160016081A008F096FA78488068B5
:101800000F900AF06DFCCDE91401754840680F9007
:101810000AF066FCCDE91201714800680F900AF0E9
:101820005FFCCDE91001DDE91401CDE90201DDE93C
:101830001201CDE9000173A0DDE9102308F074FA6C
:101840004FF47A7001F0AFF874A008F06DFA05203B
:10185000FFF751FC00206149088045E0FFF759FC83
:1018600064480068594913900AF052FE4FF08D41C8
:1018700014900AF0CFFC15905A4800680146149065
:1018800015980AF059FC574908605A4840684F4972
:1018900013900AF03DFE4FF08D4114900AF0BAFC0F
:1018A0001590504840680146149015980AF044FC81
:1018B0004C4948604F488068444913900AF028FE1C
:1018C0004FF08D4114900AF0A5FC159045488068B2
:1018D0000146149015980AF02FFC424988603F4851
:1018E0000088401C3D4908803C480088C828B5DB7A
:1018F0003C480068404915900AF08CFC3849C860A3
:10190000384840683C4915900AF084FC3449086125
:1019100034488068384915900AF07CFC30494861A9
:1019200000202E4908802F498860486008603EA04A
:1019300008F0FAF92A4840690F900AF0D1FBCDE986
:101940001401274800690F900AF0CAFBCDE9120183
:101950002348C0680F900AF0C3FBCDE91001DDE910
:101960001401CDE90201DDE91201CDE9000125A054
:10197000DDE9102308F0D8F94FF47A7001F013F87C
:101980002BA008F0D1F90520FFF7B5FB0020134983
:1019900008807EE0FFF7BDFB164800680B491390F6
:1019A0000AF0B6FD4FF08D4114900AF033FC15900B
:1019B0000C4800680146149015980AF0BDFB0949CF
:1019C00008600C4840680149139037E00AE81C4160
:1019D000CDCC4C3E0000604000C90008180000203B
:1019E00070030020B803002066697273742063617D
:1019F0006C0A0000C4030020000048436F6E65209D
:101A00006F6B0A00783A252E326609793A252E3214
:101A100066097A3A252E32660A0A00007365636FFA
:101A20006E642063616C0A0074776F206F6B0A002C
:101A300074686972642063616C0A00000AF068FDD2
:101A40004FF08D4114900AF0E5FB1590FE48406878
:101A50000146149015980AF06FFBFB494860FB485B
:101A60008068FB4913900AF053FD4FF08D411490AC
:101A70000AF0D0FB1590F448806801461490159840
:101A80000AF05AFBF0498860F2480088401CF1498E
:101A90000880F0480088C828FFF67CAFEA48006854
:101AA000ED4915900AF0B6FBEC498861E6484068BC
:101AB000E94915900AF0AEFBE849C861E248806840
:101AC000E54915900AF0A6FBE44908620020E149C7
:101AD0000880DD49886048600860E1A008F024F9CA
:101AE000DE48006A0F900AF0FBFACDE91401DB48EA
:101AF000C0690F900AF0F4FACDE91201D748806965
:101B00000F900AF0EDFACDE91001DDE91401CDE9FD
:101B10000201DDE91201CDE90001AFF21810DDE9A3
:101B2000102308F001F94FF47A7000F03CFFCFA0C9
:101B300008F0FAF80520FFF7DEFA0020C549088012
:101B400045E0FFF7E6FAC1480068C14913900AF082
:101B5000DFFC4FF08D4114900AF05CFB1590BA4801
:101B600000680146149015980AF0E6FAB649086034
:101B7000B6484068B64913900AF0CAFC4FF08D4150
:101B800014900AF047FB1590AF4840680146149046
:101B900015980AF0D1FAAC494860AC488068AC4965
:101BA00013900AF0B5FC4FF08D4114900AF032FB0F
:101BB0001590A54880680146149015980AF0BCFA63
:101BC000A1498860A3480088401CA2490880A14818
:101BD0000088C828B5DB9C4800689F4915900AF02A
:101BE00019FB9E494862984840689B4915900AF045
:101BF00011FB9A49886294488068974915900AF0C9
:101C000009FB9649C8620020924908808E49886085
:101C10004860086098A008F087F89048C06A0F9064
:101C20000AF05EFACDE914018C48806A0F900AF040
:101C300057FACDE912018948406A0F900AF050FA2C
:101C4000CDE91001DDE91401CDE90201DDE9120160
:101C5000CDE90001AFF25420DDE9102308F064F86B
:101C60004FF47A7000F09FFE86A008F05DF8052022
:101C7000FFF741FA00207749088045E0FFF749FA6D
:101C800072480068724913900AF042FC4FF08D418F
:101C900014900AF0BFFA15906B4800680146149042
:101CA00015980AF049FA6849086068484068684928
:101CB00013900AF02DFC4FF08D4114900AF0AAFA0F
:101CC0001590614840680146149015980AF034FA5E
:101CD0005D4948605D4880685D4913900AF018FCD2
:101CE0004FF08D4114900AF095FA1590564880688F
:101CF0000146149015980AF01FFA53498860554818
:101D00000088401C5349088052480088C828B5DB29
:101D10004D480068504915900AF07CFA4F49086315
:101D2000494840684C4915900AF074FA4B49486399
:101D300045488068484915900AF06CFA474988631D
:101D4000002044490880404988604860086050A0ED
:101D500007F0EAFF4148806B0F900AF0C1F9CDE926
:101D600014013E48406B0F900AF0BAF9CDE9120118
:101D70003A48006B0F900AF0B3F9CDE91001DDE9A4
:101D80001401CDE90201DDE91201CDE90001AFF254
:101D90008C30DDE9102307F0C7FF4FF47A7000F0B4
:101DA00002FE3EA007F0C0FF0520FFF7A4F904F0F3
:101DB00005FA00202749088045E0FFF7AAF92348E3
:101DC0000068234913900AF0A3FB4FF08D41149053
:101DD0000AF020FA15901C480068014614901598E6
:101DE0000AF0AAF918490860184840681849139081
:101DF0000AF08EFB4FF08D4114900AF00BFA15900B
:101E0000114840680146149015980AF095F90E495A
:101E100048600E4880680E4913900AF079FB4FF035
:101E20008D4114900AF0F6F9159007488068014634
:101E3000149015980AF080F90349886005480088D5
:101E4000401C044908802FE0B8030020C403002090
:101E50000AE81C41180000200000484370030020DD
:101E60007468726565206F6B0A000000666F75729A
:101E70002063616C0A000000666F7572206F6B0A48
:101E800000000000666976652063616C0A0000004E
:101E900066697665206F6B0A000000007369782020
:101EA00063616C0A0000000050480088C82884DB89
:101EB0004F4800684F4915900AF0ACF94E49C86385
:101EC0004B4840684B4915900AF0A4F94A49086408
:101ED00047488068474915900AF09CF9464948648C
:101EE00046A007F021FF4448406C0F900AF0F8F834
:101EF000CDE914014048006C0F900AF0F1F8CDE9EB
:101F000012013D48C06B0F900AF0EAF8CDE91001CC
:101F1000DDE91401CDE90201DDE91201CDE900019D
:101F2000AFF22050DDE9102307F0FEFE4FF47A7087
:101F300000F039FD16AA19A92F48FFF77DFA1C9069
:101F40001C9868B92F49199808601A9848601B981E
:101F500088602D4816990160179941601899816031
:101F60002948806809900AF0BBF8CDE91401264899
:101F7000406809900AF0B4F8CDE9120122480068DF
:101F800009900AF0ADF8CDE910011E48806809906B
:101F90000AF0A6F8CDE90E011A48406809900AF047
:101FA0009FF8CDE90C011748006809900AF098F8ED
:101FB000CDE90A01DDE91401CDE90801DDE91201ED
:101FC000CDE90601DDE91001CDE90401DDE90E01ED
:101FD000CDE90201DDE90C01CDE900010BA0DDE94D
:101FE0000A2307F0A1FE1FB000BD0000180000206A
:101FF000B803002000004843700300207369782074
:102000006F6B0A000C000020000000206230252EBB
:102010003266096231252E3266096232252E326619
:10202000096B30252E3266096B31252E3266096B1D
:1020300032252E32660A000010B5022000F08FFC17
:1020400010BD08B50121082001F00EFA4FF44060E0
:10205000ADF8000010208DF8030003208DF8020079
:1020600069468D4800F044FF4FF440618A4800F013
:10207000ECFF08BD10B58848001D006820F47040D2
:102080008549091D08600846006840F44050086012
:102090000120824908608249C1F8A801FFF7CCFFFE
:1020A00000207E490860FFF7C7FF00207C49C1F887
:1020B000A80110BD10B57848001D006820F47040DC
:1020C0007549091D08600846006840F440500860E2
:1020D00000207249091F08607149C1F8AC01FFF77F
:1020E000ABFF01206D49091F08606D49C1F8AC01C3
:1020F000FFF7A2FF10BD10B500246748001D00685F
:1021000020F470406449091D08600846006840F4E6
:1021100000400860012061490860FFF78DFF012041
:102120005F49C1F8A801FFF787FF07E0601CC4B250
:10213000FA2C03DDFFF7BEFF012010BD57488038A1
:1021400000680028F2D15549091F086000BFF4E774
:1021500010B500205149091F08604F48001D006854
:1021600020F470404C49091D08600846006840F49E
:102170004050086000204A49C1F8AC01FFF75CFFFD
:1021800001204649091F0860FFF756FF0020444917
:10219000C1F8A80110BD10B500204049091F086012
:1021A0003D48001D006820F470403B49091D08604F
:1021B0000846006840F44050086001203849C1F8E2
:1021C000AC01FFF739FF01203449091F0860FFF710
:1021D00033FF00203249C1F8A80110BD70B5044694
:1021E0002D48001D006820F470402B49091D08602F
:1021F0000846006840F44050086000202749091F45
:102200000860002512E0E009244908606006040E19
:1022100001202349C1F8A801FFF70EFF00201F4944
:10222000091F0860FFF708FF681CC5B2082DEADB2C
:1022300070BD70B5054600241748001D006820F4E5
:1022400070401549091D08600846006840F40040C8
:102250000860002615E000201049091F0860FFF7FC
:10226000EBFE01200E49C1F8A8016006040E0B48E0
:102270008038006808B1601CC4B2FFF7DDFE701C36
:10228000C6B2082EE7DB15B9FFF785FF01E0FFF7BF
:102290005FFF204670BD0000000C0140AC81214270
:1022A000008021427FB505460C460121C80201F09D
:1022B000DBF8ADF80850ADF804400020ADF80A0096
:1022C000ADF806008DF80C0001A9844801F004FA6D
:1022D0000121824801F05CFD19208DF800000220E8
:1022E0008DF8010000208DF8020001208DF8030018
:1022F000684600F034FD0121784802F00FF8002212
:102300000121764801F05FFD7FBD30B589B00546FB
:102310000C460121042001F0B4F80121082001F04D
:10232000A3F84FF47070ADF8140028208DF8170052
:1023300005A96B4800F0DCFD4FF47071684800F0AF
:1023400086FEADF80C50ADF808400020ADF80E0048
:10235000ADF80A0002A9634801F0BEF90020ADF80B
:102360001800ADF81A000120ADF81C000020ADF8EF
:102370001E00ADF8200006A95A4801F040FC0420D8
:10238000ADF818000020ADF81A000120ADF81C00CF
:102390000020ADF81E00ADF8200006A9514801F05C
:1023A0002EFC0820ADF818000020ADF81A0001201E
:1023B000ADF81C000020ADF81E00ADF8200006A905
:1023C000484801F01CFC0C20ADF818000020ADF8C6
:1023D0001A000120ADF81C000020ADF81E00ADF879
:1023E000200006A93F4801F00AFC1E208DF80400D9
:1023F00001208DF805008DF806008DF8070001A872
:1024000000F0ADFC01221E21364801F0DCFC012168
:10241000344801F0BDFC09B030BD30B589B0054687
:102420000C460121042001F01FF80121084601F0AB
:1024300028F80F20ADF8040003208DF806001820BE
:102440008DF8070001A9284800F052FDADF81C5096
:10245000ADF818400020ADF81E00ADF81A0006A92E
:102460004FF0804001F038F96020ADF808000120FD
:10247000ADF80A000020ADF80E00ADF8100002A97A
:102480004FF0804001F065F90821C80601F0B0FD69
:1024900002A94FF0804001F09EF90821C80601F022
:1024A000B0FD02A94FF0804001F0E2F90821C80612
:1024B00001F0B4FD02A94FF0804001F024FA082198
:1024C000C80601F0B4FD0121880701F061FD01217A
:1024D000880701F05DFC09B030BD0000002C014010
:1024E000000C0140000800400008014010B5904871
:1024F000007800F08000002842D102218D4801F0D0
:1025000010FF00283CD002218A4801F01BFF8848B8
:10251000007800F0400020B3864801F0E3FE8649D1
:1025200008800846008885490988884204DA44F60C
:102530001F608349086002E00020814908607E48EE
:1025400000887E490988401A7D49096808447D4908
:10255000C8600020764908700021764801F0CAFD65
:102560000EE0744801F0BEFE74490880704800789F
:1025700040F040006E49087002216E4801F0BAFD3B
:102580007148007800F08000002841D1042169489A
:1025900001F0C7FE60B30421664801F0D3FE6A482B
:1025A000007800F0400020B3624801F09EFE6749C9
:1025B00008800846008866490988884204DA44F69B
:1025C0001F606449086002E00020624908605F48BB
:1025D00000885F490988401A5E49096808445949DA
:1025E00048600020584908700021524801F094FDCD
:1025F0000EE0504801F079FE5549088052480078B5
:1026000040F040005049087002214A4801F084FD22
:102610005148007800F0800088BB0821454801F04F
:1026200080FE60B30821434801F08CFE4A480078E0
:1026300000F0400020B33F4801F05AFE47490880AF
:102640000846008846490988884204DA44F61F6033
:102650004449086002E00020424908603F48008881
:102660003F490988401A3F490968084435490860CC
:1026700000203949087000212E4801F067FD0EE066
:102680002C4801F035FE364908803348007840F088
:102690004000314908700221264801F057FD3248B8
:1026A000007800F0800088BB1021224801F039FE3C
:1026B00060B310211F4801F045FE2B48007800F060
:1026C000400020B31B4801F016FE28490880084648
:1026D000008827490988884204DA44F61F602549A2
:1026E000086002E000202349086020480088204953
:1026F0000988401A1F490968084412498860002067
:102700001949087000210B4801F03AFD0EE0094814
:1027100001F0F1FD164908801348007840F04000B0
:10272000114908700221034801F02AFD10BD000084
:102730001C00002000080040200000201E00002097
:1027400034000020F003002022000020260000209A
:102750002400002038000020280000202C00002049
:102760002A0000203C0000202E0000203200002023
:10277000300000204000002070B504460026FFF71E
:1027800079FC2546E11704EB11610912A02202EB46
:102790004101C8B2FFF722FDFFF7ADFCE11704EBE2
:1027A00011610912A4EB0121C8B2FFF717FDFFF771
:1027B000A2FCFFF75FFCA120FFF710FDFFF79BFCD9
:1027C0000020FFF736FD0646FFF774FC304670BD6B
:1027D00070B504460E46FFF74DFC2546E11704EBA5
:1027E00011610912A02202EB4101C8B2FFF7F6FC09
:1027F000FFF781FCE11704EB11610912A4EB012141
:10280000C8B2FFF7EBFCFFF776FC3046FFF7E6FCBB
:10281000FFF771FCFFF74EFC0A2000F0C4F870BD12
:1028200010B5FF20FFF7A8FF0446552C01D100206A
:1028300010BD5521FF20FFF7CBFFFF20FFF79CFFC6
:102840000446552C01D10020F2E70120F0E710B535
:1028500006E02EA007F068FA4FF42F7000F0A3F8FE
:10286000FFF7DEFF0028F4D12DA007F05DFA10BDC0
:102870002DE9F04105460E461746002409E0E20026
:1028800026FA02F2D1B22A1990B2FFF7A1FF601C1A
:10289000C4B2BC42F3DBBDE8F0812DE9F04107464C
:1028A0000C460026002509E036023919491B491E4D
:1028B00088B2FFF761FF0644681CC5B2A542F3DB8E
:1028C0003046BDE8F08170B506460C46154608E076
:1028D0003046721C96B2FFF74FFF04F8010B681EDA
:1028E00085B2002DF4D170BD70B505460C46164674
:1028F00006E021782846FFF76BFF681C85B2641C50
:10290000301EA6F101018EB2F3D170BD63616E7409
:1029100020636865636B20656570726F6D0A0000E7
:10292000454550524F4D204F4B0A000010B56FF0F7
:10293000040000F05EFA394800683949B0FBF1F054
:10294000384908700846007800EB4001C1EBC01020
:102950004FF6FF7101EAC0003349088010BD0146FF
:10296000304A12784A434FF0E0235A6100229A61BC
:102970001A46126942F001021A6100BF4FF0E022CC
:10298000106900F001021AB100F48032002AF5D07B
:102990004FF0E022126922F001024FF0E0231A61A9
:1029A00000229A61704701461F4A12884A434FF03D
:1029B000E0235A6100229A611A46126942F001022C
:1029C0001A6100BF4FF0E022106900F001021AB155
:1029D00000F48032002AF5D04FF0E022126922F094
:1029E00001024FF0E0231A6100229A6170470F48FC
:1029F0000068401C0D4908600846006809490978CC
:102A0000884207D300200949086009480068401C33
:102A10000749086070470648006870475C0000205E
:102A200000127A00440000204600002048000020E8
:102A30004C000020014600BF704700BF304A12889A
:102A400002F04002002AF9D0C2B22D4B1B1D1A80A1
:102A5000704710B586B00446012144F2040000F02E
:102A600003FD4FF40070ADF8140003208DF816003C
:102A700018208DF8170005A9224800F039FA4FF404
:102A80008060ADF8140004208DF8170005A91D48DA
:102A900000F02EFA25208DF8000000208DF80100AE
:102AA00002208DF8020001208DF80300684600F036
:102AB00056F901940020ADF80800ADF80A00ADF811
:102AC0000C00ADF810000C20ADF80E0001A90C4868
:102AD00001F07FFC012240F22551094801F011FD6F
:102AE0000121074801F001FD06B010BD10B50448F2
:102AF00001F06CFDC4B2204604F0E1FA10BD000004
:102B00000038014000080140704700BFFEE700BFE9
:102B1000FEE700BFFEE700BFFEE770477047704763
:102B200010B505F0D3F910BD10B5002005F0B1FBCC
:102B300010BD00000CB50020019000906C480068AA
:102B400040F480306A49086000BF6948006800F4BA
:102B5000003000900198401C0190009818B901982D
:102B6000B0F5A06FF1D16248006800F4003010B1F8
:102B70000120009001E0002000900098012843D13E
:102B80005C48006840F010005A4908600846006838
:102B900020F0030008600846006840F0020008606A
:102BA00053484068524948600846406848600846B3
:102BB000406840F4806048600846406820F47C101B
:102BC00048600846406840F4E810486008460068DD
:102BD00040F08070086000BF4548006800F0007059
:102BE0000028F9D04248406820F00300404948607E
:102BF0000846406840F00200486000BF3C4840681A
:102C000000F00C000828F9D10CBD10B5FFF792FFB9
:102C100010BD10B53648006840F001003449086026
:102C20000846406834490840314948600846006811
:102C3000324908402E4908600846006820F4802088
:102C400008600846406820F4FE0048604FF41F000A
:102C50008860FFF7DAFF4FF000602949086010BD77
:102C600010B5002100200022214B5B6803F00C010D
:102C700021B1042906D0082928D107E0214B224C94
:102C8000236027E01F4B204C236023E0184B5B6838
:102C900003F47010164B5B6803F48032022303EBDD
:102CA000904022B9194B4343174C23600DE0104B61
:102CB0005B6803F4003323B1144B4343124C23608D
:102CC00003E0104B4343104C236003E00D4B0E4CCC
:102CD000236000BF00BF064B5B68C3F303130C4CBB
:102CE000E15C094B1B68CB40074C236010BD000022
:102CF00000100240002002400000FFF8FFFFF6FE37
:102D000008ED00E000127A005C00002000093D00A0
:102D1000600000200948804709480047FEE7FEE7B9
:102D2000FEE7FEE7FEE7FEE7FEE7FEE7FEE7FEE77B
:102D300004480549054A064B70470000132C00085B
:102D40003101000848080020480E0020480A0020F1
:102D5000480A002031490143314A1160704770B57B
:102D6000002100230F22C47804B32D4C246804F4FE
:102D7000E064C4F5E064210AC1F10403CA40447868
:102D800004FA03F18478144021430901254C0678A4
:102D9000A155047804F01F050124AC4005786D119D
:102DA000AD0005F1E025C5F8004109E0047804F024
:102DB0001F050124AC401C4D0678761145F82640CD
:102DC00070BD1A4A0A400243154B1B1F1A60704718
:102DD00039B1134A121D12680243114B1B1D1A60B0
:102DE00006E00F4A121D126882430D4B1B1D1A602C
:102DF0007047042808D14FF0E021096941F004012F
:102E00004FF0E022116107E04FF0E021096921F065
:102E100004014FF0E0221161704700000000FA0544
:102E20000CED00E000E400E080E100E080FFFF1F27
:102E300010B50446CC48844208D10121042000F09A
:102E40002DFB0021042000F029FB46E0C748844206
:102E500008D10121082000F021FB0021082000F00A
:102E60001DFB3AE0C248844208D10121102000F045
:102E700015FB0021102000F011FB2EE0BD4884421C
:102E800008D10121202000F009FB0021202000F0C2
:102E900005FB22E0B848844208D10121402000F01F
:102EA000FDFA0021402000F0F9FA16E0B348844210
:102EB00008D10121802000F0F1FA0021802000F0EB
:102EC000EDFA0AE0AE48844207D10121801500F0F6
:102ED000E5FA0021A01500F0E1FA10BD10B50121BE
:102EE000084600F0DBFA0021012000F0D7FA10BDFF
:102EF0002DE9F04102460025002600200023002491
:102F0000002791F803C00CF00F0591F803C00CF0F6
:102F1000100CBCF1000F03D091F802C04CEA05057B
:102F200091F800C0BCF1000F31D0146800202BE0F4
:102F30004FF0010C0CFA00F3B1F800C00CEA0306E4
:102F40009E4220D183004FF00F0C0CFA03F7BC43D4
:102F500005FA03FC4CEA040491F803C0BCF1280F05
:102F600006D14FF0010C0CFA00FCC2F814C00AE0C4
:102F700091F803C0BCF1480F05D14FF0010C0CFAD9
:102F800000FCC2F810C0401C0828D1D31460B1F86E
:102F900000C0BCF1FF0F34DD546800202EE000F1CA
:102FA000080C4FF0010808FA0CF3B1F800C00CEA65
:102FB00003069E4221D183004FF00F0C0CFA03F759
:102FC000BC4305FA03FC4CEA040491F803C0BCF1CD
:102FD000280F05D100F1080C08FA0CF8C2F814808B
:102FE00091F803C0BCF1480F07D100F1080C4FF075
:102FF000010808FA0CF8C2F81080401C0828CED34B
:103000005460BDE8F0814FF6FF71018002218170AC
:103010000421C17070470246002093680B400BB139
:10302000012000E0002070470146886880B27047A8
:1030300002460020D3680B400BB1012000E00020C5
:1030400070470146C86880B27047016170474161AE
:1030500070470AB1016100E041617047C16070478B
:103060004FF480320A4382618161826182698269A0
:10307000704702460020434B18684FF68073184093
:1030800040EA021008433F4B186070473E49C86150
:103090007047F0B50A46002300240021002500F007
:1030A0000046B6F1004F02D1364EF16901E0354ECF
:1030B0007168C0F3034583B200F44016B6F5401FB3
:1030C00008D121F070612F4E766826F070662D4F82
:1030D0007E6012E000F48016B6F5801F06D103264C
:1030E00006FA05F4A14341F0706106E0460D360191
:1030F00003FA06F6B14341F0706122B1460D360184
:1031000003FA06F6314300F00046B6F1004F02D153
:103110001C4EF16101E01B4E7160F0BD30B5002224
:103120008B071C0F0F2303FA04F2164B08338C1085
:1031300053F824309343134C08348D1044F8253051
:1031400023468C1053F824308C07240F00FA04F423
:1031500023430C4C08348D1044F8253030BD0A4907
:10316000DC3108607047000000080140000C01409D
:10317000001001400014014000180140001C0140F3
:10318000002001400000014000002042DF480068AC
:1031900040F00100DD49086008464068DC4908400D
:1031A000DA49486008460068DA490840D7490860AB
:1031B0000846006820F4802008600846406820F433
:1031C000FE0048604FF41F0088607047CF490968CF
:1031D00021F48031CD4A11601146096821F4802123
:1031E0001160B0F5803F03D0B0F5802F0ED106E01E
:1031F000C649096841F48031C44A116007E0C349F7
:10320000096841F4A021C14A116000E000BF00BF7D
:10321000704710B501460022002300204A11012A00
:1032200002D1BA4C236806E0022A02D1B74C236AC5
:1032300001E0B64C636A01F01F02012494401C4077
:103240000CB1012000E0002010BD38B50020009036
:103250000024002500BF3120FFF7DBFF0546009862
:10326000401C00900098B0F5A06F01D0002DF2D066
:103270003120FFF7CEFF08B1012400E000242046F2
:1032800038BD01460020A14A106820F0F80040EA4D
:10329000C10010607047A0490860704702460020D6
:1032A0009A4B586820F47C1042EA01031843974B6C
:1032B0005860704798490866704701460020934A55
:1032C000506820F003000843506070478F48406802
:1032D00000F00C007047014600208C4A506820F036
:1032E000F00008435060704701460020874A50684C
:1032F00020F4E06008435060704701460020834A94
:10330000506820F4605040EAC1005060704729B115
:103310007E4A527A02437D4B5A7204E07B4A527ACB
:1033200082437A4B5A7270477B49D83108607047A4
:1033300001460020754A506820F440400843506020
:1033400070470021714A20321170704A82F82010B3
:10335000012802D004280AD104E001216B4A20325E
:10336000117005E00521694A2032117000E000BFAC
:1033700000BF70476949086070476449096A0143A2
:10338000624A11627047654944390860704730B538
:1033900000210022002400235C4D6D6805F00C0123
:1033A00021B1042905D0082923D105E05C4D056031
:1033B00022E05B4D05601FE0544D6D6805F470120E
:1033C000524D6D6805F48034022505EB92421CB91C
:1033D000544D554305600BE04C4D6D6805F40035C8
:1033E0001DB1504D5543056002E04D4D55430560FC
:1033F00002E04B4D056000BF00BF444D6D6805F015
:10340000F0010909484D6B5C0568DD4045603F4DA2
:103410006D6805F4E061090A434D6B5C4568DD4069
:1034200085603A4D6D6805F46051C90A3E4D6B5C8C
:103430004568DD40C560354D6D6805F44041890B38
:103440003A4D6B5CC568B5FBF3F5056130BD29B13C
:103450002E4A526902432D4B5A6104E02B4A5269AD
:1034600082432A4B5A61704729B1284A9269024324
:10347000264B9A6104E0254A92698243234B9A6164
:10348000704729B1214AD2690243204BDA6104E036
:103490001E4AD26982431D4BDA61704729B11B4A2B
:1034A000D2680243194BDA6004E0184AD2688243BA
:1034B000164BDA60704729B1144A12690243134B64
:1034C0001A6104E0114A12698243104B1A61704775
:1034D00012494039086070470F49C86470470B496A
:1034E000C87170470948406A40F0807007494862D7
:1034F000704701460020054A92680A400AB101203F
:1035000000E00020704701498872704700100240B7
:103510000000FFF8FFFFF6FE000042428004424236
:1035200000127A0000093D00700000208000002099
:1035300010B50446FE48844208D10121C014FFF7AB
:10354000ADFF0021E014FFF7A9FFC4E0B4F1804F04
:1035500008D101210846FFF7AEFF00210120FFF747
:10356000AAFFB8E0F348844208D101210220FFF706
:10357000A2FF00210220FFF79EFFACE0EE4884424C
:1035800008D101210420FFF796FF00210420FFF756
:1035900092FFA0E0E948844208D101210820FFF70A
:1035A0008AFF00210820FFF786FF94E0E448844268
:1035B00008D101211020FFF77EFF00211020FFF726
:1035C0007AFF88E0DF48844208D101212020FFF7FC
:1035D00072FF00212020FFF76EFF7CE0DA48844272
:1035E00008D101214014FFF759FF00216014FFF7B3
:1035F00055FF70E0D548844209D10121C804FFF786
:103600004DFF00214FF40020FFF748FF63E0D04852
:10361000844209D101210805FFF740FF00214FF442
:103620008010FFF73BFF56E0CA48844209D10121D0
:103630004805FFF733FF00214FF40010FFF72EFF7E
:1036400049E0C548844208D101214020FFF733FFFB
:1036500000214020FFF72FFF3DE0C048844208D101
:1036600001218020FFF727FF00218020FFF723FFA3
:1036700031E0BB48844208D101218015FFF71BFFD0
:103680000021A015FFF717FF25E0B648844209D1B5
:1036900001210804FFF702FF00214FF48030FFF7FB
:1036A000FDFE18E0B048844209D101214804FFF72B
:1036B000F5FE00214FF40030FFF7F0FE0BE0AB48C1
:1036C000844208D101218804FFF7E8FE00214FF46D
:1036D0008020FFF7E3FE10BD00220288944B984241
:1036E0000ED0994B98420BD0B0F1804F08D0914B3F
:1036F000984205D0904B984202D0904B984204D10A
:103700004FF68F731A404B881A438D4B984207D05F
:103710008C4B984204D04FF6FF431A40CB881A4393
:1037200002808B8883850B880385814B98420BD060
:10373000854B984208D08B4B984205D08A4B9842D3
:1037400002D08A4B984201D10B7A038601238382EF
:10375000704770B5002400220023058C4FF6FE76DA
:1037600035400584028C8388048B4FF68F752C407E
:10377000B51E2C400D882C43751E2A400D892A4306
:103780004D882A436A4DA8420BD06F4DA84208D0FD
:10379000744DA84205D0744DA84202D0734DA84282
:1037A00013D14FF6F7752A404D892A434FF6FB7522
:1037B0002A408D882A434FF6FF652B404FF6FF5570
:1037C0002B408D892B43CD892B4383800483CD8867
:1037D0008586028470BD70B5002400220023058C0C
:1037E0004FF6EF7635400584028C8388048B48F6CB
:1037F000FF752C404FF6FF452C400D884FF6FF76A5
:1038000006EA05252C434FF6DF752A400D8906EAA6
:1038100005152A434D8806EA05152A43444DA8425A
:1038200002D0494DA8421DD14FF67F752A404D89DF
:103830004FF6FF7606EA05152A434FF6BF752A4074
:103840008D8806EA05152A434FF6FF352B404FF2C7
:10385000FF752B408D8906EA85052B43CD8906EA45
:1038600085052B4383800483CD880587028470BD42
:1038700070B5002400220023058C4FF6FF6635400A
:103880000584028C8388848B4FF68F752C404FF60D
:10389000FC752C400D882C434FF6FF552A400D89AE
:1038A0004FF6FF7606EA05252A434D8806EA0525E8
:1038B0002A431F4DA84202D0234DA8421DD14FF2EA
:1038C000FF752A404D894FF6FF7606EA05252A4303
:1038D0004FF6FF352A408D8806EA05252A434EF625
:1038E000FF752B404DF6FF752B408D8906EA0515B7
:1038F0002B43CD8906EA05152B4383808483CD882D
:103900008587028470BD70B5002200230024058CD9
:103910004EF6FF7635400584038C8488828B48F60A
:10392000FF752A404FF6FF452A400D8820E0000031
:10393000002C01400004004000080040000C004042
:10394000001000400014004000340140004C0140D1
:10395000005001400054014000180040001C00408D
:103960000020004000400140004401400048014068
:103970004FF6FF7606EA05252A434DF6FF752B40E4
:103980000D8906EA05352B434D8806EA05352B439C
:10399000FA4DA84202D0FA4DA84208D14BF6FF7565
:1039A0002C408D894FF6FF7606EA85152C438480DE
:1039B0008283CD88A0F84050038470BD828B4FF283
:1039C000FF331A408283828B4FF6FF7303EA012391
:1039D0001A4382837047F0B50C4615460022002139
:1039E0000026078C4EF6FF7C07EA0C070784828BC3
:1039F000018C4FF6FF7707EA043640F6FF473A405E
:103A00004FF6FF7707EA05273A434FF6FF7707EAB5
:103A100003373A43D94FB8420ED0D94FB8420BD0F2
:103A2000B0F1804F08D0D74FB84205D0D64FB8423A
:103A300002D0D64FB84206D14DF6FF77394046F452
:103A40008057394305E047F6FF57394044F4805723
:103A5000394382830184F0BD828B4FF6F3731A40A1
:103A60008283828B0A4382837047F0B50C461546E9
:103A7000002200210026078C4FF6FF6C07EA0C0796
:103A80000784828B018C4FF6FF7707EA04264FF6F6
:103A90000C773A404FF6FF7707EA03172F433A4374
:103AA000B64FB8420ED0B64FB8420BD0B0F1804FEF
:103AB00008D0B44FB84205D0B34FB84202D0B34F8C
:103AC000B84206D14FF6FF57394046F48077394364
:103AD00005E04FF2FF57394044F480773943828341
:103AE0000184F0BD028B4FF2FF331A400283028B38
:103AF0004FF6FF7303EA01231A4302837047F0B5C0
:103B00000C461546002200210026078C4FF6EF7C5C
:103B100007EA0C070784028B018C4FF6FF7707EA50
:103B2000041640F6FF473A404FF6FF7707EA03379F
:103B30003A434FF6FF7707EA05273A438F4FB842DB
:103B40000ED08F4FB8420BD0B0F1804F08D08D4FC0
:103B5000B84205D08C4FB84202D08C4FB84206D143
:103B60004FF6DF77394046F01007394305E04FF64E
:103B70005F77394044F01007394302830184F0BD78
:103B8000028B4FF6F3731A400283028B0A430283BF
:103B90007047F0B50C46154600220021068C4FF602
:103BA000FE773E400684028B018C4FF60C76324045
:103BB0007E1C06EA03162E433243704EB0420ED0EE
:103BC0006F4EB0420BD0B0F1804F08D06D4EB04276
:103BD00005D06D4EB04202D06C4EB04206D14FF6C9
:103BE000FD76314044F00106314305E04FF6F576AD
:103BF000314044F00106314302830184F0BD70B5C9
:103C000005460C465D4885420ED05D4885420BD086
:103C1000B5F1804F08D05B48854205D05A488542AF
:103C200002D05A48854200D100E000BF208850B938
:103C30002389A28861882846FFF7ABFFE1882846E0
:103C4000FFF79EFF25E0208804280AD12389A28857
:103C500061882846FFF753FFE1882846FFF742FFB7
:103C600017E0208808280AD12389A288618828467D
:103C7000FFF7FBFEE1882846FFF7EEFE09E0238907
:103C8000A28861882846FFF7A6FEE1882846FFF74C
:103C900095FE70BD2DE9F04105460C460026012732
:103CA000608808B9022600E00026A088012801D11A
:103CB000022700E001272088A0B92389A288618813
:103CC0002846FFF766FFE1882846FFF759FF23895A
:103CD0003A4631462846FFF712FFE1882846FFF7AB
:103CE00001FF13E02389A28861882846FFF707FFB8
:103CF000E1882846FFF7F6FE23893A4631462846F2
:103D0000FFF747FFE1882846FFF73AFFBDE8F0815B
:103D10000A884B881A438B881A43CB881A430B892D
:103D20001A434B891A438B891A43A0F844207047E1
:103D30004FF6FF71818000210180C18041800172B6
:103D400070470021018041808180C18001814181D3
:103D50008181C181704700210180418001218180E2
:103D60000021C18001817047002101804180818054
:103D7000C18001814181818170470000002C014098
:103D8000003401400004004000080040000C0040E6
:103D900021B1028842F00102028004E002884FF65D
:103DA000FE731A400280704731B1B0F8442042F4EB
:103DB0000042A0F8442005E0B0F84420C2F30E020F
:103DC000A0F8442070471AB183890B43838102E035
:103DD00083898B43838170478182704741EA020364
:103DE000A0F8483070471AB183890B43838102E001
:103DF00083898B438381704701894FF6F8721140A4
:103E0000018170470A46002101894FF68F731940DE
:103E100011430181704730B504460D4629462046BE
:103E2000FFF7F0FF208940F00700208130BD2DE929
:103E3000F04104460D4616461F46602D06D13B460E
:103E4000012231462046FFF75AFE05E03B4601229B
:103E500031462046FFF79DFE29462046FFF7D2FF58
:103E6000208940F007002081BDE8F08130B50C4684
:103E700000210189C9B24FF6FF7505EA03251543F4
:103E800025432943018130BD2DE9F04105460E4609
:103E900017469846002443463A4631462846FFF7DF
:103EA000E5FF2C894FF6F870044044F007044FF604
:103EB0008F70044044F070042C81BDE8F081F0B5AF
:103EC00004460D4616461F463B46324629462046C6
:103ED000FFF7CCFF208940F480402081F0BD0185B0
:103EE000828270470A46002101884FF68F7319407D
:103EF000114301807047F0B50C4615461E4600215F
:103F0000002200230189028B038C4FF6F877394099
:103F100021434FF6FC473A4040F201173A434FF62F
:103F2000DD773B404FF6FF7707EA06172F433B4309
:103F3000018102830384F0BD0A460021018B4FF604
:103F40008F7319401143018370470A460021018B8A
:103F500048F6FF7319404FF6FF7303EA0223194333
:103F6000018370470A460021818B4FF68F731940F9
:103F70001143818370470A460021818B48F6FF7305
:103F800019404FF6FF7303EA0223194381837047F8
:103F900021B1028842F08002028004E002884FF6DC
:103FA0007F731A400280704721B1828842F0040278
:103FB000828004E082884FF6FB731A40828070474B
:103FC00021B1828842F00802828004E082884FF6A4
:103FD000F7731A408280704721B1828842F0010253
:103FE000828004E082884FF6FE731A408280704718
:103FF0000A460021018B4FF6F773194011430183E4
:1040000070470A460021018B4FF2FF7319404FF6AB
:10401000FF7303EA02231943018370470A46002114
:10402000818B4FF6F77319401143818370470A461D
:104030000021818B4FF2FF7319404FF6FF7303EAA3
:1040400002231943818370470A460021018B4FF6F2
:10405000FB7319401143018370470A460021018B0D
:104060004FF6FF3319404FF6FF7303EA022319435B
:10407000018370470A460021818B4FF6FB7319407C
:104080001143818370470A460021818B4FF6FF332D
:1040900019404FF6FF7303EA0223194381837047E7
:1040A0000A460021018B4FF67F73194011430183AB
:1040B00070470A460021018BC1F30E014FF6FF73D2
:1040C00003EA02231943018370470A460021818BCA
:1040D0004FF67F7319401143818370470A460021D0
:1040E000818BC1F30E014FF6FF7303EA02231943DC
:1040F000818370470A460021018C4FF6FD731940F9
:104100001143018470470A460021018C4FF6F77372
:1041100019401143018470470A460021018C4FF673
:10412000DF7319404FF6FF7303EA0213194301844A
:1041300070470A460021018C4FF67F7319404FF6F5
:10414000FF7303EA02131943018470470A460021F2
:10415000018C4FF6FF5319404FF6FF7303EA022319
:104160001943018470470A460021018C4FF2FF7306
:1041700019404FF6FF7303EA022319430184704785
:104180000A460021018C4DF6FF7319404FF6FF736C
:1041900003EA023319430184704730B50023012438
:1041A0008C40A3B2048C9C430484048C02FA01F575
:1041B000ADB22C43048430BD30B5002304248C40C0
:1041C000A3B2048C9C430484048C02FA01F5ADB2C2
:1041D0002C43048430BD70B50346002000241846EB
:1041E000183001258D40ACB21D8CA5431D8409B14A
:1041F000082909D100EB6100056825F0700505600C
:104200000568154305600EE00D1FC5F34E052844F3
:10421000056825F4E045056005684FF6FF7606EA77
:1042200002263543056070BD21B1028842F00202CA
:10423000028004E002884FF6FD731A400280704746
:1042400021B1028842F00402028004E002884FF6A5
:10425000FB731A400280704721B1828842F08002CD
:10426000828004E082884FF67F731A408280704714
:1042700002884FF6F7731A40028002880A430280D0
:10428000704782884FF68F731A40828082880A4373
:104290008280704702894FF6F8731A4002810289C2
:1042A0000A430281704702894FF67F731A400281E8
:1042B00002890A4302817047818470478185704773
:1042C000818670470187704781877047A0F840104A
:1042D000704702884FF6FF431A40028002880A4363
:1042E000028070470146888E70470146088F7047EC
:1042F0000146888F70470146B1F84000704701467B
:10430000888C70470146088D704702460020138A4A
:104310000B400BB1012000E000207047CA4302822D
:10432000704730B50246002000230024158A05EAB4
:104330000103958905EA010413B10CB1012000E0E5
:10434000002030BDCA4302827047000010B5044609
:10435000FB48844209D101218803FFF79FF800211F
:104360004FF48040FFF79AF832E0F648844209D1D2
:1043700001214804FFF79FF800214FF40030FFF7B8
:104380009AF825E0F048844209D101218804FFF71A
:1043900092F800214FF48020FFF78DF818E0EB48E9
:1043A000844209D10121C804FFF785F800214FF4A8
:1043B0000020FFF780F80BE0E548844208D1012196
:1043C0000805FFF778F800214FF48010FFF773F825
:1043D00010BD2DE9F04786B005460E460024A246E2
:1043E00000BFA1460027B08900B100BF2F462C8A2C
:1043F0004CF6FF700440F08804432C82AC894EF6E2
:10440000F3100440B088318908437189084304439C
:10441000AC81AC8A4FF6FF400440B0890443AC82C3
:1044200001A8FEF7B4FFC648874202D1DDF810A00C
:1044300001E0DDF80CA0A88900F4004040B10AEBCF
:10444000CA0000EB0A1031684900B0FBF1F807E040
:104450000AEBCA0000EB0A1031688900B0FBF1F8E2
:104460006420B8FBF0F004012009642101FB1089ED
:10447000A88900F4004040B1322000EBC900B0FB35
:10448000F1F000F00700044308E0322000EB0910CF
:104490006421B0FBF1F000F00F0004432C8106B062
:1044A000BDE8F0874FF41651016000218180C18082
:1044B00001810C21418100218181704710B50246A4
:1044C0000020108A4FF2FF0318400B884C882343CA
:1044D0008C882343CC8823431843108210BD0021CD
:1044E000018041808180C180704721B1828942F47E
:1044F0000052828104E082894DF6FF731A40828166
:104500007047F0B50346002400260025002040F641
:104510006A17B94200D100BF1846C1F3421401F036
:104520001F06012707FA06F5012C01D10C3004E023
:10453000022C01D1103000E014301AB107682F436B
:10454000076002E00768AF430760F0BD1AB1838AD5
:104550000B43838202E0838A8B4383827047028A03
:104560004FF6F0731A400282028A0A4302827047B1
:1045700082894FF2FF731A40828182890A438281C5
:10458000704721B1828942F00202828104E082896F
:104590004FF6FD731A4082817047028A4FF6DF732F
:1045A0001A400282028A0A430282704721B1028ABB
:1045B00042F48042028204E0028A4BF6FF731A4002
:1045C00002827047C1F308028280704701468888E2
:1045D000C0F308007047818941F001018181704773
:1045E000028BD2B20283028B42EA0122028370471D
:1045F000028B02F47F420283028B0A4302837047DC
:1046000021B1828A42F02002828204E0828A4FF63F
:10461000DF731A408282704721B1828A42F0100211
:10462000828204E0828A4FF6EF731A4082827047DA
:1046300021B1828A42F00802828204E0828A4FF627
:10464000F7731A408282704721B1828942F4004296
:10465000828103E08289C2F30E028281704721B118
:10466000828A42F40062828204E0828A4FF2FF73FF
:104670001A4082827047828A4FF6FB731A40828208
:10468000828A0A438282704721B1828A42F0020202
:10469000828204E0828A4FF6FD731A40828270475C
:1046A00002460020B1F5007F00D100BF13880B4007
:1046B0000BB1012000E00020704701F40072B2F558
:1046C000007F00D100BFCA430280704770B5024628
:1046D000002400230025002040F66A16B14200D1D4
:1046E00000BFC1F3421501F01F03012606FA03F3D0
:1046F000012D02D19689334006E0022D02D1168A9F
:10470000334001E0968A33400C12012606FA04F485
:104710001688344013B10CB1012000E0002070BDB8
:1047200010B50022002340F66A14A14200D100BF58
:104730000A1201249440A3B2DC43048010BD00009F
:10474000003801400044004000480040004C004058
:104750000050004001460020FE4A106800F038007A
:10476000084310607047FB49096821F00801F94AC5
:10477000116011460968014311607047F5490968E5
:1047800021F01001F34A11601146096801431160DC
:104790007047F148EF494860F04848607047EE487C
:1047A000EC494860ED4848607047EA48006940F0CD
:1047B0008000E84908617047E648006940F08000E1
:1047C000E449086170470420E249C96801F0010129
:1047D00009B101200EE0DF49C96801F0040109B107
:1047E000022007E0DB49C96801F0100109B103208C
:1047F00000E00420704700B502460423FFF7E3FF02
:10480000034603E0FFF7DFFF0346521E012B01D1F1
:10481000002AF7D102B90523184600BD30B5044679
:1048200004254FF43020FFF7E6FF0546042D17D18D
:10483000C848006940F00200C64908610846446162
:10484000006940F0400008614FF43020FFF7D3FFCB
:104850000546C048006941F6FD710840BD49086140
:10486000284630BD10B504244FF43020FFF7C3FFB5
:104870000446042C16D1B748006940F00400B5493D
:1048800008610846006940F0400008614FF430209C
:10489000FFF7B1FF0446AF48006941F6FB710840DD
:1048A000AC490861204610BD00B502460423FFF75D
:1048B0008AFF034603E0FFF786FF0346521E012BE3
:1048C00001D1002AF7D102B90523184600BD10B561
:1048D00004244FF43020FFF7E7FF0446042C16D1E0
:1048E0009C48006940F004009A4908610846006944
:1048F00040F0400008614FF43020FFF7D5FF044638
:104900009448006941F6FB710840924908612046CD
:1049100010BD00208F49C96901F0020109B10120D1
:1049200000E00020704730B5A5250424FFF7F1FF13
:1049300000B100254FF43020FFF75DFF0446042C42
:104940003AD1854883498860844888600846006970
:1049500040F0200008610846006940F0400008610E
:104960004FF43020FFF747FF0446042C1BD1794851
:10497000006941F6DF710840764908610846006920
:1049800040F01000086176480580E002FFF733FF31
:104990000446052C10D06F48006941F6EF710840BD
:1049A0006C49086108E0052C06D06A48006941F6A8
:1049B000EF71084067490861204630BD78B506466A
:1049C0000C46042500200090E802FFF714FF05467E
:1049D000042D24D15F48006940F001005D49086161
:1049E0003480E802FFF707FF0546042D10D1B01C04
:1049F0000090200C00990880E802FFF7FCFE0546B5
:104A00005448006941F6FE7108405249086106E0C9
:104A10005048006941F6FE7108404E490861284639
:104A200078BD70B504460D460426F002FFF7E3FE9C
:104A30000646042E11D14748006940F0010045495F
:104A400008612580F002FFF7D6FE0646414800695E
:104A500041F6FE7108403F490861304670BD70B5AF
:104A600005460E460424E002FFF7C5FE0446042C6A
:104A700017D1394837498860384888600846006946
:104A800040F0100008612E80E002FFF7B4FE0446FB
:104A9000052C06D02F48006941F6EF7108402D49DA
:104AA0000861204670BD2DE9F04304464FF6FF76BD
:104AB0003746B046B1460425E443E6B2C4F30727BF
:104AC000C4F307484FEA1469E802FFF794FE05466D
:104AD000042D49D120481F49886020488860084635
:104AE000006940F010000861FF2E06D01C48083015
:104AF0000680E802FFF77FFE0546042D08D1FF2F50
:104B000006D017480A300780E802FFF774FE054612
:104B1000042D0AD1B8F1FF0F07D011480C30A0F8CE
:104B20000080E802FFF767FE0546042D0AD1B9F1BF
:104B3000FF0F07D00A480E30A0F80090E802FFF7F8
:104B40005AFE0546052D0FD00248006941F6EF7167
:104B5000084007E00020024023016745AB89EFCD04
:104B600000F8FF1F664908612846BDE8F08330B5AC
:104B7000054604244FF43020FFF73DFE0446042C84
:104B800041D160485E4988605F4888600846006996
:104B900040F0200008610846006940F040000861CC
:104BA0004FF43020FFF727FE0446042C22D154484E
:104BB000006941F6DF710840514908610846006903
:104BC00040F0100008611DB100205049088002E04B
:104BD000A5204E4908804FF43020FFF70CFE044614
:104BE000052C10D04648006941F6EF710840444951
:104BF000086108E0052C06D04148006941F6DF71E4
:104C000008403F490861204630BDF0B505460E46D4
:104C1000174604243B483A4988603B488860E002D4
:104C2000FFF7E9FD0446042C19D13548006940F02E
:104C300010003349086147F0F800304328433349F6
:104C4000891C0880E002FFF7D6FD0446052C06D03B
:104C50002B48006941F6EF71084029490861204658
:104C6000F0BD2748C069800870472548006A704732
:104C700000202349096801F0200109B1012000E06A
:104C80000020704729B11E4A126902431C4B1A6169
:104C900004E01B4A12698243194B1A6170470146AE
:104CA0000020012908D1164AD26902F001020AB196
:104CB000012008E0002006E0114AD2680A400AB14B
:104CC000012000E0002070470D49C86070470420B3
:104CD0000B49C96801F0010109B101200EE0084942
:104CE000C96801F0040109B1022007E00449C9685C
:104CF00001F0100109B1032000E00420704700001A
:104D00000020024023016745AB89EFCD00F8FF1F6B
:104D10002DE9F04104460D462169206807F00CFAA0
:104D200060606169606807F007FA064631466068AE
:104D300007F070FAE0602846A16807F0F1FC07462A
:104D4000E16807F0E5FB0646A16807F0F5F9A06009
:104D50004FF07E50E16807F0E3FC0646616807F01B
:104D6000D7FB2060BDE8F0812DE9F04F8DB00746FC
:104D70000D4616464FF07C5B4FF07E500C90FE487F
:104D80000B900A90FD480168284607F0C9FC31469F
:104D9000019007F0BDFB8246F9480168504607F0D4
:104DA000CBF9F7494860F7484168F34807F0B8FC89
:104DB0008246F4488168504607F0B2FC0290F14800
:104DC000C06880F000400390EE48C06880F000406A
:104DD0000490E94805903146029807F099FB824615
:104DE000E8480168504607F0A7F9E64908603146EF
:104DF000039807F08DFB8246E2484168504607F071
:104E00009BF9E04948603146049807F081FB8246EF
:104E1000DC488168504607F08FF9DA4988603146EE
:104E2000059807F075FB8246D648C168504607F0E2
:104E300083F9D449C860084601684FF07E5007F0F6
:104E400067FB0446CF4881684FF07E5007F060FB57
:104E5000069021464FF07E5007F05AFB8246594695
:104E600007F06AF981464946204607F0D3F90990D0
:104E70004946069807F0CEF90890A046C148416817
:104E80004FF07E5007F044FB07904146099807F029
:104E90003FFB8246BB480168504607F036FCB949E3
:104EA00008600799099807F033FB8246B5484168C6
:104EB000504607F02AFCB34948604146089807F07D
:104EC00027FB8246AF488168504607F01EFCAD497B
:104ED0008860DDE9071007F01BFB8246A948C1681E
:104EE000504607F012FCA749C860A54841683846FB
:104EF00007F016FC0190099907F00AFB8246A048CA
:104F00004168504607F018F99D4988600846416895
:104F1000384607F005FC0190089907F0F9FA824637
:104F200096480168504607F007F99449086094488C
:104F3000806893490860084680680DB0BDE8F08F2E
:104F4000016042604FF07E538360C3608E4B03610B
:104F50008E4B436170472DE9F04704460D462168AA
:104F6000A06807F0D5FA2060A168084607F0D0FADB
:104F70000746616807F0CCFA0646216907F0DCF8BD
:104F80006060E168606807F0C3FA8146E16807F095
:104F9000BFFA0746616907F0CFF80646E168606826
:104FA00007F0B6FA8046314607F034F9A06121686F
:104FB000E06807F0ADFA8046294607F0A6FB0746F1
:104FC000A16907F0A5FA0646216807F0B5F8206048
:104FD000E168A06907F09CFA07464FF07E5107F0A0
:104FE00094FB0646616807F093FA60602068BDE8AC
:104FF000F08710B50B6803604B68436013688360EB
:105000005468C46094680461D46844614FF07E536E
:1050100083615F4CC461002404621C464462836265
:105020000024C4625B4B03631C464463836310BD6E
:105030002DE9F05F04460D466168E06907F068FA03
:1050400081462168A06907F063FA8246494607F065
:1050500073F820606168606A07F05AFA8146216837
:10506000206A07F055FA8246494607F065F8606005
:105070002169E06907F04CFA8246A168A06907F04F
:1050800047FA8346514607F057F88146216B07F0EF
:1050900053F8A0606169606A07F03AFA8146E168F6
:1050A000A06907F035FA8246494607F045F8E06006
:1050B0002169E06907F02CFA8146A168206A07F0AF
:1050C00027FA8246494607F037F820616169606A2D
:1050D00007F01EFA8246E168206A07F019FA834653
:1050E000514607F029F88146616B07F025F86061A9
:1050F000E16AE06807F00CFA8146A16AA06807F04F
:1051000007FA8246494607F017F80646E16A6069E1
:1051100007F0FEF98146A16A206907F0F9F9824695
:10512000494607F009F807463946E06A07F0F0F902
:1051300082463146A06A07F0EBF98346A16B06F080
:10514000FBFF8146514606F0F7FF80464146304658
:1051500007F060F8E0634146384607F05BF82064EA
:105160006168E06A07F0D4F981462168A06A07F017
:10517000CFF9824649460FE06F12833A18010020AA
:105180002404002030040020000048430000FA43BB
:10519000CDCCCC3DBD37863506F0CEFF80464146AE
:1051A000284607F0BDFA8246E16B07F0B1F9814667
:1051B000216806F0C1FF20604146284607F0B0FA9A
:1051C0008246216C07F0A4F98146616806F0B4FFBD
:1051D0006060A16AE06B07F09BF982464FF07E5158
:1051E00007F093FA8146A16807F092F9A060E16A9E
:1051F000E06B07F08DF982464FF07E5107F085FA9B
:105200008146E16807F084F9E060A16A206C07F04C
:105210007FF982464FF07E5107F077FA8146216987
:1052200007F076F92061E16A206C07F071F9824697
:105230004FF07E5107F069FA8146616907F068F91D
:1052400060612068BDE8F09F2DE9F04106460F46F9
:105250009046002418E0002512E004EB44022A44A2
:1052600057F8221004EB44022A4456F8220006F0B4
:1052700063FF04EB4401294448F82100681CC5B2CF
:10528000032DEADB601CC4B2032CE4DBBDE8F08133
:105290002DE9F04106460F469046002418E000250F
:1052A00012E004EB44022A4457F8221004EB4402B3
:1052B0002A4456F8220007F033FA04EB440129444B
:1052C00048F82100681CC5B2032DEADB601CC4B29B
:1052D000032CE4DBBDE8F0812DE9F04780468946E8
:1052E000164600242DE0002527E0002004EB4401B1
:1052F000294446F8210000271BE007EB47022A4417
:1053000059F8221004EB44023A4458F8220007F0FE
:10531000FFF8824604EB4400284456F8201050461B
:1053200006F00AFF04EB4401294446F82100781CEA
:10533000C7B2032FE1DB681CC5B2032DD5DB601CAF
:10534000C4B2032CCFDBBDE8F08703B5CFB0CC4AA5
:1053500010465099FFF778FFCA4ACB491046FFF72D
:1053600073FF44AAC6494F98FFF792FF17AAC7498F
:10537000C448FFF769FF189809901F980890099989
:1053800007F0C6F80A901A98014609900A9807F0A3
:10539000BFF80C901E9807901C980690079907F08C
:1053A000B7F80890179801460790089807F0B0F8EA
:1053B0000A901B98059019980490059907F0A8F891
:1053C00006901D9801460590069807F0A1F80890F0
:1053D0001A98039019980290039907F099F804908D
:1053E0001E9801460390049807F092F806901C98C6
:1053F000019018980090019907F08AF802901D9882
:1054000001460190029807F083F804901B980190E0
:1054100017980090019907F07BF802901F980146B9
:105420000190029807F074F80390049906F084FE46
:105430000590069906F080FE0790089907F070F92C
:1054400009900A9907F06CF90B900C9907F068F92C
:105450000D901E9809901C980890099907F058F82B
:105460000B901F9809901B980890099907F050F825
:105470000A900B9907F054F90C900D9906F0CAFEAA
:105480000E901F98099018980890099907F040F815
:105490000B901E98099019980890099907F038F810
:1054A0000A900B9907F03CF90C900D9906F0B2FEAA
:1054B0000F901D9809901B980890099907F028F8FB
:1054C0000B901E98099018980890099907F020F8F9
:1054D0000A900B9907F024F90C900D9906F09AFEAA
:1054E00010901F9809901A980890099907F010F8E1
:1054F0000B901D9809901C980890099907F008F8DE
:105500000A900B9907F00CF90C900D9906F082FEA9
:1055100011901D98099019980890099906F0F8FFC4
:105520000B901F98099017980890099906F0F0FFC2
:105530000A900B9907F0F4F80C900D9906F06AFEAA
:1055400012901C98099017980890099906F0E0FFAE
:105550000B901A98099019980890099906F0D8FFAD
:105560000A900B9907F0DCF80C900D9906F052FEAA
:1055700013901D9809901B980890099906F0C8FF90
:105580000B901E9809901A980890099906F0C0FF90
:105590000A900B9907F0C4F80C900D9906F03AFEAA
:1055A00014901E98099017980890099906F0B0FF7A
:1055B0000B901D98099018980890099906F0A8FF7B
:1055C0000A900B9907F0ACF80C900D9906F022FEAA
:1055D00015901A98099018980890099906F098FF64
:1055E0000B901B98099017980890099906F090FF66
:1055F0000A900B9907F094F80C900D9906F00AFEAA
:10560000169032AA0EA91F48FFF766FE29AA44A9E0
:1056100032A8FFF761FE1A4A29A91046FFF714FEC7
:1056200020AA32A91A48FFF733FE3BAA154920A841
:10563000FFF752FE00204E901DE000204D9013E039
:105640004E9800EB40014D9808443BA951F82010BA
:105650004E9800EB40024D9810440A4A42F8201040
:105660004D98401CC0B24D904D980328E8DB4E98F1
:10567000401CC0B24E904E980328DEDB51B000BDF6
:105680000004002088000020F4000020D00000204A
:10569000AC0000202DE9F05F04464FF07F594FF039
:1056A0007C51204606F034FF824625462E46FE48B1
:1056B000A0EB660635462946504606F029FF83468C
:1056C000294606F025FF8046494607F01EF80746A2
:1056D000294606F01DFF05462846BDE8F09F10B597
:1056E00004460021204606F0DFFE02D284F000408E
:1056F00010BD2046FCE70FB5ABB0EC480168006870
:1057000006F006FF1490EA480168E848006806F0D1
:10571000FFFE1390E7480168E448006806F0F8FED1
:105720001290E5480168E148006806F0F1FE11902A
:10573000DF480168006806F0EBFE1090DD48016864
:10574000DB48006806F0E4FE0F90DB480168D848AB
:10575000006806F0DDFE0E90D6480168006806F08D
:10576000D7FE0D90D4480168D248006806F0D0FEFC
:105770000C90D1480168006806F0CAFE0B902D9885
:1057800006F0AEFCCD4ACE4BCDE9060106F0CEF9CF
:10579000CDE9080105F066FF0A902B9806F0A0FC01
:1057A000C84AC94BCDE9040106F03EF8C74AC84BC8
:1057B000CDE9060106F0BAF9CDE9080105F052FF7E
:1057C0002B902C9806F08CFCBE4ABF4BCDE904010F
:1057D00006F02AF8BD4ABE4BCDE9060106F0A6F94F
:1057E000CDE9080105F03EFF2C902D9806F078FCDD
:1057F000B44AB54BCDE9040106F016F8B34AB44BF0
:10580000CDE9060106F092F9CDE9080105F02AFF7D
:105810002D903199084606F07BFE08903099084695
:1058200006F076FE06902E99084606F071FE059069
:10583000069906F081FC0790089906F07DFC099016
:10584000FFF728FF239023992E9806F061FE2E90F3
:105850002399309806F05CFE30902399319806F039
:1058600057FE31903499084606F052FE089033995D
:10587000084606F04DFE06903299084606F048FEAE
:105880000590069906F058FC0790089906F054FC1C
:105890000990FFF7FFFE23902399329806F038FE17
:1058A00032902399339806F033FE3390239934983D
:1058B00006F02EFE349012990E9806F03DFC0690EC
:1058C000349906F025FE089011990F9806F028FFEC
:1058D0000490339906F01CFE06904FF07C500D9911
:1058E00006F01EFF03900B9906F01AFF0490329900
:1058F00006F00EFE0590069906F01EFC079008992A
:1059000006F01AFC4FF08041099006F001FE22904B
:1059100013990C9806F004FF0690349906F0F8FDF0
:1059200008904FF07C50109906F0FAFE03900B9906
:1059300006F0F6FE0490339906F0EAFD0690119900
:105940000F9806F0F9FB0490329906F0E1FD0590FE
:10595000069906F0F1FB0790089906F0EDFB4FF071
:105960008041099006F0D4FD21904FF07C501099B1
:1059700006F0D6FE05900D9906F0D2FE07904FF086
:105980008040349906F0C4FD0690079906F0C0FDEA
:10599000099013990C9806F0CFFB05904FF08040CA
:1059A000339906F0B5FD0490059906F0B1FD079016
:1059B00012990E9806F0B4FE05904FF0804032998F
:1059C00006F0A6FD0490059906F0A2FD0690079941
:1059D00006F0B2FB0890099906F0AEFB20902199E1
:1059E000084606F095FD04902299084606F090FDC1
:1059F0000390049906F0A0FB059006F071FBCDE939
:105A0000060105F0F3FDCDE9080105F02BFE1F901E
:105A100020981E9012990E9806F082FE4FF0804159
:105A2000099006F075FD1D900C99139806F084FB03
:105A30004FF08041099006F06BFD1C90109914986E
:105A400006F06EFE08900D9906F06AFE09900B991B
:105A500006F072FB1B9012990E9806F061FE0790FB
:105A60004FF080401E9906F053FD0690079906F00E
:105A70004FFD09904FF07C500D9906F051FE0590B6
:105A80000B9906F04DFE07904FF080401F9906F0ED
:105A90003FFD0690079906F03BFD0890099906F036
:105AA0004BFB1A900C9915E0DF59375F1C01002061
:105AB00020010020240100202801002030689DC81A
:105AC000FE3F9F3F52B81E85EB613040AF99D76CC7
:105AD00040DF913F139806F02FFB07904FF0804076
