:020000040800F2
:10000000380E0020952B0008892900088B2900084C
:100010008F29000893290008972900080000000094
:100020000000000000000000000000009B29000804
:100030009D290008000000009F2900086F28000883
:10004000AF2B0008AF2B0008AF2B0008AF2B000828
:10005000AF2B0008AF2B0008AF2B0008AF2B000818
:10006000AF2B0008AF2B0008AF2B0008AF2B000808
:10007000AF2B0008AF2B0008AF2B0008AF2B0008F8
:10008000AF2B0008AF2B0008AF2B0008AF2B0008E8
:10009000A1290008AF2B0008AF2B0008AF2B0008E8
:1000A000AF2B000841700008AF2B0008AF2B0008F1
:1000B000AF2B0008AF2B000821250008AF2B00084C
:1000C000AF2B0008AF2B0008AF2B0008AF2B0008A8
:1000D000AF2B00086D290008AF2B0008AF2B0008DC
:1000E000AF2B0008AF2B0008AF2B0008AF2B000888
:1000F000AF2B0008AF2B0008AF2B0008AF2B000878
:10010000AF2B0008AF2B0008AF2B0008AF2B000867
:10011000AF2B0008AF2B0008AF2B0008AF2B000857
:10012000AF2B0008AF2B0008AF2B0008AF2B000847
:1001300000F002F800F06AF80AA090E8000C82448F
:100140008344AAF10107DA4501D100F05FF8AFF26C
:10015000090EBAE80F0013F0010F18BFFB1A43F0A5
:100160000103184750C1000070C100000A444FF05D
:10017000000C10F8013B13F0070408BF10F8014B06
:100180001D1108BF10F8015B641E05D010F8016B4B
:10019000641E01F8016BF9D113F0080F1EBF10F8AF
:1001A000014BAD1C0C1B09D16D1E58BF01F801CBD2
:1001B000FAD505E014F8016B01F8016B6D1EF9D555
:1001C0009142D6D37047000000230024002500266A
:1001D000103A28BF78C1FBD8520728BF30C148BFAA
:1001E0000B60704766290BF0DC86642909F0A68154
:1001F000002070471FB509F015FD04000020002104
:100200000AF018FEE0601FBD10B510BD09F02AFE0F
:100210001146FFF7EFFF00F009F809F048FE03B4BC
:10022000FFF7F2FF03BC02F045FB000086B007F0C9
:1002300018F902F0BBFA4FF4A06002F0CBFC4FF4C7
:10024000E13002F046FB01F016FF00F068FD00F01F
:1002500020F9472141F2873002F03EF8472144F669
:100260001F6002F0F4F8472144F61F6002F067F8BF
:100270004FF4E16002F0D7FA002007F0B9F94FF42B
:100280002F7002F0D0FA012007F0B2F907F058F908
:1002900007F04BF908F016FB06F05AFF07F074F868
:1002A000012211464F4803F0CEFC99E04E494869BF
:1002B0000BF092FC04B24C4908690BF08DFC05B2BE
:1002C0004949C8680BF088FC06B2484988680BF0B9
:1002D00083FC07B2454948680BF07EFC0FFA80F8B2
:1002E000424908680BF078FC0FFA80F90020CDE94C
:1002F0000265CDE904403E48B0F904003C49B1F93B
:100300000210CDE900103A48B0F900303A464146B3
:10031000484606F06CF800200090364B01901A68B1
:1003200059689868002306F0E5F9002002900390D0
:10033000049005900090304C0190A488A3B22E4CFC
:10034000A489A2B22C4C2489A1B22B4C2488A0B23F
:1003500006F013F900200090019002904FF41673FC
:100360004FF461725900039040F2DC5006F06BFAD2
:1003700022480078012833D1214880682049496803
:100380001F4A12681E4B9B68CDE90232CDE904106A
:100390001B4840681A490968CDE90010194883686C
:1003A00042680168012006F0EBFA1748816840684E
:1003B000154A1268154B9B68CDE90232CDE904015C
:1003C0001248406811490968CDE900101048836857
:1003D00042680168022006F0D3FA0020074908703D
:1003E00064E70000002C014010030020B803002047
:1003F000D803002034040020E4030020E80100209A
:10040000CC0400209C0400208C0500202C0500203A
:100410005C05002070B505460C4601F045FE18202D
:1004200001F0F6FE01F081FE18B101F05DFE012041
:1004300070BD284601F0ECFE01F077FE204601F089
:10044000E7FE01F072FE18B101F04EFE0120EFE769
:1004500001F04AFE0020EBE770B5044601F024FEEF
:10046000182001F0D5FE01F060FE204601F0D0FE1C
:1004700001F05BFE01F018FE192001F0C9FE01F049
:1004800054FE002001F0EFFE054601F02DFE284647
:1004900070BD10B500240020FFF7DEFF0446482C95
:1004A00004D0FAA009F03EF8012010BDFCA009F02C
:1004B00039F811210A20FFF7ADFF0020FE498861BD
:1004C000C86108624FF07E50C86248628862FB488B
:1004D0008864FB48C864FB480865FB480863FB4820
:1004E0004863FB488863FB48C863FB480864FB48D3
:1004F00048640A2002F097F90020D6E72DE9F04180
:1005000006460F4614461D4601F0CEFD002141EA85
:100510004601C8B201F07CFE01F007FE20B101F0F7
:10052000E3FD0120BDE8F081384601F071FE01F0E5
:10053000FCFD01F0B9FD012101EB4601C8B201F05B
:1005400067FE01F0F2FD0DE0012C04D1002001F066
:100550008AFE287003E0012001F085FE2870601EED
:10056000C4B26D1C002CEFD101F0BEFD0020D9E714
:100570002DE9F04F89B007AB062203210C20FFF7CD
:10058000BDFF06900698B8B99DF81C009DF81D1097
:1005900040EA01200FFA80F99DF81E009DF81F1017
:1005A00040EA01200FFA80FA9DF820009DF8211002
:1005B00040EA01200FFA80FBBF49886C0BF07CF900
:1005C000CDE9020148460AF085FE0022C44BCDE980
:1005D00000010AF027FD0746DDE902230BF082F84F
:1005E000CDE904010AF03CFC0446B349C86C0BF0A9
:1005F00063F9CDE9020150460AF06CFE0022B84BC7
:10060000CDE900010AF00EFD0746DDE902230BF0FB
:1006100069F8CDE904010AF023FC0546A649086DF6
:100620000BF04AF9CDE9020158460AF053FE07469D
:100630000022AB4B0AF0F6FCCDE90001DDE9022314
:100640000BF050F8CDE904010AF00AFC06469A497D
:10065000886B31460BF028FB97490590486B29467B
:100660000BF022FB80469449086B21460BF01CFBE3
:10067000414604900BF04CF9074605990BF048F9F8
:100680008D490860086C31460BF00EFB8A490590D5
:10069000C86B29460BF008FB80468749486B21460A
:1006A0000BF002FB414604900BF032F90746059926
:1006B0000BF02EF980494860486C31460BF0F4FA93
:1006C0007D490590086C29460BF0EEFA80467A4980
:1006D000886B21460BF0E8FA414604900BF018F9BC
:1006E000074605990BF014F97349886008460068BD
:1006F00080F0004738460BF0DFF80022784BCDE958
:1007000002010AF0FFFDCDE904010AF0A9FB6A49E4
:10071000C86048680BF0D0F807460022704B0AF01A
:10072000F1FDCDE904010AF09BFB6349086188688B
:100730000BF0C2F807460022694B0AF0E3FDCDE951
:1007400004010AF08DFB5C49486111210A20FFF782
:1007500061FE002009B0BDE8F08F2DE9F04F93B0A5
:10076000604C650C2646670CA04647F6FF794FF0B3
:10077000000A5DA008F0D6FE4FF47A7002F053F83C
:100780004FF47A7002F04FF84FF47A7002F04BF8A1
:100790004FF47A7002F047F800BF67E0FFF7E8FE19
:1007A00020460BF035FA83464348C16858460BF0A3
:1007B00047FA04D84049C8680BF00EFA04B2304634
:1007C0000BF026FA83463C48016958460BF038FA8C
:1007D00004D8394908690BF0FFF906B240460BF01E
:1007E00017FA83463448416958460BF029FA05D870
:1007F000314948690BF0F0F90FFA80F828460BF000
:1008000007FA83462C48C16858460BF019FB04D8F8
:100810002949C8680BF0E0F905B238460BF0F8F941
:1008200083462548016958460BF00AFB04D8224943
:1008300008690BF0D1F907B248460BF0E9F9834695
:100840001D48416958460BF0FBFA05D81A4948691A
:100850000BF0C2F90FFA80F927A008F063FE0A2016
:1008600001F0E1FF0AF101000FFA80FABAF5FA6F20
:1008700094DD22A008F056FE4FF47A7001F0D3FF09
:100880004FF47A7001F0CFFF40E00000414B38395F
:10089000373520494E4954204552524F520A0000E4
:1008A000414B3839373520494E495420535543433D
:1008B0004553530A00000000100300203CE8C839EB
:1008C000C000803E7B7AC83C7F94783F15F4E83CBA
:1008D000D1AA22BC4155813FBA16B93B4E96823F00
:1008E000005075400180FFFF666972737420636178
:1008F0006C204D41470A00002E2000007365636F95
:100900006E642063616C204D41470A004FF47A7099
:1009100001F089FF4FF47A7001F085FF4FF0000A73
:1009200068E0FFF725FE20460BF072F983469E48EB
:10093000C16858460BF084F904D89B49C8680BF08D
:100940004BF904B230460BF063F9834696480169CF
:1009500058460BF075F904D8934908690BF03CF937
:1009600006B240460BF054F983468F484169584619
:100970000BF066F905D88C4948690BF02DF90FFA90
:1009800080F828460BF044F983468748C1685846EA
:100990000BF056FA04D88449C8680BF01DF905B26B
:1009A00038460BF035F983467F48016958460BF00D
:1009B00047FA04D87C4908690BF00EF907B248469B
:1009C0000BF026F983467848416958460BF038FA0F
:1009D00005D8754948690BF0FFF80FFA80F9AFF2B6
:1009E000E80008F09FFD0A2001F01DFF0AF1010058
:1009F0000FFA80FABAF5FA6F93DD43463246214684
:100A00006AA008F08FFD4B463A4629466EA008F0D2
:100A100089FD28190AF05EFC00224FF08043CDE9E1
:100A20000E010AF0FFFACDE910010AF019FA5E4949
:100A30008861B8190AF04EFC00224FF08043CDE9DE
:100A40000E010AF0EFFACDE910010AF009FA564951
:100A5000C86109EB08000AF03DFC00224FF080431A
:100A6000CDE90E010AF0DEFACDE910010AF0F8F93D
:100A70004D490862F01B0AF02DFCCDE90E01601B08
:100A80000AF028FC0022574BCDE90A010AF03AFC93
:100A9000CDE90C01DDE90E230AF0C4FACDE910011D
:100AA0000AF0DEF940494862A8EB09000AF012FC9E
:100AB000CDE90E01601B0AF00DFC0022494BCDE987
:100AC0000A010AF01FFCCDE90C01DDE90E230AF052
:100AD000A9FACDE910010AF0C3F933498862886A9E
:100AE0000AF0EAFECDE910012F49486A0AF0E4FE57
:100AF000CDE90E012C49086A0AF0DEFECDE90C01B1
:100B00002949C8690AF0D8FECDE90A012649886951
:100B10000AF0D2FECDE90801DDE91001CDE90601B8
:100B2000DDE90E01CDE90401DDE90C01CDE90201A9
:100B3000DDE90A01CDE900012BA0DDE9082308F079
:100B4000F1FC13B0BDE8F08F2DE9F04105460E46EB
:100B50001746984601F0A8FA002141EA4501C8B2BB
:100B600001F056FB01F0E1FA20B101F0BDFA0120DD
:100B7000BDE8F081304601F04BFB01F0D6FA0024CD
:100B80000CE018F8040001F043FB01F0CEFA18B1B4
:100B900001F0AAFA0120EBE7601CC4B2BC42F0DB12
:100BA00001F0A2FA0020E3E710030020786D6178DD
:100BB0003A256409796D61783A2564097A6D61781E
:100BC0003A25640900000000786D696E3A256409D1
:100BD000796D696E3A2564097A6D696E3A25640A01
:100BE000000000000000F03F786F252E32660920DB
:100BF000796F252E326609207A6F252E32660920FC
:100C0000252E32660920252E32660A0070B505466B
:100C10000C4601F049FAD02001F0FAFA01F085FA09
:100C200018B101F061FA012070BD284601F0F0FA18
:100C300001F07BFA204601F0EBFA01F076FA18B1E8
:100C400001F052FA0120EFE701F04EFA0020EBE745
:100C500070B504460025BC2C01DB012510E0622C98
:100C600001DB02250CE02A2C01DB032508E0142C13
:100C700001DB042504E00A2C01DB052500E0062544
:100C800029461A20FFF7C2FF70BD70B50446B4F5BF
:100C90007A7F01DD4FF47A74042C00DA04244FF4D7
:100CA0007A7090FBF4F0401EC5B229461920FFF778
:100CB000ADFF0546264604EBD671C1F34F00FFF7A2
:100CC000C7FF70BD70B5044601F0EEF9D02001F009
:100CD0009FFA01F02AFA204601F09AFA01F025FA6B
:100CE00001F0E2F9D12001F093FA01F01EFA0020A0
:100CF00001F0B9FA054601F0F7F9284670BD10B5C4
:100D00000446E006010E1C20FFF780FF10BD10B561
:100D10000446E006010E1B20FFF778FF10BD10B55A
:100D200080216B20FFF772FF642001F07CFD002121
:100D30006B20FFF76BFF0320FFF7E9FF0020FFF7B1
:100D4000DEFF4FF49670FFF7A0FF00213820FFF779
:100D50005DFF00216A20FFF759FF00212320FFF7E4
:100D600055FF80213720FFF751FF7520FFF7AAFFBD
:100D70000446682C0FD101216B20FFF747FF0021AB
:100D80006C20FFF743FF4FF49670FFF77EFFFBA048
:100D900008F0C8FB04E0FEA008F0C4FB012010BD71
:100DA0006FF06F00FE49C8806520088104204881EB
:100DB0000020FC498881C881088200BFEFE72DE947
:100DC000F04106460F4614461D4601F06DF900211C
:100DD00041EA4601C8B201F01BFA01F0A6F920B1C0
:100DE00001F082F90120BDE8F081384601F010FAE7
:100DF00001F09BF901F058F9012101EB4601C8B25D
:100E000001F006FA01F091F90DE0012C04D1002067
:100E100001F029FA287003E0012001F024FA28707B
:100E2000601EC4B26D1C002CEFD101F05DF90020F2
:100E3000D9E72DE9F84F6B46022241216820FFF7E0
:100E4000BEFF9DF801009DF8001040EA01200FFA56
:100E500080FA50460AF03EFA80460022D24B0AF051
:100E6000E1F80646D14AD24B0AF02CF8044609F0C4
:100E7000F7FF8346CF4958460AF016FF04460AF0AA
:100E8000ABFE00B2BDE8F88F2DE9FC4780468946ED
:100E900092466B46062243216820FFF790FF0446E6
:100EA000A4B99DF801009DF8001040EA012005B2A8
:100EB0009DF803009DF8021040EA012006B29DF85B
:100EC00005009DF8041040EA012007B2B448C0882C
:100ED000281A00B2B249088008460089301A00B2C8
:100EE000488008464089381A00B288802046BDE80C
:100EF000FC872DE9FC478046894692466B460622D0
:100F00003B216820FFF75BFF0446A4B99DF8010070
:100F10009DF8001040EA012005B29DF803009DF8FD
:100F2000021040EA012006B29DF805009DF8041069
:100F300040EA012007B228460AF06AFE9949086093
:100F400030460AF065FE9749486038460AF060FE70
:100F5000944988602046BDE8FC872DE9F0410546AC
:100F60000E461746984601F09FF8002141EA4501D8
:100F7000C8B201F04DF901F0D8F820B101F0B4F891
:100F80000120BDE8F081304601F042F901F0CDF8D2
:100F900000240CE018F8040001F03AF901F0C5F85B
:100FA00018B101F0A1F80120EBE7601CC4B2BC420B
:100FB000F0DB01F099F80020E3E72DE9F04F89B06C
:100FC0001E2008904FF000094FF0000A4FF0000B70
:100FD000002006900790052003906FF00400029017
:100FE00053E000BF0A2001F01EFC6B46062243219D
:100FF0006820FFF7E4FE0746A7B99DF801009DF8B9
:10100000001040EA012004B29DF803009DF8021090
:1010100040EA012005B29DF805009DF8041040EA61
:10102000012006B2BDF81800201A00B2ADF8100079
:10103000BDF81A00281A00B2ADF81200BDF81C0065
:10104000301A00B2ADF81400ADF81840ADF81A50DF
:10105000ADF81C60BDF910000528C3DCBDF9100017
:1010600010F1050FBEDBBDF912000528BADCBDF991
:10107000120010F1050FB5DBBDF914000528B1DC35
:10108000BDF9140010F1050FACDB0898411EC9B280
:1010900008910028A5D1804626E0052001F0C3FB79
:1010A0006B46062243216820FFF789FE0746A7B951
:1010B0009DF801009DF8001040EA012004B29DF85F
:1010C00003009DF8021040EA012005B29DF80500DA
:1010D0009DF8041040EA012006B2A144AA44B3449A
:1010E00008F1010000F0FF08B8F1640FD5DB6420BF
:1010F00099FBF0F000B22A49C88064209AFBF0F016
:1011000000B2088164209BFBF0F000B248810846E1
:10111000B0F90A30B0F90820B0F9061026A008F09E
:1011200001FA09B0BDE8F08F704770B5054600249C
:1011300000BF05E04FF47A7001F075FB601CC4B28B
:10114000082CF7DB70BD2DE9FC416B4606223B21E4
:101150006820FFF734FE0746E7BB9DF801009DF8C5
:10116000001040EA012004B29DF803009DF802102F
:1011700040EA012005B29DF805002CE04D505520B5
:10118000494E495420535543434553530A000000E8
:101190004D505520494E4954204552524F520A0055
:1011A000D8030020B803002000407540A4703D0A19
:1011B000D74342400000C84267786F66663A2564AC
:1011C0000967796F66663A256409677A6F66663AD9
:1011D00025640A0004E09DF8041040EA012006B2EC
:1011E00020460AF015FDF749086028460AF010FD70
:1011F000F449486030460AF00BFDF24988600A2045
:1012000001F011FBBDE8FC8130B502460B46002021
:1012100011E0002442F82040002108E0002400EB07
:10122000400503EBC50545F821404C1C21B20629B9
:10123000F4DB441C20B20628EBDB30BD2DE9F05F67
:1012400006460F46914600244AE0601C05B243E082
:1012500004EB440207EBC20252F8241004EB4402F0
:1012600007EBC20252F825000AF0C0FB82460021BB
:1012700050460AF07DFC2DD056F8241050460AF056
:1012800013FD834656F825100AF00BFE46F825009C
:10129000A8461CE008EB480007EBC00050F82410FB
:1012A00050460AF001FD834608EB480007EBC000FA
:1012B00050F8251058460AF0F4FD08EB480107EBFA
:1012C000C10141F8250008F101000FFA80F8B8F1DA
:1012D000060FDFDB681C05B2062DB9DB601C04B20B
:1012E000062CB2DB052434E004EB440207EBC20217
:1012F00052F8241056F824000AF078FB46F824002F
:101300004FF07E5004EB440107EBC10141F824008B
:1013100000251AE004EB440007EBC00050F825A0BC
:1013200056F8241050460AF0BFFC834656F82510A4
:101330000AF0B7FD46F82500002004EB440107EB56
:10134000C10141F82500681C05B2A542E2DB601E20
:1013500004B2002CC8DA002405E056F8240049F84D
:101360002400601C04B2062CF7DBBDE8F09F2DE9D9
:10137000F04F8BB006460F4690469A464FF07E508F
:10138000099000243DE0E01C58F8209058F8241003
:101390005AF824000AF090FD0A90494648460AF09F
:1013A00083FC01900A990AF07FFC02900A990AF0E6
:1013B0007BFC834609990AF074FD099049464FF079
:1013C00080400AF071FC494602900AF06DFC8346A9
:1013D0000A990AF069FC03A941F8240049464FF034
:1013E00040400AF061FC02900A990AF05DFC8346D5
:1013F0000A990AF059FCE11C03AA42F82100601C7A
:1014000004B2032CBFDB00242BE003A951F8240015
:1014100009990AF049FC834656F824100AF078FA34
:1014200046F82400002518E003AA52F8251052F8C7
:1014300024000AF039FC834604EB440007EBC000AB
:1014400050F8251058460AF063FA04EB440107EB04
:10145000C10141F82500681C05B2062DE4DB601CC3
:1014600004B2062CD1DB0BB0BDE8F08F2DE9F04FB4
:10147000C5B007460E4614464FF00008DFF8489105
:1014800052484490002041904290439018213BA83C
:1014900008F017F9182135A808F013F918212FA81A
:1014A00008F00FF990210BA808F00BF900200A9022
:1014B0003D903C903B90464840903F903E9098E055
:1014C00008F101000FFA80F80BA92FA8FFF79CFE86
:1014D000002518E005EB450057F82000419005EB8A
:1014E000450007EB80004068429005EB450007EBA4
:1014F00080008068439041AB3BAA0BA92FA8FFF75F
:1015000036FF681C05B2062DE4DB35AA0BA92FA80F
:10151000FFF794FE409908460AF0C6FB82463A99C6
:1015200008460AF0C1FB834651460AF05FFA09906B
:101530003F9908460AF0B8FB8346399908460AF0F5
:10154000B3FB594606900AF051FA82463E99084686
:101550000AF0AAFB0590389908460AF0A5FB04900A
:1015600005990AF043FA0690379908460AF09CFB61
:101570000590369908460AF097FB0390359908467E
:101580000AF092FB0190359908460AF08DFB009015
:1015900001990AF0BDF9029003990AF0B9F9049093
:1015A00005990AF0B5F9834606990AF0B1F9514652
:1015B00007900AF0ADF9089009990AF0A9F944904A
:1015C000002514E0B80300205F7089300000C84295
:1015D0007FD6D03D35AA52F825103BAA52F82500F7
:1015E0000AF06AFC3BA941F82500681C05B2062DEB
:1015F000F0DBB8F1140F05DA494644980AF020FCF4
:10160000FFF45EAFFE493E980AF04EFB2060FC49B5
:101610003F980AF049FB6060F94940980AF044FBA2
:10162000A06021683B980AF03FFB306061683C98FD
:101630000AF03AFB7060A1683D980AF035FBB06093
:101640004FF07E5120680AF037FC20F0004AED4947
:1016500050460AF0F5FB17D34FF07E5160680AF050
:101660002BFC20F0004AE74950460AF0E9FB0BD377
:101670004FF07E51A0680AF01FFC20F0004AE149BB
:1016800050460AF0DDFB01D201200A90306820F0BC
:10169000004ADD4950460AF0D3FB0FD3706820F0B2
:1016A000004AD94950460AF0CBFB07D3B06820F076
:1016B000004AD54950460AF0C3FB01D201200A90E6
:1016C0000A9845B0BDE8F08F00B59FB00020199092
:1016D0001A901B90CD4A07CA16AB07C30020CC490D
:1016E000088006E0FFF72FFDC9480088401CC84964
:1016F0000880C7480088C828F4DB00201D9016E049
:1017000000211D9800EB4000C24A42F820101D98AD
:1017100000EB400002EB800041601D9800EB4000B0
:1017200002EB800081601D98401CC0B21D901D9886
:101730000628E5DB0020B6490880B7498860486084
:101740000860B6A007F0EEFE0520FFF7EEFC0020D3
:10175000AF49088045E0FFF7F6FCB3480068A849A8
:1017600013900AF0A1FA4FF08D4114900AF03EF95F
:101770001590A94800680146149015980AF0C8F819
:10178000A5490860A84840689D4913900AF08CFA62
:101790004FF08D4114900AF029F915909E48406849
:1017A0000146149015980AF0B3F89B4948609E488A
:1017B0008068934913900AF077FA4FF08D411490A6
:1017C0000AF014F915909448806801461490159811
:1017D0000AF09EF8904988608D480088401C8C492A
:1017E00008808B480088C828B5DB8B4800688F4983
:1017F00015900AF0FBF887490860874840688B49D4
:1018000015900AF0F3F88349486083488068874957
:1018100015900AF0EBF87F49886000207C49088029
:1018200000217D4881604160016081A007F07AFE5F
:10183000784880680F900AF03FF8CDE914017548A8
:1018400040680F900AF038F8CDE91201714800683D
:101850000F900AF031F8CDE91001DDE91401CDE96E
:101860000201DDE91201CDE9000173A0DDE91023D9
:1018700007F058FE4FF47A7000F0D5FF74A007F01F
:1018800051FE0520FFF751FC00206149088045E02A
:10189000FFF759FC64480068594913900AF004FAAC
:1018A0004FF08D4114900AF0A1F815905A48006845
:1018B0000146149015980AF02BF8574908605A48C9
:1018C00040684F4913900AF0EFF94FF08D411490A2
:1018D0000AF08CF81590504840680146149015980D
:1018E0000AF016F84C4948604F4880684449139004
:1018F0000AF0DAF94FF08D4114900AF077F815905C
:10190000454880680146149015980AF001F842494C
:1019100088603F480088401C3D4908803C4800885A
:10192000C828B5DB3C480068404915900AF05EF8CD
:101930003849C860384840683C4915900AF056F864
:101940003449086134488068384915900AF04EF8E7
:101950003049486100202E4908802F49886048603E
:1019600008603EA007F0DEFD2A4840690F9009F0AC
:10197000A3FFCDE91401274800690F9009F09CFFEF
:10198000CDE912012348C0680F9009F095FFCDE919
:101990001001DDE91401CDE90201DDE91201CDE913
:1019A000000125A0DDE9102307F0BCFD4FF47A709B
:1019B00000F039FF2BA007F0B5FD0520FFF7B5FBC0
:1019C0000020134908807EE0FFF7BDFB1648006841
:1019D0000B4913900AF068F94FF08D4114900AF00A
:1019E00005F815900C48006801461490159809F008
:1019F0008FFF094908600C4840680149139037E09F
:101A00000AE81C41CDCC4C3E0000604098C0000864
:101A10001800002064030020AC0300206669727384
:101A2000742063616C0A0000B80300200000484382
:101A30006F6E65206F6B0A00783A252E3266097941
:101A40003A252E3266097A3A252E32660A0A0000B5
:101A50007365636F6E642063616C0A0074776F2036
:101A60006F6B0A0074686972642063616C0A00001D
:101A70000AF01AF94FF08D41149009F0B7FF159054
:101A8000FE48406801461490159809F041FFFB4953
:101A90004860FB488068FB4913900AF005F94FF055
:101AA0008D41149009F0A2FF1590F448806801461A
:101AB0001490159809F02CFFF0498860F2480088CE
:101AC000401CF1490880F0480088C828FFF67CAF28
:101AD000EA480068ED49159009F088FFEC498861F3
:101AE000E6484068E949159009F080FFE849C86177
:101AF000E2488068E549159009F078FFE4490862FA
:101B00000020E1490880DD49886048600860E1A064
:101B100007F008FDDE48006A0F9009F0CDFECDE920
:101B20001401DB48C0690F9009F0C6FECDE912012F
:101B3000D74880690F9009F0BFFECDE91001DDE9BB
:101B40001401CDE90201DDE91201CDE90001AFF296
:101B50001810DDE9102307F0E5FC4FF47A7000F06F
:101B600062FECFA007F0DEFC0520FFF7DEFA0020C2
:101B7000C549088045E0FFF7E6FAC1480068C14959
:101B800013900AF091F84FF08D41149009F02EFF58
:101B90001590BA48006801461490159809F0B8FEEF
:101BA000B6490860B6484068B64913900AF07CF818
:101BB0004FF08D41149009F019FF1590AF4840681F
:101BC00001461490159809F0A3FEAC494860AC4852
:101BD0008068AC4913900AF067F84FF08D4114907B
:101BE00009F004FF1590A5488068014614901598E7
:101BF00009F08EFEA1498860A3480088401CA249D4
:101C00000880A1480088C828B5DB9C4800689F4927
:101C1000159009F0EBFE9E494862984840689B4940
:101C2000159009F0E3FE9A498862944880689749C4
:101C3000159009F0DBFE9649C862002092490880A1
:101C40008E4988604860086098A007F06BFC904857
:101C5000C06A0F9009F030FECDE914018C48806A0B
:101C60000F9009F029FECDE912018948406A0F90D2
:101C700009F022FECDE91001DDE91401CDE90201F0
:101C8000DDE91201CDE90001AFF25420DDE91023B6
:101C900007F048FC4FF47A7000F0C5FD86A007F00D
:101CA00041FC0520FFF741FA00207749088045E014
:101CB000FFF749FA724800687249139009F0F4FF7F
:101CC0004FF08D41149009F091FE15906B4800681B
:101CD00001461490159809F01BFE68490860684891
:101CE00040686849139009F0DFFF4FF08D41149070
:101CF00009F07CFE159061484068014614901598E3
:101D000009F006FE5D4948605D4880685D491390B2
:101D100009F0CAFF4FF08D41149009F067FE15904D
:101D20005648806801461490159809F0F1FD534912
:101D3000886055480088401C5349088052480088F4
:101D4000C828B5DB4D4800685049159009F04EFE93
:101D50004F490863494840684C49159009F046FED0
:101D60004B494863454880684849159009F03EFE54
:101D7000474988630020444908804049886048609A
:101D8000086050A007F0CEFB4148806B0F9009F02F
:101D900093FDCDE914013E48406B0F9009F08CFD96
:101DA000CDE912013A48006B0F9009F085FDCDE9AD
:101DB0001001DDE91401CDE90201DDE91201CDE9EF
:101DC0000001AFF28C30DDE9102307F0ABFB4FF4DC
:101DD0007A7000F028FD3EA007F0A4FB0520FFF775
:101DE000A4F904F02BF900202749088045E0FFF70B
:101DF000AAF9234800682349139009F055FF4FF0D2
:101E00008D41149009F0F2FD15901C4800680146C0
:101E10001490159809F07CFD18490860184840682E
:101E20001849139009F040FF4FF08D41149009F0CC
:101E3000DDFD15901148406801461490159809F091
:101E400067FD0E4948600E4880680E49139009F0FE
:101E50002BFF4FF08D41149009F0C8FD15900748F5
:101E6000806801461490159809F052FD0349886076
:101E700005480088401C044908802FE0AC0300207E
:101E8000B80300200AE81C41180000200000484365
:101E9000640300207468726565206F6B0A0000009F
:101EA000666F75722063616C0A000000666F757260
:101EB000206F6B0A00000000666976652063616C24
:101EC0000A00000066697665206F6B0A000000005A
:101ED0007369782063616C0A000000005048008834
:101EE000C82884DB4F4800684F49159009F07EFDF3
:101EF0004E49C8634B4840684B49159009F076FD40
:101F00004A490864474880684749159009F06EFDC2
:101F10004649486446A007F005FB4448406C0F90D2
:101F200009F0CAFCCDE914014048006C0F9009F09B
:101F3000C3FCCDE912013D48C06B0F9009F0BCFC19
:101F4000CDE91001DDE91401CDE90201DDE912015D
:101F5000CDE90001AFF22050DDE9102307F0E2FAED
:101F60004FF47A7000F05FFC16AA19A92F48FFF70A
:101F70007DFA1C901C9868B92F49199808601A9826
:101F800048601B9888602D48169901601799416038
:101F90001899816029488068099009F08DFCCDE985
:101FA000140126484068099009F086FCCDE9120129
:101FB00022480068099009F07FFCCDE910011E4815
:101FC0008068099009F078FCCDE90E011A48406854
:101FD000099009F071FCCDE90C01174800680990DF
:101FE00009F06AFCCDE90A01DDE91401CDE9080137
:101FF000DDE91201CDE90601DDE91001CDE90401B9
:10200000DDE90E01CDE90201DDE90C01CDE90001B8
:102010000BA0DDE90A2307F085FA1FB000BD000020
:1020200018000020AC030020000048436403002097
:10203000736978206F6B0A000C00002000000020FC
:102040006230252E3266096231252E3266096232EF
:10205000252E3266096B30252E3266096B31252E0E
:102060003266096B32252E32660A000010B5022056
:1020700000F0B5FB10BD08B50121082001F034F9CE
:102080004FF44060ADF8000010208DF803000320ED
:102090008DF8020069468D4800F06AFE4FF44061F9
:1020A0008A4800F012FF08BD10B58848001D00687E
:1020B00020F470408549091D08600846006840F416
:1020C000405008600120824908608249C1F8A80197
:1020D000FFF7CCFF00207E490860FFF7C7FF002014
:1020E0007C49C1F8A80110BD10B57848001D0068F2
:1020F00020F470407549091D08600846006840F4E6
:102100004050086000207249091F08607149C1F8F9
:10211000AC01FFF7ABFF01206D49091F08606D4955
:10212000C1F8AC01FFF7A2FF10BD10B5002467484D
:10213000001D006820F470406449091D08600846CD
:10214000006840F400400860012061490860FFF722
:102150008DFF01205F49C1F8A801FFF787FF07E065
:10216000601CC4B2FA2C03DDFFF7BEFF012010BDD6
:102170005748803800680028F2D15549091F086087
:1021800000BFF4E710B500205149091F08604F480F
:10219000001D006820F470404C49091D0860084685
:1021A000006840F44050086000204A49C1F8AC0182
:1021B000FFF75CFF01204649091F0860FFF756FF43
:1021C00000204449C1F8A80110BD10B500204049C5
:1021D000091F08603D48001D006820F470403B491D
:1021E000091D08600846006840F44050086001205E
:1021F0003849C1F8AC01FFF739FF01203449091F04
:102200000860FFF733FF00203249C1F8A80110BD74
:1022100070B504462D48001D006820F470402B491D
:10222000091D08600846006840F44050086000201E
:102230002749091F0860002512E0E00924490860C9
:102240006006040E01202349C1F8A801FFF70EFF24
:1022500000201F49091F0860FFF708FF681CC5B26E
:10226000082DEADB70BD70B5054600241748001D37
:10227000006820F470401549091D08600846006890
:1022800040F400400860002615E000201049091FB6
:102290000860FFF7EBFE01200E49C1F8A8016006B7
:1022A000040E0B488038006808B1601CC4B2FFF708
:1022B000DDFE701CC6B2082EE7DB15B9FFF785FFFF
:1022C00001E0FFF75FFF204670BD0000000C0140F9
:1022D000AC812142008021427FB505460C46012198
:1022E000C80201F001F8ADF80850ADF80440002034
:1022F000ADF80A00ADF806008DF80C0001A984487D
:1023000001F02AF90121824801F082FC19208DF8A0
:10231000000002208DF8010000208DF8020001204D
:102320008DF80300684600F05AFC0121784801F05E
:1023300035FF00220121764801F085FC7FBD30B5D4
:1023400089B005460C460121042000F0DAFF012186
:10235000082000F0C9FF4FF47070ADF81400282079
:102360008DF8170005A96B4800F002FD4FF470715D
:10237000684800F0ACFDADF80C50ADF80840002006
:10238000ADF80E00ADF80A0002A9634801F0E4F8C8
:102390000020ADF81800ADF81A000120ADF81C00BF
:1023A0000020ADF81E00ADF8200006A95A4801F043
:1023B00066FB0420ADF818000020ADF81A000120DB
:1023C000ADF81C000020ADF81E00ADF8200006A9F5
:1023D000514801F054FB0820ADF818000020ADF87A
:1023E0001A000120ADF81C000020ADF81E00ADF869
:1023F000200006A9484801F042FB0C20ADF8180067
:102400000020ADF81A000120ADF81C000020ADF846
:102410001E00ADF8200006A93F4801F030FB1E2049
:102420008DF8040001208DF805008DF806008DF868
:10243000070001A800F0D3FB01221E21364801F05D
:1024400002FC0121344801F0E3FB09B030BD30B596
:1024500089B005460C460121042000F045FF01210A
:10246000084600F04EFF0F20ADF8040003208DF861
:10247000060018208DF8070001A9284800F078FC14
:10248000ADF81C50ADF818400020ADF81E00ADF8B6
:102490001A0006A94FF0804001F05EF86020ADF808
:1024A00008000120ADF80A000020ADF80E00ADF8DC
:1024B000100002A94FF0804001F08BF80821C806F7
:1024C00001F0D6FC02A94FF0804001F0C4F80821C9
:1024D000C80601F0D6FC02A94FF0804001F008F9CF
:1024E0000821C80601F0DAFC02A94FF0804001F093
:1024F0004AF90821C80601F0DAFC0121880701F039
:1025000087FC0121880701F083FB09B030BD000082
:10251000002C0140000C0140000800400008014070
:1025200010B59048007800F08000002842D10221C8
:102530008D4801F036FE00283CD002218A4801F087
:1025400041FE8848007800F0400020B3864801F042
:1025500009FE86490880084600888549098888421E
:1025600004DA44F61F608349086002E000208149D4
:1025700008607E4800887E490988401A7D490968BC
:1025800008447D49C86000207649087000217648DB
:1025900001F0F0FC0EE0744801F0E4FD744908809D
:1025A0007048007840F040006E49087002216E4883
:1025B00001F0E0FC7148007800F08000002841D173
:1025C0000421694801F0EDFD60B30421664801F083
:1025D000F9FD6A48007800F0400020B3624801F03D
:1025E000C4FD674908800846008866490988884212
:1025F00004DA44F61F606449086002E00020624982
:1026000008605F4800885F490988401A5E49096888
:102610000844594948600020584908700021524830
:1026200001F0BAFC0EE0504801F09FFD55490880CA
:102630005248007840F040005049087002214A4852
:1026400001F0AAFC5148007800F0800088BB082106
:10265000454801F0A6FD60B30821434801F0B2FDF2
:102660004A48007800F0400020B33F4801F080FD68
:10267000474908800846008846490988884204DAA4
:1026800044F61F604449086002E0002042490860A7
:102690003F4800883F490988401A3F490968084473
:1026A0003549086000203949087000212E4801F0A2
:1026B0008DFC0EE02C4801F05BFD36490880334864
:1026C000007840F04000314908700221264801F0AE
:1026D0007DFC3248007800F0800088BB1021224841
:1026E00001F05FFD60B310211F4801F06BFD2B4826
:1026F000007800F0400020B31B4801F03CFD284961
:1027000008800846008827490988884204DA44F688
:102710001F602549086002E0002023490860204826
:10272000008820490988401A1F490968084412494D
:10273000886000201949087000210B4801F060FCF6
:102740000EE0094801F017FD16490880134800788B
:1027500040F04000114908700221034801F050FC8C
:1027600010BD00001C0000200008004020000020D8
:102770001E00002034000020E4030020220000207E
:10278000260000202400002038000020280000201F
:102790002C0000202A0000203C0000202E000020F9
:1027A00032000020300000204000002010B56FF003
:1027B000040000F05EFA394800683949B0FBF1F0D6
:1027C000384908700846007800EB4001C1EBC010A2
:1027D0004FF6FF7101EAC0003349088010BD014681
:1027E000304A12784A434FF0E0235A6100229A613E
:1027F0001A46126942F001021A6100BF4FF0E0224E
:10280000106900F001021AB100F48032002AF5D0FC
:102810004FF0E022126922F001024FF0E0231A612A
:1028200000229A61704701461F4A12884A434FF0BE
:10283000E0235A6100229A611A46126942F00102AD
:102840001A6100BF4FF0E022106900F001021AB1D6
:1028500000F48032002AF5D04FF0E022126922F015
:1028600001024FF0E0231A6100229A6170470F487D
:102870000068401C0D49086008460068094909784D
:10288000884207D300200949086009480068401CB5
:102890000749086070470648006870475C000020E0
:1028A00000127A004400002046000020480000206A
:1028B0004C000020014600BF704700BF304A12881C
:1028C00002F04002002AF9D0C2B22D4B1B1D1A8023
:1028D000704710B586B00446012144F2040000F0B0
:1028E00003FD4FF40070ADF8140003208DF81600BE
:1028F00018208DF8170005A9224800F039FA4FF486
:102900008060ADF8140004208DF8170005A91D485B
:1029100000F02EFA25208DF8000000208DF801002F
:1029200002208DF8020001208DF80300684600F0B7
:1029300056F901940020ADF80800ADF80A00ADF892
:102940000C00ADF810000C20ADF80E0001A90C48E9
:1029500001F07FFC012240F22551094801F011FDF0
:102960000121074801F001FD06B010BD10B5044873
:1029700001F06CFDC4B2204604F0DCFA10BD00008A
:102980000038014000080140704700BFFEE700BF6B
:10299000FEE700BFFEE700BFFEE7704770477047E5
:1029A00010B504F091FE10BD10B5002005F06FF8D1
:1029B00010BD00000CB50020019000906C4800682C
:1029C00040F480306A49086000BF6948006800F43C
:1029D000003000900198401C0190009818B90198AF
:1029E000B0F5A06FF1D16248006800F4003010B17A
:1029F0000120009001E0002000900098012843D1C0
:102A00005C48006840F010005A49086008460068B9
:102A100020F0030008600846006840F002000860EB
:102A20005348406852494860084640684860084634
:102A3000406840F4806048600846406820F47C109C
:102A400048600846406840F4E8104860084600685E
:102A500040F08070086000BF4548006800F00070DA
:102A60000028F9D04248406820F0030040494860FF
:102A70000846406840F00200486000BF3C4840689B
:102A800000F00C000828F9D10CBD10B5FFF792FF3B
:102A900010BD10B53648006840F0010034490860A8
:102AA0000846406834490840314948600846006893
:102AB000324908402E4908600846006820F480200A
:102AC00008600846406820F4FE0048604FF41F008C
:102AD0008860FFF7DAFF4FF000602949086010BDF9
:102AE00010B5002100200022214B5B6803F00C018F
:102AF00021B1042906D0082928D107E0214B224C16
:102B0000236027E01F4B204C236023E0184B5B68B9
:102B100003F47010164B5B6803F48032022303EB5E
:102B2000904022B9194B4343174C23600DE0104BE2
:102B30005B6803F4003323B1144B4343124C23600E
:102B400003E0104B4343104C236003E00D4B0E4C4D
:102B5000236000BF00BF064B5B68C3F303130C4C3C
:102B6000E15C094B1B68CB40074C236010BD0000A3
:102B700000100240002002400000FFF8FFFFF6FEB8
:102B800008ED00E000127A005C00002000093D0022
:102B9000600000200948804709480047FEE7FEE73B
:102BA000FEE7FEE7FEE7FEE7FEE7FEE7FEE7FEE7FD
:102BB00004480549054A064B70470000932A00085F
:102BC0003101000838080020380E0020380A0020A3
:102BD000380A002031490143314A1160704770B50D
:102BE000002100230F22C47804B32D4C246804F480
:102BF000E064C4F5E064210AC1F10403CA404478EA
:102C000004FA03F18478144021430901254C067825
:102C1000A155047804F01F050124AC4005786D111E
:102C2000AD0005F1E025C5F8004109E0047804F0A5
:102C30001F050124AC401C4D0678761145F826404E
:102C400070BD1A4A0A400243154B1B1F1A60704799
:102C500039B1134A121D12680243114B1B1D1A6031
:102C600006E00F4A121D126882430D4B1B1D1A60AD
:102C70007047042808D14FF0E021096941F00401B0
:102C80004FF0E022116107E04FF0E021096921F0E7
:102C900004014FF0E0221161704700000000FA05C6
:102CA0000CED00E000E400E080E100E080FFFF1FA9
:102CB00010B50446CC48844208D10121042000F01C
:102CC0002DFB0021042000F029FB46E0C748844288
:102CD00008D10121082000F021FB0021082000F08C
:102CE0001DFB3AE0C248844208D10121102000F0C7
:102CF00015FB0021102000F011FB2EE0BD4884429E
:102D000008D10121202000F009FB0021202000F043
:102D100005FB22E0B848844208D10121402000F0A0
:102D2000FDFA0021402000F0F9FA16E0B348844291
:102D300008D10121802000F0F1FA0021802000F06C
:102D4000EDFA0AE0AE48844207D10121801500F077
:102D5000E5FA0021A01500F0E1FA10BD10B501213F
:102D6000084600F0DBFA0021012000F0D7FA10BD80
:102D70002DE9F04102460025002600200023002412
:102D8000002791F803C00CF00F0591F803C00CF078
:102D9000100CBCF1000F03D091F802C04CEA0505FD
:102DA00091F800C0BCF1000F31D0146800202BE076
:102DB0004FF0010C0CFA00F3B1F800C00CEA030666
:102DC0009E4220D183004FF00F0C0CFA03F7BC4356
:102DD00005FA03FC4CEA040491F803C0BCF1280F87
:102DE00006D14FF0010C0CFA00FCC2F814C00AE046
:102DF00091F803C0BCF1480F05D14FF0010C0CFA5B
:102E000000FCC2F810C0401C0828D1D31460B1F8EF
:102E100000C0BCF1FF0F34DD546800202EE000F14B
:102E2000080C4FF0010808FA0CF3B1F800C00CEAE6
:102E300003069E4221D183004FF00F0C0CFA03F7DA
:102E4000BC4305FA03FC4CEA040491F803C0BCF14E
:102E5000280F05D100F1080C08FA0CF8C2F814800C
:102E600091F803C0BCF1480F07D100F1080C4FF0F6
:102E7000010808FA0CF8C2F81080401C0828CED3CC
:102E80005460BDE8F0814FF6FF710180022181702E
:102E90000421C17070470246002093680B400BB1BB
:102EA000012000E0002070470146886880B270472A
:102EB00002460020D3680B400BB1012000E0002047
:102EC00070470146C86880B2704701617047416130
:102ED00070470AB1016100E041617047C16070470D
:102EE0004FF480320A438261816182618269826922
:102EF000704702460020434B18684FF68073184015
:102F000040EA021008433F4B186070473E49C861D1
:102F10007047F0B50A46002300240021002500F088
:102F20000046B6F1004F02D1364EF16901E0354E50
:102F30007168C0F3034583B200F44016B6F5401F34
:102F400008D121F070612F4E766826F070662D4F03
:102F50007E6012E000F48016B6F5801F06D10326CD
:102F600006FA05F4A14341F0706106E0460D360112
:102F700003FA06F6B14341F0706122B1460D360105
:102F800003FA06F6314300F00046B6F1004F02D1D5
:102F90001C4EF16101E01B4E7160F0BD30B50022A6
:102FA0008B071C0F0F2303FA04F2164B08338C1007
:102FB00053F824309343134C08348D1044F82530D3
:102FC00023468C1053F824308C07240F00FA04F4A5
:102FD00023430C4C08348D1044F8253030BD0A4989
:102FE000DC3108607047000000080140000C01401F
:102FF000001001400014014000180140001C014075
:10300000002001400000014000002042DF4800682D
:1030100040F00100DD49086008464068DC4908408E
:10302000DA49486008460068DA490840D74908602C
:103030000846006820F4802008600846406820F4B4
:10304000FE0048604FF41F0088607047CF49096850
:1030500021F48031CD4A11601146096821F48021A4
:103060001160B0F5803F03D0B0F5802F0ED106E09F
:10307000C649096841F48031C44A116007E0C34978
:10308000096841F4A021C14A116000E000BF00BFFF
:10309000704710B501460022002300204A11012A82
:1030A00002D1BA4C236806E0022A02D1B74C236A47
:1030B00001E0B64C636A01F01F02012494401C40F9
:1030C0000CB1012000E0002010BD38B500200090B8
:1030D0000024002500BF3120FFF7DBFF05460098E4
:1030E000401C00900098B0F5A06F01D0002DF2D0E8
:1030F0003120FFF7CEFF08B1012400E00024204674
:1031000038BD01460020A14A106820F0F80040EACE
:10311000C10010607047A049086070470246002057
:103120009A4B586820F47C1042EA01031843974BED
:103130005860704798490866704701460020934AD6
:10314000506820F003000843506070478F48406883
:1031500000F00C007047014600208C4A506820F0B7
:10316000F00008435060704701460020874A5068CD
:1031700020F4E06008435060704701460020834A15
:10318000506820F4605040EAC1005060704729B197
:103190007E4A527A02437D4B5A7204E07B4A527A4D
:1031A00082437A4B5A7270477B49D8310860704726
:1031B00001460020754A506820F4404008435060A2
:1031C00070470021714A20321170704A82F8201035
:1031D000012802D004280AD104E001216B4A2032E0
:1031E000117005E00521694A2032117000E000BF2E
:1031F00000BF70476949086070476449096A014324
:10320000624A11627047654944390860704730B5B9
:1032100000210022002400235C4D6D6805F00C01A4
:1032200021B1042905D0082923D105E05C4D0560B2
:1032300022E05B4D05601FE0544D6D6805F470128F
:10324000524D6D6805F48034022505EB92421CB99D
:10325000544D554305600BE04C4D6D6805F4003549
:103260001DB1504D5543056002E04D4D554305607D
:1032700002E04B4D056000BF00BF444D6D6805F096
:10328000F0010909484D6B5C0568DD4045603F4D24
:103290006D6805F4E061090A434D6B5C4568DD40EB
:1032A00085603A4D6D6805F46051C90A3E4D6B5C0E
:1032B0004568DD40C560354D6D6805F44041890BBA
:1032C0003A4D6B5CC568B5FBF3F5056130BD29B1BE
:1032D0002E4A526902432D4B5A6104E02B4A52692F
:1032E00082432A4B5A61704729B1284A92690243A6
:1032F000264B9A6104E0254A92698243234B9A61E6
:10330000704729B1214AD2690243204BDA6104E0B7
:103310001E4AD26982431D4BDA61704729B11B4AAC
:10332000D2680243194BDA6004E0184AD26882433B
:10333000164BDA60704729B1144A12690243134BE5
:103340001A6104E0114A12698243104B1A617047F6
:1033500012494039086070470F49C86470470B49EB
:10336000C87170470948406A40F080700749486258
:10337000704701460020054A92680A400AB10120C0
:1033800000E0002070470149887270470010024039
:103390000000FFF8FFFFF6FE0000424280044242B8
:1033A00000127A0000093D0070000020800000201B
:1033B00010B50446FE48844208D10121C014FFF72D
:1033C000ADFF0021E014FFF7A9FFC4E0B4F1804F86
:1033D00008D101210846FFF7AEFF00210120FFF7C9
:1033E000AAFFB8E0F348844208D101210220FFF788
:1033F000A2FF00210220FFF79EFFACE0EE488442CE
:1034000008D101210420FFF796FF00210420FFF7D7
:1034100092FFA0E0E948844208D101210820FFF78B
:103420008AFF00210820FFF786FF94E0E4488442E9
:1034300008D101211020FFF77EFF00211020FFF7A7
:103440007AFF88E0DF48844208D101212020FFF77D
:1034500072FF00212020FFF76EFF7CE0DA488442F3
:1034600008D101214014FFF759FF00216014FFF734
:1034700055FF70E0D548844209D10121C804FFF707
:103480004DFF00214FF40020FFF748FF63E0D048D4
:10349000844209D101210805FFF740FF00214FF4C4
:1034A0008010FFF73BFF56E0CA48844209D1012152
:1034B0004805FFF733FF00214FF40010FFF72EFF00
:1034C00049E0C548844208D101214020FFF733FF7D
:1034D00000214020FFF72FFF3DE0C048844208D183
:1034E00001218020FFF727FF00218020FFF723FF25
:1034F00031E0BB48844208D101218015FFF71BFF52
:103500000021A015FFF717FF25E0B648844209D136
:1035100001210804FFF702FF00214FF48030FFF77C
:10352000FDFE18E0B048844209D101214804FFF7AC
:10353000F5FE00214FF40030FFF7F0FE0BE0AB4842
:10354000844208D101218804FFF7E8FE00214FF4EE
:103550008020FFF7E3FE10BD00220288944B9842C2
:103560000ED0994B98420BD0B0F1804F08D0914BC0
:10357000984205D0904B984202D0904B984204D18B
:103580004FF68F731A404B881A438D4B984207D0E1
:103590008C4B984204D04FF6FF431A40CB881A4315
:1035A00002808B8883850B880385814B98420BD0E2
:1035B000854B984208D08B4B984205D08A4B984255
:1035C00002D08A4B984201D10B7A03860123838271
:1035D000704770B5002400220023058C4FF6FE765C
:1035E00035400584028C8388048B4FF68F752C4000
:1035F000B51E2C400D882C43751E2A400D892A4388
:103600004D882A436A4DA8420BD06F4DA84208D07E
:10361000744DA84205D0744DA84202D0734DA84203
:1036200013D14FF6F7752A404D892A434FF6FB75A3
:103630002A408D882A434FF6FF652B404FF6FF55F1
:103640002B408D892B43CD892B4383800483CD88E8
:103650008586028470BD70B5002400220023058C8D
:103660004FF6EF7635400584028C8388048B48F64C
:10367000FF752C404FF6FF452C400D884FF6FF7626
:1036800006EA05252C434FF6DF752A400D8906EA28
:1036900005152A434D8806EA05152A43444DA842DC
:1036A00002D0494DA8421DD14FF67F752A404D8961
:1036B0004FF6FF7606EA05152A434FF6BF752A40F6
:1036C0008D8806EA05152A434FF6FF352B404FF249
:1036D000FF752B408D8906EA85052B43CD8906EAC7
:1036E00085052B4383800483CD880587028470BDC4
:1036F00070B5002400220023058C4FF6FF6635408C
:103700000584028C8388848B4FF68F752C404FF68E
:10371000FC752C400D882C434FF6FF552A400D892F
:103720004FF6FF7606EA05252A434D8806EA052569
:103730002A431F4DA84202D0234DA8421DD14FF26B
:10374000FF752A404D894FF6FF7606EA05252A4384
:103750004FF6FF352A408D8806EA05252A434EF6A6
:10376000FF752B404DF6FF752B408D8906EA051538
:103770002B43CD8906EA05152B4383808483CD88AE
:103780008587028470BD70B5002200230024058C5B
:103790004EF6FF7635400584038C8488828B48F68C
:1037A000FF752A404FF6FF452A400D8820E00000B3
:1037B000002C01400004004000080040000C0040C4
:1037C000001000400014004000340140004C014053
:1037D000005001400054014000180040001C00400F
:1037E00000200040004001400044014000480140EA
:1037F0004FF6FF7606EA05252A434DF6FF752B4066
:103800000D8906EA05352B434D8806EA05352B431D
:10381000FA4DA84202D0FA4DA84208D14BF6FF75E6
:103820002C408D894FF6FF7606EA85152C4384805F
:103830008283CD88A0F84050038470BD828B4FF204
:10384000FF331A408283828B4FF6FF7303EA012312
:103850001A4382837047F0B50C46154600220021BA
:103860000026078C4EF6FF7C07EA0C070784828B44
:10387000018C4FF6FF7707EA043640F6FF473A40DF
:103880004FF6FF7707EA05273A434FF6FF7707EA37
:1038900003373A43D94FB8420ED0D94FB8420BD074
:1038A000B0F1804F08D0D74FB84205D0D64FB842BC
:1038B00002D0D64FB84206D14DF6FF77394046F4D4
:1038C0008057394305E047F6FF57394044F48057A5
:1038D000394382830184F0BD828B4FF6F3731A4023
:1038E0008283828B0A4382837047F0B50C4615466B
:1038F000002200210026078C4FF6FF6C07EA0C0718
:103900000784828B018C4FF6FF7707EA04264FF677
:103910000C773A404FF6FF7707EA03172F433A43F5
:10392000B64FB8420ED0B64FB8420BD0B0F1804F70
:1039300008D0B44FB84205D0B34FB84202D0B34F0D
:10394000B84206D14FF6FF57394046F480773943E5
:1039500005E04FF2FF57394044F4807739438283C2
:103960000184F0BD028B4FF2FF331A400283028BB9
:103970004FF6FF7303EA01231A4302837047F0B541
:103980000C461546002200210026078C4FF6EF7CDE
:1039900007EA0C070784028B018C4FF6FF7707EAD2
:1039A000041640F6FF473A404FF6FF7707EA033721
:1039B0003A434FF6FF7707EA05273A438F4FB8425D
:1039C0000ED08F4FB8420BD0B0F1804F08D08D4F42
:1039D000B84205D08C4FB84202D08C4FB84206D1C5
:1039E0004FF6DF77394046F01007394305E04FF6D0
:1039F0005F77394044F01007394302830184F0BDFA
:103A0000028B4FF6F3731A400283028B0A43028340
:103A10007047F0B50C46154600220021068C4FF683
:103A2000FE773E400684028B018C4FF60C763240C6
:103A30007E1C06EA03162E433243704EB0420ED06F
:103A40006F4EB0420BD0B0F1804F08D06D4EB042F7
:103A500005D06D4EB04202D06C4EB04206D14FF64A
:103A6000FD76314044F00106314305E04FF6F5762E
:103A7000314044F00106314302830184F0BD70B54A
:103A800005460C465D4885420ED05D4885420BD008
:103A9000B5F1804F08D05B48854205D05A48854231
:103AA00002D05A48854200D100E000BF208850B9BA
:103AB0002389A28861882846FFF7ABFFE188284662
:103AC000FFF79EFF25E0208804280AD12389A288D9
:103AD00061882846FFF753FFE1882846FFF742FF39
:103AE00017E0208808280AD12389A28861882846FF
:103AF000FFF7FBFEE1882846FFF7EEFE09E0238989
:103B0000A28861882846FFF7A6FEE1882846FFF7CD
:103B100095FE70BD2DE9F04105460C4600260127B3
:103B2000608808B9022600E00026A088012801D19B
:103B3000022700E001272088A0B92389A288618894
:103B40002846FFF766FFE1882846FFF759FF2389DB
:103B50003A4631462846FFF712FFE1882846FFF72C
:103B600001FF13E02389A28861882846FFF707FF39
:103B7000E1882846FFF7F6FE23893A463146284673
:103B8000FFF747FFE1882846FFF73AFFBDE8F081DD
:103B90000A884B881A438B881A43CB881A430B89AF
:103BA0001A434B891A438B891A43A0F84420704763
:103BB0004FF6FF71818000210180C1804180017238
:103BC00070470021018041808180C1800181418155
:103BD0008181C18170470021018041800121818064
:103BE0000021C180018170470021018041808180D6
:103BF000C18001814181818170470000002C01401A
:103C0000003401400004004000080040000C004067
:103C100021B1028842F00102028004E002884FF6DE
:103C2000FE731A400280704731B1B0F8442042F46C
:103C30000042A0F8442005E0B0F84420C2F30E0290
:103C4000A0F8442070471AB183890B43838102E0B6
:103C500083898B43838170478182704741EA0203E5
:103C6000A0F8483070471AB183890B43838102E082
:103C700083898B438381704701894FF6F872114025
:103C8000018170470A46002101894FF68F73194060
:103C900011430181704730B504460D462946204640
:103CA000FFF7F0FF208940F00700208130BD2DE9AB
:103CB000F04104460D4616461F46602D06D13B4690
:103CC000012231462046FFF75AFE05E03B4601221D
:103CD00031462046FFF79DFE29462046FFF7D2FFDA
:103CE000208940F007002081BDE8F08130B50C4606
:103CF00000210189C9B24FF6FF7505EA0325154376
:103D000025432943018130BD2DE9F04105460E468A
:103D100017469846002443463A4631462846FFF760
:103D2000E5FF2C894FF6F870044044F007044FF685
:103D30008F70044044F070042C81BDE8F081F0B530
:103D400004460D4616461F463B4632462946204647
:103D5000FFF7CCFF208940F480402081F0BD018531
:103D6000828270470A46002101884FF68F731940FE
:103D7000114301807047F0B50C4615461E460021E0
:103D8000002200230189028B038C4FF6F87739401B
:103D900021434FF6FC473A4040F201173A434FF6B1
:103DA000DD773B404FF6FF7707EA06172F433B438B
:103DB000018102830384F0BD0A460021018B4FF686
:103DC0008F7319401143018370470A460021018B0C
:103DD00048F6FF7319404FF6FF7303EA02231943B5
:103DE000018370470A460021818B4FF68F7319407B
:103DF0001143818370470A460021818B48F6FF7387
:103E000019404FF6FF7303EA022319438183704779
:103E100021B1028842F08002028004E002884FF65D
:103E20007F731A400280704721B1828842F00402F9
:103E3000828004E082884FF6FB731A4082807047CC
:103E400021B1828842F00802828004E082884FF625
:103E5000F7731A408280704721B1828842F00102D4
:103E6000828004E082884FF6FE731A408280704799
:103E70000A460021018B4FF6F77319401143018365
:103E800070470A460021018B4FF2FF7319404FF62D
:103E9000FF7303EA02231943018370470A46002196
:103EA000818B4FF6F77319401143818370470A469F
:103EB0000021818B4FF2FF7319404FF6FF7303EA25
:103EC00002231943818370470A460021018B4FF674
:103ED000FB7319401143018370470A460021018B8F
:103EE0004FF6FF3319404FF6FF7303EA02231943DD
:103EF000018370470A460021818B4FF6FB731940FE
:103F00001143818370470A460021818B4FF6FF33AE
:103F100019404FF6FF7303EA022319438183704768
:103F20000A460021018B4FF67F731940114301832C
:103F300070470A460021018BC1F30E014FF6FF7353
:103F400003EA02231943018370470A460021818B4B
:103F50004FF67F7319401143818370470A46002151
:103F6000818BC1F30E014FF6FF7303EA022319435D
:103F7000818370470A460021018C4FF6FD7319407A
:103F80001143018470470A460021018C4FF6F773F4
:103F900019401143018470470A460021018C4FF6F5
:103FA000DF7319404FF6FF7303EA021319430184CC
:103FB00070470A460021018C4FF67F7319404FF677
:103FC000FF7303EA02131943018470470A46002174
:103FD000018C4FF6FF5319404FF6FF7303EA02239B
:103FE0001943018470470A460021018C4FF2FF7388
:103FF00019404FF6FF7303EA022319430184704707
:104000000A460021018C4DF6FF7319404FF6FF73ED
:1040100003EA023319430184704730B500230124B9
:104020008C40A3B2048C9C430484048C02FA01F5F6
:10403000ADB22C43048430BD30B5002304248C4041
:10404000A3B2048C9C430484048C02FA01F5ADB243
:104050002C43048430BD70B503460020002418466C
:10406000183001258D40ACB21D8CA5431D8409B1CB
:10407000082909D100EB6100056825F0700505608D
:104080000568154305600EE00D1FC5F34E05284475
:10409000056825F4E045056005684FF6FF7606EAF9
:1040A00002263543056070BD21B1028842F002024C
:1040B000028004E002884FF6FD731A4002807047C8
:1040C00021B1028842F00402028004E002884FF627
:1040D000FB731A400280704721B1828842F080024F
:1040E000828004E082884FF67F731A408280704796
:1040F00002884FF6F7731A40028002880A43028052
:10410000704782884FF68F731A40828082880A43F4
:104110008280704702894FF6F8731A400281028943
:104120000A430281704702894FF67F731A40028169
:1041300002890A43028170478184704781857047F4
:10414000818670470187704781877047A0F84010CB
:10415000704702884FF6FF431A40028002880A43E4
:10416000028070470146888E70470146088F70476D
:104170000146888F70470146B1F8400070470146FC
:10418000888C70470146088D704702460020138ACC
:104190000B400BB1012000E000207047CA430282AF
:1041A000704730B50246002000230024158A05EA36
:1041B0000103958905EA010413B10CB1012000E067
:1041C000002030BDCA4302827047000010B504468B
:1041D000FB48844209D101218803FFF79FF80021A1
:1041E0004FF48040FFF79AF832E0F648844209D154
:1041F00001214804FFF79FF800214FF40030FFF73A
:104200009AF825E0F048844209D101218804FFF79B
:1042100092F800214FF48020FFF78DF818E0EB486A
:10422000844209D10121C804FFF785F800214FF429
:104230000020FFF780F80BE0E548844208D1012117
:104240000805FFF778F800214FF48010FFF773F8A6
:1042500010BD2DE9F04786B005460E460024A24663
:1042600000BFA1460027B08900B100BF2F462C8AAD
:104270004CF6FF700440F08804432C82AC894EF663
:10428000F3100440B088318908437189084304431E
:10429000AC81AC8A4FF6FF400440B0890443AC8245
:1042A00001A8FEF7B4FFC648874202D1DDF810A08E
:1042B00001E0DDF80CA0A88900F4004040B10AEB51
:1042C000CA0000EB0A1031684900B0FBF1F807E0C2
:1042D0000AEBCA0000EB0A1031688900B0FBF1F864
:1042E0006420B8FBF0F004012009642101FB10896F
:1042F000A88900F4004040B1322000EBC900B0FBB7
:10430000F1F000F00700044308E0322000EB091050
:104310006421B0FBF1F000F00F0004432C8106B0E3
:10432000BDE8F0874FF41651016000218180C18003
:1043300001810C21418100218181704710B5024625
:104340000020108A4FF2FF0318400B884C8823434B
:104350008C882343CC8823431843108210BD00214E
:10436000018041808180C180704721B1828942F4FF
:104370000052828104E082894DF6FF731A408281E7
:104380007047F0B50346002400260025002040F6C3
:104390006A17B94200D100BF1846C1F3421401F0B8
:1043A0001F06012707FA06F5012C01D10C3004E0A5
:1043B000022C01D1103000E014301AB107682F43ED
:1043C000076002E00768AF430760F0BD1AB1838A57
:1043D0000B43838202E0838A8B4383827047028A85
:1043E0004FF6F0731A400282028A0A430282704733
:1043F00082894FF2FF731A40828182890A43828147
:10440000704721B1828942F00202828104E08289F0
:104410004FF6FD731A4082817047028A4FF6DF73B0
:104420001A400282028A0A430282704721B1028A3C
:1044300042F48042028204E0028A4BF6FF731A4083
:1044400002827047C1F30802828070470146888863
:10445000C0F308007047818941F0010181817047F4
:10446000028BD2B20283028B42EA0122028370479E
:10447000028B02F47F420283028B0A43028370475D
:1044800021B1828A42F02002828204E0828A4FF6C1
:10449000DF731A408282704721B1828A42F0100293
:1044A000828204E0828A4FF6EF731A40828270475C
:1044B00021B1828A42F00802828204E0828A4FF6A9
:1044C000F7731A408282704721B1828942F4004218
:1044D000828103E08289C2F30E028281704721B19A
:1044E000828A42F40062828204E0828A4FF2FF7381
:1044F0001A4082827047828A4FF6FB731A4082828A
:10450000828A0A438282704721B1828A42F0020283
:10451000828204E0828A4FF6FD731A4082827047DD
:1045200002460020B1F5007F00D100BF13880B4088
:104530000BB1012000E00020704701F40072B2F5D9
:10454000007F00D100BFCA430280704770B50246A9
:10455000002400230025002040F66A16B14200D155
:1045600000BFC1F3421501F01F03012606FA03F351
:10457000012D02D19689334006E0022D02D1168A20
:10458000334001E0968A33400C12012606FA04F407
:104590001688344013B10CB1012000E0002070BD3A
:1045A00010B50022002340F66A14A14200D100BFDA
:1045B0000A1201249440A3B2DC43048010BD000021
:1045C000003801400044004000480040004C0040DA
:1045D0000050004001460020FE4A106800F03800FC
:1045E000084310607047FB49096821F00801F94A47
:1045F000116011460968014311607047F549096867
:1046000021F01001F34A116011460968014311605D
:104610007047F148EF494860F04848607047EE48FD
:10462000EC494860ED4848607047EA48006940F04E
:104630008000E84908617047E648006940F0800062
:10464000E449086170470420E249C96801F00101AA
:1046500009B101200EE0DF49C96801F0040109B188
:10466000022007E0DB49C96801F0100109B103200D
:1046700000E00420704700B502460423FFF7E3FF83
:10468000034603E0FFF7DFFF0346521E012B01D173
:10469000002AF7D102B90523184600BD30B50446FB
:1046A00004254FF43020FFF7E6FF0546042D17D10F
:1046B000C848006940F00200C649086108464461E4
:1046C000006940F0400008614FF43020FFF7D3FF4D
:1046D0000546C048006941F6FD710840BD490861C2
:1046E000284630BD10B504244FF43020FFF7C3FF37
:1046F0000446042C16D1B748006940F00400B549BF
:1047000008610846006940F0400008614FF430201D
:10471000FFF7B1FF0446AF48006941F6FB7108405E
:10472000AC490861204610BD00B502460423FFF7DE
:104730008AFF034603E0FFF786FF0346521E012B64
:1047400001D1002AF7D102B90523184600BD10B5E2
:1047500004244FF43020FFF7E7FF0446042C16D161
:104760009C48006940F004009A49086108460069C5
:1047700040F0400008614FF43020FFF7D5FF0446B9
:104780009448006941F6FB7108409249086120464F
:1047900010BD00208F49C96901F0020109B1012053
:1047A00000E00020704730B5A5250424FFF7F1FF95
:1047B00000B100254FF43020FFF75DFF0446042CC4
:1047C0003AD18548834988608448886008460069F2
:1047D00040F0200008610846006940F04000086190
:1047E0004FF43020FFF747FF0446042C1BD17948D3
:1047F000006941F6DF7108407649086108460069A2
:1048000040F01000086176480580E002FFF733FFB2
:104810000446052C10D06F48006941F6EF7108403E
:104820006C49086108E0052C06D06A48006941F629
:10483000EF71084067490861204630BD78B50646EB
:104840000C46042500200090E802FFF714FF0546FF
:10485000042D24D15F48006940F001005D490861E2
:104860003480E802FFF707FF0546042D10D1B01C85
:104870000090200C00990880E802FFF7FCFE054636
:104880005448006941F6FE7108405249086106E04B
:104890005048006941F6FE7108404E4908612846BB
:1048A00078BD70B504460D460426F002FFF7E3FE1E
:1048B0000646042E11D14748006940F001004549E1
:1048C00008612580F002FFF7D6FE064641480069E0
:1048D00041F6FE7108403F490861304670BD70B531
:1048E00005460E460424E002FFF7C5FE0446042CEC
:1048F00017D13948374988603848886008460069C8
:1049000040F0100008612E80E002FFF7B4FE04467C
:10491000052C06D02F48006941F6EF7108402D495B
:104920000861204670BD2DE9F04304464FF6FF763E
:104930003746B046B1460425E443E6B2C4F3072740
:10494000C4F307484FEA1469E802FFF794FE0546EE
:10495000042D49D120481F498860204888600846B6
:10496000006940F010000861FF2E06D01C48083096
:104970000680E802FFF77FFE0546042D08D1FF2FD1
:1049800006D017480A300780E802FFF774FE054694
:10499000042D0AD1B8F1FF0F07D011480C30A0F850
:1049A0000080E802FFF767FE0546042D0AD1B9F141
:1049B000FF0F07D00A480E30A0F80090E802FFF77A
:1049C0005AFE0546052D0FD00248006941F6EF71E9
:1049D000084007E00020024023016745AB89EFCD86
:1049E00000F8FF1F664908612846BDE8F08330B52E
:1049F000054604244FF43020FFF73DFE0446042C06
:104A000041D160485E4988605F4888600846006917
:104A100040F0200008610846006940F0400008614D
:104A20004FF43020FFF727FE0446042C22D15448CF
:104A3000006941F6DF710840514908610846006984
:104A400040F0100008611DB100205049088002E0CC
:104A5000A5204E4908804FF43020FFF70CFE044695
:104A6000052C10D04648006941F6EF7108404449D2
:104A7000086108E0052C06D04148006941F6DF7165
:104A800008403F490861204630BDF0B505460E4656
:104A9000174604243B483A4988603B488860E00256
:104AA000FFF7E9FD0446042C19D13548006940F0B0
:104AB00010003349086147F0F80030432843334978
:104AC000891C0880E002FFF7D6FD0446052C06D0BD
:104AD0002B48006941F6EF710840294908612046DA
:104AE000F0BD2748C069800870472548006A7047B4
:104AF00000202349096801F0200109B1012000E0EC
:104B00000020704729B11E4A126902431C4B1A61EA
:104B100004E01B4A12698243194B1A61704701462F
:104B20000020012908D1164AD26902F001020AB117
:104B3000012008E0002006E0114AD2680A400AB1CC
:104B4000012000E0002070470D49C8607047042034
:104B50000B49C96801F0010109B101200EE00849C3
:104B6000C96801F0040109B1022007E00449C968DD
:104B700001F0100109B1032000E00420704700009B
:104B80000020024023016745AB89EFCD00F8FF1FED
:104B90002DE9F04104460D462169206806F0B8FE73
:104BA00060606169606806F0B3FE06463146606881
:104BB00006F01CFFE0602846A16807F07DF9074673
:104BC000E16807F071F80646A16806F0A1FEA06052
:104BD0004FF07E50E16807F06FF90646616807F014
:104BE00063F82060BDE8F0812DE9F04F8DB00746F5
:104BF0000D4616464FF07C5B4FF07E500C90FE4801
:104C00000B900A90FD480168284607F055F9314697
:104C1000019007F049F88246F9480168504606F0CD
:104C200077FEF7494860F7484168F34807F044F9D0
:104C30008246F4488168504607F03EF90290F148F8
:104C4000C06880F000400390EE48C06880F00040EB
:104C50000490E94805903146029807F025F882460D
:104C6000E8480168504606F053FEE64908603146C0
:104C7000039807F019F88246E2484168504606F06A
:104C800047FEE04948603146049807F00DF8824637
:104C9000DC488168504606F03BFEDA4988603146C0
:104CA000059807F001F88246D648C168504606F0DC
:104CB0002FFED449C860084601684FF07E5006F0C8
:104CC000F3FF0446CF4881684FF07E5006F0ECFFBA
:104CD000069021464FF07E5006F0E6FF8246594688
:104CE00006F016FE81464946204606F07FFE0990F2
:104CF0004946069806F07AFE0890A046C1484168E9
:104D00004FF07E5006F0D0FF07904146099806F01C
:104D1000CBFF8246BB480168504607F0C2F8B9494C
:104D200008600799099806F0BFFF8246B5484168B8
:104D3000504607F0B6F8B34948604146089806F077
:104D4000B3FF8246AF488168504607F0AAF8AD49E4
:104D50008860DDE9071006F0A7FF8246A948C16810
:104D6000504607F09EF8A749C860A54841683846F4
:104D700007F0A2F80190099906F096FF8246A04834
:104D80004168504606F0C4FD9D4988600846416868
:104D9000384607F091F80190089906F085FF8246A1
:104DA00096480168504606F0B3FD9449086094485F
:104DB000806893490860084680680DB0BDE8F08FB0
:104DC000016042604FF07E538360C3608E4B03618D
:104DD0008E4B436170472DE9F04704460D4621682C
:104DE000A06806F061FF2060A168084606F05CFF3D
:104DF0000746616806F058FF0646216906F088FDFF
:104E00006060E168606806F04FFF8146E16806F087
:104E10004BFF0746616906F07BFD0646E168606866
:104E200006F042FF8046314606F0E0FDA0612168B1
:104E3000E06806F039FF8046294607F032F8074659
:104E4000A16906F031FF0646216806F061FD206089
:104E5000E168A06906F028FF07464FF07E5107F091
:104E600020F80646616806F01FFF60602068BDE814
:104E7000F08710B50B6803604B684360136883606C
:104E80005468C46094680461D46844614FF07E53F0
:104E900083615F4CC461002404621C4644628362E7
:104EA0000024C4625B4B03631C464463836310BDF0
:104EB0002DE9F05F04460D466168E06906F0F4FEF6
:104EC00081462168A06906F0EFFE8246494606F059
:104ED0001FFD20606168606A06F0E6FE8146216879
:104EE000206A06F0E1FE8246494606F011FD606048
:104EF0002169E06906F0D8FE8246A168A06906F043
:104F0000D3FE8346514606F003FD8146216B06F031
:104F1000FFFCA0606169606A06F0C6FE8146E16838
:104F2000A06906F0C1FE8246494606F0F1FCE06049
:104F30002169E06906F0B8FE8146A168206A06F0A2
:104F4000B3FE8246494606F0E3FC20616169606A6F
:104F500006F0AAFE8246E168206A06F0A5FE8346B6
:104F6000514606F0D5FC8146616B06F0D1FC6061CC
:104F7000E16AE06806F098FE8146A16AA06806F042
:104F800093FE8246494606F0C3FC0646E16A606924
:104F900006F08AFE8146A16A206906F085FE8246F7
:104FA000494606F0B5FC07463946E06A06F07CFE45
:104FB00082463146A06A06F077FE8346A16B06F072
:104FC000A7FC8146514606F0A3FC80464146304688
:104FD00006F00CFDE0634146384606F007FD20640C
:104FE0006168E06A06F060FE81462168A06A06F00A
:104FF0005BFE824649460FE06F12833A180100209B
:105000001804002024040020000048430000FA4354
:10501000CDCCCC3DBD37863506F07AFC8046414686
:10502000284606F049FF8246E16B06F03DFE8146C8
:10503000216806F06DFC20604146284606F03CFFE2
:105040008246216C06F030FE8146616806F060FC05
:105050006060A16AE06B06F027FE82464FF07E5149
:1050600006F01FFF8146A16806F01EFEA060E16AFF
:10507000E06B06F019FE82464FF07E5106F011FFFC
:105080008146E16806F010FEE060A16A206C06F03F
:105090000BFE82464FF07E5106F003FF81462169E8
:1050A00006F002FE2061E16A206C06F0FDFD8246FA
:1050B0004FF07E5106F0F5FE8146616906F0F4FD81
:1050C00060612068BDE8F09F2DE9F04106460F467B
:1050D0009046002418E0002512E004EB44022A4424
:1050E00057F8221004EB44022A4456F8220006F036
:1050F0000FFC04EB4401294448F82100681CC5B2A8
:10510000032DEADB601CC4B2032CE4DBBDE8F081B4
:105110002DE9F04106460F469046002418E0002590
:1051200012E004EB44022A4457F8221004EB440234
:105130002A4456F8220006F0BFFE04EB440129443D
:1051400048F82100681CC5B2032DEADB601CC4B21C
:10515000032CE4DBBDE8F0812DE9F0478046894669
:10516000164600242DE0002527E0002004EB440132
:10517000294446F8210000271BE007EB47022A4498
:1051800059F8221004EB44023A4458F8220006F081
:105190008BFD824604EB4400284456F8201050460C
:1051A00006F0B6FB04EB4401294446F82100781CC4
:1051B000C7B2032FE1DB681CC5B2032DD5DB601C31
:1051C000C4B2032CCFDBBDE8F08703B5CFB0CC4A27
:1051D00010465099FFF778FFCA4ACB491046FFF7AF
:1051E00073FF44AAC6494F98FFF792FF17AAC74911
:1051F000C448FFF769FF189809901F98089009990B
:1052000006F052FD0A901A98014609900A9806F095
:105210004BFD0C901E9807901C980690079906F07D
:1052200043FD0890179801460790089806F03CFD4A
:105230000A901B98059019980490059906F034FD82
:1052400006901D9801460590069806F02DFD0890E1
:105250001A98039019980290039906F025FD04907E
:105260001E9801460390049806F01EFD06901C98B7
:10527000019018980090019906F016FD02901D9873
:1052800001460190029806F00FFD04901B980190D2
:1052900017980090019906F007FD02901F980146AB
:1052A0000190029806F000FD0390049906F030FB8F
:1052B0000590069906F02CFB0790089906F0FCFD76
:1052C00009900A9906F0F8FD0B900C9906F0F4FD90
:1052D0000D901E9809901C980890099906F0E4FC1E
:1052E0000B901F9809901B980890099906F0DCFC18
:1052F0000A900B9906F0E0FD0C900D9906F076FBF4
:105300000E901F98099018980890099906F0CCFC07
:105310000B901E98099019980890099906F0C4FC02
:105320000A900B9906F0C8FD0C900D9906F05EFBF3
:105330000F901D9809901B980890099906F0B4FCED
:105340000B901E98099018980890099906F0ACFCEB
:105350000A900B9906F0B0FD0C900D9906F046FBF3
:1053600010901F9809901A980890099906F09CFCD3
:105370000B901D9809901C980890099906F094FCD0
:105380000A900B9906F098FD0C900D9906F02EFBF3
:1053900011901D98099019980890099906F084FCBD
:1053A0000B901F98099017980890099906F07CFCBB
:1053B0000A900B9906F080FD0C900D9906F016FBF3
:1053C00012901C98099017980890099906F06CFCA7
:1053D0000B901A98099019980890099906F064FCA6
:1053E0000A900B9906F068FD0C900D9906F0FEFAF4
:1053F00013901D9809901B980890099906F054FC89
:105400000B901E9809901A980890099906F04CFC88
:105410000A900B9906F050FD0C900D9906F0E6FAF3
:1054200014901E98099017980890099906F03CFC72
:105430000B901D98099018980890099906F034FC73
:105440000A900B9906F038FD0C900D9906F0CEFAF3
:1054500015901A98099018980890099906F024FC5C
:105460000B901B98099017980890099906F01CFC5E
:105470000A900B9906F020FD0C900D9906F0B6FAF3
:10548000169032AA0EA91F48FFF766FE29AA44A962
:1054900032A8FFF761FE1A4A29A91046FFF714FE49
:1054A00020AA32A91A48FFF733FE3BAA154920A8C3
:1054B000FFF752FE00204E901DE000204D9013E0BB
:1054C0004E9800EB40014D9808443BA951F820103C
:1054D0004E9800EB40024D9810440A4A42F82010C2
:1054E0004D98401CC0B24D904D980328E8DB4E9873
:1054F000401CC0B24E904E980328DEDB51B000BD78
:10550000F403002088000020F4000020D0000020D8
:10551000AC0000202DE9F05F04464FF07F594FF0BA
:105520007C51204606F0C0FB824625462E46FE48AA
:10553000A0EB660635462946504606F0B5FB834685
:10554000294606F0B1FB8046494606F0AAFC07460C
:10555000294606F0A9FB05462846BDE8F09F10B590
:1055600004460021204606F06BFB02D284F0004086
:1055700010BD2046FCE70FB5ABB0EC4801680068F1
:1055800006F092FB1490EA480168E848006806F0CB
:105590008BFB1390E7480168E448006806F084FB41
:1055A0001290E5480168E148006806F07DFB119023
:1055B000DF480168006806F077FB1090DD4801685D
:1055C000DB48006806F070FB0F90DB480168D848A4
:1055D000006806F069FB0E90D6480168006806F086
:1055E00063FB0D90D4480168D248006806F05CFB6C
:1055F0000C90D1480168006806F056FB0B902D987E
:1056000006F05AF9CD4ACE4BCDE9060105F07AFEF7
:10561000CDE9080105F024FC0A902B9806F04CF91E
:10562000C84AC94BCDE9040105F0FCFCC74AC84B88
:10563000CDE9060105F066FECDE9080105F010FC94
:105640002B902C9806F038F9BE4ABF4BCDE90401E7
:1056500005F0E8FCBD4ABE4BCDE9060105F052FE5F
:10566000CDE9080105F0FCFB2C902D9806F024F9FB
:10567000B44AB54BCDE9040105F0D4FCB34AB44BB0
:10568000CDE9060105F03EFECDE9080105F0E8FB95
:105690002D903199084606F007FB0890309908468E
:1056A00006F002FB06902E99084606F0FDFA0590DA
:1056B000069906F02DF90790089906F029F9099046
:1056C000FFF728FF239023992E9806F0EDFA2E90ED
:1056D0002399309806F0E8FA30902399319806F033
:1056E000E3FA31903499084606F0DEFA08903399CF
:1056F000084606F0D9FA06903299084606F0D4FA20
:105700000590069906F004F90790089906F000F94B
:105710000990FFF7FFFE23902399329806F0C4FA10
:1057200032902399339806F0BFFA33902399349836
:1057300006F0BAFA349012990E9806F0E9F806903D
:10574000349906F0B1FA089011990F9806F0B4FB5D
:105750000490339906F0A8FA06904FF07C500D990A
:1057600006F0AAFB03900B9906F0A6FB0490329971
:1057700006F09AFA0590069906F0CAF8079008997B
:1057800006F0C6F84FF08041099006F08DFA22909D
:1057900013990C9806F090FB0690349906F084FA61
:1057A00008904FF07C50109906F086FB03900B99FF
:1057B00006F082FB0490339906F076FA0690119970
:1057C0000F9806F0A5F80490329906F06DFA05904E
:1057D000069906F09DF80790089906F099F84FF0A1
:1057E0008041099006F060FA21904FF07C501099AA
:1057F00006F062FB05900D9906F05EFB07904FF0F6
:105800008040349906F050FA0690079906F04CFA59
:10581000099013990C9806F07BF805904FF08040A2
:10582000339906F041FA0490059906F03DFA079085
:1058300012990E9806F040FB05904FF08040329987
:1058400006F032FA0490059906F02EFA06900799B0
:1058500006F05EF80890099906F05AF82090219910
:10586000084606F021FA04902299084606F01CFA30
:105870000390049906F04CF8059006F01DF8CDE968
:10588000060105F0B1FACDE9080105F0E9FA1F902B
:1058900020981E9012990E9806F00EFB4FF0804152
:1058A000099006F001FA1D900C99139806F030F853
:1058B0004FF08041099006F0F7F91C901099149868
:1058C00006F0FAFA08900D9906F0F6FA09900B998D
:1058D00006F01EF81B9012990E9806F0EDFA07904C
:1058E0004FF080401E9906F0DFF90690079906F008
:1058F000DBF909904FF07C500D9906F0DDFA059028
:105900000B9906F0D9FA07904FF080401F9906F0E6
:10591000CBF90690079906F0C7F90890099905F0A8
:10592000F7FF1A900C9915E0DF59375F1C01002032
:1059300020010020240100202801002030689DC89B
:10594000FE3F9F3F52B81E85EB613040AF99D76C48
:1059500040DF913F139805F0DBFF07904FF0804048
:105960001E9906F0A1F90690079906F09DF9099095
:1059700011990F9806F0A0FA07904FF080401F99F8
:1059800006F092F90690079906F08EF908900999A9
:1059900005F0BEFF19904FF07C50109906F08CFA7C
:1059A00005900D9906F088FA07904FF080401E99F7
:1059B00006F07AF90690079906F076F909900E99A3
:1059C000129805F0A5FF07904FF080401F9906F050
:1059D0006BF90690079906F067F90890099905F0A8
:1059E00097FF18901999349806F05EF90790189966
:1059F000339806F059F90690079906F05DFA099078
:105A00001C99319806F050F907901B99309806F0D0
:105A10004BF90690079906F04FFA0890099905F09E
:105A200077FF17901899329806F03EF907901A9967
:105A3000349806F039F90690079906F03DFA099076
:105A40001B992E9806F030F907901D99319806F0B1
:105A50002BF90690079906F02FFA0890099905F09E
:105A600057FF16901A99339806F01EF90790199966
:105A7000329806F019F90690079906F01DFA099078
:105A80001D99309806F010F907901C992E9806F091
:105A90000BF90690079906F00FFA0890099905F09E
:105AA00037FF15900021179806F062F86FD000219B
:105AB000169806F05DF86AD00021159806F058F89F
:105AC00065D0179805F0F8FEFD4AFE4BCDE90001C0
:105AD00005F018FC4FF06042FB4BCDE9020105F0E8
