:020000040800F2
:10000000780F0020712B0008652900086729000877
:100010006B2900086F290008732900080000000000
:100020000000000000000000000000007729000828
:1000300079290008000000007B2900084B280008EF
:100040008B2B00088B2B00088B2B00088B2B0008B8
:100050008B2B00088B2B00088B2B00088B2B0008A8
:100060008B2B00088B2B00088B2B00088B2B000898
:100070008B2B00088B2B00088B2B00088B2B000888
:100080008B2B00088B2B00088B2B00088B2B000878
:100090007D2900088B2B00088B2B00088B2B000878
:1000A0008B2B0008119600088B2B00088B2B000867
:1000B0008B2B0008A92200080D2300088B2B0008B9
:1000C0008B2B00088B2B00088B2B00088B2B000838
:1000D0008B2B00084B2900088B2B00088B2B00086A
:1000E0008B2B00088B2B00088B2B00088B2B000818
:1000F0008B2B00088B2B00088B2B00088B2B000808
:100100008B2B00088B2B00088B2B00088B2B0008F7
:100110008B2B00088B2B00088B2B00088B2B0008E7
:100120008B2B00088B2B00088B2B00088B2B0008D7
:10013000DFF80CD00CF0DAFC00480047450100085D
:10014000780F002086B009F060FF02F01DFB4FF42D
:10015000A06002F01FFD4FF4E13002F0A9FB02F0B5
:10016000F5FA01F026FE00F09CFB00F03CF908F0E7
:10017000FAF96D4807F020FF472141F2873001F07E
:1001800049FF41F61F414CF24F3002F062F847211F
:1001900044F61F6001F0F9FF472144F61F6001F0AB
:1001A0006CFF4FF4E16002F02CFB002009F0F4FF3B
:1001B0004FF42F7002F025FB012009F0EDFF09F04C
:1001C00093FF09F086FF0BF04DF909F039FD00208F
:1001D000564908605649C1F894014FF47A7002F00C
:1001E00010FB0120514908605149C1F8940100F009
:1001F000F7FC012211464F4803F005FD012211468C
:100200004D4803F000FD8EE04C4948690CF006FAB9
:1002100004B24A4908690CF001FA05B24749C868B6
:100220000CF0FCF906B2464988680CF0F7F907B201
:10023000434948680CF0F2F90FFA80F84049086821
:100240000CF0ECF90FFA80F90020CDE90265CDE958
:1002500004403C48B0F904003A49B1F90210CDE934
:1002600000103848B0F900303A464146484608F098
:100270009EFB012002F0C5FA00200090324B019055
:100280001A6859689868002308F014FD012002F0EC
:10029000B8FA0020029003900490059000902B4C37
:1002A0000190A488A3B2294CA489A2B2274C248926
:1002B000A1B2264C2488A0B208F03FFC012002F035
:1002C000A0FA0020009001900290214C0390248815
:1002D000A4F57A74A3B21F4C2488A4F57A74A2B250
:1002E0001D4C2488A4F57A74A1B21C4C2488A4F572
:1002F0007A74A0B208F087FD012002F082FA184853
:10030000007838B109F0EAFC012002F07AFA002006
:10031000134908701348007828B1012002F071FADF
:100320000020104908706FE7000048439001214207
:1003300000002142002C014000040040580300202E
:1003400000040020200400207C0400202C04002055
:100350001E0200201C0200201A02002018020020A9
:10036000200200202102002070B505460C4601F055
:1003700039FD182001F0EAFD01F075FD18B101F01A
:1003800051FD012070BD284601F0E0FD01F06BFD3C
:10039000204601F0DBFD01F066FD18B101F042FDE1
:1003A0000120EFE701F03EFD0020EBE770B50446C9
:1003B00001F018FD182001F0C9FD01F054FD2046A0
:1003C00001F0C4FD01F04FFD01F00CFD192001F01A
:1003D000BDFD01F048FD002001F0E3FD054601F000
:1003E00021FD284670BD10B500240020FFF7DEFF78
:1003F0000446482C04D0CFA00CF0E4FB012010BD33
:10040000D1A00CF0DFFB11210A20FFF7ADFF002087
:10041000D3498861C86108624FF07E50C862486263
:100420008862D0488864D048C864D0480865D048FD
:100430000863D0484863D0488863D048C863D04830
:100440000864D04848640A2002F0DBF90020D6E7AF
:100450002DE9F04106460F4614461D4601F0C2FC48
:10046000002141EA4601C8B201F070FD01F0FBFC39
:1004700020B101F0D7FC0120BDE8F081384601F041
:1004800065FD01F0F0FC01F0ADFC012101EB46013E
:10049000C8B201F05BFD01F0E6FC0DE0012C04D1D7
:1004A000002001F07EFD287003E0012001F079FDBD
:1004B0002870601EC4B26D1C002CEFD101F0B2FC9C
:1004C0000020D9E72DE9F04F89B007AB06220321C0
:1004D0000C20FFF7BDFF06900698B8B99DF81C00E8
:1004E0009DF81D1040EA01200FFA80F99DF81E00CA
:1004F0009DF81F1040EA01200FFA80FA9DF82000B5
:100500009DF8211040EA01200FFA80FB9449886C85
:100510000CF0B1F8CDE9020148460CF061F807464D
:100520000022994B0BF0DFFFCDE90001DDE902234A
:100530000BF061FFCDE904010CF0B0F804468849E6
:10054000C86C0CF098F8CDE9020150460CF048F860
:1005500000228D4BCDE900010BF0C5FF0746DDE918
:1005600002230BF048FFCDE904010CF097F8054693
:100570007B49086D0CF07FF8CDE9020158460CF07C
:100580002FF807460022814B0BF0ADFFCDE90001AB
:10059000DDE902230BF02FFFCDE904010CF07EF81A
:1005A00006466F49886B31460BF014FE6C49059086
:1005B000486B29460BF00EFE80466949086B2146C0
:1005C0000BF008FE414604900BF0ACFD0746059980
:1005D0000BF0A8FD62490860086C31460BF0FAFD8B
:1005E0005F490590C86B29460BF0F4FD80465C49D5
:1005F000486B21460BF0EEFD414604900BF092FD56
:10060000074605990BF08EFD55494860486C314608
:100610000BF0E0FD52490590086C29460BF0DAFD1D
:1006200080464F49886B21460BF0D4FD414604902B
:100630000BF078FD074605990BF074FD484988607A
:1006400008680CF018F8074600224F4B0BF0D9FE53
:10065000CDE904010CF022F84149C86048680CF06B
:100660000AF807460022484B0BF0CBFECDE9040107
:100670000CF014F83A49086188680BF0FCFF00227E
:10068000414BCDE904010BF0BCFE07460CF006F827
:100690003349486111210A20FFF766FE002009B0A6
:1006A000BDE8F08F4FF47A7002F0ABF84FF47A7037
:1006B00002F0A7F84FF47A7002F0A3F84FF47A70C2
:1006C00002F09FF804E0FFF7FDFE642002F099F8C5
:1006D000F9E72DE9F04105460E461746984601F028
:1006E00081FB002141EA4501C8B201F02FFC01F075
:1006F000BAFB20B101F096FB0120BDE8F081304645
:1007000001F024FC01F0AFFB00240CE018F8040019
:1007100001F01CFC01F0A7FB18B101F083FB0120E4
:10072000EBE7601CC4B2BC42F0DB01F07BFB0020B5
:10073000E3E70000414B3839373520494E49542012
:100740004552524F520A0000414B38393735204943
:100750004E495420535543434553530A000000006B
:100760005803002046E95D3E6C07433DBBFEC53E95
:10077000AFFF743F40C9873CF9ED5B3C06867C3F88
:10078000F8674B3CF7AB873F00D074400050754092
:1007900070B505460C4601F025FBD02001F0D6FBD4
:1007A00001F061FB18B101F03DFB012070BD28464E
:1007B00001F0CCFB01F057FB204601F0C7FB01F034
:1007C00052FB18B101F02EFB0120EFE701F02AFBEC
:1007D0000020EBE770B504460025BC2C01DB0125A9
:1007E00010E0622C01DB02250CE02A2C01DB032542
:1007F00008E0142C01DB042504E00A2C01DB0525AC
:1008000000E0062529461A20FFF7C2FF70BD70B52B
:100810000446B4F57A7F01DD4FF47A74042C00DAD3
:1008200004244FF47A7090FBF4F0401EC5B22946C0
:100830001920FFF7ADFF0546264604EBD671C1F33C
:100840004F00FFF7C7FF70BD70B5044601F0CAFA4C
:10085000D02001F07BFB01F006FB204601F076FB87
:1008600001F001FB01F0BEFAD12001F06FFB01F0B5
:10087000FAFA002001F095FB054601F0D3FA28466C
:1008800070BD10B50446E006010E1C20FFF780FF86
:1008900010BD10B50446E006010E1B20FFF778FFDF
:1008A00010BD10B580216B20FFF772FF642001F0AE
:1008B000A8FF00216B20FFF76BFF0320FFF7E9FF84
:1008C0000220FFF7DEFF4FF41670FFF7A0FF0021B4
:1008D0003820FFF75DFF00216A20FFF759FF002154
:1008E0002320FFF755FF80213720FFF751FF7520A8
:1008F000FFF7AAFF0446682C0FD101216B20FFF7F8
:1009000047FF00216C20FFF743FF4FF49670FFF77D
:100910007EFFFBA00CF056F904E0FEA00CF052F9AB
:10092000012010BD40F28120FE49C88005200881C9
:100930001720488140F2C710FB4988816FF0810081
:10094000C88140F29B1008820020EAE72DE9F041BF
:1009500006460F4614461D4601F044FA002141EABE
:100960004601C8B201F0F2FA01F07DFA20B101F0BF
:1009700059FA0120BDE8F081384601F0E7FA01F0AC
:1009800072FA01F02FFA012101EB4601C8B201F021
:10099000DDFA01F068FA0DE0012C04D1002001F02D
:1009A00000FB287003E0012001F0FBFA2870601EB4
:1009B000C4B26D1C002CEFD101F034FA0020D9E74D
:1009C0002DE9F84F6B46022241216820FFF7BEFF58
:1009D0009DF801009DF8001040EA01200FFA80FA0E
:1009E00050460BF0FDFD80460022D04B0BF07BFD06
:1009F0000646CF4ACF4B0BF05DFC04460BF04EFE93
:100A00008346CD4958460BF0E5FB04460BF006FE45
:100A100000B2BDE8F88F2DE9FC4780468946924632
:100A20006B46062243216820FFF790FF0446A4B9D5
:100A30009DF801009DF8001040EA012005B29DF8E4
:100A400003009DF8021040EA012006B29DF805005F
:100A50009DF8041040EA012007B2B248C088281A65
:100A600000B2B049088008460089301A00B24880B8
:100A700008464089381A00B28880084600880880F5
:100A800008464088404200B248800846808840427C
:100A900000B288802046BDE8FC872DE9FC5F8246D5
:100AA0006B4606223B216820FFF750FF0446A4B99D
:100AB0009DF801009DF8001040EA012005B29DF864
:100AC00003009DF8021040EA012006B29DF80500DF
:100AD0009DF8041040EA012007B298490868984937
:100AE0000BF078FB834697490BF0A6FB804628461F
:100AF0000BF068FD83469448016858460BF06AFB8A
:100B0000814641460BF060FB874908608B49486885
:100B10008B490BF05FFB83468A490BF08DFB8046C7
:100B200030460BF04FFD83468748416858460BF02E
:100B300051FB814641460BF047FB7B4948607F49AA
:100B400088687F490BF046FB83467E490BF074FBB7
:100B5000804638460BF036FD83467B488168584610
:100B60000BF038FB814641460BF02EFB6E49886046
:100B70000846006880F0004008602046BDE8FC9F01
:100B80002DE9F04105460E461746984601F02AF930
:100B9000002141EA4501C8B201F0D8F901F063F93A
:100BA00020B101F03FF90120BDE8F081304601F0AD
:100BB000CDF901F058F900240CE018F8040001F018
:100BC000C5F901F050F918B101F02CF90120EBE75B
:100BD000601CC4B2BC42F0DB01F024F90020E3E762
:100BE0002DE9F04F89B01E2008904FF000094FF01A
:100BF000000A4FF0000B002006900790052003909C
:100C00006FF00400029053E000BF0A2001F0F9FDEC
:100C10006B46062243216820FFF798FE0746A7B9D6
:100C20009DF801009DF8001040EA012004B29DF8F3
:100C300003009DF8021040EA012005B29DF805006E
:100C40009DF8041040EA012006B2BDF81800201AF1
:100C500000B2ADF81000BDF81A00281A00B2ADF8C5
:100C60001200BDF81C00301A00B2ADF81400ADF847
:100C70001840ADF81A50ADF81C60BDF910000528F9
:100C8000C3DCBDF9100010F1050FBEDBBDF9120089
:100C90000528BADCBDF9120010F1050FB5DBBDF96E
:100CA00014000528B1DCBDF9140010F1050FACDB10
:100CB0000898411EC9B208910028A5D180464EE08F
:100CC000052001F09EFD6B46062243216820FFF7B8
:100CD0003DFE0746D7BB9DF801009DF8001040EA95
:100CE000012004B29DF803009DF8021040EA0120A3
:100CF00005B29DF805009DF8041040EA012026E0A9
:100D00004D505520494E4954205355434345535364
:100D10000A0000004D505520494E4954204552527A
:100D20004F520A00200400200004002000407540BB
:100D3000A4703D0AD74342400000C8420C00002086
:100D400000F07F450AE81C410000002000E006B2E8
:100D5000A144AA44B34408F1010000F0FF08B8F12F
:100D6000C80FADDBC82099FBF0F000B2FE49C88087
:100D7000C8209AFBF0F000B20881C8209BFBF0F07D
:100D800000B248810846B0F90A30B0F90820B0F93D
:100D90000610F6A00BF016FF09B0BDE8F08F2DE9A4
:100DA000FC5F002500260027AB4629E0052001F066
:100DB00028FD6B4606223B216820FFF7C7FD04464D
:100DC000BCB99DF801009DF8001040EA01200FFA1F
:100DD00080F89DF803009DF8021040EA01200FFA08
:100DE00080F99DF805009DF8041040EA01200FFAF3
:100DF00080FA45444E4457440BF1010000F0FF0BCC
:100E0000BBF1640FD2DB642095FBF0F000B2DE4949
:100E10008881642096FBF0F000B2C881642097FBC3
:100E2000F0F0A0F5805000B208820846B0F910300A
:100E3000B0F90E20B0F90C10CCA00BF0C3FEBDE849
:100E4000FC9F70B50546002400BF05E04FF47A70A2
:100E500001F0D7FC601CC4B2082CF7DB70BD2DE993
:100E6000FC416B4606223B216820FFF76FFD0746D9
:100E7000A7B99DF801009DF8001040EA012004B2D6
:100E80009DF803009DF8021040EA012005B29DF88C
:100E900005009DF8041040EA012006B220460BF040
:100EA00091FBB949086028460BF08CFBB6494860B5
:100EB00030460BF087FBB44988600846006880F034
:100EC000004008600A2001F09CFCBDE8FC8130B5C0
:100ED00002460B46002011E0002442F82040002189
:100EE00008E0002400EB400503EBC50545F8214070
:100EF0004C1C21B20629F4DB441C20B20628EBDB93
:100F000030BD2DE9F05F06460F46914600244AE0C9
:100F1000601C05B243E004EB440207EBC20252F846
:100F2000241004EB440207EBC20252F825000BF038
:100F300083F98246002150460BF0CCFB2DD056F8A9
:100F4000241050460BF046F9834656F825100BF056
:100F50003EF946F82500A8461CE008EB480007EBE0
:100F6000C00050F8241050460BF034F9834608EBCB
:100F7000480007EBC00050F8251058460BF027F941
:100F800008EB480107EBC10141F8250008F1010019
:100F90000FFA80F8B8F1060FDFDB681C05B2062DEA
:100FA000B9DB601C04B2062CB2DB052434E004EB90
:100FB000440207EBC20252F8241056F824000BF04A
:100FC0003BF946F824004FF07E5004EB440107EB58
:100FD000C10141F8240000251AE004EB440007EBAE
:100FE000C00050F825A056F8241050460BF0F2F837
:100FF000834656F825100BF0EAF846F82500002045
:1010000004EB440107EBC10141F82500681C05B25F
:10101000A542E2DB601E04B2002CC8DA002405E021
:1010200056F8240049F82400601C04B2062CF7DBB3
:10103000BDE8F09F2DE9F04F8BB006460F46904675
:101040009A464FF07E50099000243DE0E01C58F88D
:10105000209058F824105AF824000BF0B5F80A90A4
:10106000494648460BF0B6F801900A990BF0B2F8E1
:1010700002900A990BF0AEF8834609990BF0A7F895
:10108000099049464FF080400BF0A4F84946029081
:101090000BF0A0F883460A990BF09CF803A941F8DD
:1010A000240049464FF040400BF094F802900A9912
:1010B0000BF090F883460A990BF08CF8E11C03AA18
:1010C00042F82100601C04B2032CBFDB00242BE09B
:1010D00003A951F8240009990BF07CF8834656F8CF
:1010E00024100BF01FF846F82400002518E003AA8E
:1010F00052F8251052F824000BF06CF8834604EBEC
:10110000440007EBC00050F8251058460BF00AF8D1
:1011100004EB440107EBC10141F82500681C05B24E
:10112000062DE4DB601C04B2062CD1DB0BB0BDE85D
:10113000F08F2DE9F04FC5B007460E4614464FF02C
:101140000008DFF8489012484490002041904290F7
:10115000439018213BA80AF0DAFF182135A80AF0BD
:10116000D6FF18212FA815E02004002067786F66AD
:10117000663A25640967796F66663A256409677A75
:101180006F66663A25640A00000400205F708930AB
:101190000000C8420AF0BBFF90210BA80AF0B7FF7D
:1011A00000200A903D903C903B90FE4840903F903C
:1011B0003E9090E008F101000FFA80F80BA92FA8EB
:1011C000FFF785FE002518E005EB450057F82000E5
:1011D000419005EB450007EB80004068429005EB2D
:1011E000450007EB80008068439041AB3BAA0BA908
:1011F0002FA8FFF71FFF681C05B2062DE4DB35AAF8
:101200000BA92FA8FFF77DFE409908460AF0E2FFE0
:1012100082463A9908460AF0DDFF834651460BF0B4
:101220000BF809903F9908460AF0D4FF8346399994
:1012300008460AF0CFFF594606900AF0FDFF8246A5
:101240003E9908460AF0C6FF0590389908460AF00C
:10125000C1FF049005990AF0EFFF06903799084600
:101260000AF0B8FF0590369908460AF0B3FF0390DC
:10127000359908460AF0AEFF0190359908460AF004
:10128000A9FF009001990AF04DFF029003990AF01E
:1012900049FF049005990AF045FF834606990AF034
:1012A00041FF514607900AF03DFF089009990AF066
:1012B00039FF449000250CE035AA52F825103BAACE
:1012C00052F825000AF080FF3BA941F82500681C70
:1012D00005B2062DF0DBB8F1140F05DA4946449843
:1012E0000BF002FAFFF466AFAF493E980AF072FFC6
:1012F0002060AD493F980AF06DFF6060AA494098B0
:101300000AF068FFA06021683B980AF063FF306034
:1013100061683C980AF05EFF7060A1683D980AF031
:1013200059FFB0604FF07E5120680AF04DFF20F069
:10133000004A9E4950460BF0D7F917D34FF07E5123
:1013400060680AF041FF20F0004A984950460BF0CF
:10135000CBF90BD34FF07E51A0680AF035FF20F097
:10136000004A924950460BF0BFF901D201200A9081
:10137000306820F0004A8E4950460BF0B5F90FD383
:10138000706820F0004A8A4950460BF0ADF907D347
:10139000B06820F0004A864950460BF0A5F901D20A
:1013A00001200A900A9845B0BDE8F08F00B59FB0C3
:1013B000002019901A901B907E4A07CA16AB07C3EB
:1013C00000207D49088006E0FFF749FD7A48008843
:1013D000401C7949088078480088C828F4DB002040
:1013E0001D9016E000211D9800EB4000734A42F862
:1013F00020101D9800EB400002EB800041601D981A
:1014000000EB400002EB800081601D98401CC0B2E0
:101410001D901D980628E5DB002067490880684973
:1014200088604860086067A00BF0CCFB0520FFF7E0
:1014300008FD00206049088042E0FFF710FD674882
:101440000068594913900AF0C5FE654914900AF0E6
:10145000F3FE15905A4800680146149015980AF05A
:1014600061FE574908605D4840684F4913900AF093
:10147000B1FE5B4914900AF0DFFE159050484068B9
:101480000146149015980AF04DFE4D4948605348A6
:101490008068454913900AF09DFE514914900AF066
:1014A000CBFE1590464880680146149015980AF0C6
:1014B00039FE4349886040480088401C3E49088006
:1014C0003D480088C828B8DB3D480068454915906C
:1014D0000AF0B2FE39490860394840684149159020
:1014E0000AF0AAFE35494860354880683D491590A4
:1014F0000AF0A2FE3149886000202F4908800021AF
:101500002F4881604160016037A00BF05BFB2B48E6
:1015100080680F900BF0AFF8CDE9140127484068C0
:101520000F900BF0A8F8CDE91201244800680F9045
:101530000BF0A1F8CDE91001DDE91401CDE90201BC
:10154000DDE91201CDE9000129A0DDE910230BF04E
:1015500039FB4FF47A7001F054F92BA00BF032FBF9
:101560000520FFF76EFC0020134908807FE0FFF79D
:1015700076FC1A4800680C4913900AF02BFE1849B3
:1015800014900AF059FE15900D4800680146149019
:1015900015980AF0C7FD0A490860104840680249DA
:1015A00013903BE07FD6D03D0AE81C41CDCC4C3EA9
:1015B0000000604070EB000818000020AC03002021
:1015C000F403002066697273742063616C207A688A
:1015D000656E676D69616E0A0000000000040020FE
:1015E00000F07F45000048436F6E65206F6B0A0076
:1015F000783A252E326609793A252E3266097A3AEA
:10160000252E32660A0A00007365636F6E642063DC
:10161000616C20686561642075700A000AF0DAFD6B
:10162000FE4914900AF008FE1590FD4840680146F6
:10163000149015980AF076FDF9494860F9488068D9
:10164000F94913900AF0C6FDF44914900AF0F4FD2C
:101650001590F34880680146149015980AF062FDD1
:10166000EF498860F1480088401CF0490880EF4845
:101670000088C828FFF67BAFE9480068EC49159060
:101680000AF0DAFDEB49C860E5484068E849159082
:101690000AF0D2FDE7490861E1488068E449159005
:1016A0000AF0CAFDE34948610020E0490880DC49AE
:1016B000886048600860E0A00BF084FADD4840696B
:1016C0000F900AF0D8FFCDE91401DA4800690F90B5
:1016D0000AF0D1FFCDE91201D648C0680F900AF098
:1016E000CAFFCDE91001DDE91401CDE90201DDE910
:1016F0001201CDE90001AFF20810DDE910230BF073
:1017000061FA4FF47A7001F07CF8CDA00BF05AFA30
:101710000520FFF796FB0020C449088042E0FFF750
:101720009EFBC0480068C04913900AF053FDBB49B6
:1017300014900AF081FD1590B94800680146149094
:1017400015980AF0EFFCB6490860B6484068B649FB
:1017500013900AF03FFDB14914900AF06DFD159009
:10176000AF4840680146149015980AF0DBFCAC497C
:101770004860AC488068AC4913900AF02BFDA7493B
:1017800014900AF059FD1590A54880680146149000
:1017900015980AF0C7FCA2498860A4480088401C3C
:1017A000A2490880A1480088C828B8DB9C48006886
:1017B0009F4915900AF040FD9E498861984840680D
:1017C0009B4915900AF038FD9A49C8619448806891
:1017D000974915900AF030FD964908620020934918
:1017E00008808F498860486008609AA00BF0EAF989
:1017F0009048006A0F900AF03EFFCDE914018D4831
:10180000C0690F900AF037FFCDE91201894880695D
:101810000F900AF030FFCDE91001DDE91401CDE9A8
:101820000201DDE91201CDE90001AFF23C20DDE962
:1018300010230BF0C7F94FF47A7000F0E2FF88A094
:101840000BF0C0F90520FFF7FCFA0020774908806B
:1018500042E0FFF704FB73480068734913900AF0F5
:10186000B9FC6E4914900AF0E7FC15906C480068CA
:101870000146149015980AF055FC694908606948BA
:101880004068694913900AF0A5FC644914900AF075
:10189000D3FC1590624840680146149015980AF0F0
:1018A00041FC5F4948605F4880685F4913900AF0D7
:1018B00091FC5A4914900AF0BFFC15905848806872
:1018C0000146149015980AF02DFC55498860574838
:1018D0000088401C5549088054480088C828B8DB57
:1018E0004F480068524915900AF0A6FC51494862D9
:1018F0004B4840684E4915900AF09EFC4D4988625D
:10190000474880684A4915900AF096FC4949C862E0
:10191000002046490880424988604860086055A018
:101920000BF050F94348C06A0F900AF0A4FECDE9CD
:1019300014014048806A0F900AF09DFECDE9120123
:101940003C48406A0F900AF096FECDE91001DDE9AF
:101950001401CDE90201DDE91201CDE90001AFF288
:101960007030DDE910230BF02DF94FF47A7000F0A0
:1019700048FF43A00BF026F90520FFF762FA00208C
:101980002A49088042E0FFF76AFA2648006826499B
:1019900013900AF01FFC214914900AF04DFC159099
:1019A0001F4800680146149015980AF0BBFB1C49BB
:1019B00008601C4840681C4913900AF00BFC17494A
:1019C00014900AF039FC15901548406801461490AF
:1019D00015980AF0A7FB124948601248806812491E
:1019E00013900AF0F7FB0D4914900AF025FC1590AE
:1019F0000B4880680146149015980AF093FB08493B
:101A000088600A480088401C084908800748008808
:101A1000C828B8DB0248006805493BE000F07F4574
:101A2000F4030020000400200AE81C4118000020F4
:101A300000004843AC03002074776F206F6B0A00EE
:101A400074686972642063616C206C6566742075CB
:101A5000700A00007468726565206F6B0A000000F0
:101A6000666F75722063616C207269676874207597
:101A7000700A0000666F7572206F6B0A000000002C
:101A8000666976652063616C207461696C2075708D
:101A90000A00000015900AF0CFFBA3490863A34891
:101AA0004068A34915900AF0C7FB9F4948639F48C7
:101AB00080689F4915900AF0BFFB9B49886300200E
:101AC0009C49088099498860486008609AA00BF09A
:101AD00079F89548806B0F900AF0CDFDCDE914019F
:101AE0009148406B0F900AF0C6FDCDE912018E4877
:101AF000006B0F900AF0BFFDCDE91001DDE9140184
:101B0000CDE90201DDE91201CDE90001AFF220507B
:101B1000DDE910230BF056F84FF47A7000F071FEF7
:101B200088A00BF04FF80520FFF78BF906F0D2FBE9
:101B300000208049088042E0FFF791F9864800685C
:101B4000864913900AF046FB854914900AF074FB0D
:101B50001590764800680146149015980AF0E2FA4C
:101B6000724908607C4840687C4913900AF032FB57
:101B70007B4914900AF060FB15906C484068014660
:101B8000149015980AF0CEFA684948607248806847
:101B9000724913900AF01EFB714914900AF04CFB35
:101BA0001590624880680146149015980AF0BAFAB8
:101BB0005E4988605F480088401C5E4908805D4837
:101BC0000088C828B8DB59480068594915900AF0C0
:101BD00033FB5549C86355484068554915900AF08C
:101BE0002BFB5149086451488068514915900AF00F
:101BF00023FB4D4948645BA00AF0E4FF4A48406C6F
:101C00000F900AF038FDCDE914014748006C0F90A1
:101C10000AF031FDCDE912014348C06B0F900AF084
:101C20002AFDCDE91001DDE91401CDE90201DDE96C
:101C30001201CDE90001AFF24860DDE910230AF09E
:101C4000C1FF4FF47A7000F0DCFD16AA19A93648DE
:101C5000FFF76FFA1C901C9868B9444919980860FE
:101C60001A9848601B988860414816990160179936
:101C70004160189981603E48806809900AF0FBFC39
:101C8000CDE914013A48406809900AF0F4FCCDE926
:101C900012013748006809900AF0EDFCCDE9100107
:101CA0003248806809900AF0E6FCCDE90E012F4821
:101CB000406809900AF0DFFCCDE90C012B48006870
:101CC00009900AF0D8FCCDE90A01DDE91401CDE95B
:101CD0000801DDE91201CDE90601DDE91001CDE9D8
:101CE0000401DDE90E01CDE90201DDE90C01CDE9D8
:101CF000000120A0DDE90A230AF064FF4FF47A70A6
:101D000000F07FFD4FF47A7000F07BFD4FF47A70A5
:101D100000F077FD4FF47A7000F073FD4FF47A70A5
:101D200000F06FFD1FB000BDAC030020F4030020E5
:101D3000000048431800002066697665206F6B0A32
:101D4000000000007369782063616C206261636B3E
:101D50002075700A00000000000400200AE81C4101
:101D600000F07F45736978206F6B0A000C0000203B
:101D700000000020623020252E32660962312025C5
:101D80002E326609623220252E3266096B302025FC
:101D90002E3266096B3120252E3266096B322025E2
:101DA0002E32660A0000000010B5022000F005FD8A
:101DB00010BD08B50121082001F076FA4FF440600B
:101DC000ADF8000010208DF8030003208DF802000C
:101DD00069468D4800F0ACFF4FF440618A4801F03D
:101DE00054F808BD10B58848001D006820F4704004
:101DF0008549091D08600846006840F440500860A5
:101E00000120824908608249C1F8A801FFF7CCFF90
:101E100000207E490860FFF7C7FF00207C49C1F819
:101E2000A80110BD10B57848001D006820F470406E
:101E30007549091D08600846006840F44050086074
:101E400000207249091F08607149C1F8AC01FFF711
:101E5000ABFF01206D49091F08606D49C1F8AC0155
:101E6000FFF7A2FF10BD10B500246748001D0068F1
:101E700020F470406449091D08600846006840F479
:101E800000400860012061490860FFF78DFF0120D4
:101E90005F49C1F8A801FFF787FF07E0601CC4B2E3
:101EA000FA2C03DDFFF7BEFF012010BD5748803834
:101EB00000680028F2D15549091F086000BFF4E707
:101EC00010B500205149091F08604F48001D0068E7
:101ED00020F470404C49091D08600846006840F431
:101EE0004050086000204A49C1F8AC01FFF75CFF90
:101EF00001204649091F0860FFF756FF00204449AA
:101F0000C1F8A80110BD10B500204049091F0860A4
:101F10003D48001D006820F470403B49091D0860E1
:101F20000846006840F44050086001203849C1F874
:101F3000AC01FFF739FF01203449091F0860FFF7A2
:101F400033FF00203249C1F8A80110BD70B5044626
:101F50002D48001D006820F470402B49091D0860C1
:101F60000846006840F44050086000202749091FD7
:101F70000860002512E0E009244908606006040EAC
:101F800001202349C1F8A801FFF70EFF00201F49D7
:101F9000091F0860FFF708FF681CC5B2082DEADBBF
:101FA00070BD70B5054600241748001D006820F478
:101FB00070401549091D08600846006840F400405B
:101FC0000860002615E000201049091F0860FFF78F
:101FD000EBFE01200E49C1F8A8016006040E0B4873
:101FE0008038006808B1601CC4B2FFF7DDFE701CC9
:101FF000C6B2082EE7DB15B9FFF785FF01E0FFF752
:102000005FFF204670BD0000000C0140AC81214202
:10201000008021427FB505460C460121C80201F02F
:1020200043F9ADF80850ADF804400020ADF80A00BF
:10203000ADF806008DF80C0001A9AD4801F06CFA6E
:102040000121AB4801F0C4FD19208DF800000220E9
:102050008DF8010000208DF8020001208DF80300AA
:10206000684600F09CFD0121A14802F077F80022AB
:1020700001219F4801F0C7FD7FBD30B589B00546FD
:102080000C460121042001F01CF90121082001F077
:102090000BF94FF47070ADF8140028208DF817007C
:1020A00005A9944800F044FE4FF47071914800F087
:1020B000EEFEADF80C50ADF808400020ADF80E0073
:1020C000ADF80A0002A98C4801F026FA0020ADF80C
:1020D0001800ADF81A000120ADF81C000020ADF882
:1020E0001E00ADF8200006A9834801F0A8FC0420DA
:1020F000ADF818000020ADF81A000120ADF81C0062
:102100000020ADF81E00ADF8200006A97A4801F0C5
:1021100096FC0820ADF818000020ADF81A00012048
:10212000ADF81C000020ADF81E00ADF8200006A997
:10213000714801F084FC0C20ADF818000020ADF8C7
:102140001A000120ADF81C000020ADF81E00ADF80B
:10215000200006A9684801F072FC1E208DF80400DA
:1021600001208DF805008DF806008DF8070001A804
:1021700000F015FD01221E215F4801F044FD012100
:102180005D4801F025FD09B030BD30B589B0054688
:102190000C460121042001F087F80121084601F0D6
:1021A00090F80F20ADF8040003208DF806001820E9
:1021B0008DF8070001A9514800F0BAFD0F214F48E2
:1021C00000F063FEADF81C50ADF818400020ADF8EB
:1021D0001E00ADF81A0006A94FF0804001F09CF9EE
:1021E0006020ADF808000120ADF80A000020ADF82D
:1021F0000E00ADF8100002A94FF0804001F0C9F9BF
:102200000821C80601F014FE02A94FF0804001F039
:1022100002FA0821C80601F014FE02A94FF080401E
:1022200001F046FA0821C80601F018FE02A94FF095
:10223000804001F088FA0821C80601F018FE01214B
:10224000880701F0C5FD0121880701F0C1FC09B034
:1022500030BD7FB505460C460121022001F031F862
:10226000ADF80850ADF804400020ADF80A00ADF814
:10227000060001A9224801F04FF91D208DF8000049
:1022800001208DF801008DF802008DF803006846EA
:1022900000F085FC01211A4801F09AFC002201217E
:1022A000174801F0B0FC7FBD10B50121144801F0C2
:1022B00058FF80B113480068401C1249086012485A
:1022C000006808B9012000E000200F4908600121E2
:1022D0000B4801F057FF10BD094824300188094818
:1022E000006840F63542504301EB00107047000093
:1022F000002C0140000C0140000800400008014093
:10230000000400401C0000209001214210B59048BC
:10231000007800F08000002842D102218D4801F0B1
:1023200020FF00283CD002218A4801F02BFF88487A
:10233000007800F0400020B3864801F0F3FE8649A3
:1023400008800846008885490988884204DA44F6EE
:102350001F608349086002E00020814908607E48D0
:1023600000887E490988401A7D49096808447D49EA
:10237000C8600020764908700021764801F0DAFD37
:102380000EE0744801F0CEFE744908807048007871
:1023900040F040006E49087002216E4801F0CAFD0D
:1023A0007148007800F08000002841D1042169487C
:1023B00001F0D7FE60B30421664801F0E3FE6A48ED
:1023C000007800F0400020B3624801F0AEFE67499B
:1023D00008800846008866490988884204DA44F67D
:1023E0001F606449086002E00020624908605F489D
:1023F00000885F490988401A5E49096808445949BC
:1024000048600020584908700021524801F0A4FD9E
:102410000EE0504801F089FE554908805248007886
:1024200040F040005049087002214A4801F094FDF4
:102430005148007800F0800088BB0821454801F031
:1024400090FE60B30821434801F09CFE4A480078A2
:1024500000F0400020B33F4801F06AFE4749088081
:102460000846008846490988884204DA44F61F6015
:102470004449086002E00020424908603F48008863
:102480003F490988401A3F490968084435490860AE
:1024900000203949087000212E4801F077FD0EE038
:1024A0002C4801F045FE364908803348007840F05A
:1024B0004000314908700221264801F067FD32488A
:1024C000007800F0800088BB1021224801F049FE0E
:1024D00060B310211F4801F055FE2B48007800F032
:1024E000400020B31B4801F026FE2849088008461A
:1024F000008827490988884204DA44F61F60254984
:10250000086002E000202349086020480088204934
:102510000988401A1F490968084412498860002048
:102520001949087000210B4801F04AFD0EE00948E6
:1025300001F001FE164908801348007840F0400081
:10254000114908700221034801F03AFD10BD000056
:10255000200000200008004024000020220000206D
:10256000380000202C040020260000202A00002033
:10257000280000203C0000202C000020300000201B
:102580002E000020400000203200002036000020F5
:10259000340000204400002070B504460026FFF7F8
:1025A00021FC2546E11704EB11610912A02202EB80
:1025B0004101C8B2FFF7CAFCFFF755FCE11704EB75
:1025C00011610912A4EB0121C8B2FFF7BFFCFFF7AC
:1025D0004AFCFFF707FCA120FFF7B8FCFFF743FC1C
:1025E0000020FFF7DEFC0646FFF71CFC304670BDFE
:1025F00070B504460E46FFF7F5FB2546E11704EBE0
:1026000011610912A02202EB4101C8B2FFF79EFC42
:10261000FFF729FCE11704EB11610912A4EB01217A
:10262000C8B2FFF793FCFFF71EFC3046FFF78EFCA5
:10263000FFF719FCFFF7F6FB0A2000F0E2F870BD87
:1026400010B5FF20FFF7A8FF0446552C01D100204C
:1026500010BD5521FF20FFF7CBFFFF20FFF79CFFA8
:102660000446552C01D10020F2E70120F0E710B517
:1026700006E02EA00AF0A6FA4FF42F7000F0C1F881
:10268000FFF7DEFF0028F4D12DA00AF09BFA10BD61
:102690002DE9F04105460E461746002409E0E20008
:1026A00026FA02F2D1B22A1990B2FFF7A1FF601CFC
:1026B000C4B2BC42F3DBBDE8F0812DE9F04107462E
:1026C0000C460026002509E036023919491B491E2F
:1026D00088B2FFF761FF0644681CC5B2A542F3DB70
:1026E0003046BDE8F08170B506460C46154608E058
:1026F0003046721C96B2FFF74FFF04F8010B681EBC
:1027000085B2002DF4D170BD70B505460C46164655
:1027100006E021782846FFF76BFF681C85B2641C31
:10272000301EA6F101018EB2F3D170BD63616E74EB
:1027300020636865636B20656570726F6D0A0000C9
:10274000454550524F4D204F4B0A000008B501211E
:10275000042000F0A9FD3020ADF8000010208DF815
:10276000030003208DF802006946064800F0E0FAF5
:102770001021044800F089FB2021024800F085FB6D
:1027800008BD00000008014010B56FF0040000F023
:1027900050FA394800683949B0FBF1F038490870FF
:1027A0000846007800EB4001C1EBC0104FF6FF7106
:1027B00001EAC0003349088010BD0146304A127852
:1027C0004A434FF0E0235A6100229A611A46126987
:1027D00042F001021A6100BF4FF0E022106900F0E0
:1027E00001021AB100F48032002AF5D04FF0E02245
:1027F000126922F001024FF0E0231A6100229A616F
:10280000704701461F4A12884A434FF0E0235A613D
:1028100000229A611A46126942F001021A6100BF51
:102820004FF0E022106900F001021AB100F480328A
:10283000002AF5D04FF0E022126922F001024FF099
:10284000E0231A6100229A6170470F480068401C1B
:102850000D4908600846006809490978884207D38D
:1028600000200949086009480068401C07490860C1
:1028700070470648006870476000002000127A0028
:10288000480000204A0000204C000020500000209A
:1028900000BF704700BF704700BF304A128802F087
:1028A0004002002AF9D0C2B22C4B1B1D1A8070477F
:1028B00010B586B00446012144F2040000F0F4FC97
:1028C0004FF40070ADF8140003208DF816001820A6
:1028D0008DF8170005A9224800F02AFA4FF480600D
:1028E000ADF8140004208DF8170005A91C4800F06D
:1028F0001FFA25208DF8000000208DF8010002202D
:102900008DF8020001208DF80300684600F047F9B9
:1029100001940020ADF80800ADF80A00ADF80C00F5
:10292000ADF810000C20ADF80E0001A90B4801F025
:1029300070FC012240F22551084801F002FD0121FE
:10294000064801F0F2FC06B010BD10B5034801F0D6
:102950005DFDC4B2204606F0D2FD10BD0038014036
:1029600000080140704700BFFEE700BFFEE700BF60
:10297000FEE700BFFEE770477047704710B507F0ED
:1029800073FC10BD10B5002007F051FE10BD000013
:102990000CB50020019000906C48006840F4803035
:1029A0006A49086000BF6948006800F40030009080
:1029B0000198401C0190009818B90198B0F5A06FDB
:1029C000F1D16248006800F4003010B1012000909D
:1029D00001E0002000900098012843D15C48006885
:1029E00040F010005A4908600846006820F00300D3
:1029F00008600846006840F00200086053484068DC
:102A0000524948600846406848600846406840F4BB
:102A1000806048600846406820F47C1048600846A2
:102A2000406840F4E81048600846006840F0807054
:102A3000086000BF4548006800F000700028F9D029
:102A40004248406820F0030040494860084640681A
:102A500040F00200486000BF3C48406800F00C00B5
:102A60000828F9D10CBD10B5FFF792FF10BD10B5C5
:102A70003648006840F00100344908600846406864
:102A800034490840314948600846006832490840E6
:102A90002E4908600846006820F480200860084637
:102AA000406820F4FE0048604FF41F008860FFF784
:102AB000DAFF4FF000602949086010BD10B5002111
:102AC00000200022214B5B6803F00C0121B1042996
:102AD00006D0082928D107E0214B224C236027E0AB
:102AE0001F4B204C236023E0184B5B6803F47010ED
:102AF000164B5B6803F48032022303EB904022B94B
:102B0000194B4343174C23600DE0104B5B6803F4F3
:102B1000003323B1144B4343124C236003E0104BAA
:102B20004343104C236003E00D4B0E4C236000BF69
:102B300000BF064B5B68C3F303130C4CE15C094B0D
:102B40001B68CB40074C236010BD00000010024002
:102B5000002002400000FFF8FFFFF6FE08ED00E055
:102B600000127A006000002000093D00640000208F
:102B70000648804706480047FEE7FEE7FEE7FEE717
:102B8000FEE7FEE7FEE7FEE7FEE7FEE76F2A000846
:102B90003101000831490143314A1160704770B575
:102BA000002100230F22C47804B32D4C246804F4C0
:102BB000E064C4F5E064210AC1F10403CA4044782A
:102BC00004FA03F18478144021430901254C067866
:102BD000A155047804F01F050124AC4005786D115F
:102BE000AD0005F1E025C5F8004109E0047804F0E6
:102BF0001F050124AC401C4D0678761145F826408F
:102C000070BD1A4A0A400243154B1B1F1A607047D9
:102C100039B1134A121D12680243114B1B1D1A6071
:102C200006E00F4A121D126882430D4B1B1D1A60ED
:102C30007047042808D14FF0E021096941F00401F0
:102C40004FF0E022116107E04FF0E021096921F027
:102C500004014FF0E0221161704700000000FA0506
:102C60000CED00E000E400E080E100E080FFFF1FE9
:102C700010B50446CC48844208D10121042000F05C
:102C80002DFB0021042000F029FB46E0C7488442C8
:102C900008D10121082000F021FB0021082000F0CC
:102CA0001DFB3AE0C248844208D10121102000F007
:102CB00015FB0021102000F011FB2EE0BD488442DE
:102CC00008D10121202000F009FB0021202000F084
:102CD00005FB22E0B848844208D10121402000F0E1
:102CE000FDFA0021402000F0F9FA16E0B3488442D2
:102CF00008D10121802000F0F1FA0021802000F0AD
:102D0000EDFA0AE0AE48844207D10121801500F0B7
:102D1000E5FA0021A01500F0E1FA10BD10B501217F
:102D2000084600F0DBFA0021012000F0D7FA10BDC0
:102D30002DE9F04102460025002600200023002452
:102D4000002791F803C00CF00F0591F803C00CF0B8
:102D5000100CBCF1000F03D091F802C04CEA05053D
:102D600091F800C0BCF1000F31D0146800202BE0B6
:102D70004FF0010C0CFA00F3B1F800C00CEA0306A6
:102D80009E4220D183004FF00F0C0CFA03F7BC4396
:102D900005FA03FC4CEA040491F803C0BCF1280FC7
:102DA00006D14FF0010C0CFA00FCC2F814C00AE086
:102DB00091F803C0BCF1480F05D14FF0010C0CFA9B
:102DC00000FCC2F810C0401C0828D1D31460B1F830
:102DD00000C0BCF1FF0F34DD546800202EE000F18C
:102DE000080C4FF0010808FA0CF3B1F800C00CEA27
:102DF00003069E4221D183004FF00F0C0CFA03F71B
:102E0000BC4305FA03FC4CEA040491F803C0BCF18E
:102E1000280F05D100F1080C08FA0CF8C2F814804C
:102E200091F803C0BCF1480F07D100F1080C4FF036
:102E3000010808FA0CF8C2F81080401C0828CED30C
:102E40005460BDE8F0814FF6FF710180022181706E
:102E50000421C17070470246002093680B400BB1FB
:102E6000012000E0002070470146886880B270476A
:102E700002460020D3680B400BB1012000E0002087
:102E800070470146C86880B2704701617047416170
:102E900070470AB1016100E041617047C16070474D
:102EA0004FF480320A438261816182618269826962
:102EB000704702460020434B18684FF68073184055
:102EC00040EA021008433F4B186070473E49C86112
:102ED0007047F0B50A46002300240021002500F0C9
:102EE0000046B6F1004F02D1364EF16901E0354E91
:102EF0007168C0F3034583B200F44016B6F5401F75
:102F000008D121F070612F4E766826F070662D4F43
:102F10007E6012E000F48016B6F5801F06D103260D
:102F200006FA05F4A14341F0706106E0460D360152
:102F300003FA06F6B14341F0706122B1460D360145
:102F400003FA06F6314300F00046B6F1004F02D115
:102F50001C4EF16101E01B4E7160F0BD30B50022E6
:102F60008B071C0F0F2303FA04F2164B08338C1047
:102F700053F824309343134C08348D1044F8253013
:102F800023468C1053F824308C07240F00FA04F4E5
:102F900023430C4C08348D1044F8253030BD0A49C9
:102FA000DC3108607047000000080140000C01405F
:102FB000001001400014014000180140001C0140B5
:102FC000002001400000014000002042DF4800686E
:102FD00040F00100DD49086008464068DC490840CF
:102FE000DA49486008460068DA490840D74908606D
:102FF0000846006820F4802008600846406820F4F5
:10300000FE0048604FF41F0088607047CF49096890
:1030100021F48031CD4A11601146096821F48021E4
:103020001160B0F5803F03D0B0F5802F0ED106E0DF
:10303000C649096841F48031C44A116007E0C349B8
:10304000096841F4A021C14A116000E000BF00BF3F
:10305000704710B501460022002300204A11012AC2
:1030600002D1BA4C236806E0022A02D1B74C236A87
:1030700001E0B64C636A01F01F02012494401C4039
:103080000CB1012000E0002010BD38B500200090F8
:103090000024002500BF3120FFF7DBFF0546009824
:1030A000401C00900098B0F5A06F01D0002DF2D028
:1030B0003120FFF7CEFF08B1012400E000242046B4
:1030C00038BD01460020A14A106820F0F80040EA0F
:1030D000C10010607047A049086070470246002098
:1030E0009A4B586820F47C1042EA01031843974B2E
:1030F0005860704798490866704701460020934A17
:10310000506820F003000843506070478F484068C3
:1031100000F00C007047014600208C4A506820F0F7
:10312000F00008435060704701460020874A50680D
:1031300020F4E06008435060704701460020834A55
:10314000506820F4605040EAC1005060704729B1D7
:103150007E4A527A02437D4B5A7204E07B4A527A8D
:1031600082437A4B5A7270477B49D8310860704766
:1031700001460020754A506820F4404008435060E2
:1031800070470021714A20321170704A82F8201075
:10319000012802D004280AD104E001216B4A203220
:1031A000117005E00521694A2032117000E000BF6E
:1031B00000BF70476949086070476449096A014364
:1031C000624A11627047654944390860704730B5FA
:1031D00000210022002400235C4D6D6805F00C01E5
:1031E00021B1042905D0082923D105E05C4D0560F3
:1031F00022E05B4D05601FE0544D6D6805F47012D0
:10320000524D6D6805F48034022505EB92421CB9DD
:10321000544D554305600BE04C4D6D6805F4003589
:103220001DB1504D5543056002E04D4D55430560BD
:1032300002E04B4D056000BF00BF444D6D6805F0D6
:10324000F0010909484D6B5C0568DD4045603F4D64
:103250006D6805F4E061090A434D6B5C4568DD402B
:1032600085603A4D6D6805F46051C90A3E4D6B5C4E
:103270004568DD40C560354D6D6805F44041890BFA
:103280003A4D6B5CC568B5FBF3F5056130BD29B1FE
:103290002E4A526902432D4B5A6104E02B4A52696F
:1032A00082432A4B5A61704729B1284A92690243E6
:1032B000264B9A6104E0254A92698243234B9A6126
:1032C000704729B1214AD2690243204BDA6104E0F8
:1032D0001E4AD26982431D4BDA61704729B11B4AED
:1032E000D2680243194BDA6004E0184AD26882437C
:1032F000164BDA60704729B1144A12690243134B26
:103300001A6104E0114A12698243104B1A61704736
:1033100012494039086070470F49C86470470B492B
:10332000C87170470948406A40F080700749486298
:10333000704701460020054A92680A400AB1012000
:1033400000E0002070470149887270470010024079
:103350000000FFF8FFFFF6FE0000424280044242F8
:1033600000127A0000093D00740000208400002053
:1033700010B50446FE48844208D10121C014FFF76D
:10338000ADFF0021E014FFF7A9FFC4E0B4F1804FC6
:1033900008D101210846FFF7AEFF00210120FFF709
:1033A000AAFFB8E0F348844208D101210220FFF7C8
:1033B000A2FF00210220FFF79EFFACE0EE4884420E
:1033C00008D101210420FFF796FF00210420FFF718
:1033D00092FFA0E0E948844208D101210820FFF7CC
:1033E0008AFF00210820FFF786FF94E0E44884422A
:1033F00008D101211020FFF77EFF00211020FFF7E8
:103400007AFF88E0DF48844208D101212020FFF7BD
:1034100072FF00212020FFF76EFF7CE0DA48844233
:1034200008D101214014FFF759FF00216014FFF774
:1034300055FF70E0D548844209D10121C804FFF747
:103440004DFF00214FF40020FFF748FF63E0D04814
:10345000844209D101210805FFF740FF00214FF404
:103460008010FFF73BFF56E0CA48844209D1012192
:103470004805FFF733FF00214FF40010FFF72EFF40
:1034800049E0C548844208D101214020FFF733FFBD
:1034900000214020FFF72FFF3DE0C048844208D1C3
:1034A00001218020FFF727FF00218020FFF723FF65
:1034B00031E0BB48844208D101218015FFF71BFF92
:1034C0000021A015FFF717FF25E0B648844209D177
:1034D00001210804FFF702FF00214FF48030FFF7BD
:1034E000FDFE18E0B048844209D101214804FFF7ED
:1034F000F5FE00214FF40030FFF7F0FE0BE0AB4883
:10350000844208D101218804FFF7E8FE00214FF42E
:103510008020FFF7E3FE10BD00220288944B984202
:103520000ED0994B98420BD0B0F1804F08D0914B00
:10353000984205D0904B984202D0904B984204D1CB
:103540004FF68F731A404B881A438D4B984207D021
:103550008C4B984204D04FF6FF431A40CB881A4355
:1035600002808B8883850B880385814B98420BD022
:10357000854B984208D08B4B984205D08A4B984295
:1035800002D08A4B984201D10B7A038601238382B1
:10359000704770B5002400220023058C4FF6FE769C
:1035A00035400584028C8388048B4FF68F752C4040
:1035B000B51E2C400D882C43751E2A400D892A43C8
:1035C0004D882A436A4DA8420BD06F4DA84208D0BF
:1035D000744DA84205D0744DA84202D0734DA84244
:1035E00013D14FF6F7752A404D892A434FF6FB75E4
:1035F0002A408D882A434FF6FF652B404FF6FF5532
:103600002B408D892B43CD892B4383800483CD8828
:103610008586028470BD70B5002400220023058CCD
:103620004FF6EF7635400584028C8388048B48F68C
:10363000FF752C404FF6FF452C400D884FF6FF7666
:1036400006EA05252C434FF6DF752A400D8906EA68
:1036500005152A434D8806EA05152A43444DA8421C
:1036600002D0494DA8421DD14FF67F752A404D89A1
:103670004FF6FF7606EA05152A434FF6BF752A4036
:103680008D8806EA05152A434FF6FF352B404FF289
:10369000FF752B408D8906EA85052B43CD8906EA07
:1036A00085052B4383800483CD880587028470BD04
:1036B00070B5002400220023058C4FF6FF663540CC
:1036C0000584028C8388848B4FF68F752C404FF6CF
:1036D000FC752C400D882C434FF6FF552A400D8970
:1036E0004FF6FF7606EA05252A434D8806EA0525AA
:1036F0002A431F4DA84202D0234DA8421DD14FF2AC
:10370000FF752A404D894FF6FF7606EA05252A43C4
:103710004FF6FF352A408D8806EA05252A434EF6E6
:10372000FF752B404DF6FF752B408D8906EA051578
:103730002B43CD8906EA05152B4383808483CD88EE
:103740008587028470BD70B5002200230024058C9B
:103750004EF6FF7635400584038C8488828B48F6CC
:10376000FF752A404FF6FF452A400D8820E00000F3
:10377000002C01400004004000080040000C004004
:10378000001000400014004000340140004C014093
:10379000005001400054014000180040001C00404F
:1037A000002000400040014000440140004801402A
:1037B0004FF6FF7606EA05252A434DF6FF752B40A6
:1037C0000D8906EA05352B434D8806EA05352B435E
:1037D000FA4DA84202D0FA4DA84208D14BF6FF7527
:1037E0002C408D894FF6FF7606EA85152C438480A0
:1037F0008283CD88A0F84050038470BD828B4FF245
:10380000FF331A408283828B4FF6FF7303EA012352
:103810001A4382837047F0B50C46154600220021FA
:103820000026078C4EF6FF7C07EA0C070784828B84
:10383000018C4FF6FF7707EA043640F6FF473A401F
:103840004FF6FF7707EA05273A434FF6FF7707EA77
:1038500003373A43D94FB8420ED0D94FB8420BD0B4
:10386000B0F1804F08D0D74FB84205D0D64FB842FC
:1038700002D0D64FB84206D14DF6FF77394046F414
:103880008057394305E047F6FF57394044F48057E5
:10389000394382830184F0BD828B4FF6F3731A4063
:1038A0008283828B0A4382837047F0B50C461546AB
:1038B000002200210026078C4FF6FF6C07EA0C0758
:1038C0000784828B018C4FF6FF7707EA04264FF6B8
:1038D0000C773A404FF6FF7707EA03172F433A4336
:1038E000B64FB8420ED0B64FB8420BD0B0F1804FB1
:1038F00008D0B44FB84205D0B34FB84202D0B34F4E
:10390000B84206D14FF6FF57394046F48077394325
:1039100005E04FF2FF57394044F480773943828302
:103920000184F0BD028B4FF2FF331A400283028BF9
:103930004FF6FF7303EA01231A4302837047F0B581
:103940000C461546002200210026078C4FF6EF7C1E
:1039500007EA0C070784028B018C4FF6FF7707EA12
:10396000041640F6FF473A404FF6FF7707EA033761
:103970003A434FF6FF7707EA05273A438F4FB8429D
:103980000ED08F4FB8420BD0B0F1804F08D08D4F82
:10399000B84205D08C4FB84202D08C4FB84206D105
:1039A0004FF6DF77394046F01007394305E04FF610
:1039B0005F77394044F01007394302830184F0BD3A
:1039C000028B4FF6F3731A400283028B0A43028381
:1039D0007047F0B50C46154600220021068C4FF6C4
:1039E000FE773E400684028B018C4FF60C76324007
:1039F0007E1C06EA03162E433243704EB0420ED0B0
:103A00006F4EB0420BD0B0F1804F08D06D4EB04237
:103A100005D06D4EB04202D06C4EB04206D14FF68A
:103A2000FD76314044F00106314305E04FF6F5766E
:103A3000314044F00106314302830184F0BD70B58A
:103A400005460C465D4885420ED05D4885420BD048
:103A5000B5F1804F08D05B48854205D05A48854271
:103A600002D05A48854200D100E000BF208850B9FA
:103A70002389A28861882846FFF7ABFFE1882846A2
:103A8000FFF79EFF25E0208804280AD12389A28819
:103A900061882846FFF753FFE1882846FFF742FF79
:103AA00017E0208808280AD12389A288618828463F
:103AB000FFF7FBFEE1882846FFF7EEFE09E02389C9
:103AC000A28861882846FFF7A6FEE1882846FFF70E
:103AD00095FE70BD2DE9F04105460C4600260127F4
:103AE000608808B9022600E00026A088012801D1DC
:103AF000022700E001272088A0B92389A2886188D5
:103B00002846FFF766FFE1882846FFF759FF23891B
:103B10003A4631462846FFF712FFE1882846FFF76C
:103B200001FF13E02389A28861882846FFF707FF79
:103B3000E1882846FFF7F6FE23893A4631462846B3
:103B4000FFF747FFE1882846FFF73AFFBDE8F0811D
:103B50000A884B881A438B881A43CB881A430B89EF
:103B60001A434B891A438B891A43A0F844207047A3
:103B70004FF6FF71818000210180C1804180017278
:103B800070470021018041808180C1800181418195
:103B90008181C181704700210180418001218180A4
:103BA0000021C18001817047002101804180818016
:103BB000C18001814181818170470000002C01405A
:103BC000003401400004004000080040000C0040A8
:103BD00021B1028842F00102028004E002884FF61F
:103BE000FE731A400280704731B1B0F8442042F4AD
:103BF0000042A0F8442005E0B0F84420C2F30E02D1
:103C0000A0F8442070471AB183890B43838102E0F6
:103C100083898B43838170478182704741EA020325
:103C2000A0F8483070471AB183890B43838102E0C2
:103C300083898B438381704701894FF6F872114065
:103C4000018170470A46002101894FF68F731940A0
:103C500011430181704730B504460D462946204680
:103C6000FFF7F0FF208940F00700208130BD2DE9EB
:103C7000F04104460D4616461F46602D06D13B46D0
:103C8000012231462046FFF75AFE05E03B4601225D
:103C900031462046FFF79DFE29462046FFF7D2FF1A
:103CA000208940F007002081BDE8F08130B50C4646
:103CB00000210189C9B24FF6FF7505EA03251543B6
:103CC00025432943018130BD2DE9F04105460E46CB
:103CD00017469846002443463A4631462846FFF7A1
:103CE000E5FF2C894FF6F870044044F007044FF6C6
:103CF0008F70044044F070042C81BDE8F081F0B571
:103D000004460D4616461F463B4632462946204687
:103D1000FFF7CCFF208940F480402081F0BD018571
:103D2000828270470A46002101884FF68F7319403E
:103D3000114301807047F0B50C4615461E46002120
:103D4000002200230189028B038C4FF6F87739405B
:103D500021434FF6FC473A4040F201173A434FF6F1
:103D6000DD773B404FF6FF7707EA06172F433B43CB
:103D7000018102830384F0BD0A460021018B4FF6C6
:103D80008F7319401143018370470A460021018B4C
:103D900048F6FF7319404FF6FF7303EA02231943F5
:103DA000018370470A460021818B4FF68F731940BB
:103DB0001143818370470A460021818B48F6FF73C7
:103DC00019404FF6FF7303EA0223194381837047BA
:103DD00021B1028842F08002028004E002884FF69E
:103DE0007F731A400280704721B1828842F004023A
:103DF000828004E082884FF6FB731A40828070470D
:103E000021B1828842F00802828004E082884FF665
:103E1000F7731A408280704721B1828842F0010214
:103E2000828004E082884FF6FE731A4082807047D9
:103E30000A460021018B4FF6F773194011430183A5
:103E400070470A460021018B4FF2FF7319404FF66D
:103E5000FF7303EA02231943018370470A460021D6
:103E6000818B4FF6F77319401143818370470A46DF
:103E70000021818B4FF2FF7319404FF6FF7303EA65
:103E800002231943818370470A460021018B4FF6B4
:103E9000FB7319401143018370470A460021018BCF
:103EA0004FF6FF3319404FF6FF7303EA022319431D
:103EB000018370470A460021818B4FF6FB7319403E
:103EC0001143818370470A460021818B4FF6FF33EF
:103ED00019404FF6FF7303EA0223194381837047A9
:103EE0000A460021018B4FF67F731940114301836D
:103EF00070470A460021018BC1F30E014FF6FF7394
:103F000003EA02231943018370470A460021818B8B
:103F10004FF67F7319401143818370470A46002191
:103F2000818BC1F30E014FF6FF7303EA022319439D
:103F3000818370470A460021018C4FF6FD731940BA
:103F40001143018470470A460021018C4FF6F77334
:103F500019401143018470470A460021018C4FF635
:103F6000DF7319404FF6FF7303EA0213194301840C
:103F700070470A460021018C4FF67F7319404FF6B7
:103F8000FF7303EA02131943018470470A460021B4
:103F9000018C4FF6FF5319404FF6FF7303EA0223DB
:103FA0001943018470470A460021018C4FF2FF73C8
:103FB00019404FF6FF7303EA022319430184704747
:103FC0000A460021018C4DF6FF7319404FF6FF732E
:103FD00003EA023319430184704730B500230124FA
:103FE0008C40A3B2048C9C430484048C02FA01F537
:103FF000ADB22C43048430BD30B5002304248C4082
:10400000A3B2048C9C430484048C02FA01F5ADB283
:104010002C43048430BD70B50346002000241846AC
:10402000183001258D40ACB21D8CA5431D8409B10B
:10403000082909D100EB6100056825F070050560CD
:104040000568154305600EE00D1FC5F34E052844B5
:10405000056825F4E045056005684FF6FF7606EA39
:1040600002263543056070BD21B1028842F002028C
:10407000028004E002884FF6FD731A400280704708
:1040800021B1028842F00402028004E002884FF667
:10409000FB731A400280704721B1828842F080028F
:1040A000828004E082884FF67F731A4082807047D6
:1040B00002884FF6F7731A40028002880A43028092
:1040C000704782884FF68F731A40828082880A4335
:1040D0008280704702894FF6F8731A400281028984
:1040E0000A430281704702894FF67F731A400281AA
:1040F00002890A4302817047818470478185704735
:10410000818670470187704781877047A0F840100B
:10411000704702884FF6FF431A40028002880A4324
:10412000028070470146888E70470146088F7047AD
:104130000146888F70470146B1F84000704701463C
:10414000888C70470146088D704702460020138A0C
:104150000B400BB1012000E000207047CA430282EF
:10416000704730B50246002000230024158A05EA76
:104170000103958905EA010413B10CB1012000E0A7
:10418000002030BDCA4302827047000010B50446CB
:10419000FB48844209D101218803FFF79FF80021E1
:1041A0004FF48040FFF79AF832E0F648844209D194
:1041B00001214804FFF79FF800214FF40030FFF77A
:1041C0009AF825E0F048844209D101218804FFF7DC
:1041D00092F800214FF48020FFF78DF818E0EB48AB
:1041E000844209D10121C804FFF785F800214FF46A
:1041F0000020FFF780F80BE0E548844208D1012158
:104200000805FFF778F800214FF48010FFF773F8E6
:1042100010BD2DE9F04786B005460E460024A246A3
:1042200000BFA1460027B08900B100BF2F462C8AED
:104230004CF6FF700440F08804432C82AC894EF6A3
:10424000F3100440B088318908437189084304435E
:10425000AC81AC8A4FF6FF400440B0890443AC8285
:1042600001A8FEF7B4FFC648874202D1DDF810A0CE
:1042700001E0DDF80CA0A88900F4004040B10AEB91
:10428000CA0000EB0A1031684900B0FBF1F807E002
:104290000AEBCA0000EB0A1031688900B0FBF1F8A4
:1042A0006420B8FBF0F004012009642101FB1089AF
:1042B000A88900F4004040B1322000EBC900B0FBF7
:1042C000F1F000F00700044308E0322000EB091091
:1042D0006421B0FBF1F000F00F0004432C8106B024
:1042E000BDE8F0874FF41651016000218180C18044
:1042F00001810C21418100218181704710B5024666
:104300000020108A4FF2FF0318400B884C8823438B
:104310008C882343CC8823431843108210BD00218E
:10432000018041808180C180704721B1828942F43F
:104330000052828104E082894DF6FF731A40828127
:104340007047F0B50346002400260025002040F603
:104350006A17B94200D100BF1846C1F3421401F0F8
:104360001F06012707FA06F5012C01D10C3004E0E5
:10437000022C01D1103000E014301AB107682F432D
:10438000076002E00768AF430760F0BD1AB1838A97
:104390000B43838202E0838A8B4383827047028AC5
:1043A0004FF6F0731A400282028A0A430282704773
:1043B00082894FF2FF731A40828182890A43828187
:1043C000704721B1828942F00202828104E0828931
:1043D0004FF6FD731A4082817047028A4FF6DF73F1
:1043E0001A400282028A0A430282704721B1028A7D
:1043F00042F48042028204E0028A4BF6FF731A40C4
:1044000002827047C1F308028280704701468888A3
:10441000C0F308007047818941F001018181704734
:10442000028BD2B20283028B42EA012202837047DE
:10443000028B02F47F420283028B0A43028370479D
:1044400021B1828A42F02002828204E0828A4FF601
:10445000DF731A408282704721B1828A42F01002D3
:10446000828204E0828A4FF6EF731A40828270479C
:1044700021B1828A42F00802828204E0828A4FF6E9
:10448000F7731A408282704721B1828942F4004258
:10449000828103E08289C2F30E028281704721B1DA
:1044A000828A42F40062828204E0828A4FF2FF73C1
:1044B0001A4082827047828A4FF6FB731A408282CA
:1044C000828A0A438282704721B1828A42F00202C4
:1044D000828204E0828A4FF6FD731A40828270471E
:1044E00002460020B1F5007F00D100BF13880B40C9
:1044F0000BB1012000E00020704701F40072B2F51A
:10450000007F00D100BFCA430280704770B50246E9
:10451000002400230025002040F66A16B14200D195
:1045200000BFC1F3421501F01F03012606FA03F391
:10453000012D02D19689334006E0022D02D1168A60
:10454000334001E0968A33400C12012606FA04F447
:104550001688344013B10CB1012000E0002070BD7A
:1045600010B50022002340F66A14A14200D100BF1A
:104570000A1201249440A3B2DC43048010BD000061
:10458000003801400044004000480040004C00401A
:104590000050004001460020FE4A106800F038003C
:1045A000084310607047FB49096821F00801F94A87
:1045B000116011460968014311607047F5490968A7
:1045C00021F01001F34A116011460968014311609E
:1045D0007047F148EF494860F04848607047EE483E
:1045E000EC494860ED4848607047EA48006940F08F
:1045F0008000E84908617047E648006940F08000A3
:10460000E449086170470420E249C96801F00101EA
:1046100009B101200EE0DF49C96801F0040109B1C8
:10462000022007E0DB49C96801F0100109B103204D
:1046300000E00420704700B502460423FFF7E3FFC3
:10464000034603E0FFF7DFFF0346521E012B01D1B3
:10465000002AF7D102B90523184600BD30B504463B
:1046600004254FF43020FFF7E6FF0546042D17D14F
:10467000C848006940F00200C64908610846446124
:10468000006940F0400008614FF43020FFF7D3FF8D
:104690000546C048006941F6FD710840BD49086102
:1046A000284630BD10B504244FF43020FFF7C3FF77
:1046B0000446042C16D1B748006940F00400B549FF
:1046C00008610846006940F0400008614FF430205E
:1046D000FFF7B1FF0446AF48006941F6FB7108409F
:1046E000AC490861204610BD00B502460423FFF71F
:1046F0008AFF034603E0FFF786FF0346521E012BA5
:1047000001D1002AF7D102B90523184600BD10B522
:1047100004244FF43020FFF7E7FF0446042C16D1A1
:104720009C48006940F004009A4908610846006905
:1047300040F0400008614FF43020FFF7D5FF0446F9
:104740009448006941F6FB7108409249086120468F
:1047500010BD00208F49C96901F0020109B1012093
:1047600000E00020704730B5A5250424FFF7F1FFD5
:1047700000B100254FF43020FFF75DFF0446042C04
:104780003AD1854883498860844888600846006932
:1047900040F0200008610846006940F040000861D0
:1047A0004FF43020FFF747FF0446042C1BD1794813
:1047B000006941F6DF7108407649086108460069E2
:1047C00040F01000086176480580E002FFF733FFF3
:1047D0000446052C10D06F48006941F6EF7108407F
:1047E0006C49086108E0052C06D06A48006941F66A
:1047F000EF71084067490861204630BD78B506462C
:104800000C46042500200090E802FFF714FF05463F
:10481000042D24D15F48006940F001005D49086122
:104820003480E802FFF707FF0546042D10D1B01CC5
:104830000090200C00990880E802FFF7FCFE054676
:104840005448006941F6FE7108405249086106E08B
:104850005048006941F6FE7108404E4908612846FB
:1048600078BD70B504460D460426F002FFF7E3FE5E
:104870000646042E11D14748006940F00100454921
:1048800008612580F002FFF7D6FE06464148006920
:1048900041F6FE7108403F490861304670BD70B571
:1048A00005460E460424E002FFF7C5FE0446042C2C
:1048B00017D1394837498860384888600846006908
:1048C00040F0100008612E80E002FFF7B4FE0446BD
:1048D000052C06D02F48006941F6EF7108402D499C
:1048E0000861204670BD2DE9F04304464FF6FF767F
:1048F0003746B046B1460425E443E6B2C4F3072781
:10490000C4F307484FEA1469E802FFF794FE05462E
:10491000042D49D120481F498860204888600846F6
:10492000006940F010000861FF2E06D01C480830D6
:104930000680E802FFF77FFE0546042D08D1FF2F11
:1049400006D017480A300780E802FFF774FE0546D4
:10495000042D0AD1B8F1FF0F07D011480C30A0F890
:104960000080E802FFF767FE0546042D0AD1B9F181
:10497000FF0F07D00A480E30A0F80090E802FFF7BA
:104980005AFE0546052D0FD00248006941F6EF7129
:10499000084007E00020024023016745AB89EFCDC6
:1049A00000F8FF1F664908612846BDE8F08330B56E
:1049B000054604244FF43020FFF73DFE0446042C46
:1049C00041D160485E4988605F4888600846006958
:1049D00040F0200008610846006940F0400008618E
:1049E0004FF43020FFF727FE0446042C22D1544810
:1049F000006941F6DF7108405149086108460069C5
:104A000040F0100008611DB100205049088002E00C
:104A1000A5204E4908804FF43020FFF70CFE0446D5
:104A2000052C10D04648006941F6EF710840444912
:104A3000086108E0052C06D04148006941F6DF71A5
:104A400008403F490861204630BDF0B505460E4696
:104A5000174604243B483A4988603B488860E00296
:104A6000FFF7E9FD0446042C19D13548006940F0F0
:104A700010003349086147F0F800304328433349B8
:104A8000891C0880E002FFF7D6FD0446052C06D0FD
:104A90002B48006941F6EF7108402949086120461A
:104AA000F0BD2748C069800870472548006A7047F4
:104AB00000202349096801F0200109B1012000E02C
:104AC0000020704729B11E4A126902431C4B1A612B
:104AD00004E01B4A12698243194B1A617047014670
:104AE0000020012908D1164AD26902F001020AB158
:104AF000012008E0002006E0114AD2680A400AB10D
:104B0000012000E0002070470D49C8607047042074
:104B10000B49C96801F0010109B101200EE0084903
:104B2000C96801F0040109B1022007E00449C9681D
:104B300001F0100109B1032000E0042070470000DB
:104B40000020024023016745AB89EFCD00F8FF1F2D
:104B50002DE9F04104460D462169206807F0E2FA8C
:104B600060606169606807F0DDFA0646314660689A
:104B700007F062FBE0602846A16807F025FB0746C6
:104B8000E16807F027FB0646A16807F0CBFAA060B2
:104B90004FF07E50E16807F017FB0646616807F0AA
:104BA00019FB2060BDE8F0812DE9F04F8DB007467C
:104BB0000D4616464FF07C5B4FF07E500C90FE4841
:104BC0000B900A90FD480168284607F0FDFA31462F
:104BD000019007F0FFFA8246F9480168504607F055
:104BE000A1FAF7494860F7484168F34807F0ECFA42
:104BF0008246F4488168504607F0E6FA0290F14890
:104C0000C06880F000400390EE48C06880F000402B
:104C10000490E94805903146029807F0DBFA824695
:104C2000E8480168504607F07DFAE64908603146D9
:104C3000039807F0CFFA8246E2484168504607F0F1
:104C400071FAE04948603146049807F0C3FA824699
:104C5000DC488168504607F065FADA4988603146D9
:104C6000059807F0B7FA8246D648C168504607F063
:104C700059FAD449C860084601684FF07E5007F0E1
:104C8000A9FA0446CF4881684FF07E5007F0A2FA97
:104C9000069021464FF07E5007F09CFA8246594616
:104CA00007F040FA81464946204607F0C5FA0990C8
:104CB0004946069807F0C0FA0890A046C1484168E6
:104CC0004FF07E5007F086FA07904146099807F0AA
:104CD00081FA8246BB480168504607F078FAB94924
:104CE00008600799099807F075FA8246B548416847
:104CF000504607F06CFAB34948604146089807F0FF
:104D000069FA8246AF488168504607F060FAAD49BB
:104D10008860DDE9071007F05DFA8246A948C1689E
:104D2000504607F054FAA749C860A548416838467C
:104D300007F04AFA0190099907F04CFA8246A04818
:104D40004168504607F0EEF99D4988600846416881
:104D5000384607F039FA0190089907F03BFA824685
:104D600096480168504607F0DDF994490860944878
:104D7000806893490860084680680DB0BDE8F08FF0
:104D8000016042604FF07E538360C3608E4B0361CD
:104D90008E4B436170472DE9F04704460D4621686C
:104DA000A06807F017FA2060A168084607F012FA19
:104DB0000746616807F00EFA0646216907F0B2F966
:104DC0006060E168606807F005FA8146E16807F015
:104DD00001FA0746616907F0A5F90646E1686068CF
:104DE00007F0F8F98046314607F026FAA0612168FD
:104DF000E06807F0EFF98046294607F0E8F9074632
:104E0000A16907F0E7F90646216807F08BF92060F1
:104E1000E168A06907F0DEF907464FF07E5107F020
:104E2000D6F90646616807F0D5F960602068BDE8EC
:104E3000F08710B50B6803604B68436013688360AC
:104E40005468C46094680461D46844614FF07E5330
:104E500083615F4CC461002404621C464462836227
:104E60000024C4625B4B03631C464463836310BD30
:104E70002DE9F05F04460D466168E06907F0AAF984
:104E800081462168A06907F0A5F98246494607F0E6
:104E900049F920606168606A07F09CF981462168E1
:104EA000206A07F097F98246494607F03BF96060AF
:104EB0002169E06907F08EF98246A168A06907F0D0
:104EC00089F98346514607F02DF98146216B07F099
:104ED00029F9A0606169606A07F07CF98146E168A0
:104EE000A06907F077F98246494607F01BF9E060B0
:104EF0002169E06907F06EF98146A168206A07F030
:104F000069F98246494607F00DF920616169606AD6
:104F100007F060F98246E168206A07F05BF9834692
:104F2000514607F0FFF88146616B07F0FBF86061BE
:104F3000E16AE06807F04EF98146A16AA06807F0CF
:104F400049F98246494607F0EDF80646E16A60698C
:104F500007F040F98146A16A206907F03BF98246D3
:104F6000494607F0DFF807463946E06A07F032F9AC
:104F700082463146A06A07F02DF98346A16B07F0FF
:104F8000D1F88146514607F0CDF88046414630467B
:104F900007F052F9E0634146384607F04DF92064C6
:104FA0006168E06A07F016F981462168A06A07F097
:104FB00011F9824649460FE06F12833A1C01002026
:104FC000600400206C040020000048430000FA4305
:104FD000CDCCCC3DBD37863507F0A4F880464146A0
:104FE000284607F0F1F88246E16B07F0F3F88146B6
:104FF000216807F097F820604146284607F0E4F85A
:105000008246216C07F0E6F88146616807F08AF86D
:105010006060A16AE06B07F0DDF882464FF07E51D8
:1050200007F0D5F88146A16807F0D4F8A060E16ADE
:10503000E06B07F0CFF882464FF07E5107F0C7F8DB
:105040008146E16807F0C6F8E060A16A206C07F0CD
:10505000C1F882464FF07E5107F0B9F881462169C8
:1050600007F0B8F82061E16A206C07F0B3F88246D7
:105070004FF07E5107F0ABF88146616907F0AAF85E
:1050800060612068BDE8F09F2DE9F04106460F46BB
:105090009046002418E0002512E004EB44022A4464
:1050A00057F8221004EB44022A4456F8220007F075
:1050B00039F804EB4401294448F82100681CC5B2C2
:1050C000032DEADB601CC4B2032CE4DBBDE8F081F5
:1050D0002DE9F04106460F469046002418E00025D1
:1050E00012E004EB44022A4457F8221004EB440275
:1050F0002A4456F8220007F067F804EB44012944DB
:1051000048F82100681CC5B2032DEADB601CC4B25C
:10511000032CE4DBBDE8F0812DE9F04780468946A9
:10512000164600242DE0002527E0002004EB440172
:10513000294446F8210000271BE007EB47022A44D8
:1051400059F8221004EB44023A4458F8220007F0C0
:1051500041F8824604EB4400284456F8201050469B
:1051600006F0E0FF04EB4401294446F82100781CD6
:10517000C7B2032FE1DB681CC5B2032DD5DB601C71
:10518000C4B2032CCFDBBDE8F08703B5CFB0CC4A67
:1051900010465099FFF778FFCA4ACB491046FFF7EF
:1051A00073FF44AAC6494F98FFF792FF17AAC74951
:1051B000C448FFF769FF189809901F98089009994B
:1051C00007F008F80A901A98014609900A9807F023
:1051D00001F80C901E9807901C980690079906F00D
:1051E000F9FF0890179801460790089806F0F2FF1B
:1051F0000A901B98059019980490059906F0EAFF0B
:1052000006901D9801460590069806F0E3FF089069
:105210001A98039019980290039906F0DBFF049006
:105220001E9801460390049806F0D4FF06901C983F
:10523000019018980090019906F0CCFF02901D98FB
:1052400001460190029806F0C5FF04901B9801905A
:1052500017980090019906F0BDFF02901F98014633
:105260000190029806F0B6FF0390049906F05AFFE9
:105270000590069906F056FF0790089906F0A4FFDE
:1052800009900A9906F0A0FF0B900C9906F09CFF7C
:105290000D901E9809901C980890099906F09AFFA5
:1052A0000B901F9809901B980890099906F092FF9F
:1052B0000A900B9906F088FF0C900D9906F0BCFF40
:1052C0000E901F98099018980890099906F082FF8F
:1052D0000B901E98099019980890099906F07AFF8A
:1052E0000A900B9906F070FF0C900D9906F0A4FF40
:1052F0000F901D9809901B980890099906F06AFF75
:105300000B901E98099018980890099906F062FF72
:105310000A900B9906F058FF0C900D9906F08CFF3F
:1053200010901F9809901A980890099906F052FF5A
:105330000B901D9809901C980890099906F04AFF57
:105340000A900B9906F040FF0C900D9906F074FF3F
:1053500011901D98099019980890099906F03AFF44
:105360000B901F98099017980890099906F032FF42
:105370000A900B9906F028FF0C900D9906F05CFF3F
:1053800012901C98099017980890099906F022FF2E
:105390000B901A98099019980890099906F01AFF2D
:1053A0000A900B9906F010FF0C900D9906F044FF3F
:1053B00013901D9809901B980890099906F00AFF10
:1053C0000B901E9809901A980890099906F002FF10
:1053D0000A900B9906F0F8FE0C900D9906F02CFF40
:1053E00014901E98099017980890099906F0F2FEFB
:1053F0000B901D98099018980890099906F0EAFEFC
:105400000A900B9906F0E0FE0C900D9906F014FF3F
:1054100015901A98099018980890099906F0DAFEE4
:105420000B901B98099017980890099906F0D2FEE6
:105430000A900B9906F0C8FE0C900D9906F0FCFE40
:10544000169032AA0EA91F48FFF766FE29AA44A9A2
:1054500032A8FFF761FE1A4A29A91046FFF714FE89
:1054600020AA32A91A48FFF733FE3BAA154920A803
:10547000FFF752FE00204E901DE000204D9013E0FB
:105480004E9800EB40014D9808443BA951F820107C
:105490004E9800EB40024D9810440A4A42F8201002
:1054A0004D98401CC0B24D904D980328E8DB4E98B3
:1054B000401CC0B24E904E980328DEDB51B000BDB8
:1054C0003C0400208C000020F8000020D4000020C4
:1054D000B00000202DE9F05F04464FF07F594FF0F7
:1054E0007C51204606F076FE824625462E46FE4832
:1054F000A0EB660635462946504606F06BFE83460D
:10550000294606F067FE8046494606F060FE0746DB
:10551000294606F05FFE05462846BDE8F09F10B517
:1055200004460021204607F0D5F802D284F000405E
:1055300010BD2046FCE70FB5ABB0EC480168006831
:1055400006F048FE1490EA480168E848006806F052
:1055500041FE1390E7480168E448006806F03AFE0F
:105560001290E5480168E148006806F033FE1190AA
:10557000DF480168006806F02DFE1090DD480168E4
:10558000DB48006806F026FE0F90DB480168D8482B
:10559000006806F01FFE0E90D6480168006806F00D
:1055A00019FE0D90D4480168D248006806F012FE3A
:1055B0000C90D1480168006806F00CFE0B902D9805
:1055C00007F059F8CD4ACE4BCDE9040106F019FF9A
:1055D00000224FF08043CDE9060106F012FFCDE92D
:1055E000080107F05BF80A902B9807F044F8C54AC9
:1055F000C54BCDE9040106F076FFC44AC44BCDE9A2
:10560000060106F0FEFECDE9080107F047F82B90F1
:105610002C9807F030F8BB4ABB4BCDE9040106F0EB
:1056200062FFBA4ABA4BCDE9060106F0EAFECDE9BF
:10563000080107F033F82C902D9807F01CF8B14AB8
:10564000B14BCDE9040106F04EFFB04AB04BCDE9B5
:10565000060106F0D6FECDE9080107F01FF82D90EF
:105660003199084606F0B6FD08903099084606F0D4
:10567000B1FD06902E99084606F0ACFD05900699FE
:1056800006F050FD0790089906F04CFD0990FFF7D1
:1056900021FF239023992E9806F09CFD2E902399AC
:1056A000309806F097FD30902399319806F092FDDE
:1056B000319012990E9806F087FD4FF080410990C5
:1056C00006F088FD1D900C99139806F02BFD4FF005
:1056D0008041099006F07EFD1C901099149806F008
:1056E00073FD08900D9906F06FFD09900B9906F077
:1056F00019FD1B900021329806F0ECFF34D10021F7
:10570000339806F0E7FF2FD10021349806F0E2FF2E
:105710002AD11C99319806F05DFD09901B993098AB
:1057200006F058FD0890099906F04EFD17901B9958
:105730002E9806F04FFD09901D99319806F04AFD0C
:105740000890099906F040FD16901D99309806F0D2
:1057500041FD09901C992E9806F03CFD089009998E
:1057600006F032FD1590BEE13499084606F032FD90
:1057700008903399084606F02DFD069032990846A8
:1057800006F028FD0590069906F0CCFC07900899D4
:1057900006F0C8FC0990FFF79DFE239023993298EC
:1057A00006F018FD32902399339806F013FD3390DC
:1057B0002399349806F00EFD349012990E9806F055
:1057C000B1FC0690349906F005FD089011990F98E8
:1057D00006F0FAFC0490339906F0FCFC06904FF0BA
:1057E0007C500D9906F0F0FC03900B9906F0ECFC50
:1057F0000490329906F0EEFC0590069906F092FCB2
:105800000790089906F08EFC4FF08041099006F051
:10581000E1FC229013990C9806F0D6FC069034997E
:1058200006F0D8FC08904FF07C50109906F0CCFCA4
:1058300003900B9906F0C8FC0490339906F0CAFC5B
:10584000069011990F9806F06DFC0490329906F0BD
:10585000C1FC0590069906F065FC0790089906F0D2
:1058600061FC4FF08041099006F0B4FC21904FF0AC
:105870007C50109906F0A8FC05900D9906F0A4FC48
:1058800007904FF08040349906F0A4FC06900799E9
:1058900006F0A0FC099013990C9806F043FC0590C3
:1058A0004FF08040339906F095FC0490059906F07E
:1058B00091FC079012990E9806F086FC05904FF027
:1058C0008040329906F086FC0490059906F082FC2F
:1058D0000690079906F026FC0890099906F022FC2C
:1058E00020902199084615E0DF59375F20010020FC
:1058F00024010020280100202C01002030689DC8D0
:10590000FE3F9F3F52B81E85EB613040AF99D76C88
:1059100040DF913F06F05EFC04902299084606F0B5
:1059200059FC0390049906F0FDFB059006F0A3FED8
:10593000CDE9060109F0E0F8CDE9080106F0AEFE78
:105940001F9020981E9012990E9806F03DFC07902B
:105950004FF080401E9906F03DFC0690079906F036
:1059600039FC09904FF07C500D9906F02DFC059004
:105970000B9906F029FC07904FF080401F9906F024
:1059800029FC0690079906F025FC0890099906F075
:10599000C9FB1A900C99139806F0C4FB07904FF0BE
:1059A00080401E9906F016FC0690079906F012FC3E
:1059B000099011990F9806F007FC07904FF080406E
:1059C0001F9906F007FC0690079906F003FC089063
:1059D000099906F0A7FB19904FF07C50109906F03A
:1059E000F3FB05900D9906F0EFFB07904FF0804018
:1059F0001E9906F0EFFB0690079906F0EBFB099065
:105A00000E99129806F08EFB07904FF080401F9978
:105A100006F0E0FB0690079906F0DCFB0890099978
:105A200006F080FB18901999349806F0D3FB079084
:105A30001899339806F0CEFB0690079906F0C4FB40
:105A400009901C99319806F0C5FB07901B99309876
:105A500006F0C0FB0690079906F0B6FB089009997E
:105A600006F060FB17901899329806F0B3FB079088
:105A70001A99349806F0AEFB0690079906F0A4FB3D
:105A800009901B992E9806F0A5FB07901D99319857
:105A900006F0A0FB0690079906F096FB089009997E
:105AA00006F040FB16901A99339806F093FB079086
:105AB0001999329806F08EFB0690079906F084FB40
:105AC00009901D99309806F085FB07901C992E9837
:105AD00006F080FB0690079906F076FB089009997E
