:020000040800F2
:10000000800E0020752B0008692900086B29000864
:100010006F290008732900087729000800000000F4
:100020000000000000000000000000007B29000824
:100030007D290008000000007F290008E327000850
:100040008F2B00088F2B00088F2B00088F2B0008A8
:100050008F2B00088F2B00088F2B00088F2B000898
:100060008F2B00088F2B00088F2B00088F2B000888
:100070008F2B00088F2B00088F2B00088F2B000878
:100080008F2B00088F2B00088F2B00088F2B000868
:10009000812900088F2B00088F2B00088F2B000868
:1000A0008F2B0008656900088F2B00088F2B000834
:1000B0008F2B00088F2B0008952400088F2B000839
:1000C0008F2B00088F2B00088F2B00088F2B000828
:1000D0008F2B0008DF2800088F2B00088F2B0008CB
:1000E0008F2B00088F2B00088F2B00088F2B000808
:1000F0008F2B00088F2B00088F2B00088F2B0008F8
:100100008F2B00088F2B00088F2B00088F2B0008E7
:100110008F2B00088F2B00088F2B00088F2B0008D7
:100120008F2B00088F2B00088F2B00088F2B0008C7
:1001300000F002F800F06AF80AA090E8000C82448F
:100140008344AAF10107DA4501D100F05FF8AFF26C
:10015000090EBAE80F0013F0010F18BFFB1A43F0A5
:100160000103184708BA000028BA00000A444FF0FB
:10017000000C10F8013B13F0070408BF10F8014B06
:100180001D1108BF10F8015B641E05D010F8016B4B
:10019000641E01F8016BF9D113F0080F1EBF10F8AF
:1001A000014BAD1C0C1B09D16D1E58BF01F801CBD2
:1001B000FAD505E014F8016B01F8016B6D1EF9D555
:1001C0009142D6D37047000000230024002500266A
:1001D000103A28BF78C1FBD8520728BF30C148BFAA
:1001E0000B60704766290BF03883642908F002869B
:1001F000002070471FB509F071F9040000200021AC
:100200000AF074FAE0601FBD10B510BD09F086FA5F
:100210001146FFF7EFFF00F009F809F0A4FA03B464
:10022000FFF7F2FF03BC02F0FFFA000086B006F011
:1002300094FD02F075FA4FF4A06002F0BBFC4FF49D
:10024000E13002F000FB01F0D0FE00F022FD00F0F2
:10025000DAF8472141F2873001F0F8FF472144F6F0
:100260001F6002F0AEF8472144F61F6002F021F84B
:100270004FF4E16002F091FA002006F035FE4FF4F1
:100280002F7002F08AFA012006F02EFE06F0D4FD4F
:1002900006F0C7FD07F072FF06F0EAFB06F004FD6A
:1002A00001221146324803F0BEFC5FE03149486943
:1002B0000BF0EEF804B22F4908690BF0E9F805B22B
:1002C0002C49C8680BF0E4F806B22B4988680BF09B
:1002D000DFF807B2284948680BF0DAF80FFA80F81F
:1002E000254908680BF0D4F80FFA80F90020CDE911
:1002F0000265CDE904402148B0F904001F49B1F975
:100300000210CDE900101D48B0F900303A464146D0
:10031000484606F05CF800200090194B01901A68DE
:1003200059689868002306F0D5F9002002900390E0
:10033000049005900090134C0190A488A3B2114C36
:10034000A489A2B20F4C2489A1B20E4C2488A0B279
:1003500006F003F9002000900190029040F2DC5377
:100360001A4619460390184606F05DFA9EE700000B
:10037000002C014000030020A8030020C803002037
:10038000EC040020D403002070B505460C4601F0B3
:1003900045FE182001F0F6FE01F081FE18B101F0D3
:1003A0005DFE012070BD284601F0ECFE01F077FEF5
:1003B000204601F0E7FE01F072FE18B101F04EFE9A
:1003C0000120EFE701F04AFE0020EBE770B504469C
:1003D00001F024FE182001F0D5FE01F060FE204659
:1003E00001F0D0FE01F05BFE01F018FE192001F0D3
:1003F000C9FE01F054FE002001F0EFFE054601F0B9
:100400002DFE284670BD10B500240020FFF7DEFF4A
:100410000446482C04D0FAA008F0E0FC012010BDEE
:10042000FCA008F0DBFC11210A20FFF7ADFF002043
:10043000FE498861C86108624FF07E50C862486218
:100440008862FB488864FB48C864FB480865FB4831
:100450000863FB484863FB488863FB48C863FB4864
:100460000864FB4848640A2002F097F90020D6E7A8
:100470002DE9F04106460F4614461D4601F0CEFD1B
:10048000002141EA4601C8B201F07CFE01F007FEFE
:1004900020B101F0E3FD0120BDE8F081384601F014
:1004A00071FE01F0FCFD01F0B9FD012101EB4601F7
:1004B000C8B201F067FE01F0F2FD0DE0012C04D19D
:1004C000002001F08AFE287003E0012001F085FE83
:1004D0002870601EC4B26D1C002CEFD101F0BEFD6F
:1004E0000020D9E72DE9F04F89B007AB06220321A0
:1004F0000C20FFF7BDFF06900698B8B99DF81C00C8
:100500009DF81D1040EA01200FFA80F99DF81E00A9
:100510009DF81F1040EA01200FFA80FA9DF8200094
:100520009DF8211040EA01200FFA80FBBF49886C3A
:100530000AF01EFECDE9020148460AF027FB002220
:10054000C44BCDE900010AF0C9F90746DDE90223F1
:100550000AF024FDCDE904010AF0DEF80446B349AF
:10056000C86C0AF005FECDE9020150460AF00EFB08
:100570000022B84BCDE900010AF0B0F90746DDE9E9
:1005800002230AF00BFDCDE904010AF0C5F8054687
:10059000A649086D0AF0ECFDCDE9020158460AF0C3
:1005A000F5FA07460022AB4B0AF098F9CDE90001B5
:1005B000DDE902230AF0F2FCCDE904010AF0ACF80F
:1005C00006469A49886B31460AF0CAFF974905905A
:1005D000486B29460AF0C4FF80469449086B2146BF
:1005E0000AF0BEFF414604900AF0EEFD0746059969
:1005F0000AF0EAFD8D490860086C31460AF0B0FF48
:100600008A490590C86B29460AF0AAFF80468749A7
:10061000486B21460AF0A4FF414604900AF0D4FD3D
:10062000074605990AF0D0FD80494860486C31467C
:100630000AF096FF7D490590086C29460AF090FF64
:1006400080467A49886B21460AF08AFF4146049029
:100650000AF0BAFD074605990AF0B6FD73498860AD
:100660000846006880F0004738460AF081FD002205
:10067000784BCDE902010AF0A1FACDE904010AF0B4
:100680004BF86A49C86048680AF072FD07460022C4
:10069000704B0AF093FACDE904010AF03DF8634982
:1006A000086188680AF064FD07460022694B0AF079
:1006B00085FACDE904010AF02FF85C49486111215F
:1006C0000A20FFF761FE002009B0BDE8F08F2DE998
:1006D000F04F93B0604C650C2646670CA04647F679
:1006E000FF794FF0000A5DA008F078FB4FF47A70B4
:1006F00002F053F84FF47A7002F04FF84FF47A702A
:1007000002F04BF84FF47A7002F047F800BF67E050
:10071000FFF7E8FE20460AF0D7FE83464348C1684B
:1007200058460AF0E9FE04D84049C8680AF0B0FE0D
:1007300004B230460AF0C8FE83463C480169584678
:100740000AF0DAFE04D8394908690AF0A1FE06B2B7
:1007500040460AF0B9FE83463448416958460AF0DB
:10076000CBFE05D8314948690AF092FE0FFA80F8AD
:1007700028460AF0A9FE83462C48C16858460AF06C
:10078000BBFF04D82949C8680AF082FE05B2384682
:100790000AF09AFE83462548016958460AF0ACFFE4
:1007A00004D8224908690AF073FE07B248460AF0E5
:1007B0008BFE83461D48416958460AF09DFF05D8C7
:1007C0001A4948690AF064FE0FFA80F927A008F078
:1007D00005FB0A2001F0E1FF0AF101000FFA80FA9F
:1007E000BAF5FA6F94DD22A008F0F8FA4FF47A70A7
:1007F00001F0D3FF4FF47A7001F0CFFF40E000002A
:10080000414B3839373520494E4954204552524FD3
:10081000520A0000414B3839373520494E4954209F
:10082000535543434553530A000000000003002082
:100830003CE8C839C000803E7B7AC83C7F94783F52
:1008400015F4E83CD1AA22BC4155813FBA16B93B08
:100850004E96823F005075400180FFFF66697273BB
:10086000742063616C204D41470A00002E20000077
:100870007365636F6E642063616C204D41470A00AD
:100880004FF47A7001F089FF4FF47A7001F085FF20
:100890004FF0000A68E0FFF725FE20460AF014FE3C
:1008A00083469E48C16858460AF026FE04D89B49F4
:1008B000C8680AF0EDFD04B230460AF005FE834632
:1008C0009648016958460AF017FE04D8934908690A
:1008D0000AF0DEFD06B240460AF0F6FD83468F4878
:1008E000416958460AF008FE05D88C4948690AF063
:1008F000CFFD0FFA80F828460AF0E6FD83468748C8
:10090000C16858460AF0F8FE04D88449C8680AF05D
:10091000BFFD05B238460AF0D7FD83467F4801691E
:1009200058460AF0E9FE04D87C4908690AF0B0FD8F
:1009300007B248460AF0C8FD8346784841695846E0
:100940000AF0DAFE05D8754948690AF0A1FD0FFAE8
:1009500080F9AFF2E80008F041FA0A2001F01DFF2B
:100960000AF101000FFA80FABAF5FA6F93DD4346F7
:10097000324621466AA008F031FA4B463A462946EB
:100980006EA008F02BFA28190AF000F900224FF0A7
:100990008043CDE90E0109F0A1FFCDE9100109F076
:1009A000BBFE5E498861B8190AF0F0F800224FF0EA
:1009B0008043CDE90E0109F091FFCDE9100109F066
:1009C000ABFE5649C86109EB08000AF0DFF80022C7
:1009D0004FF08043CDE90E0109F080FFCDE9100111
:1009E00009F09AFE4D490862F01B0AF0CFF8CDE9F4
:1009F0000E01601B0AF0CAF80022574BCDE90A012C
:100A00000AF0DCF8CDE90C01DDE90E2309F066FF00
:100A1000CDE9100109F080FE40494862A8EB0900C9
:100A20000AF0B4F8CDE90E01601B0AF0AFF800221D
:100A3000494BCDE90A010AF0C1F8CDE90C01DDE925
:100A40000E2309F04BFFCDE9100109F065FE334993
:100A50008862886A0AF08CFBCDE910012F49486A48
:100A60000AF086FBCDE90E012C49086A0AF080FBEA
:100A7000CDE90C012949C8690AF07AFBCDE90A01E0
:100A8000264988690AF074FBCDE90801DDE9100107
:100A9000CDE90601DDE90E01CDE90401DDE90C0136
:100AA000CDE90201DDE90A01CDE900012BA0DDE974
:100AB000082308F093F913B0BDE8F08F2DE9F04159
:100AC00005460E461746984601F0A8FA002141EA6D
:100AD0004501C8B201F056FB01F0E1FA20B101F086
:100AE000BDFA0120BDE8F081304601F04BFB01F07A
:100AF000D6FA00240CE018F8040001F043FB01F0E2
:100B0000CEFA18B101F0AAFA0120EBE7601CC4B2DA
:100B1000BC42F0DB01F0A2FA0020E3E70003002072
:100B2000786D61783A256409796D61783A256409B0
:100B30007A6D61783A25640900000000786D696E6D
:100B40003A256409796D696E3A2564097A6D696E92
:100B50003A25640A000000000000F03F786F252E5F
:100B600032660920796F252E326609207A6F252E8C
:100B700032660920252E32660920252E32660A00AB
:100B800070B505460C4601F049FAD02001F0FAFA9A
:100B900001F085FA18B101F061FA012070BD284614
:100BA00001F0F0FA01F07BFA204601F0EBFA01F0D7
:100BB00076FA18B101F052FA0120EFE701F04EFA8F
:100BC0000020EBE770B504460025BC2C01DB0125B5
:100BD00010E0622C01DB02250CE02A2C01DB03254E
:100BE00008E0142C01DB042504E00A2C01DB0525B8
:100BF00000E0062529461A20FFF7C2FF70BD70B538
:100C00000446B4F57A7F01DD4FF47A74042C00DADF
:100C100004244FF47A7090FBF4F0401EC5B22946CC
:100C20001920FFF7ADFF0546264604EBD671C1F348
:100C30004F00FFF7C7FF70BD70B5044601F0EEF935
:100C4000D02001F09FFA01F02AFA204601F09AFA2A
:100C500001F025FA01F0E2F9D12001F093FA01F058
:100C60001EFA002001F0B9FA054601F0F7F928460E
:100C700070BD10B50446E006010E1C20FFF780FF92
:100C800010BD10B50446E006010E1B20FFF778FFEB
:100C900010BD10B580216B20FFF772FF642001F0BA
:100CA0007CFD00216B20FFF76BFF0320FFF7E9FFBE
:100CB0000020FFF7DEFF4FF49670FFF7A0FF002142
:100CC0003820FFF75DFF00216A20FFF759FF002160
:100CD0002320FFF755FF80213720FFF751FF7520B4
:100CE000FFF7AAFF0446682C0FD101216B20FFF704
:100CF00047FF00216C20FFF743FF4FF49670FFF78A
:100D00007EFFFBA008F06AF804E0FEA008F066F899
:100D1000012010BD6FF06F00FE49C880652008817A
:100D2000042048810020FC498881C881088200BFD6
:100D3000EFE72DE9F04106460F4614461D4601F047
:100D40006DF9002141EA4601C8B201F01BFA01F039
:100D5000A6F920B101F082F90120BDE8F081384602
:100D600001F010FA01F09BF901F058F9012101EBB3
:100D70004601C8B201F006FA01F091F90DE0012C2C
:100D800004D1002001F029FA287003E0012001F0CD
:100D900024FA2870601EC4B26D1C002CEFD101F043
:100DA0005DF90020D9E72DE9F84F6B460222412179
:100DB0006820FFF7BEFF9DF801009DF8001040EA93
:100DC00001200FFA80FA504609F0E0FE804600222A
:100DD000D24B09F083FD0646D14AD24B09F0CEFC36
:100DE000044609F099FC8346CF4958460AF0B8FBFF
:100DF00004460AF04DFB00B2BDE8F88F2DE9FC4730
:100E00008046894692466B46062243216820FFF7BA
:100E100090FF0446A4B99DF801009DF8001040EA37
:100E2000012005B29DF803009DF8021040EA012060
:100E300006B29DF805009DF8041040EA012007B2B3
:100E4000B448C088281A00B2B24908800846008910
:100E5000301A00B2488008464089381A00B28880AB
:100E60002046BDE8FC872DE9FC478046894692462E
:100E70006B4606223B216820FFF75BFF0446A4B9BE
:100E80009DF801009DF8001040EA012005B29DF890
:100E900003009DF8021040EA012006B29DF805000B
:100EA0009DF8041040EA012007B228460AF00CFB26
:100EB0009949086030460AF007FB97494860384670
:100EC0000AF002FB944988602046BDE8FC872DE9C2
:100ED000F04105460E461746984601F09FF800215E
:100EE00041EA4501C8B201F04DF901F0D8F820B14E
:100EF00001F0B4F80120BDE8F081304601F042F97C
:100F000001F0CDF800240CE018F8040001F03AF9E3
:100F100001F0C5F818B101F0A1F80120EBE7601C61
:100F2000C4B2BC42F0DB01F099F80020E3E72DE900
:100F3000F04F89B01E2008904FF000094FF0000AD2
:100F40004FF0000B002006900790052003906FF0F3
:100F50000400029053E000BF0A2001F01EFC6B4623
:100F6000062243216820FFF7E4FE0746A7B99DF853
:100F700001009DF8001040EA012004B29DF8030032
:100F80009DF8021040EA012005B29DF805009DF889
:100F9000041040EA012006B2BDF81800201A00B281
:100FA000ADF81000BDF81A00281A00B2ADF8120012
:100FB000BDF81C00301A00B2ADF81400ADF81840AE
:100FC000ADF81A50ADF81C60BDF910000528C3DC5F
:100FD000BDF9100010F1050FBEDBBDF912000528A8
:100FE000BADCBDF9120010F1050FB5DBBDF9140034
:100FF0000528B1DCBDF9140010F1050FACDB089831
:10100000411EC9B208910028A5D1804626E00520DE
:1010100001F0C3FB6B46062243216820FFF789FEDF
:101020000746A7B99DF801009DF8001040EA01208D
:1010300004B29DF803009DF8021040EA012005B2B9
:101040009DF805009DF8041040EA012006B2A14475
:10105000AA44B34408F1010000F0FF08B8F1640F9E
:10106000D5DB642099FBF0F000B22A49C8806420E7
:101070009AFBF0F000B2088164209BFBF0F000B214
:1010800048810846B0F90A30B0F90820B0F90610D6
:1010900026A007F0A3FE09B0BDE8F08F704770B539
:1010A0000546002400BF05E04FF47A7001F075FB9F
:1010B000601CC4B2082CF7DB70BD2DE9FC416B4607
:1010C00006223B216820FFF734FE0746E7BB9DF868
:1010D00001009DF8001040EA012004B29DF80300D1
:1010E0009DF8021040EA012005B29DF805002CE0B1
:1010F0004D505520494E4954205355434345535371
:101100000A0000004D505520494E49542045525286
:101110004F520A00C8030020A80300200040754079
:10112000A4703D0AD74342400000C84267786F660A
:10113000663A25640967796F66663A256409677AB5
:101140006F66663A25640A0004E09DF8041040EAE0
:10115000012006B220460AF0B7F9F7490860284690
:101160000AF0B2F9F449486030460AF0ADF9F249A4
:1011700088600A2001F011FBBDE8FC8130B5024611
:101180000B46002011E0002442F82040002108E036
:10119000002400EB400503EBC50545F821404C1C3D
:1011A00021B20629F4DB441C20B20628EBDB30BD5B
:1011B0002DE9F05F06460F46914600244AE0601C88
:1011C00005B243E004EB440207EBC20252F82410DC
:1011D00004EB440207EBC20252F825000AF062F861
:1011E0008246002150460AF01FF92DD056F82410EF
:1011F00050460AF0B5F9834656F825100AF0ADFAC4
:1012000046F82500A8461CE008EB480007EBC000A4
:1012100050F8241050460AF0A3F9834608EB480022
:1012200007EBC00050F8251058460AF096FA08EB74
:10123000480107EBC10141F8250008F101000FFA50
:1012400080F8B8F1060FDFDB681C05B2062DB9DBAC
:10125000601C04B2062CB2DB052434E004EB44022B
:1012600007EBC20252F8241056F824000AF01AF8CC
:1012700046F824004FF07E5004EB440107EBC10117
:1012800041F8240000251AE004EB440007EBC000FD
:1012900050F825A056F8241050460AF061F983460C
:1012A00056F825100AF059FA46F82500002004EBFC
:1012B000440107EBC10141F82500681C05B2A542B5
:1012C000E2DB601E04B2002CC8DA002405E056F808
:1012D000240049F82400601C04B2062CF7DBBDE8AA
:1012E000F09F2DE9F04F8BB006460F4690469A4688
:1012F0004FF07E50099000243DE0E01C58F820900B
:1013000058F824105AF824000AF032FA0A90494694
:1013100048460AF025F901900A990AF021F902904D
:101320000A990AF01DF9834609990AF016FA0990FC
:1013300049464FF080400AF013F9494602900AF0FE
:101340000FF983460A990AF00BF903A941F8240022
:1013500049464FF040400AF003F902900A990AF01A
:10136000FFF883460A990AF0FBF8E11C03AA42F849
:101370002100601C04B2032CBFDB00242BE003A976
:1013800051F8240009990AF0EBF8834656F8241026
:1013900009F01AFF46F82400002518E003AA52F8C5
:1013A000251052F824000AF0DBF8834604EB4400D1
:1013B00007EBC00050F82510584609F005FF04EB74
:1013C000440107EBC10141F82500681C05B2062D58
:1013D000E4DB601C04B2062CD1DB0BB0BDE8F08F5F
:1013E0002DE9F04FC5B007460E4614464FF00008F1
:1013F000DFF8489152484490002041904290439039
:1014000018213BA807F0B9FD182135A807F0B5FD54
:1014100018212FA807F0B1FD90210BA807F0ADFD12
:1014200000200A903D903C903B90464840903F9071
:101430003E9098E008F101000FFA80F80BA92FA860
:10144000FFF79CFE002518E005EB450057F820004B
:10145000419005EB450007EB80004068429005EBAA
:10146000450007EB80008068439041AB3BAA0BA985
:101470002FA8FFF736FF681C05B2062DE4DB35AA5E
:101480000BA92FA8FFF794FE409908460AF068F8C8
:1014900082463A9908460AF063F88346514609F0B5
:1014A00001FF09903F9908460AF05AF88346399996
:1014B00008460AF055F85946069009F0F3FE8246B0
:1014C0003E9908460AF04CF80590389908460AF00B
:1014D00047F80490059909F0E5FE0690379908460B
:1014E0000AF03EF80590369908460AF039F803905C
:1014F000359908460AF034F80190359908460AF003
:101500002FF80090019909F05FFE0290039909F00D
:101510005BFE0490059909F057FE8346069909F091
:1015200053FE5146079009F04FFE0890099909F0C3
:101530004BFE4490002514E0A80300205F70893022
:101540000000C8427FD6D03D35AA52F825103BAAEC
:1015500052F825000AF00CF93BA941F82500681C57
:1015600005B2062DF0DBB8F1140F05DA49464498B0
:101570000AF0C2F8FFF45EAFFE493E9809F0F0FFB2
:101580002060FC493F9809F0EBFF6060F949409802
:1015900009F0E6FFA06021683B9809F0E1FF3060A8
:1015A00061683C9809F0DCFF7060A1683D9809F023
:1015B000D7FFB0604FF07E5120680AF0D9F820F0D4
:1015C000004AED4950460AF097F817D34FF07E5184
:1015D00060680AF0CDF820F0004AE74950460AF06A
:1015E0008BF80BD34FF07E51A0680AF0C1F820F0C1
:1015F000004AE14950460AF07FF801D201200A90E2
:10160000306820F0004ADD4950460AF075F80FD3E3
:10161000706820F0004AD94950460AF06DF807D3A7
:10162000B06820F0004AD54950460AF065F801D26A
:1016300001200A900A9845B0BDE8F08F00B59FB030
:10164000002019901A901B90CD4A07CA16AB07C309
:101650000020CC49088006E0FFF72FFDC94800882C
:10166000401CC8490880C7480088C828F4DB00200F
:101670001D9016E000211D9800EB4000C24A42F880
:1016800020101D9800EB400002EB800041601D9887
:1016900000EB400002EB800081601D98401CC0B24E
:1016A0001D901D980628E5DB0020B6490880B74943
:1016B000886048600860B6A007F090FB0520FFF73F
:1016C000EEFC0020AF49088045E0FFF7F6FCB34888
:1016D0000068A849139009F043FF4FF08D41149022
:1016E00009F0E0FD1590A94800680146149015988E
:1016F00009F06AFDA5490860A84840689D49139013
:1017000009F02EFF4FF08D41149009F0CBFD15909C
:101710009E48406801461490159809F055FD9B4974
:1017200048609E4880689349139009F019FF4FF074
:101730008D41149009F0B6FD1590944880680146DB
:101740001490159809F040FD904988608D480088F4
:10175000401C8C4908808B480088C828B5DB8B4822
:1017600000688F49159009F09DFD874908608748FA
:1017700040688B49159009F095FD8349486083487E
:1017800080688749159009F08DFD7F4988600020A9
:101790007C49088000217D4881604160016081A012
:1017A00007F01CFB784880680F9009F0E1FCCDE958
:1017B0001401754840680F9009F0DAFCCDE9120178
:1017C000714800680F9009F0D3FCCDE91001DDE904
:1017D0001401CDE90201DDE91201CDE9000173A098
:1017E000DDE9102307F0FAFA4FF47A7000F0D5FF24
:1017F00074A007F0F3FA0520FFF751FC00206149BF
:10180000088045E0FFF759FC644800685949139087
:1018100009F0A6FE4FF08D41149009F043FD15909C
:101820005A48006801461490159809F0CDFC5749B4
:1018300008605A4840684F49139009F091FE4FF0F4
:101840008D41149009F02EFD1590504840680146D6
:101850001490159809F0B8FC4C4948604F488068CE
:101860004449139009F07CFE4FF08D41149009F02B
:1018700019FD15904548806801461490159809F0A7
:10188000A3FC424988603F480088401C3D490880CD
:101890003C480088C828B5DB3C48006840491590A2
:1018A00009F000FD3849C860384840683C49159047
:1018B00009F0F8FC344908613448806838491590CB
:1018C00009F0F0FC3049486100202E4908802F497A
:1018D0008860486008603EA007F080FA2A484069A6
:1018E0000F9009F045FCCDE91401274800690F90DD
:1018F00009F03EFCCDE912012348C0680F9009F0C1
:1019000037FCCDE91001DDE91401CDE90201DDE983
:101910001201CDE9000125A0DDE9102307F05EFAF0
:101920004FF47A7000F039FF2BA007F057FA05202A
:10193000FFF7B5FB0020134908807EE0FFF7BDFBF1
:10194000164800680B49139009F00AFE4FF08D41CC
:10195000149009F0A7FC15900C48006801461490FB
:10196000159809F031FC094908600C4840680149A4
:10197000139037E00AE81C41CDCC4C3E000060409B
:1019800050B9000818000020540300209C030020D8
:1019900066697273742063616C0A0000A8030020FA
:1019A000000048436F6E65206F6B0A00783A252E61
:1019B000326609793A252E3266097A3A252E326640
:1019C0000A0A00007365636F6E642063616C0A002D
:1019D00074776F206F6B0A007468697264206361AA
:1019E0006C0A000009F0BCFD4FF08D41149009F025
:1019F00059FC1590FE48406801461490159809F06E
:101A0000E3FBFB494860FB488068FB49139009F001
:101A1000A7FD4FF08D41149009F044FC1590F44857
:101A2000806801461490159809F0CEFBF049886053
:101A3000F2480088401CF1490880F0480088C82816
:101A4000FFF67CAFEA480068ED49159009F02AFCE2
:101A5000EC498861E6484068E949159009F022FCA4
:101A6000E849C861E2488068E549159009F01AFC28
:101A7000E44908620020E1490880DD498860486047
:101A80000860E1A007F0AAF9DE48006A0F9009F0AB
:101A90006FFBCDE91401DB48C0690F9009F068FBCA
:101AA000CDE91201D74880690F9009F061FBCDE9BB
:101AB0001001DDE91401CDE90201DDE91201CDE9F2
:101AC0000001AFF21810DDE9102307F087F94FF499
:101AD0007A7000F062FECFA007F080F90520FFF7D2
:101AE000DEFA0020C549088045E0FFF7E6FAC14864
:101AF0000068C149139009F033FD4FF08D411490F7
:101B000009F0D0FB1590BA4800680146149015986A
:101B100009F05AFBB6490860B6484068B6491390C8
:101B200009F01EFD4FF08D41149009F0BBFB15909C
:101B3000AF48406801461490159809F045FBAC4940
:101B40004860AC488068AC49139009F009FD4FF03B
:101B50008D41149009F0A6FB1590A54880680146B8
:101B60001490159809F030FBA1498860A3480088BB
:101B7000401CA2490880A1480088C828B5DB9C48C1
:101B800000689F49159009F08DFB9E49486298486E
:101B900040689B49159009F085FB9A4988629448F2
:101BA00080689749159009F07DFB9649C86200202E
:101BB000924908808E4988604860086098A007F0C4
:101BC0000DF99048C06A0F9009F0D2FACDE91401DE
:101BD0008C48806A0F9009F0CBFACDE91201894850
:101BE000406A0F9009F0C4FACDE91001DDE9140153
:101BF000CDE90201DDE91201CDE90001AFF2542087
:101C0000DDE9102307F0EAF84FF47A7000F0C5FD23
:101C100086A007F0E3F80520FFF741FA0020774996
:101C2000088045E0FFF749FA72480068724913904E
:101C300009F096FC4FF08D41149009F033FB15909C
:101C40006B48006801461490159809F0BDFA684980
:101C50000860684840686849139009F081FC4FF0BB
:101C60008D41149009F01EFB1590614840680146B3
:101C70001490159809F0A8FA5D4948605D4880689D
:101C80005D49139009F06CFC4FF08D41149009F000
:101C900009FB15905648806801461490159809F084
:101CA00093FA5349886055480088401C534908807E
:101CB00052480088C828B5DB4D4800685049159047
:101CC00009F0F0FA4F490863494840684C491590BB
:101CD00009F0E8FA4B49486345488068484915903F
:101CE00009F0E0FA474988630020444908804049E8
:101CF00088604860086050A007F070F84148806B29
:101D00000F9009F035FACDE914013E48406B0F9071
:101D100009F02EFACDE912013A48006B0F9009F054
:101D200027FACDE91001DDE91401CDE90201DDE971
:101D30001201CDE90001AFF28C30DDE9102307F08C
:101D40004DF84FF47A7000F028FD3EA007F046F8F9
:101D50000520FFF7A4F904F061F900202749088065
:101D600045E0FFF7AAF9234800682349139009F0DA
:101D7000F7FB4FF08D41149009F094FA15901C4830
:101D8000006801461490159809F01EFA1849086079
:101D9000184840681849139009F0E2FB4FF08D4154
:101DA000149009F07FFA159011484068014614908C
:101DB000159809F009FA0E4948600E4880680E49E6
:101DC000139009F0CDFB4FF08D41149009F06AFAA1
:101DD00015900748806801461490159809F0F4F9A9
:101DE0000349886005480088401C044908802FE0AA
:101DF0009C030020A80300200AE81C4118000020D2
:101E000000004843540300207468726565206F6BBE
:101E10000A000000666F75722063616C0A000000A2
:101E2000666F7572206F6B0A000000006669766548
:101E30002063616C0A00000066697665206F6B0A9A
:101E4000000000007369782063616C0A00000000E4
:101E500050480088C82884DB4F4800684F491590D7
:101E600009F020FA4E49C8634B4840684B49159029
:101E700009F018FA4A4908644748806847491590AC
:101E800009F010FA4649486446A006F0A7FF444806
:101E9000406C0F9009F06CF9CDE914014048006CDA
:101EA0000F9009F065F9CDE912013D48C06B0F9024
:101EB00009F05EF9CDE91001DDE91401CDE9020177
:101EC000DDE91201CDE90001AFF22050DDE9102378
:101ED00006F084FF4FF47A7000F05FFC16AA19A98F
:101EE0002F48FFF77DFA1C901C9868B92F49199864
:101EF00008601A9848601B9888602D481699016000
:101F0000179941601899816029488068099009F003
:101F10002FF9CDE9140126484068099009F028F905
:101F2000CDE9120122480068099009F021F9CDE9B4
:101F300010011E488068099009F01AF9CDE90E01D8
:101F40001A484068099009F013F9CDE90C011748C7
:101F50000068099009F00CF9CDE90A01DDE91401E6
:101F6000CDE90801DDE91201CDE90601DDE9100145
:101F7000CDE90401DDE90E01CDE90201DDE90C0145
:101F8000CDE900010BA0DDE90A2306F027FF1FB011
:101F900000BD0000180000209C0300200000484302
:101FA00054030020736978206F6B0A000C00002036
:101FB000000000206230252E3266096231252E3263
:101FC00066096232252E3266096B30252E3266098B
:101FD0006B31252E3266096B32252E32660A0000DF
:101FE00010B5022000F0B5FB10BD08B50121082096
:101FF00001F06AF94FF44060ADF8000010208DF850
:10200000030003208DF8020069468D4800F0A0FE11
:102010004FF440618A4800F048FF08BD10B5884879
:10202000001D006820F470408549091D08600846BD
:10203000006840F4405008600120824908608249ED
:10204000C1F8A801FFF7CCFF00207E490860FFF728
:10205000C7FF00207C49C1F8A80110BD10B5784821
:10206000001D006820F470407549091D086008468D
:10207000006840F44050086000207249091F086061
:102080007149C1F8AC01FFF7ABFF01206D49091F91
:1020900008606D49C1F8AC01FFF7A2FF10BD10B593
:1020A00000246748001D006820F470406449091D41
:1020B00008600846006840F400400860012061495B
:1020C0000860FFF78DFF01205F49C1F8A801FFF705
:1020D00087FF07E0601CC4B2FA2C03DDFFF7BEFFE8
:1020E000012010BD5748803800680028F2D15549BA
:1020F000091F086000BFF4E710B500205149091F0F
:1021000008604F48001D006820F470404C49091DCC
:1021100008600846006840F44050086000204A49C2
:10212000C1F8AC01FFF75CFF01204649091F0860B8
:10213000FFF756FF00204449C1F8A80110BD10B5B3
:1021400000204049091F08603D48001D006820F438
:1021500070403B49091D08600846006840F4405043
:10216000086001203849C1F8AC01FFF739FF0120B0
:102170003449091F0860FFF733FF00203249C1F8D6
:10218000A80110BD70B504462D48001D006820F45C
:1021900070402B49091D08600846006840F4405013
:1021A000086000202749091F0860002512E0E009A7
:1021B000244908606006040E01202349C1F8A801E3
:1021C000FFF70EFF00201F49091F0860FFF708FFF7
:1021D000681CC5B2082DEADB70BD70B50546002449
:1021E0001748001D006820F470401549091D08605B
:1021F0000846006840F400400860002615E0002012
:102200001049091F0860FFF7EBFE01200E49C1F8D5
:10221000A8016006040E0B488038006808B1601CF5
:10222000C4B2FFF7DDFE701CC6B2082EE7DB15B99D
:10223000FFF785FF01E0FFF75FFF204670BD00005C
:10224000000C0140AC812142008021427FB505464F
:102250000C460121C80201F037F8ADF80850ADF87E
:1022600004400020ADF80A00ADF806008DF80C001F
:1022700001A9844801F060F90121824801F0B8FC0D
:1022800019208DF8000002208DF8010000208DF843
:10229000020001208DF80300684600F090FC012147
:1022A000784801F06BFF00220121764801F0BBFC69
:1022B0007FBD30B589B005460C460121042001F0F0
:1022C00010F80121082000F0FFFF4FF47070ADF806
:1022D000140028208DF8170005A96B4800F038FD80
:1022E0004FF47071684800F0E2FDADF80C50ADF8A5
:1022F00008400020ADF80E00ADF80A0002A96348BE
:1023000001F01AF90020ADF81800ADF81A0001200C
:10231000ADF81C000020ADF81E00ADF8200006A9A5
:102320005A4801F09CFB0420ADF818000020ADF8DD
:102330001A000120ADF81C000020ADF81E00ADF819
:10234000200006A9514801F08AFB0820ADF81800CA
:102350000020ADF81A000120ADF81C000020ADF8F7
:102360001E00ADF8200006A9484801F078FB0C20BB
:10237000ADF818000020ADF81A000120ADF81C00DF
:102380000020ADF81E00ADF8200006A93F4801F07E
:1023900066FB1E208DF8040001208DF805008DF8E5
:1023A00006008DF8070001A800F009FC01221E219B
:1023B000364801F038FC0121344801F019FC09B01D
:1023C00030BD30B589B005460C460121042000F02F
:1023D0007BFF0121084600F084FF0F20ADF80400C8
:1023E00003208DF8060018208DF8070001A9284861
:1023F00000F0AEFCADF81C50ADF818400020ADF870
:102400001E00ADF81A0006A94FF0804001F094F8C4
:102410006020ADF808000120ADF80A000020ADF8FA
:102420000E00ADF8100002A94FF0804001F0C1F895
:102430000821C80601F00CFD02A94FF0804001F010
:10244000FAF80821C80601F00CFD02A94FF08040FF
:1024500001F03EF90821C80601F010FD02A94FF075
:10246000804001F080F90821C80601F010FD01212B
:10247000880701F0BDFC0121880701F0B9FB09B014
:1024800030BD0000002C0140000C0140000800405D
:102490000008014010B59048007800F08000002846
:1024A00042D102218D4801F06CFE00283CD002216F
:1024B0008A4801F077FE8848007800F0400020B399
:1024C000864801F03FFE8649088008460088854915
:1024D0000988884204DA44F61F608349086002E0F4
:1024E0000020814908607E4800887E490988401A9A
:1024F0007D49096808447D49C86000207649087014
:102500000021764801F026FD0EE0744801F01AFE25
:10251000744908807048007840F040006E490870A7
:1025200002216E4801F016FD7148007800F080002D
:10253000002841D10421694801F023FE60B3042141
:10254000664801F02FFE6A48007800F0400020B392
:10255000624801F0FAFD674908800846008866492C
:102560000988884204DA44F61F606449086002E082
:102570000020624908605F4800885F490988401A66
:102580005E49096808445949486000205849087064
:102590000021524801F0F0FC0EE0504801F0D5FD5A
:1025A000554908805248007840F040005049087072
:1025B00002214A4801F0E0FC5148007800F0800018
:1025C00088BB0821454801F0DCFD60B30821434881
:1025D00001F0E8FD4A48007800F0400020B33F4891
:1025E00001F0B6FD47490880084600884649098839
:1025F000884204DA44F61F604449086002E0002083
:10260000424908603F4800883F490988401A3F49CD
:1026100009680844354908600020394908700021DC
:102620002E4801F0C3FC0EE02C4801F091FD364924
:1026300008803348007840F040003149087002219A
:10264000264801F0B3FC3248007800F0800088BBD7
:102650001021224801F095FD60B310211F4801F0C0
:10266000A1FD2B48007800F0400020B31B4801F08A
:1026700072FD284908800846008827490988884251
:1026800004DA44F61F602549086002E0002023496F
:1026900008602048008820490988401A1F490968B5
:1026A00008441249886000201949087000210B482D
:1026B00001F096FC0EE0094801F04DFD1649088036
:1026C0001348007840F04000114908700221034887
:1026D00001F086FC10BD00001C0000200008004036
:1026E000200000201E00002034000020D403002021
:1026F00022000020260000202400002038000020B6
:10270000280000202C0000202A0000203C0000208F
:102710002E00002032000020300000204000002069
:1027200010B56FF0040000F094FA39480068394998
:10273000B0FBF1F0384908700846007800EB400122
:10274000C1EBC0104FF6FF7101EAC00033490880A9
:1027500010BD0146304A12784A434FF0E0235A61D7
:1027600000229A611A46126942F001021A6100BF02
:102770004FF0E022106900F001021AB100F480323B
:10278000002AF5D04FF0E022126922F001024FF04A
:10279000E0231A6100229A61704701461F4A12889D
:1027A0004A434FF0E0235A6100229A611A461269A7
:1027B00042F001021A6100BF4FF0E022106900F000
:1027C00001021AB100F48032002AF5D04FF0E02265
:1027D000126922F001024FF0E0231A6100229A618F
:1027E00070470F480068401C0D49086008460068A3
:1027F00009490978884207D3002009490860094837
:102800000068401C07490860704706480068704728
:102810005C00002000127A004400002046000020E6
:10282000480000204C000020014600BF704700BF58
:10283000494A128802F04002002AF9D0C2B2464B3F
:102840001B1D1A80704710B586B00446012144F262
:10285000040000F039FD4FF40070ADF814000320BF
:102860008DF8160018208DF8170005A93B4800F0D8
:102870006FFA4FF48060ADF8140004208DF8170053
:1028800005A9364800F064FA25208DF800000320E1
:102890008DF801008DF8020001208DF803006846D4
:1028A00000F08DF901940020ADF80800ADF80A00A1
:1028B000ADF80C00ADF810000C20ADF80E0001A929
:1028C000254801F0B6FC012240F22551224801F0D2
:1028D00048FD0121204801F038FD06B010BD10B5BB
:1028E00040F225511C4801F021FE10B31A4801F0B6
:1028F0009DFDC4B21A48008800F40040C8B91848C9
:10290000008800F4804060B10A2C03D000201449F4
:10291000088020E01248008840F4004010490880F8
:1029200019E00D2C06D10E48008840F480400C4977
:10293000088010E00A480088C0F30D0009490C54D3
:1029400007480088401C0649088008460088C728B8
:1029500001DD0020088010BD003801400008014062
:1029600058000020E4030020704700BFFEE700BFCE
:10297000FEE700BFFEE700BFFEE770477047704705
:1029800010B504F0FDFA10BD10B5002004F0DBFC1A
:1029900010BD00000CB50020019000906C4800684C
:1029A00040F480306A49086000BF6948006800F45C
:1029B000003000900198401C0190009818B90198CF
:1029C000B0F5A06FF1D16248006800F4003010B19A
:1029D0000120009001E0002000900098012843D1E0
:1029E0005C48006840F010005A49086008460068DA
:1029F00020F0030008600846006840F0020008600C
:102A00005348406852494860084640684860084654
:102A1000406840F4806048600846406820F47C10BC
:102A200048600846406840F4E8104860084600687E
:102A300040F08070086000BF4548006800F00070FA
:102A40000028F9D04248406820F00300404948601F
:102A50000846406840F00200486000BF3C484068BB
:102A600000F00C000828F9D10CBD10B5FFF792FF5B
:102A700010BD10B53648006840F0010034490860C8
:102A800008464068344908403149486008460068B3
:102A9000324908402E4908600846006820F480202A
:102AA00008600846406820F4FE0048604FF41F00AC
:102AB0008860FFF7DAFF4FF000602949086010BD19
:102AC00010B5002100200022214B5B6803F00C01AF
:102AD00021B1042906D0082928D107E0214B224C36
:102AE000236027E01F4B204C236023E0184B5B68DA
:102AF00003F47010164B5B6803F48032022303EB7F
:102B0000904022B9194B4343174C23600DE0104B02
:102B10005B6803F4003323B1144B4343124C23602E
:102B200003E0104B4343104C236003E00D4B0E4C6D
:102B3000236000BF00BF064B5B68C3F303130C4C5C
:102B4000E15C094B1B68CB40074C236010BD0000C3
:102B500000100240002002400000FFF8FFFFF6FED8
:102B600008ED00E000127A005C00002000093D0042
:102B7000600000200948804709480047FEE7FEE75B
:102B8000FEE7FEE7FEE7FEE7FEE7FEE7FEE7FEE71D
:102B900004480549054A064B70470000732A00089F
:102BA0003101000880080020800E0020800A0020EB
:102BB000800A002031490143314A1160704770B5E5
:102BC000002100230F22C47804B32D4C246804F4A0
:102BD000E064C4F5E064210AC1F10403CA4044780A
:102BE00004FA03F18478144021430901254C067846
:102BF000A155047804F01F050124AC4005786D113F
:102C0000AD0005F1E025C5F8004109E0047804F0C5
:102C10001F050124AC401C4D0678761145F826406E
:102C200070BD1A4A0A400243154B1B1F1A607047B9
:102C300039B1134A121D12680243114B1B1D1A6051
:102C400006E00F4A121D126882430D4B1B1D1A60CD
:102C50007047042808D14FF0E021096941F00401D0
:102C60004FF0E022116107E04FF0E021096921F007
:102C700004014FF0E0221161704700000000FA05E6
:102C80000CED00E000E400E080E100E080FFFF1FC9
:102C900010B50446CC48844208D10121042000F03C
:102CA0002DFB0021042000F029FB46E0C7488442A8
:102CB00008D10121082000F021FB0021082000F0AC
:102CC0001DFB3AE0C248844208D10121102000F0E7
:102CD00015FB0021102000F011FB2EE0BD488442BE
:102CE00008D10121202000F009FB0021202000F064
:102CF00005FB22E0B848844208D10121402000F0C1
:102D0000FDFA0021402000F0F9FA16E0B3488442B1
:102D100008D10121802000F0F1FA0021802000F08C
:102D2000EDFA0AE0AE48844207D10121801500F097
:102D3000E5FA0021A01500F0E1FA10BD10B501215F
:102D4000084600F0DBFA0021012000F0D7FA10BDA0
:102D50002DE9F04102460025002600200023002432
:102D6000002791F803C00CF00F0591F803C00CF098
:102D7000100CBCF1000F03D091F802C04CEA05051D
:102D800091F800C0BCF1000F31D0146800202BE096
:102D90004FF0010C0CFA00F3B1F800C00CEA030686
:102DA0009E4220D183004FF00F0C0CFA03F7BC4376
:102DB00005FA03FC4CEA040491F803C0BCF1280FA7
:102DC00006D14FF0010C0CFA00FCC2F814C00AE066
:102DD00091F803C0BCF1480F05D14FF0010C0CFA7B
:102DE00000FCC2F810C0401C0828D1D31460B1F810
:102DF00000C0BCF1FF0F34DD546800202EE000F16C
:102E0000080C4FF0010808FA0CF3B1F800C00CEA06
:102E100003069E4221D183004FF00F0C0CFA03F7FA
:102E2000BC4305FA03FC4CEA040491F803C0BCF16E
:102E3000280F05D100F1080C08FA0CF8C2F814802C
:102E400091F803C0BCF1480F07D100F1080C4FF016
:102E5000010808FA0CF8C2F81080401C0828CED3EC
:102E60005460BDE8F0814FF6FF710180022181704E
:102E70000421C17070470246002093680B400BB1DB
:102E8000012000E0002070470146886880B270474A
:102E900002460020D3680B400BB1012000E0002067
:102EA00070470146C86880B2704701617047416150
:102EB00070470AB1016100E041617047C16070472D
:102EC0004FF480320A438261816182618269826942
:102ED000704702460020434B18684FF68073184035
:102EE00040EA021008433F4B186070473E49C861F2
:102EF0007047F0B50A46002300240021002500F0A9
:102F00000046B6F1004F02D1364EF16901E0354E70
:102F10007168C0F3034583B200F44016B6F5401F54
:102F200008D121F070612F4E766826F070662D4F23
:102F30007E6012E000F48016B6F5801F06D10326ED
:102F400006FA05F4A14341F0706106E0460D360132
:102F500003FA06F6B14341F0706122B1460D360125
:102F600003FA06F6314300F00046B6F1004F02D1F5
:102F70001C4EF16101E01B4E7160F0BD30B50022C6
:102F80008B071C0F0F2303FA04F2164B08338C1027
:102F900053F824309343134C08348D1044F82530F3
:102FA00023468C1053F824308C07240F00FA04F4C5
:102FB00023430C4C08348D1044F8253030BD0A49A9
:102FC000DC3108607047000000080140000C01403F
:102FD000001001400014014000180140001C014095
:102FE000002001400000014000002042DF4800684E
:102FF00040F00100DD49086008464068DC490840AF
:10300000DA49486008460068DA490840D74908604C
:103010000846006820F4802008600846406820F4D4
:10302000FE0048604FF41F0088607047CF49096870
:1030300021F48031CD4A11601146096821F48021C4
:103040001160B0F5803F03D0B0F5802F0ED106E0BF
:10305000C649096841F48031C44A116007E0C34998
:10306000096841F4A021C14A116000E000BF00BF1F
:10307000704710B501460022002300204A11012AA2
:1030800002D1BA4C236806E0022A02D1B74C236A67
:1030900001E0B64C636A01F01F02012494401C4019
:1030A0000CB1012000E0002010BD38B500200090D8
:1030B0000024002500BF3120FFF7DBFF0546009804
:1030C000401C00900098B0F5A06F01D0002DF2D008
:1030D0003120FFF7CEFF08B1012400E00024204694
:1030E00038BD01460020A14A106820F0F80040EAEF
:1030F000C10010607047A049086070470246002078
:103100009A4B586820F47C1042EA01031843974B0D
:103110005860704798490866704701460020934AF6
:10312000506820F003000843506070478F484068A3
:1031300000F00C007047014600208C4A506820F0D7
:10314000F00008435060704701460020874A5068ED
:1031500020F4E06008435060704701460020834A35
:10316000506820F4605040EAC1005060704729B1B7
:103170007E4A527A02437D4B5A7204E07B4A527A6D
:1031800082437A4B5A7270477B49D8310860704746
:1031900001460020754A506820F4404008435060C2
:1031A00070470021714A20321170704A82F8201055
:1031B000012802D004280AD104E001216B4A203200
:1031C000117005E00521694A2032117000E000BF4E
:1031D00000BF70476949086070476449096A014344
:1031E000624A11627047654944390860704730B5DA
:1031F00000210022002400235C4D6D6805F00C01C5
:1032000021B1042905D0082923D105E05C4D0560D2
:1032100022E05B4D05601FE0544D6D6805F47012AF
:10322000524D6D6805F48034022505EB92421CB9BD
:10323000544D554305600BE04C4D6D6805F4003569
:103240001DB1504D5543056002E04D4D554305609D
:1032500002E04B4D056000BF00BF444D6D6805F0B6
:10326000F0010909484D6B5C0568DD4045603F4D44
:103270006D6805F4E061090A434D6B5C4568DD400B
:1032800085603A4D6D6805F46051C90A3E4D6B5C2E
:103290004568DD40C560354D6D6805F44041890BDA
:1032A0003A4D6B5CC568B5FBF3F5056130BD29B1DE
:1032B0002E4A526902432D4B5A6104E02B4A52694F
:1032C00082432A4B5A61704729B1284A92690243C6
:1032D000264B9A6104E0254A92698243234B9A6106
:1032E000704729B1214AD2690243204BDA6104E0D8
:1032F0001E4AD26982431D4BDA61704729B11B4ACD
:10330000D2680243194BDA6004E0184AD26882435B
:10331000164BDA60704729B1144A12690243134B05
:103320001A6104E0114A12698243104B1A61704716
:1033300012494039086070470F49C86470470B490B
:10334000C87170470948406A40F080700749486278
:10335000704701460020054A92680A400AB10120E0
:1033600000E0002070470149887270470010024059
:103370000000FFF8FFFFF6FE0000424280044242D8
:1033800000127A0000093D0070000020800000203B
:1033900010B50446FE48844208D10121C014FFF74D
:1033A000ADFF0021E014FFF7A9FFC4E0B4F1804FA6
:1033B00008D101210846FFF7AEFF00210120FFF7E9
:1033C000AAFFB8E0F348844208D101210220FFF7A8
:1033D000A2FF00210220FFF79EFFACE0EE488442EE
:1033E00008D101210420FFF796FF00210420FFF7F8
:1033F00092FFA0E0E948844208D101210820FFF7AC
:103400008AFF00210820FFF786FF94E0E448844209
:1034100008D101211020FFF77EFF00211020FFF7C7
:103420007AFF88E0DF48844208D101212020FFF79D
:1034300072FF00212020FFF76EFF7CE0DA48844213
:1034400008D101214014FFF759FF00216014FFF754
:1034500055FF70E0D548844209D10121C804FFF727
:103460004DFF00214FF40020FFF748FF63E0D048F4
:10347000844209D101210805FFF740FF00214FF4E4
:103480008010FFF73BFF56E0CA48844209D1012172
:103490004805FFF733FF00214FF40010FFF72EFF20
:1034A00049E0C548844208D101214020FFF733FF9D
:1034B00000214020FFF72FFF3DE0C048844208D1A3
:1034C00001218020FFF727FF00218020FFF723FF45
:1034D00031E0BB48844208D101218015FFF71BFF72
:1034E0000021A015FFF717FF25E0B648844209D157
:1034F00001210804FFF702FF00214FF48030FFF79D
:10350000FDFE18E0B048844209D101214804FFF7CC
:10351000F5FE00214FF40030FFF7F0FE0BE0AB4862
:10352000844208D101218804FFF7E8FE00214FF40E
:103530008020FFF7E3FE10BD00220288944B9842E2
:103540000ED0994B98420BD0B0F1804F08D0914BE0
:10355000984205D0904B984202D0904B984204D1AB
:103560004FF68F731A404B881A438D4B984207D001
:103570008C4B984204D04FF6FF431A40CB881A4335
:1035800002808B8883850B880385814B98420BD002
:10359000854B984208D08B4B984205D08A4B984275
:1035A00002D08A4B984201D10B7A03860123838291
:1035B000704770B5002400220023058C4FF6FE767C
:1035C00035400584028C8388048B4FF68F752C4020
:1035D000B51E2C400D882C43751E2A400D892A43A8
:1035E0004D882A436A4DA8420BD06F4DA84208D09F
:1035F000744DA84205D0744DA84202D0734DA84224
:1036000013D14FF6F7752A404D892A434FF6FB75C3
:103610002A408D882A434FF6FF652B404FF6FF5511
:103620002B408D892B43CD892B4383800483CD8808
:103630008586028470BD70B5002400220023058CAD
:103640004FF6EF7635400584028C8388048B48F66C
:10365000FF752C404FF6FF452C400D884FF6FF7646
:1036600006EA05252C434FF6DF752A400D8906EA48
:1036700005152A434D8806EA05152A43444DA842FC
:1036800002D0494DA8421DD14FF67F752A404D8981
:103690004FF6FF7606EA05152A434FF6BF752A4016
:1036A0008D8806EA05152A434FF6FF352B404FF269
:1036B000FF752B408D8906EA85052B43CD8906EAE7
:1036C00085052B4383800483CD880587028470BDE4
:1036D00070B5002400220023058C4FF6FF663540AC
:1036E0000584028C8388848B4FF68F752C404FF6AF
:1036F000FC752C400D882C434FF6FF552A400D8950
:103700004FF6FF7606EA05252A434D8806EA052589
:103710002A431F4DA84202D0234DA8421DD14FF28B
:10372000FF752A404D894FF6FF7606EA05252A43A4
:103730004FF6FF352A408D8806EA05252A434EF6C6
:10374000FF752B404DF6FF752B408D8906EA051558
:103750002B43CD8906EA05152B4383808483CD88CE
:103760008587028470BD70B5002200230024058C7B
:103770004EF6FF7635400584038C8488828B48F6AC
:10378000FF752A404FF6FF452A400D8820E00000D3
:10379000002C01400004004000080040000C0040E4
:1037A000001000400014004000340140004C014073
:1037B000005001400054014000180040001C00402F
:1037C000002000400040014000440140004801400A
:1037D0004FF6FF7606EA05252A434DF6FF752B4086
:1037E0000D8906EA05352B434D8806EA05352B433E
:1037F000FA4DA84202D0FA4DA84208D14BF6FF7507
:103800002C408D894FF6FF7606EA85152C4384807F
:103810008283CD88A0F84050038470BD828B4FF224
:10382000FF331A408283828B4FF6FF7303EA012332
:103830001A4382837047F0B50C46154600220021DA
:103840000026078C4EF6FF7C07EA0C070784828B64
:10385000018C4FF6FF7707EA043640F6FF473A40FF
:103860004FF6FF7707EA05273A434FF6FF7707EA57
:1038700003373A43D94FB8420ED0D94FB8420BD094
:10388000B0F1804F08D0D74FB84205D0D64FB842DC
:1038900002D0D64FB84206D14DF6FF77394046F4F4
:1038A0008057394305E047F6FF57394044F48057C5
:1038B000394382830184F0BD828B4FF6F3731A4043
:1038C0008283828B0A4382837047F0B50C4615468B
:1038D000002200210026078C4FF6FF6C07EA0C0738
:1038E0000784828B018C4FF6FF7707EA04264FF698
:1038F0000C773A404FF6FF7707EA03172F433A4316
:10390000B64FB8420ED0B64FB8420BD0B0F1804F90
:1039100008D0B44FB84205D0B34FB84202D0B34F2D
:10392000B84206D14FF6FF57394046F48077394305
:1039300005E04FF2FF57394044F4807739438283E2
:103940000184F0BD028B4FF2FF331A400283028BD9
:103950004FF6FF7303EA01231A4302837047F0B561
:103960000C461546002200210026078C4FF6EF7CFE
:1039700007EA0C070784028B018C4FF6FF7707EAF2
:10398000041640F6FF473A404FF6FF7707EA033741
:103990003A434FF6FF7707EA05273A438F4FB8427D
:1039A0000ED08F4FB8420BD0B0F1804F08D08D4F62
:1039B000B84205D08C4FB84202D08C4FB84206D1E5
:1039C0004FF6DF77394046F01007394305E04FF6F0
:1039D0005F77394044F01007394302830184F0BD1A
:1039E000028B4FF6F3731A400283028B0A43028361
:1039F0007047F0B50C46154600220021068C4FF6A4
:103A0000FE773E400684028B018C4FF60C763240E6
:103A10007E1C06EA03162E433243704EB0420ED08F
:103A20006F4EB0420BD0B0F1804F08D06D4EB04217
:103A300005D06D4EB04202D06C4EB04206D14FF66A
:103A4000FD76314044F00106314305E04FF6F5764E
:103A5000314044F00106314302830184F0BD70B56A
:103A600005460C465D4885420ED05D4885420BD028
:103A7000B5F1804F08D05B48854205D05A48854251
:103A800002D05A48854200D100E000BF208850B9DA
:103A90002389A28861882846FFF7ABFFE188284682
:103AA000FFF79EFF25E0208804280AD12389A288F9
:103AB00061882846FFF753FFE1882846FFF742FF59
:103AC00017E0208808280AD12389A288618828461F
:103AD000FFF7FBFEE1882846FFF7EEFE09E02389A9
:103AE000A28861882846FFF7A6FEE1882846FFF7EE
:103AF00095FE70BD2DE9F04105460C4600260127D4
:103B0000608808B9022600E00026A088012801D1BB
:103B1000022700E001272088A0B92389A2886188B4
:103B20002846FFF766FFE1882846FFF759FF2389FB
:103B30003A4631462846FFF712FFE1882846FFF74C
:103B400001FF13E02389A28861882846FFF707FF59
:103B5000E1882846FFF7F6FE23893A463146284693
:103B6000FFF747FFE1882846FFF73AFFBDE8F081FD
:103B70000A884B881A438B881A43CB881A430B89CF
:103B80001A434B891A438B891A43A0F84420704783
:103B90004FF6FF71818000210180C1804180017258
:103BA00070470021018041808180C1800181418175
:103BB0008181C18170470021018041800121818084
:103BC0000021C180018170470021018041808180F6
:103BD000C18001814181818170470000002C01403A
:103BE000003401400004004000080040000C004088
:103BF00021B1028842F00102028004E002884FF6FF
:103C0000FE731A400280704731B1B0F8442042F48C
:103C10000042A0F8442005E0B0F84420C2F30E02B0
:103C2000A0F8442070471AB183890B43838102E0D6
:103C300083898B43838170478182704741EA020305
:103C4000A0F8483070471AB183890B43838102E0A2
:103C500083898B438381704701894FF6F872114045
:103C6000018170470A46002101894FF68F73194080
:103C700011430181704730B504460D462946204660
:103C8000FFF7F0FF208940F00700208130BD2DE9CB
:103C9000F04104460D4616461F46602D06D13B46B0
:103CA000012231462046FFF75AFE05E03B4601223D
:103CB00031462046FFF79DFE29462046FFF7D2FFFA
:103CC000208940F007002081BDE8F08130B50C4626
:103CD00000210189C9B24FF6FF7505EA0325154396
:103CE00025432943018130BD2DE9F04105460E46AB
:103CF00017469846002443463A4631462846FFF781
:103D0000E5FF2C894FF6F870044044F007044FF6A5
:103D10008F70044044F070042C81BDE8F081F0B550
:103D200004460D4616461F463B4632462946204667
:103D3000FFF7CCFF208940F480402081F0BD018551
:103D4000828270470A46002101884FF68F7319401E
:103D5000114301807047F0B50C4615461E46002100
:103D6000002200230189028B038C4FF6F87739403B
:103D700021434FF6FC473A4040F201173A434FF6D1
:103D8000DD773B404FF6FF7707EA06172F433B43AB
:103D9000018102830384F0BD0A460021018B4FF6A6
:103DA0008F7319401143018370470A460021018B2C
:103DB00048F6FF7319404FF6FF7303EA02231943D5
:103DC000018370470A460021818B4FF68F7319409B
:103DD0001143818370470A460021818B48F6FF73A7
:103DE00019404FF6FF7303EA02231943818370479A
:103DF00021B1028842F08002028004E002884FF67E
:103E00007F731A400280704721B1828842F0040219
:103E1000828004E082884FF6FB731A4082807047EC
:103E200021B1828842F00802828004E082884FF645
:103E3000F7731A408280704721B1828842F00102F4
:103E4000828004E082884FF6FE731A4082807047B9
:103E50000A460021018B4FF6F77319401143018385
:103E600070470A460021018B4FF2FF7319404FF64D
:103E7000FF7303EA02231943018370470A460021B6
:103E8000818B4FF6F77319401143818370470A46BF
:103E90000021818B4FF2FF7319404FF6FF7303EA45
:103EA00002231943818370470A460021018B4FF694
:103EB000FB7319401143018370470A460021018BAF
:103EC0004FF6FF3319404FF6FF7303EA02231943FD
:103ED000018370470A460021818B4FF6FB7319401E
:103EE0001143818370470A460021818B4FF6FF33CF
:103EF00019404FF6FF7303EA022319438183704789
:103F00000A460021018B4FF67F731940114301834C
:103F100070470A460021018BC1F30E014FF6FF7373
:103F200003EA02231943018370470A460021818B6B
:103F30004FF67F7319401143818370470A46002171
:103F4000818BC1F30E014FF6FF7303EA022319437D
:103F5000818370470A460021018C4FF6FD7319409A
:103F60001143018470470A460021018C4FF6F77314
:103F700019401143018470470A460021018C4FF615
:103F8000DF7319404FF6FF7303EA021319430184EC
:103F900070470A460021018C4FF67F7319404FF697
:103FA000FF7303EA02131943018470470A46002194
:103FB000018C4FF6FF5319404FF6FF7303EA0223BB
:103FC0001943018470470A460021018C4FF2FF73A8
:103FD00019404FF6FF7303EA022319430184704727
:103FE0000A460021018C4DF6FF7319404FF6FF730E
:103FF00003EA023319430184704730B500230124DA
:104000008C40A3B2048C9C430484048C02FA01F516
:10401000ADB22C43048430BD30B5002304248C4061
:10402000A3B2048C9C430484048C02FA01F5ADB263
:104030002C43048430BD70B503460020002418468C
:10404000183001258D40ACB21D8CA5431D8409B1EB
:10405000082909D100EB6100056825F070050560AD
:104060000568154305600EE00D1FC5F34E05284495
:10407000056825F4E045056005684FF6FF7606EA19
:1040800002263543056070BD21B1028842F002026C
:10409000028004E002884FF6FD731A4002807047E8
:1040A00021B1028842F00402028004E002884FF647
:1040B000FB731A400280704721B1828842F080026F
:1040C000828004E082884FF67F731A4082807047B6
:1040D00002884FF6F7731A40028002880A43028072
:1040E000704782884FF68F731A40828082880A4315
:1040F0008280704702894FF6F8731A400281028964
:104100000A430281704702894FF67F731A40028189
:1041100002890A4302817047818470478185704714
:10412000818670470187704781877047A0F84010EB
:10413000704702884FF6FF431A40028002880A4304
:10414000028070470146888E70470146088F70478D
:104150000146888F70470146B1F84000704701461C
:10416000888C70470146088D704702460020138AEC
:104170000B400BB1012000E000207047CA430282CF
:10418000704730B50246002000230024158A05EA56
:104190000103958905EA010413B10CB1012000E087
:1041A000002030BDCA4302827047000010B50446AB
:1041B000FB48844209D101218803FFF79FF80021C1
:1041C0004FF48040FFF79AF832E0F648844209D174
:1041D00001214804FFF79FF800214FF40030FFF75A
:1041E0009AF825E0F048844209D101218804FFF7BC
:1041F00092F800214FF48020FFF78DF818E0EB488B
:10420000844209D10121C804FFF785F800214FF449
:104210000020FFF780F80BE0E548844208D1012137
:104220000805FFF778F800214FF48010FFF773F8C6
:1042300010BD2DE9F04786B005460E460024A24683
:1042400000BFA1460027B08900B100BF2F462C8ACD
:104250004CF6FF700440F08804432C82AC894EF683
:10426000F3100440B088318908437189084304433E
:10427000AC81AC8A4FF6FF400440B0890443AC8265
:1042800001A8FEF7B4FFC648874202D1DDF810A0AE
:1042900001E0DDF80CA0A88900F4004040B10AEB71
:1042A000CA0000EB0A1031684900B0FBF1F807E0E2
:1042B0000AEBCA0000EB0A1031688900B0FBF1F884
:1042C0006420B8FBF0F004012009642101FB10898F
:1042D000A88900F4004040B1322000EBC900B0FBD7
:1042E000F1F000F00700044308E0322000EB091071
:1042F0006421B0FBF1F000F00F0004432C8106B004
:10430000BDE8F0874FF41651016000218180C18023
:1043100001810C21418100218181704710B5024645
:104320000020108A4FF2FF0318400B884C8823436B
:104330008C882343CC8823431843108210BD00216E
:10434000018041808180C180704721B1828942F41F
:104350000052828104E082894DF6FF731A40828107
:104360007047F0B50346002400260025002040F6E3
:104370006A17B94200D100BF1846C1F3421401F0D8
:104380001F06012707FA06F5012C01D10C3004E0C5
:10439000022C01D1103000E014301AB107682F430D
:1043A000076002E00768AF430760F0BD1AB1838A77
:1043B0000B43838202E0838A8B4383827047028AA5
:1043C0004FF6F0731A400282028A0A430282704753
:1043D00082894FF2FF731A40828182890A43828167
:1043E000704721B1828942F00202828104E0828911
:1043F0004FF6FD731A4082817047028A4FF6DF73D1
:104400001A400282028A0A430282704721B1028A5C
:1044100042F48042028204E0028A4BF6FF731A40A3
:1044200002827047C1F30802828070470146888883
:10443000C0F308007047818941F001018181704714
:10444000028BD2B20283028B42EA012202837047BE
:10445000028B02F47F420283028B0A43028370477D
:1044600021B1828A42F02002828204E0828A4FF6E1
:10447000DF731A408282704721B1828A42F01002B3
:10448000828204E0828A4FF6EF731A40828270477C
:1044900021B1828A42F00802828204E0828A4FF6C9
:1044A000F7731A408282704721B1828942F4004238
:1044B000828103E08289C2F30E028281704721B1BA
:1044C000828A42F40062828204E0828A4FF2FF73A1
:1044D0001A4082827047828A4FF6FB731A408282AA
:1044E000828A0A438282704721B1828A42F00202A4
:1044F000828204E0828A4FF6FD731A4082827047FE
:1045000002460020B1F5007F00D100BF13880B40A8
:104510000BB1012000E00020704701F40072B2F5F9
:10452000007F00D100BFCA430280704770B50246C9
:10453000002400230025002040F66A16B14200D175
:1045400000BFC1F3421501F01F03012606FA03F371
:10455000012D02D19689334006E0022D02D1168A40
:10456000334001E0968A33400C12012606FA04F427
:104570001688344013B10CB1012000E0002070BD5A
:1045800010B50022002340F66A14A14200D100BFFA
:104590000A1201249440A3B2DC43048010BD000041
:1045A000003801400044004000480040004C0040FA
:1045B0000050004001460020FE4A106800F038001C
:1045C000084310607047FB49096821F00801F94A67
:1045D000116011460968014311607047F549096887
:1045E00021F01001F34A116011460968014311607E
:1045F0007047F148EF494860F04848607047EE481E
:10460000EC494860ED4848607047EA48006940F06E
:104610008000E84908617047E648006940F0800082
:10462000E449086170470420E249C96801F00101CA
:1046300009B101200EE0DF49C96801F0040109B1A8
:10464000022007E0DB49C96801F0100109B103202D
:1046500000E00420704700B502460423FFF7E3FFA3
:10466000034603E0FFF7DFFF0346521E012B01D193
:10467000002AF7D102B90523184600BD30B504461B
:1046800004254FF43020FFF7E6FF0546042D17D12F
:10469000C848006940F00200C64908610846446104
:1046A000006940F0400008614FF43020FFF7D3FF6D
:1046B0000546C048006941F6FD710840BD490861E2
:1046C000284630BD10B504244FF43020FFF7C3FF57
:1046D0000446042C16D1B748006940F00400B549DF
:1046E00008610846006940F0400008614FF430203E
:1046F000FFF7B1FF0446AF48006941F6FB7108407F
:10470000AC490861204610BD00B502460423FFF7FE
:104710008AFF034603E0FFF786FF0346521E012B84
:1047200001D1002AF7D102B90523184600BD10B502
:1047300004244FF43020FFF7E7FF0446042C16D181
:104740009C48006940F004009A49086108460069E5
:1047500040F0400008614FF43020FFF7D5FF0446D9
:104760009448006941F6FB7108409249086120466F
:1047700010BD00208F49C96901F0020109B1012073
:1047800000E00020704730B5A5250424FFF7F1FFB5
:1047900000B100254FF43020FFF75DFF0446042CE4
:1047A0003AD1854883498860844888600846006912
:1047B00040F0200008610846006940F040000861B0
:1047C0004FF43020FFF747FF0446042C1BD17948F3
:1047D000006941F6DF7108407649086108460069C2
:1047E00040F01000086176480580E002FFF733FFD3
:1047F0000446052C10D06F48006941F6EF7108405F
:104800006C49086108E0052C06D06A48006941F649
:10481000EF71084067490861204630BD78B506460B
:104820000C46042500200090E802FFF714FF05461F
:10483000042D24D15F48006940F001005D49086102
:104840003480E802FFF707FF0546042D10D1B01CA5
:104850000090200C00990880E802FFF7FCFE054656
:104860005448006941F6FE7108405249086106E06B
:104870005048006941F6FE7108404E4908612846DB
:1048800078BD70B504460D460426F002FFF7E3FE3E
:104890000646042E11D14748006940F00100454901
:1048A00008612580F002FFF7D6FE06464148006900
:1048B00041F6FE7108403F490861304670BD70B551
:1048C00005460E460424E002FFF7C5FE0446042C0C
:1048D00017D13948374988603848886008460069E8
:1048E00040F0100008612E80E002FFF7B4FE04469D
:1048F000052C06D02F48006941F6EF7108402D497C
:104900000861204670BD2DE9F04304464FF6FF765E
:104910003746B046B1460425E443E6B2C4F3072760
:10492000C4F307484FEA1469E802FFF794FE05460E
:10493000042D49D120481F498860204888600846D6
:10494000006940F010000861FF2E06D01C480830B6
:104950000680E802FFF77FFE0546042D08D1FF2FF1
:1049600006D017480A300780E802FFF774FE0546B4
:10497000042D0AD1B8F1FF0F07D011480C30A0F870
:104980000080E802FFF767FE0546042D0AD1B9F161
:10499000FF0F07D00A480E30A0F80090E802FFF79A
:1049A0005AFE0546052D0FD00248006941F6EF7109
:1049B000084007E00020024023016745AB89EFCDA6
:1049C00000F8FF1F664908612846BDE8F08330B54E
:1049D000054604244FF43020FFF73DFE0446042C26
:1049E00041D160485E4988605F4888600846006938
:1049F00040F0200008610846006940F0400008616E
:104A00004FF43020FFF727FE0446042C22D15448EF
:104A1000006941F6DF7108405149086108460069A4
:104A200040F0100008611DB100205049088002E0EC
:104A3000A5204E4908804FF43020FFF70CFE0446B5
:104A4000052C10D04648006941F6EF7108404449F2
:104A5000086108E0052C06D04148006941F6DF7185
:104A600008403F490861204630BDF0B505460E4676
:104A7000174604243B483A4988603B488860E00276
:104A8000FFF7E9FD0446042C19D13548006940F0D0
:104A900010003349086147F0F80030432843334998
:104AA000891C0880E002FFF7D6FD0446052C06D0DD
:104AB0002B48006941F6EF710840294908612046FA
:104AC000F0BD2748C069800870472548006A7047D4
:104AD00000202349096801F0200109B1012000E00C
:104AE0000020704729B11E4A126902431C4B1A610B
:104AF00004E01B4A12698243194B1A617047014650
:104B00000020012908D1164AD26902F001020AB137
:104B1000012008E0002006E0114AD2680A400AB1EC
:104B2000012000E0002070470D49C8607047042054
:104B30000B49C96801F0010109B101200EE00849E3
:104B4000C96801F0040109B1022007E00449C968FD
:104B500001F0100109B1032000E0042070470000BB
:104B60000020024023016745AB89EFCD00F8FF1F0D
:104B70002DE9F04104460D462169206806F024FB2A
:104B800060606169606806F01FFB06463146606838
:104B900006F088FBE0602846A16806F0E9FD0746BC
:104BA000E16806F0DDFC0646A16806F00DFBA0609A
:104BB0004FF07E50E16806F0DBFD0646616806F0C6
:104BC000CFFC2060BDE8F0812DE9F04F8DB00746A5
:104BD0000D4616464FF07C5B4FF07E500C90FE4821
:104BE0000B900A90FD480168284606F0C1FD314649
:104BF000019006F0B5FC8246F9480168504606F07F
:104C0000E3FAF7494860F7484168F34806F0B0FD19
:104C10008246F4488168504606F0AAFD0290F148A9
:104C2000C06880F000400390EE48C06880F000400B
:104C30000490E94805903146029806F091FC8246BE
:104C4000E8480168504606F0BFFAE6490860314678
:104C5000039806F085FC8246E2484168504606F01B
:104C6000B3FAE04948603146049806F079FC824680
:104C7000DC488168504606F0A7FADA498860314678
:104C8000059806F06DFC8246D648C168504606F08D
:104C90009BFAD449C860084601684FF07E5006F080
:104CA0005FFC0446CF4881684FF07E5006F058FC08
:104CB000069021464FF07E5006F052FC824659463F
:104CC00006F082FA81464946204606F0EBFA099042
:104CD0004946069806F0E6FA0890A046C1484168A1
:104CE0004FF07E5006F03CFC07904146099806F0D4
:104CF00037FC8246BB480168504606F02EFDB94994
:104D000008600799099806F02BFC8246B54841686F
:104D1000504606F022FDB34948604146089806F027
:104D20001FFC8246AF488168504606F016FDAD492B
:104D30008860DDE9071006F013FC8246A948C168C7
:104D4000504606F00AFDA749C860A54841683846A4
:104D500006F00EFD0190099906F002FC8246A0487B
:104D60004168504606F030FA9D498860084641681F
:104D7000384606F0FDFC0190089906F0F1FB8246EA
:104D800096480168504606F01FFA94490860944816
:104D9000806893490860084680680DB0BDE8F08FD0
:104DA000016042604FF07E538360C3608E4B0361AD
:104DB0008E4B436170472DE9F04704460D4621684C
:104DC000A06806F0CDFB2060A168084606F0C8FB8D
:104DD0000746616806F0C4FB0646216906F0F4F94F
:104DE0006060E168606806F0BBFB8146E16806F040
:104DF000B7FB0746616906F0E7F90646E1686068B7
:104E000006F0AEFB8046314606F04CFAA061216800
:104E1000E06806F0A5FB8046294606F09EFC0746A2
:104E2000A16906F09DFB0646216806F0CDF92060D9
:104E3000E168A06906F094FB07464FF07E5106F04A
:104E40008CFC0646616806F08BFB60602068BDE85C
:104E5000F08710B50B6803604B684360136883608C
:104E60005468C46094680461D46844614FF07E5310
:104E700083615F4CC461002404621C464462836207
:104E80000024C4625B4B03631C464463836310BD10
:104E90002DE9F05F04460D466168E06906F060FBAD
:104EA00081462168A06906F05BFB8246494606F010
:104EB0008BF920606168606A06F052FB81462168C8
:104EC000206A06F04DFB8246494606F07DF9606097
:104ED0002169E06906F044FB8246A168A06906F0FA
:104EE0003FFB8346514606F06FF98146216B06F081
:104EF0006BF9A0606169606A06F032FB8146E16887
:104F0000A06906F02DFB8246494606F05DF9E06097
:104F10002169E06906F024FB8146A168206A06F059
:104F20001FFB8246494606F04FF920616169606ABD
:104F300006F016FB8246E168206A06F011FB834604
:104F4000514606F041F98146616B06F03DF960611A
:104F5000E16AE06806F004FB8146A16AA06806F0F9
:104F6000FFFA8246494606F02FF90646E16A606973
:104F700006F0F6FA8146A16A206906F0F1FA824647
:104F8000494606F021F907463946E06A06F0E8FA94
:104F900082463146A06A06F0E3FA8346A16B06F02A
:104FA00013F98146514606F00FF9804641463046D6
:104FB00006F078F9E0634146384606F073F920645C
:104FC0006168E06A06F0CCFA81462168A06A06F0C2
:104FD000C7FA824649460FE06F12833A1801002053
:104FE000D0040020DC040020000048430000FA4305
:104FF000CDCCCC3DBD37863506F0E6F8804641463F
:10500000284606F0B5FB8246E16B06F0A9FA814618
:10501000216806F0D9F820604146284606F0A8FB32
:105020008246216C06F09CFA8146616806F0CCF855
:105030006060A16AE06B06F093FA82464FF07E5101
:1050400006F08BFB8146A16806F08AFAA060E16A4F
:10505000E06B06F085FA82464FF07E5106F07DFB4C
:105060008146E16806F07CFAE060A16A206C06F0F7
:1050700077FA82464FF07E5106F06FFB8146216938
:1050800006F06EFA2061E16A206C06F069FA824649
:105090004FF07E5106F061FB8146616906F060FACF
:1050A00060612068BDE8F09F2DE9F04106460F469B
:1050B0009046002418E0002512E004EB44022A4444
:1050C00057F8221004EB44022A4456F8220006F056
:1050D0007BF804EB4401294448F82100681CC5B260
:1050E000032DEADB601CC4B2032CE4DBBDE8F081D5
:1050F0002DE9F04106460F469046002418E00025B1
:1051000012E004EB44022A4457F8221004EB440254
:105110002A4456F8220006F02BFB04EB44012944F4
:1051200048F82100681CC5B2032DEADB601CC4B23C
:10513000032CE4DBBDE8F0812DE9F0478046894689
:10514000164600242DE0002527E0002004EB440152
:10515000294446F8210000271BE007EB47022A44B8
:1051600059F8221004EB44023A4458F8220006F0A1
:10517000F7F9824604EB4400284456F820105046C4
:1051800006F022F804EB4401294446F82100781C7B
:10519000C7B2032FE1DB681CC5B2032DD5DB601C51
:1051A000C4B2032CCFDBBDE8F08703B5CFB0CC4A47
:1051B00010465099FFF778FFCA4ACB491046FFF7CF
:1051C00073FF44AAC6494F98FFF792FF17AAC74931
:1051D000C448FFF769FF189809901F98089009992B
:1051E00006F0BEF90A901A98014609900A9806F04E
:1051F000B7F90C901E9807901C980690079906F036
:10520000AFF90890179801460790089806F0A8F99A
:105210000A901B98059019980490059906F0A0F93A
:1052200006901D9801460590069806F099F9089099
:105230001A98039019980290039906F091F9049036
:105240001E9801460390049806F08AF906901C986F
:10525000019018980090019906F082F902901D982B
:1052600001460190029806F07BF904901B9801908A
:1052700017980090019906F073F902901F98014663
:105280000190029806F06CF90390049905F09CFFD8
:105290000590069905F098FF0790089906F068FABE
:1052A00009900A9906F064FA0B900C9906F060FADE
:1052B0000D901E9809901C980890099906F050F9D5
:1052C0000B901F9809901B980890099906F048F9CF
:1052D0000A900B9906F04CFA0C900D9905F0E2FF3C
:1052E0000E901F98099018980890099906F038F9BF
:1052F0000B901E98099019980890099906F030F9BA
:105300000A900B9906F034FA0C900D9905F0CAFF3B
:105310000F901D9809901B980890099906F020F9A4
:105320000B901E98099018980890099906F018F9A2
:105330000A900B9906F01CFA0C900D9905F0B2FF3B
:1053400010901F9809901A980890099906F008F98A
:105350000B901D9809901C980890099906F000F987
:105360000A900B9906F004FA0C900D9905F09AFF3B
:1053700011901D98099019980890099906F0F0F875
:105380000B901F98099017980890099906F0E8F873
:105390000A900B9906F0ECF90C900D9905F082FF3C
:1053A00012901C98099017980890099906F0D8F85F
:1053B0000B901A98099019980890099906F0D0F85E
:1053C0000A900B9906F0D4F90C900D9905F06AFF3C
:1053D00013901D9809901B980890099906F0C0F841
:1053E0000B901E9809901A980890099906F0B8F841
:1053F0000A900B9906F0BCF90C900D9905F052FF3C
:1054000014901E98099017980890099906F0A8F82A
:105410000B901D98099018980890099906F0A0F82B
:105420000A900B9906F0A4F90C900D9905F03AFF3B
:1054300015901A98099018980890099906F090F814
:105440000B901B98099017980890099906F088F816
:105450000A900B9906F08CF90C900D9905F022FF3B
:10546000169032AA0EA91F48FFF766FE29AA44A982
:1054700032A8FFF761FE1A4A29A91046FFF714FE69
:1054800020AA32A91A48FFF733FE3BAA154920A8E3
:10549000FFF752FE00204E901DE000204D9013E0DB
:1054A0004E9800EB40014D9808443BA951F820105C
:1054B0004E9800EB40024D9810440A4A42F82010E2
:1054C0004D98401CC0B24D904D980328E8DB4E9893
:1054D000401CC0B24E904E980328DEDB51B000BD98
:1054E000AC04002088000020F4000020D000002040
:1054F000AC0000202DE9F05F04464FF07F594FF0DB
:105500007C51204606F02CF8824625462E46FE4861
:10551000A0EB660635462946504606F021F883463C
:10552000294606F01DF88046494606F016F907465A
:10553000294606F015F805462846BDE8F09F10B547
:1055400004460021204605F0D7FF02D284F0004037
:1055500010BD2046FCE70FB5ABB0EC480168006811
:1055600005F0FEFF1490EA480168E848006805F07D
:10557000F7FF1390E7480168E448006805F0F0FF82
:105580001290E5480168E148006805F0E9FF1190D4
:10559000DF480168006805F0E3FF1090DD4801680E
:1055A000DB48006805F0DCFF0F90DB480168D84855
:1055B000006805F0D5FF0E90D6480168006805F038
:1055C000CFFF0D90D4480168D248006805F0C8FFAD
:1055D0000C90D1480168006805F0C2FF0B902D982F
:1055E00005F0C6FDCD4ACE4BCDE9060105F0E6FA41
:1055F000CDE9080105F090F80A902B9805F0B8FD68
:10560000C84AC94BCDE9040105F068F9C74AC84B3F
:10561000CDE9060105F0D2FACDE9080105F07CF8E4
:105620002B902C9805F0A4FDBE4ABF4BCDE9040198
:1056300005F054F9BD4ABE4BCDE9060105F0BEFAAE
:10564000CDE9080105F068F82C902D9805F090FD43
:10565000B44AB54BCDE9040105F040F9B34AB44B67
:10566000CDE9060105F0AAFACDE9080105F054F8E4
:105670002D903199084605F073FF0890309908463F
:1056800005F06EFF06902E99084605F069FF05901B
:10569000069905F099FD0790089905F095FD099088
:1056A000FFF728FF239023992E9805F059FF2E909D
:1056B0002399309805F054FF30902399319805F0E4
:1056C0004FFF31903499084605F04AFF089033990E
:1056D000084605F045FF06903299084605F040FF60
:1056E0000590069905F070FD0790089905F06CFD8E
:1056F0000990FFF7FFFE23902399329805F030FFC1
:1057000032902399339805F02BFF339023993498E6
:1057100005F026FF349012990E9805F055FD06907D
:10572000349905F01DFF089011990F9806F020F8A4
:105730000490339905F014FF06904FF07C500D99BA
:1057400006F016F803900B9906F012F804903299BF
:1057500005F006FF0590069905F036FD07900899BB
:1057600005F032FD4FF08041099005F0F9FE2290DE
:1057700013990C9805F0FCFF0690349905F0F0FEA3
:1057800008904FF07C50109905F0F2FF03900B99B0
:1057900005F0EEFF0490339905F0E2FE06901199B2
:1057A0000F9805F011FD0490329905F0D9FE05908F
:1057B000069905F009FD0790089905F005FD4FF0E1
:1057C0008041099005F0CCFE21904FF07C5010995B
:1057D00005F0CEFF05900D9905F0CAFF07904FF038
:1057E0008040349905F0BCFE0690079905F0B8FE9C
:1057F000099013990C9805F0E7FC05904FF0804054
:10580000339905F0ADFE0490059905F0A9FE0790C7
:1058100012990E9805F0ACFF05904FF08040329938
:1058200005F09EFE0490059905F09AFE06900799F2
:1058300005F0CAFC0890099905F0C6FC2090219952
:10584000084605F08DFE04902299084605F088FE72
:105850000390049905F0B8FC059005F089FCCDE9AA
:10586000060104F01DFFCDE9080104F055FF1F906B
:1058700020981E9012990E9805F07AFF4FF0804103
:10588000099005F06DFE1D900C99139805F09CFC95
:105890004FF08041099005F063FE1C901099149818
:1058A00005F066FF08900D9905F062FF09900B99CD
:1058B00005F08AFC1B9012990E9805F059FF07908D
:1058C0004FF080401E9905F04BFE0690079905F0B9
:1058D00047FE09904FF07C500D9905F049FF059067
:1058E0000B9905F045FF07904FF080401F9905F098
:1058F00037FE0690079905F033FE0890099905F0E8
:1059000063FC1A900C9915E0DF59375F1C010020E9
:1059100020010020240100202801002030689DC8BB
:10592000FE3F9F3F52B81E85EB613040AF99D76C68
:1059300040DF913F139805F047FC07904FF08040FF
:105940001E9905F00DFE0690079905F009FE0990D5
:1059500011990F9805F00CFF07904FF080401F99A8
:1059600005F0FEFD0690079905F0FAFD08900999EB
:1059700005F02AFC19904FF07C50109905F0F8FEC4
:1059800005900D9905F0F4FE07904FF080401E99A8
:1059900005F0E6FD0690079905F0E2FD09900E99E5
:1059A000129805F011FC07904FF080401F9905F008
:1059B000D7FD0690079905F0D3FD0890099905F0E9
:1059C00003FC18901999349805F0CAFD07901899AE
:1059D000339805F0C5FD0690079905F0C9FE0990BA
:1059E0001C99319805F0BCFD07901B99309805F083
:1059F000B7FD0690079905F0BBFE0890099905F0E0
:105A0000E3FB17901899329805F0AAFD07901A99B0
:105A1000349805F0A5FD0690079905F0A9FE0990B8
:105A20001B992E9805F09CFD07901D99319805F063
:105A300097FD0690079905F09BFE0890099905F0DF
:105A4000C3FB16901A99339805F08AFD07901999AF
:105A5000329805F085FD0690079905F089FE0990BA
:105A60001D99309805F07CFD07901C992E9805F043
:105A700077FD0690079905F07BFE0890099905F0DF
:105A8000A3FB15900021179805F0CEFC6FD00021E4
:105A9000169805F0C9FC6AD00021159805F0C4FCE1
:105AA00065D0179805F064FBFD4AFE4BCDE9000177
:105AB00005F084F84FF06042FB4BCDE9020105F0A0
:105AC0007DF8CDE90601F948006805F051FBCDE904
:105AD0000401DDE9062304F051FECDE9080104F0DC
