:020000040800F2
:1000000080140020692B00085D2900085F29000882
:1000100063290008672900086B2900080000000018
:100020000000000000000000000000006F29000830
:100030007129000800000000732900084328000807
:10004000832B0008832B0008832B0008832B0008D8
:10005000832B0008832B0008832B0008832B0008C8
:10006000832B0008832B0008832B0008832B0008B8
:10007000832B0008832B0008832B0008832B0008A8
:10008000832B0008832B0008832B0008832B000898
:1000900075290008832B0008832B0008832B000898
:1000A000832B0008ED950008832B0008832B0008A4
:1000B000832B0008A122000805230008832B0008D9
:1000C000832B0008832B0008832B0008832B000858
:1000D000832B000843290008832B0008832B00088A
:1000E000832B0008832B0008832B0008832B000838
:1000F000832B0008832B0008832B0008832B000828
:10010000832B0008832B0008832B0008832B000817
:10011000832B0008832B0008832B0008832B000807
:10012000832B0008832B0008832B0008832B0008F7
:10013000DFF80CD00DF04AF80048004745010008F0
:100140008014002086B00AF0D0FA02F019FB4FF4B8
:10015000A06002F01BFD4FF4E13002F0A5FB02F0BD
:10016000F1FA01F022FE00F098FB00F038F908F0F7
:1001700001FA6A4807F0CEFE472141F2873001F0CC
:1001800045FF41F61F414CF24F3002F05EF8472127
:1001900044F61F6001F0F5FF472144F61F6001F0AF
:1001A00068FF4FF4E16002F028FB00200AF064FBD6
:1001B0004FF42F7002F021FB01200AF05DFB0AF0E2
:1001C00003FB0AF0F6FA0BF0BDFC09F090FF0020EB
:1001D000534908605349C1F894014FF47A7002F012
:1001E0000CFB01204E4908604E49C1F8940100F013
:1001F000F3FC012211464C4803F001FD0122114697
:100200004A4803F0FCFC88E0494948690CF076FD57
:1002100004B2474908690CF071FD05B24449C86849
:100220000CF06CFD06B2434988680CF067FD07B21C
:10023000404948680CF062FD0FFA80F83D490868B3
:100240000CF05CFD0FFA80F90020CDE90265CDE9E4
:1002500004403948B0F904003749B1F90210CDE93A
:1002600000103548B0F900303A464146484608F09B
:1002700084FB012002F0C1FA304800780021304BA5
:10028000CDE900101A6859689868002308F0F8FC56
:10029000012002F0B2FA0020029003900490059031
:1002A0000090284C0190A488A3B2264CA489A2B245
:1002B000244C2489A1B2234C2488A0B208F023FC4A
:1002C000012002F09AFA00200090019002901E4C4A
:1002D00003902488A3B21D4C2488A2B21C4C24880D
:1002E000A1B21C4C2488A0B208F073FD012002F0DA
:1002F00084FA1948007838B109F016FF012002F09D
:100300007CFA0020144908701448007828B10120B4
:1003100002F073FA00201149087075E700004843A5
:100320009001214200002142002C014000040040C5
:100330007C03002024040020440400201802002034
:10034000A004002050040020200200201E020020F3
:100350001C0200201A0200202C0200202D02002086
:1003600070B505460C4601F039FD182001F0EAFD94
:1003700001F075FD18B101F051FD012070BD284656
:1003800001F0E0FD01F06BFD204601F0DBFD01F026
:1003900066FD18B101F042FD0120EFE701F03EFDDE
:1003A0000020EBE770B5044601F018FD182001F0BD
:1003B000C9FD01F054FD204601F0C4FD01F04FFDE0
:1003C00001F00CFD192001F0BDFD01F048FD0020F9
:1003D00001F0E3FD054601F021FD284670BD10B592
:1003E00000240020FFF7DEFF0446482C04D0CFA0F5
:1003F0000CF058FF012010BDD1A00CF053FF1121CB
:100400000A20FFF7ADFF0020D3498861C861086268
:100410004FF07E50C86248628862D0488864D048F5
:10042000C864D0480865D0480863D0484863D048BD
:100430008863D048C863D0480864D04848640A201C
:1004400002F0DBF90020D6E72DE9F04106460F4621
:1004500014461D4601F0C2FC002141EA4601C8B223
:1004600001F070FD01F0FBFC20B101F0D7FC012090
:10047000BDE8F081384601F065FD01F0F0FC01F0C7
:10048000ADFC012101EB4601C8B201F05BFD01F0BA
:10049000E6FC0DE0012C04D1002001F07EFD287067
:1004A00003E0012001F079FD2870601EC4B26D1CCC
:1004B000002CEFD101F0B2FC0020D9E72DE9F04F7C
:1004C00089B007AB062203210C20FFF7BDFF069081
:1004D0000698B8B99DF81C009DF81D1040EA01204F
:1004E0000FFA80F99DF81E009DF81F1040EA0120C8
:1004F0000FFA80FA9DF820009DF8211040EA0120B3
:100500000FFA80FB9449886C0CF025FCCDE90201C0
:1005100048460CF0D5FB07460022994B0CF053FBE4
:10052000CDE90001DDE902230CF0D5FACDE90401A3
:100530000CF024FC04468849C86C0CF00CFCCDE996
:10054000020150460CF0BCFB00228D4BCDE90001AE
:100550000CF039FB0746DDE902230CF0BCFACDE9CB
:1005600004010CF00BFC05467B49086D0CF0F3FB15
:10057000CDE9020158460CF0A3FB07460022814B4F
:100580000CF021FBCDE90001DDE902230CF0A3FA18
:10059000CDE904010CF0F2FB06466F49886B314649
:1005A0000CF088F96C490590486B29460CF082F9EB
:1005B00080466949086B21460CF07CF9414604905D
:1005C0000CF020F9074605990CF01CF96249086007
:1005D000086C31460CF06EF95F490590C86B2946EE
:1005E0000CF068F980465C49486B21460CF062F9D2
:1005F000414604900CF006F9074605990CF002F903
:1006000055494860486C31460CF054F95249059000
:10061000086C29460CF04EF980464F49886B2146FC
:100620000CF048F9414604900CF0ECF807460599A7
:100630000CF0E8F84849886008680CF08CFB074625
:1006400000224F4B0CF04DFACDE904010CF096FB63
:100650004149C86048680CF07EFB07460022484BC1
:100660000CF03FFACDE904010CF088FB3A4908612F
:1006700088680CF070FB0022414BCDE904010CF0BE
:1006800030FA07460CF07AFB3349486111210A2001
:10069000FFF766FE002009B0BDE8F08F4FF47A70D6
:1006A00002F0ABF84FF47A7002F0A7F84FF47A70CA
:1006B00002F0A3F84FF47A7002F09FF804E0FFF71D
:1006C000FDFE642002F099F8F9E72DE9F0410546B6
:1006D0000E461746984601F081FB002141EA45018C
:1006E000C8B201F02FFC01F0BAFB20B101F096FB7B
:1006F0000120BDE8F081304601F024FC01F0AFFBA1
:1007000000240CE018F8040001F01CFC01F0A7FB29
:1007100018B101F083FB0120EBE7601CC4B2BC42BE
:10072000F0DB01F07BFB0020E3E70000414B3839B0
:10073000373520494E4954204552524F520A000045
:10074000414B3839373520494E495420535543439E
:100750004553530A000000007C03002046E95D3E3B
:100760006C07433DBBFEC53EAFFF743F40C9873CAD
:10077000F9ED5B3C06867C3FF8674B3CF7AB873F67
:1007800000D074400050754070B505460C4601F02D
:1007900025FBD02001F0D6FB01F061FB18B101F080
:1007A0003DFB012070BD284601F0CCFB01F057FB5A
:1007B000204601F0C7FB01F052FB18B101F02EFBFF
:1007C0000120EFE701F02AFB0020EBE770B50446BB
:1007D0000025BC2C01DB012510E0622C01DB022589
:1007E0000CE02A2C01DB032508E0142C01DB042596
:1007F00004E00A2C01DB052500E0062529461A2025
:10080000FFF7C2FF70BD70B50446B4F57A7F01DD15
:100810004FF47A74042C00DA04244FF47A7090FBBD
:10082000F4F0401EC5B229461920FFF7ADFF05467A
:10083000264604EBD671C1F34F00FFF7C7FF70BD2A
:1008400070B5044601F0CAFAD02001F07BFB01F03C
:1008500006FB204601F076FB01F001FB01F0BEFA39
:10086000D12001F06FFB01F0FAFA002001F095FBB6
:10087000054601F0D3FA284670BD10B50446E006DF
:10088000010E1C20FFF780FF10BD10B50446E006E6
:10089000010E1B20FFF778FF10BD10B580216B20E3
:1008A000FFF772FF642001F0A8FF00216B20FFF723
:1008B0006BFF0320FFF7E9FF0220FFF7DEFF4FF495
:1008C0001670FFF7A0FF00213820FFF75DFF002121
:1008D0006A20FFF759FF00212320FFF755FF8021F1
:1008E0003720FFF751FF7520FFF7AAFF0446682C59
:1008F0000FD101216B20FFF747FF00216C20FFF78C
:1009000043FF4FF49670FFF77EFFFBA00CF0CAFC8C
:1009100004E0FEA00CF0C6FC012010BD40F28120D6
:10092000FE49C880052008811720488140F2C71081
:10093000FB4988816FF08100C88140F29B100882DA
:100940000020EAE72DE9F04106460F4614461D4611
:1009500001F044FA002141EA4601C8B201F0F2FA7E
:1009600001F07DFA20B101F059FA0120BDE8F081D3
:10097000384601F0E7FA01F072FA01F02FFA01218E
:1009800001EB4601C8B201F0DDFA01F068FA0DE0B2
:10099000012C04D1002001F000FB287003E00120AD
:1009A00001F0FBFA2870601EC4B26D1C002CEFD160
:1009B00001F034FA0020D9E72DE9F84F6B46022206
:1009C00041216820FFF7BEFF9DF801009DF800104F
:1009D00040EA01200FFA80FA50460CF071F9804687
:1009E0000022D04B0CF0EFF80646CF4ACF4B0BF06D
:1009F000D1FF04460CF0C2F98346CD4958460BF0AE
:100A000059FF04460CF07AF900B2BDE8F88F2DE9E1
:100A1000FC478046894692466B4606224321682061
:100A2000FFF790FF0446A4B99DF801009DF800105F
:100A300040EA012005B29DF803009DF8021040EA4B
:100A4000012006B29DF805009DF8041040EA01203F
:100A500007B2B248C088281A00B2B04908800846D8
:100A60000089301A00B2488008464089381A00B21E
:100A7000888008460088088008464088404200B2C6
:100A8000488008468088404200B288802046BDE801
:100A9000FC872DE9FC5F82466B4606223B216820DD
:100AA000FFF750FF0446A4B99DF801009DF800101F
:100AB00040EA012005B29DF803009DF8021040EACB
:100AC000012006B29DF805009DF8041040EA0120BF
:100AD00007B29849086898490BF0ECFE834697499D
:100AE0000BF01AFF804628460CF0DCF88346944849
:100AF000016858460BF0DEFE814641460BF0D4FEFD
:100B0000874908608B4948688B490BF0D3FE8346C0
:100B10008A490BF001FF804630460CF0C3F883464B
:100B20008748416858460BF0C5FE814641460BF0A8
:100B3000BBFE7B4948607F4988687F490BF0BAFE5D
:100B400083467E490BF0E8FE804638460CF0AAF852
:100B500083467B48816858460BF0ACFE814641468F
:100B60000BF0A2FE6E4988600846006880F00040E5
:100B700008602046BDE8FC9F2DE9F04105460E4681
:100B80001746984601F02AF9002141EA4501C8B20A
:100B900001F0D8F901F063F920B101F03FF901202B
:100BA000BDE8F081304601F0CDF901F058F900249C
:100BB0000CE018F8040001F0C5F901F050F918B183
:100BC00001F02CF90120EBE7601CC4B2BC42F0DB61
:100BD00001F024F90020E3E72DE9F04F89B01E2051
:100BE00008904FF000094FF0000A4FF0000B002072
:100BF00006900790052003906FF00400029053E0E8
:100C000000BF0A2001F0F9FD6B460622432168204F
:100C1000FFF798FE0746A7B99DF801009DF8001060
:100C200040EA012004B29DF803009DF8021040EA5A
:100C3000012005B29DF805009DF8041040EA01204E
:100C400006B2BDF81800201A00B2ADF81000BDF8C9
:100C50001A00281A00B2ADF81200BDF81C00301AB4
:100C600000B2ADF81400ADF81840ADF81A50ADF868
:100C70001C60BDF910000528C3DCBDF9100010F19F
:100C8000050FBEDBBDF912000528BADCBDF9120064
:100C900010F1050FB5DBBDF914000528B1DCBDF975
:100CA000140010F1050FACDB0898411EC9B2089181
:100CB0000028A5D180464EE0052001F09EFD6B4640
:100CC000062243216820FFF73DFE0746D7BB9DF86B
:100CD00001009DF8001040EA012004B29DF80300D5
:100CE0009DF8021040EA012005B29DF805009DF82C
:100CF000041040EA012026E04D505520494E495449
:100D000020535543434553530A0000004D5055208E
:100D1000494E4954204552524F520A004404002083
:100D20002404002000407540A4703D0AD74342408F
:100D30000000C8420C00002000F07F450AE81C417A
:100D40000000002000E006B2A144AA44B34408F128
:100D5000010000F0FF08B8F1C80FADDBC82099FB17
:100D6000F0F000B2FE49C880C8209AFBF0F000B253
:100D70000881C8209BFBF0F000B248810846B0F91A
:100D80000A30B0F90820B0F90610F6A00CF08AFA83
:100D900009B0BDE8F08F2DE9FC5F00250026002793
:100DA000AB4629E0052001F028FD6B4606223B21D9
:100DB0006820FFF7C7FD0446BCB99DF801009DF807
:100DC000001040EA01200FFA80F89DF803009DF81A
:100DD000021040EA01200FFA80F99DF805009DF805
:100DE000041040EA01200FFA80FA45444E4457446B
:100DF0000BF1010000F0FF0BBBF1640FD2DB6420AC
:100E000095FBF0F000B2DE498881642096FBF0F09B
:100E100000B2C881642097FBF0F0A0F5805000B2CA
:100E200008820846B0F91030B0F90E20B0F90C1065
:100E3000CCA00CF037FABDE8FC9F70B50546002445
:100E400000BF05E04FF47A7001F0D7FC601CC4B21B
:100E5000082CF7DB70BD2DE9FC416B4606223B21D7
:100E60006820FFF76FFD0746A7B99DF801009DF8C0
:100E7000001040EA012004B29DF803009DF8021022
:100E800040EA012005B29DF805009DF8041040EAF3
:100E9000012006B220460BF005FFB949086028463C
:100EA0000BF000FFB649486030460BF0FBFEB4493A
:100EB00088600846006880F0004008600A2001F061
:100EC0009CFCBDE8FC8130B502460B46002011E0D9
:100ED000002442F82040002108E0002400EB4005F7
:100EE00003EBC50545F821404C1C21B20629F4DB73
:100EF000441C20B20628EBDB30BD2DE9F05F06462E
:100F00000F46914600244AE0601C05B243E004EB22
:100F1000440207EBC20252F8241004EB440207EB30
:100F2000C20252F825000BF0F7FC82460021504621
:100F30000BF040FF2DD056F8241050460BF0BAFCB1
:100F4000834656F825100BF0B2FC46F82500A8465B
:100F50001CE008EB480007EBC00050F82410504696
:100F60000BF0A8FC834608EB480007EBC00050F8E4
:100F7000251058460BF09BFC08EB480107EBC1011C
:100F800041F8250008F101000FFA80F8B8F1060FCA
:100F9000DFDB681C05B2062DB9DB601C04B2062C31
:100FA000B2DB052434E004EB440207EBC20252F842
:100FB000241056F824000BF0AFFC46F824004FF044
:100FC0007E5004EB440107EBC10141F824000025E9
:100FD0001AE004EB440007EBC00050F825A056F8D7
:100FE000241050460BF066FC834656F825100BF093
:100FF0005EFC46F82500002004EB440107EBC1012C
:1010000041F82500681C05B2A542E2DB601E04B26F
:10101000002CC8DA002405E056F8240049F8240022
:10102000601C04B2062CF7DBBDE8F09F2DE9F04F01
:101030008BB006460F4690469A464FF07E50099078
:1010400000243DE0E01C58F8209058F824105AF88D
:1010500024000BF029FC0A90494648460BF02AFC74
:1010600001900A990BF026FC02900A990BF022FCE1
:10107000834609990BF01BFC099049464FF08040CC
:101080000BF018FC494602900BF014FC83460A99B9
:101090000BF010FC03A941F8240049464FF04040F2
:1010A0000BF008FC02900A990BF004FC83460A99A5
:1010B0000BF000FCE11C03AA42F82100601C04B202
:1010C000032CBFDB00242BE003A951F8240009996D
:1010D0000BF0F0FB834656F824100BF093FB46F818
:1010E0002400002518E003AA52F8251052F8240025
:1010F0000BF0E0FB834604EB440007EBC00050F824
:10110000251058460BF07EFB04EB440107EBC101B0
:1011100041F82500681C05B2062DE4DB601C04B212
:10112000062CD1DB0BB0BDE8F08F2DE9F04FC5B038
:1011300007460E4614464FF00008DFF84890124864
:101140004490002041904290439018213BA80BF01E
:101150004EFB182135A80BF04AFB18212FA815E0EB
:101160004404002067786F66663A25640967796FE2
:1011700066663A256409677A6F66663A25640A00EE
:10118000240400205F7089300000C8420BF02FFB60
:1011900090210BA80BF02BFB00200A903D903C9077
:1011A0003B90FE4840903F903E9090E008F1010057
:1011B0000FFA80F80BA92FA8FFF785FE002518E08D
:1011C00005EB450057F82000419005EB450007EB83
:1011D00080004068429005EB450007EB8000806886
:1011E000439041AB3BAA0BA92FA8FFF71FFF681C38
:1011F00005B2062DE4DB35AA0BA92FA8FFF77DFE6B
:10120000409908460BF056FB82463A9908460BF087
:1012100051FB834651460BF07FFB09903F990846EE
:101220000BF048FB8346399908460BF043FB5946BF
:1012300006900BF071FB82463E9908460BF03AFB94
:101240000590389908460BF035FB049005990BF092
:1012500063FB0690379908460BF02CFB05903699F6
:1012600008460BF027FB0390359908460BF022FB4C
:101270000190359908460BF01DFB009001990BF089
:10128000C1FA029003990BF0BDFA049005990BF096
:10129000B9FA834606990BF0B5FA514607900BF060
:1012A000B1FA089009990BF0ADFA449000250CE0D2
:1012B00035AA52F825103BAA52F825000BF0F4FA93
:1012C0003BA941F82500681C05B2062DF0DBB8F1FA
:1012D000140F05DA494644980BF076FDFFF466AF2B
:1012E000AF493E980BF0E6FA2060AD493F980BF00D
:1012F000E1FA6060AA4940980BF0DCFAA06021682E
:101300003B980BF0D7FA306061683C980BF0D2FA4A
:101310007060A1683D980BF0CDFAB0604FF07E513F
:1013200020680BF0C1FA20F0004A9E4950460BF0AD
:101330004BFD17D34FF07E5160680BF0B5FA20F0EB
:10134000004A984950460BF03FFD0BD34FF07E51B9
:10135000A0680BF0A9FA20F0004A924950460BF021
:1013600033FD01D201200A90306820F0004A8E49F6
:1013700050460BF029FD0FD3706820F0004A8A49CF
:1013800050460BF021FD07D3B06820F0004A864993
:1013900050460BF019FD01D201200A900A9845B081
:1013A000BDE8F08F00B59FB0002019901A901B90F7
:1013B0007E4A07CA16AB07C300207D49088006E0B5
:1013C000FFF749FD7A480088401C79490880784831
:1013D0000088C828F4DB00201D9016E000211D982D
:1013E00000EB4000734A42F820101D9800EB4000CB
:1013F00002EB800041601D9800EB400002EB800092
:1014000081601D98401CC0B21D901D980628E5DB28
:10141000002067490880684988604860086067A0C4
:101420000BF040FF0520FFF708FD00206049088011
:1014300042E0FFF710FD67480068594913900BF030
:1014400039FA654914900BF067FA15905A4800680C
:101450000146149015980BF0D5F9574908605D487E
:1014600040684F4913900BF025FA5B4914900BF03C
:1014700053FA1590504840680146149015980BF0A7
:10148000C1F94D49486053488068454913900BF0B5
:1014900011FA514914900BF03FFA159046488068B4
:1014A0000146149015980BF0ADF943498860404807
:1014B0000088401C3E4908803D480088C828B8DBA9
:1014C0003D480068454915900BF026FA39490860F7
:1014D00039484068414915900BF01EFA354948607B
:1014E000354880683D4915900BF016FA31498860FF
:1014F00000202F49088000212F4881604160016051
:1015000037A00BF0CFFE2B4880680F900BF023FC28
:10151000CDE91401274840680F900BF01CFCCDE981
:101520001201244800680F900BF015FCCDE9100162
:10153000DDE91401CDE90201DDE91201CDE9000187
:1015400029A0DDE910230BF0ADFE4FF47A7001F015
:1015500054F92BA00BF0A6FE0520FFF76EFC00202F
:10156000134908807FE0FFF776FC1A4800680C49B1
:1015700013900BF09FF9184914900BF0CDF91590CA
:101580000D4800680146149015980BF03BF90A4984
:10159000086010484068024913903BE07FD6D03D78
:1015A0000AE81C41CDCC4C3E0000604050F20008DF
:1015B00018000020D0030020180400206669727310
:1015C000742063616C207A68656E676D69616E0A6C
:1015D000000000002404002000F07F450000484384
:1015E0006F6E65206F6B0A00783A252E3266097996
:1015F0003A252E3266097A3A252E32660A0A00000A
:101600007365636F6E642063616C2068656164203C
:1016100075700A000BF04EF9FE4914900BF07CF93E
:101620001590FD4840680146149015980BF0EAF8B3
:10163000F9494860F9488068F94913900BF03AF984
:10164000F44914900BF068F91590F348806801464E
:10165000149015980BF0D6F8EF498860F14800888F
:10166000401CF0490880EF480088C828FFF67BAF8F
:10167000E9480068EC4915900BF04EF9EB49C86059
:10168000E5484068E84915900BF046F9E7490861DC
:10169000E1488068E44915900BF03EF9E349486160
:1016A0000020E0490880DC49886048600860E0A0CC
:1016B0000BF0F8FDDD4840690F900BF04CFBCDE9D5
:1016C0001401DA4800690F900BF045FBCDE91201D7
:1016D000D648C0680F900BF03EFBCDE91001DDE964
:1016E0001401CDE90201DDE91201CDE90001AFF2FB
:1016F0000810DDE910230BF0D5FD4FF47A7001F0EE
:101700007CF8CDA00BF0CEFD0520FFF796FB002066
:10171000C449088042E0FFF79EFBC0480068C0490A
:1017200013900BF0C7F8BB4914900BF0F5F8159027
:10173000B94800680146149015980BF063F8B64953
:101740000860B6484068B64913900BF0B3F8B14949
:1017500014900BF0E1F81590AF48406801461490E2
:1017600015980BF04FF8AC494860AC488068AC491C
:1017700013900BF09FF8A74914900BF0CDF815903B
:10178000A54880680146149015980BF03BF8A249D3
:101790008860A4480088401CA2490880A1480088AD
:1017A000C828B8DB9C4800689F4915900BF0B4F836
:1017B0009E498861984840689B4915900BF0ACF8A9
:1017C0009A49C86194488068974915900BF0A4F82D
:1017D000964908620020934908808F4988604860D4
:1017E00008609AA00BF05EFD9048006A0F900BF025
:1017F000B2FACDE914018D48C0690F900BF0ABFA35
:10180000CDE91201894880690F900BF0A4FACDE967
:101810001001DDE91401CDE90201DDE91201CDE994
:101820000001AFF23C20DDE910230BF03BFD4FF44B
:101830007A7000F0E2FF88A00BF034FD0520FFF77E
:10184000FCFA00207749088042E0FFF704FB734868
:101850000068734913900BF02DF86E4914900BF04B
:101860005BF815906C4800680146149015980AF0D2
:10187000C9FF6949086069484068694913900BF0DD
:1018800019F8644914900BF047F8159062484068C5
:101890000146149015980AF0B5FF5F4948605F480B
:1018A00080685F4913900BF005F85A4914900BF0CB
:1018B00033F81590584880680146149015980AF03E
:1018C000A1FF5549886057480088401C5549088049
:1018D00054480088C828B8DB4F4800685249159022
:1018E0000BF01AF8514948624B4840684E49159030
:1018F0000BF012F84D498862474880684A491590B4
:101900000BF00AF84949C86200204649088042495C
:1019100088604860086055A00BF0C4FC4348C06A6A
:101920000F900BF018FACDE914014048806A0F902F
:101930000BF011FACDE912013C48406A0F900BF010
:101940000AFACDE91001DDE91401CDE90201DDE972
:101950001201CDE90001AFF27030DDE910230BF088
:10196000A1FC4FF47A7000F048FF43A00BF09AFC02
:101970000520FFF762FA00202A49088042E0FFF7BD
:101980006AFA26480068264913900AF093FF214915
:1019900014900AF0C1FF15901F480068014614908A
:1019A00015980AF02FFF1C4908601C4840681C4924
:1019B00013900AF07FFF174914900AF0ADFF1590BD
:1019C000154840680146149015980AF01BFF12490B
:1019D000486012488068124913900AF06BFF0D4965
:1019E00014900AF099FF15900B48806801461490F6
:1019F00015980AF007FF084988600A480088401CCB
:101A00000849088007480088C828B8DB02480068F1
:101A100005493BE000F07F45180400202404002025
:101A20000AE81C411800002000004843D0030020B1
:101A300074776F206F6B0A00746869726420636149
:101A40006C206C6566742075700A0000746872659D
:101A500065206F6B0A000000666F75722063616C11
:101A60002072696768742075700A0000666F75726D
:101A7000206F6B0A00000000666976652063616C68
:101A8000207461696C2075700A00000015900AF0DE
:101A900043FFA3490863A3484068A34915900AF08F
:101AA0003BFF9F4948639F4880689F4915900AF013
:101AB00033FF9B49886300209C49088099498860CE
:101AC000486008609AA00BF0EDFB9548806B0F9082
:101AD0000BF041F9CDE914019148406B0F900BF0E8
:101AE0003AF9CDE912018E48006B0F900BF033F9F3
:101AF000CDE91001DDE91401CDE90201DDE91201B2
:101B0000CDE90001AFF22050DDE910230BF0CAFB54
:101B10004FF47A7000F071FE88A00BF0C3FB052033
:101B2000FFF78BF906F0BEFB00208049088042E0F9
:101B3000FFF791F986480068864913900AF0BAFECB
:101B4000854914900AF0E8FE159076480068014631
:101B5000149015980AF056FE724908607C48406857
:101B60007C4913900AF0A6FE7B4914900AF0D4FE3B
:101B700015906C4840680146149015980AF042FE92
:101B80006849486072488068724913900AF092FE72
:101B9000714914900AF0C0FE1590624880680146B1
:101BA000149015980AF02EFE5E4988605F48008800
:101BB000401C5E4908805D480088C828B8DB594849
:101BC0000068594915900AF0A7FE5549C863554861
:101BD0004068554915900AF09FFE514908645148E4
:101BE0008068514915900AF097FE4D4948645BA002
:101BF0000BF058FB4A48406C0F900BF0ACF8CDE965
:101C000014014748006C0F900BF0A5F8CDE91201C4
:101C10004348C06B0F900BF09EF8CDE91001DDE951
:101C20001401CDE90201DDE91201CDE90001AFF2B5
:101C30004860DDE910230BF035FB4FF47A7000F0BB
:101C4000DCFD16AA19A93648FFF76FFA1C901C98FC
:101C500068B94449199808601A9848601B988860C8
:101C600041481699016017994160189981603E4872
:101C7000806809900BF06FF8CDE914013A4840688C
:101C800009900BF068F8CDE9120137480068099017
:101C90000BF061F8CDE910013248806809900BF033
:101CA0005AF8CDE90E012F48406809900BF053F81F
:101CB000CDE90C012B48006809900BF04CF8CDE9F8
:101CC0000A01DDE91401CDE90801DDE91201CDE9E0
:101CD0000601DDE91001CDE90401DDE90E01CDE9E0
:101CE0000201DDE90C01CDE9000120A0DDE90A23B4
:101CF0000BF0D8FA4FF47A7000F07FFD4FF47A7051
:101D000000F07BFD4FF47A7000F077FD4FF47A70AD
:101D100000F073FD4FF47A7000F06FFD1FB000BD4E
:101D2000D0030020180400200000484318000020C1
:101D300066697665206F6B0A000000007369782081
:101D400063616C206261636B2075700A00000000A3
:101D5000240400200AE81C4100F07F4573697820C4
:101D60006F6B0A000C00002000000020623020256C
:101D70002E326609623120252E3266096232202514
:101D80002E3266096B3020252E3266096B312025F4
:101D90002E3266096B3220252E32660A00000000C2
:101DA00010B5022000F005FD10BD08B50121082086
:101DB00001F076FA4FF44060ADF8000010208DF885
:101DC000030003208DF8020069468D4800F0ACFF47
:101DD0004FF440618A4801F054F808BD10B58848B6
:101DE000001D006820F470408549091D0860084600
:101DF000006840F440500860012082490860824930
:101E0000C1F8A801FFF7CCFF00207E490860FFF76A
:101E1000C7FF00207C49C1F8A80110BD10B5784863
:101E2000001D006820F470407549091D08600846CF
:101E3000006840F44050086000207249091F0860A3
:101E40007149C1F8AC01FFF7ABFF01206D49091FD3
:101E500008606D49C1F8AC01FFF7A2FF10BD10B5D5
:101E600000246748001D006820F470406449091D83
:101E700008600846006840F400400860012061499D
:101E80000860FFF78DFF01205F49C1F8A801FFF747
:101E900087FF07E0601CC4B2FA2C03DDFFF7BEFF2A
:101EA000012010BD5748803800680028F2D15549FC
:101EB000091F086000BFF4E710B500205149091F51
:101EC00008604F48001D006820F470404C49091D0F
:101ED00008600846006840F44050086000204A4905
:101EE000C1F8AC01FFF75CFF01204649091F0860FB
:101EF000FFF756FF00204449C1F8A80110BD10B5F6
:101F000000204049091F08603D48001D006820F47A
:101F100070403B49091D08600846006840F4405085
:101F2000086001203849C1F8AC01FFF739FF0120F2
:101F30003449091F0860FFF733FF00203249C1F818
:101F4000A80110BD70B504462D48001D006820F49E
:101F500070402B49091D08600846006840F4405055
:101F6000086000202749091F0860002512E0E009E9
:101F7000244908606006040E01202349C1F8A80125
:101F8000FFF70EFF00201F49091F0860FFF708FF39
:101F9000681CC5B2082DEADB70BD70B5054600248B
:101FA0001748001D006820F470401549091D08609D
:101FB0000846006840F400400860002615E0002054
:101FC0001049091F0860FFF7EBFE01200E49C1F818
:101FD000A8016006040E0B488038006808B1601C38
:101FE000C4B2FFF7DDFE701CC6B2082EE7DB15B9E0
:101FF000FFF785FF01E0FFF75FFF204670BD00009F
:10200000000C0140AC812142008021427FB5054691
:102010000C460121C80201F043F9ADF80850ADF8B3
:1020200004400020ADF80A00ADF806008DF80C0061
:1020300001A9AD4801F06CFA0121AB4801F0C4FDE3
:1020400019208DF8000002208DF8010000208DF885
:10205000020001208DF80300684600F09CFD01217C
:10206000A14802F077F8002201219F4801F0C7FD46
:102070007FBD30B589B005460C460121042001F032
:102080001CF90121082001F00BF94FF47070ADF834
:10209000140028208DF8170005A9944800F044FE8C
:1020A0004FF47071914800F0EEFEADF80C50ADF8B1
:1020B00008400020ADF80E00ADF80A0002A98C48D7
:1020C00001F026FA0020ADF81800ADF81A00012042
:1020D000ADF81C000020ADF81E00ADF8200006A9E8
:1020E000834801F0A8FC0420ADF818000020ADF8EA
:1020F0001A000120ADF81C000020ADF81E00ADF85C
:10210000200006A97A4801F096FC0820ADF81800D6
:102110000020ADF81A000120ADF81C000020ADF839
:102120001E00ADF8200006A9714801F084FC0C20C7
:10213000ADF818000020ADF81A000120ADF81C0021
:102140000020ADF81E00ADF8200006A9684801F097
:1021500072FC1E208DF8040001208DF805008DF81A
:1021600006008DF8070001A800F015FD01221E21D0
:102170005F4801F044FD01215D4801F025FD09B0F3
:1021800030BD30B589B005460C460121042001F070
:1021900087F80121084601F090F80F20ADF80400FF
:1021A00003208DF8060018208DF8070001A951487A
:1021B00000F0BAFD0F214F4800F063FEADF81C504F
:1021C000ADF818400020ADF81E00ADF81A0006A9C1
:1021D0004FF0804001F09CF96020ADF8080001202C
:1021E000ADF80A000020ADF80E00ADF8100002A90D
:1021F0004FF0804001F0C9F90821C80601F014FE33
:1022000002A94FF0804001F002FA0821C80601F04F
:1022100014FE02A94FF0804001F046FA0821C806DA
:1022200001F018FE02A94FF0804001F088FA082161
:10223000C80601F018FE0121880701F0C5FD012143
:10224000880701F0C1FC09B030BD7FB505460C46DA
:102250000121022001F031F8ADF80850ADF804403A
:102260000020ADF80A00ADF8060001A9224801F0EF
:102270004FF91D208DF8000001208DF801008DF828
:1022800002008DF80300684600F085FC01211A4821
:1022900001F09AFC00220121174801F0B0FC7FBD3B
:1022A00010B50121144801F058FF80B113480068AF
:1022B000401C124908601248006808B9012000E07B
:1022C00000200F49086001210B4801F057FF10BDA5
:1022D0000948243001880948006840F635425043D7
:1022E00001EB001070470000002C0140000C014081
:1022F0000008004000080140000400401C000020CD
:102300009001214210B59048007800F0800000282C
:1023100042D102218D4801F020FF00283CD002214B
:102320008A4801F02BFF8848007800F0400020B375
:10233000864801F0F3FE86490880084600888549F2
:102340000988884204DA44F61F608349086002E085
:102350000020814908607E4800887E490988401A2B
:102360007D49096808447D49C860002076490870A5
:102370000021764801F0DAFD0EE0744801F0CEFE4F
:10238000744908807048007840F040006E49087039
:1023900002216E4801F0CAFD7148007800F080000B
:1023A000002841D10421694801F0D7FE60B304211F
:1023B000664801F0E3FE6A48007800F0400020B370
:1023C000624801F0AEFE6749088008460088664909
:1023D0000988884204DA44F61F606449086002E014
:1023E0000020624908605F4800885F490988401AF8
:1023F0005E490968084459494860002058490870F6
:102400000021524801F0A4FD0EE0504801F089FE81
:10241000554908805248007840F040005049087003
:1024200002214A4801F094FD5148007800F08000F4
:1024300088BB0821454801F090FE60B3082143485D
:1024400001F09CFE4A48007800F0400020B33F486D
:1024500001F06AFE47490880084600884649098815
:10246000884204DA44F61F604449086002E0002014
:10247000424908603F4800883F490988401A3F495F
:10248000096808443549086000203949087000216E
:102490002E4801F077FD0EE02C4801F045FE36494C
:1024A00008803348007840F040003149087002212C
:1024B000264801F067FD3248007800F0800088BBB4
:1024C0001021224801F049FE60B310211F4801F09D
:1024D00055FE2B48007800F0400020B31B4801F067
:1024E00026FE28490880084600882749098888422E
:1024F00004DA44F61F602549086002E00020234901
:1025000008602048008820490988401A1F49096846
:1025100008441249886000201949087000210B48BE
:1025200001F04AFD0EE0094801F001FE164908805D
:102530001348007840F04000114908700221034818
:1025400001F03AFD10BD000020000020000800400E
:102550002400002022000020380000205004002029
:10256000260000202A000020280000203C00002037
:102570002C000020300000202E0000204000002011
:1025800032000020360000203400002044000020EB
:1025900070B504460026FFF721FC2546E11704EB41
:1025A00011610912A02202EB4101C8B2FFF7CAFC77
:1025B000FFF755FCE11704EB11610912A4EB0121AF
:1025C000C8B2FFF7BFFCFFF74AFCFFF707FCA120EA
:1025D000FFF7B8FCFFF743FC0020FFF7DEFC0646E0
:1025E000FFF71CFC304670BD70B504460E46FFF781
:1025F000F5FB2546E11704EB11610912A02202EB5D
:102600004101C8B2FFF79EFCFFF729FCE11704EB7C
:1026100011610912A4EB0121C8B2FFF793FCFFF787
:102620001EFC3046FFF78EFCFFF719FCFFF7F6FBA8
:102630000A2000F0E2F870BD10B5FF20FFF7A8FFF8
:102640000446552C01D1002010BD5521FF20FFF775
:10265000CBFFFF20FFF79CFF0446552C01D1002043
:10266000F2E70120F0E710B506E02EA00AF01AFE0E
:102670004FF42F7000F0C1F8FFF7DEFF0028F4D10F
:102680002DA00AF00FFE10BD2DE9F04105460E46C3
:102690001746002409E0E20026FA02F2D1B22A1914
:1026A00090B2FFF7A1FF601CC4B2BC42F3DBBDE8EF
:1026B000F0812DE9F04107460C460026002509E08F
:1026C00036023919491B491E88B2FFF761FF0644DB
:1026D000681CC5B2A542F3DB3046BDE8F08170B599
:1026E00006460C46154608E03046721C96B2FFF7C7
:1026F0004FFF04F8010B681E85B2002DF4D170BDA8
:1027000070B505460C46164606E021782846FFF7C8
:102710006BFF681C85B2641C301EA6F101018EB2ED
:10272000F3D170BD63616E7420636865636B20656F
:102730006570726F6D0A0000454550524F4D204F35
:102740004B0A000008B50121042000F0A9FD30204B
:10275000ADF8000010208DF8030003208DF8020072
:102760006946064800F0E0FA1021044800F089FBB1
:102770002021024800F085FB08BD00000008014050
:1027800010B56FF0040000F050FA3948006839497C
:10279000B0FBF1F0384908700846007800EB4001C2
:1027A000C1EBC0104FF6FF7101EAC0003349088049
:1027B00010BD0146304A12784A434FF0E0235A6177
:1027C00000229A611A46126942F001021A6100BFA2
:1027D0004FF0E022106900F001021AB100F48032DB
:1027E000002AF5D04FF0E022126922F001024FF0EA
:1027F000E0231A6100229A61704701461F4A12883D
:102800004A434FF0E0235A6100229A611A46126946
:1028100042F001021A6100BF4FF0E022106900F09F
:1028200001021AB100F48032002AF5D04FF0E02204
:10283000126922F001024FF0E0231A6100229A612E
:1028400070470F480068401C0D4908600846006842
:1028500009490978884207D30020094908600948D6
:102860000068401C074908607047064800687047C8
:102870006000002000127A00480000204A0000207A
:102880004C0000205000002000BF704700BF704780
:1028900000BF304A128802F04002002AF9D0C2B2CA
:1028A0002C4B1B1D1A80704710B586B004460121C1
:1028B00044F2040000F0F4FC4FF40070ADF8140092
:1028C00003208DF8160018208DF8170005A922485E
:1028D00000F02AFA4FF48060ADF8140004208DF85F
:1028E000170005A91C4800F01FFA25208DF80000EC
:1028F00000208DF8010002208DF8020001208DF8E3
:102900000300684600F047F901940020ADF8080084
:10291000ADF80A00ADF80C00ADF810000C20ADF8D1
:102920000E0001A90B4801F070FC012240F2255174
:10293000084801F002FD0121064801F0F2FC06B052
:1029400010BD10B5034801F05DFDC4B2204606F08D
:10295000CBFD10BD0038014000080140704700BFAA
:10296000FEE700BFFEE700BFFEE700BFFEE77047DF
:102970007047704710B507F0E7FF10BD10B5002095
:1029800008F0C5F910BD00000CB5002001900090C2
:102990006C48006840F480306A49086000BF6948AC
:1029A000006800F4003000900198401C01900098ED
:1029B00018B90198B0F5A06FF1D16248006800F431
:1029C000003010B10120009001E00020009000983C
:1029D000012843D15C48006840F010005A49086063
:1029E0000846006820F0030008600846006840F0D0
:1029F00002000860534840685249486008464068F1
:102A000048600846406840F4806048600846406876
:102A100020F47C1048600846406840F4E8104860A4
:102A20000846006840F08070086000BF45480068B4
:102A300000F000700028F9D04248406820F0030000
:102A4000404948600846406840F00200486000BFC6
:102A50003C48406800F00C000828F9D10CBD10B5C6
:102A6000FFF792FF10BD10B53648006840F0010036
:102A70003449086008464068344908403149486094
:102A800008460068324908402E4908600846006838
:102A900020F4802008600846406820F4FE0048606A
:102AA0004FF41F008860FFF7DAFF4FF000602949FC
:102AB000086010BD10B5002100200022214B5B688A
:102AC00003F00C0121B1042906D0082928D107E020
:102AD000214B224C236027E01F4B204C236023E036
:102AE000184B5B6803F47010164B5B6803F480327C
:102AF000022303EB904022B9194B4343174C236048
:102B00000DE0104B5B6803F4003323B1144B4343D7
:102B1000124C236003E0104B4343104C236003E04E
:102B20000D4B0E4C236000BF00BF064B5B68C3F328
:102B300003130C4CE15C094B1B68CB40074C236032
:102B400010BD000000100240002002400000FFF80D
:102B5000FFFFF6FE08ED00E000127A0060000020A2
:102B600000093D00640000200648804706480047F1
:102B7000FEE7FEE7FEE7FEE7FEE7FEE7FEE7FEE72D
:102B8000FEE7FEE7672A00083101000831490143EA
:102B9000314A1160704770B5002100230F22C478BC
:102BA00004B32D4C246804F4E064C4F5E064210A05
:102BB000C1F10403CA40447804FA03F18478144054
:102BC00021430901254C0678A155047804F01F051E
:102BD0000124AC4005786D11AD0005F1E025C5F884
:102BE000004109E0047804F01F050124AC401C4DAD
:102BF0000678761145F8264070BD1A4A0A4002430D
:102C0000154B1B1F1A60704739B1134A121D126809
:102C10000243114B1B1D1A6006E00F4A121D126879
:102C200082430D4B1B1D1A607047042808D14FF0DA
:102C3000E021096941F004014FF0E022116107E051
:102C40004FF0E021096921F004014FF0E022116109
:102C5000704700000000FA050CED00E000E400E021
:102C600080E100E080FFFF1F10B50446CC4884429D
:102C700008D10121042000F02DFB0021042000F0E8
:102C800029FB46E0C748844208D10121082000F012
:102C900021FB0021082000F01DFB3AE0C2488442DD
:102CA00008D10121102000F015FB0021102000F0B8
:102CB00011FB2EE0BD48844208D10121202000F004
:102CC00009FB0021202000F005FB22E0B8488442E7
:102CD00008D10121402000F0FDFA0021402000F041
:102CE000F9FA16E0B348844208D10121802000F0AF
:102CF000F1FA0021802000F0EDFA0AE0AE488442AB
:102D000007D10121801500F0E5FA0021A01500F09F
:102D1000E1FA10BD10B50121084600F0DBFA0021F0
:102D2000012000F0D7FA10BD2DE9F0410246002540
:102D30000026002000230024002791F803C00CF097
:102D40000F0591F803C00CF0100CBCF1000F03D07C
:102D500091F802C04CEA050591F800C0BCF1000FE3
:102D600031D0146800202BE04FF0010C0CFA00F376
:102D7000B1F800C00CEA03069E4220D183004FF058
:102D80000F0C0CFA03F7BC4305FA03FC4CEA0404ED
:102D900091F803C0BCF1280F06D14FF0010C0CFADA
:102DA00000FCC2F814C00AE091F803C0BCF1480F5F
:102DB00005D14FF0010C0CFA00FCC2F810C0401C09
:102DC0000828D1D31460B1F800C0BCF1FF0F34DD86
:102DD000546800202EE000F1080C4FF0010808FABA
:102DE0000CF3B1F800C00CEA03069E4221D1830027
:102DF0004FF00F0C0CFA03F7BC4305FA03FC4CEA46
:102E0000040491F803C0BCF1280F05D100F1080CAF
:102E100008FA0CF8C2F8148091F803C0BCF1480F0E
:102E200007D100F1080C4FF0010808FA0CF8C2F8BD
:102E30001080401C0828CED35460BDE8F0814FF6C6
:102E4000FF710180022181700421C1707047024628
:102E5000002093680B400BB1012000E00020704778
:102E60000146886880B2704702460020D3680B4054
:102E70000BB1012000E0002070470146C86880B215
:102E8000704701617047416170470AB1016100E01C
:102E900041617047C16070474FF480320A438261DC
:102EA0008161826182698269704702460020434BDA
:102EB00018684FF68073184040EA021008433F4BF1
:102EC000186070473E49C8617047F0B50A46002354
:102ED00000240021002500F00046B6F1004F02D189
:102EE000364EF16901E0354E7168C0F3034583B297
:102EF00000F44016B6F5401F08D121F070612F4E46
:102F0000766826F070662D4F7E6012E000F4801621
:102F1000B6F5801F06D1032606FA05F4A14341F059
:102F2000706106E0460D360103FA06F6B14341F042
:102F3000706122B1460D360103FA06F6314300F006
:102F40000046B6F1004F02D11C4EF16101E01B4E6C
:102F50007160F0BD30B500228B071C0F0F2303FA00
:102F600004F2164B08338C1053F824309343134C5F
:102F700008348D1044F8253023468C1053F8243043
:102F80008C07240F00FA04F423430C4C08348D10F2
:102F900044F8253030BD0A49DC3108607047000034
:102FA00000080140000C01400010014000140140E5
:102FB00000180140001C01400020014000000140B9
:102FC00000002042DF48006840F00100DD49086051
:102FD00008464068DC490840DA494860084600680D
:102FE000DA490840D74908600846006820F4802084
:102FF00008600846406820F4FE0048604FF41F0057
:1030000088607047CF49096821F48031CD4A11604A
:103010001146096821F480211160B0F5803F03D08A
:10302000B0F5802F0ED106E0C649096841F4803121
:10303000C44A116007E0C349096841F4A021C14AAC
:10304000116000E000BF00BF704710B501460022CC
:10305000002300204A11012A02D1BA4C236806E05D
:10306000022A02D1B74C236A01E0B64C636A01F030
:103070001F02012494401C400CB1012000E00020FC
:1030800010BD38B5002000900024002500BF31207D
:10309000FFF7DBFF05460098401C00900098B0F554
:1030A000A06F01D0002DF2D03120FFF7CEFF08B184
:1030B000012400E00024204638BD01460020A14A3A
:1030C000106820F0F80040EAC10010607047A04985
:1030D00008607047024600209A4B586820F47C1024
:1030E00042EA01031843974B5860704798490866B5
:1030F000704701460020934A506820F003000843BF
:10310000506070478F48406800F00C0070470146DF
:1031100000208C4A506820F0F0000843506070474F
:1031200001460020874A506820F4E0600843506060
:10313000704701460020834A506820F4605040EAFE
:10314000C1005060704729B17E4A527A02437D4BDC
:103150005A7204E07B4A527A82437A4B5A72704721
:103160007B49D8310860704701460020754A506895
:1031700020F440400843506070470021714A2032DB
:103180001170704A82F82010012802D004280AD158
:1031900004E001216B4A2032117005E00521694AE3
:1031A0002032117000E000BF00BF7047694908601D
:1031B00070476449096A0143624A11627047654970
:1031C00044390860704730B50021002200240023F4
:1031D0005C4D6D6805F00C0121B1042905D008296A
:1031E00023D105E05C4D056022E05B4D05601FE0EA
:1031F000544D6D6805F47012524D6D6805F48034BD
:10320000022505EB92421CB9544D554305600BE075
:103210004C4D6D6805F400351DB1504D55430560AA
:1032200002E04D4D5543056002E04B4D056000BF87
:1032300000BF444D6D6805F0F0010909484D6B5C15
:103240000568DD4045603F4D6D6805F4E061090AA1
:10325000434D6B5C4568DD4085603A4D6D6805F413
:103260006051C90A3E4D6B5C4568DD40C560354D17
:103270006D6805F44041890B3A4D6B5CC568B5FB40
:10328000F3F5056130BD29B12E4A526902432D4B39
:103290005A6104E02B4A526982432A4B5A617047B3
:1032A00029B1284A92690243264B9A6104E0254AD3
:1032B00092698243234B9A61704729B1214AD269AE
:1032C0000243204BDA6104E01E4AD26982431D4B5F
:1032D000DA61704729B11B4AD2680243194BDA60A0
:1032E00004E0184AD2688243164BDA60704729B16D
:1032F000144A12690243134B1A6104E0114A12691D
:103300008243104B1A617047124940390860704778
:103310000F49C86470470B49C87170470948406A33
:1033200040F0807007494862704701460020054A16
:1033300092680A400AB1012000E00020704701496C
:1033400088727047001002400000FFF8FFFFF6FE91
:10335000000042428004424200127A0000093D000F
:10336000740000208400002010B50446FE4884420A
:1033700008D10121C014FFF7ADFF0021E014FFF7D1
:10338000A9FFC4E0B4F1804F08D101210846FFF73E
:10339000AEFF00210120FFF7AAFFB8E0F348844206
:1033A00008D101210220FFF7A2FF00210220FFF730
:1033B0009EFFACE0EE48844208D101210420FFF7D3
:1033C00096FF00210420FFF792FFA0E0E948844225
:1033D00008D101210820FFF78AFF00210820FFF70C
:1033E00086FF94E0E448844208D101211020FFF7D1
:1033F0007EFF00211020FFF77AFF88E0DF4884423B
:1034000008D101212020FFF772FF00212020FFF7C3
:103410006EFF7CE0DA48844208D101214014FFF7B6
:1034200059FF00216014FFF755FF70E0D548844232
:1034300009D10121C804FFF74DFF00214FF40020FE
:10344000FFF748FF63E0D048844209D10121080515
:10345000FFF740FF00214FF48010FFF73BFF56E0DD
:10346000CA48844209D101214805FFF733FF0021F2
:103470004FF40010FFF72EFF49E0C548844208D101
:1034800001214020FFF733FF00214020FFF72FFFED
:103490003DE0C048844208D101218020FFF727FF8A
:1034A00000218020FFF723FF31E0BB48844208D190
:1034B00001218015FFF71BFF0021A015FFF717FF63
:1034C00025E0B648844209D101210804FFF702FF34
:1034D00000214FF48030FFF7FDFE18E0B048844231
:1034E00009D101214804FFF7F5FE00214FF4003017
:1034F000FFF7F0FE0BE0AB48844208D101218804BD
:10350000FFF7E8FE00214FF48020FFF7E3FE10BD37
:1035100000220288944B98420ED0994B98420BD0CF
:10352000B0F1804F08D0914B984205D0904B984213
:1035300002D0904B984204D14FF68F731A404B88BB
:103540001A438D4B984207D08C4B984204D04FF6CB
:10355000FF431A40CB881A4302808B8883850B88EF
:103560000385814B98420BD0854B984208D08B4BFA
:10357000984205D08A4B984202D08A4B984201D19A
:103580000B7A038601238382704770B500240022E2
:103590000023058C4FF6FE7635400584028C838827
:1035A000048B4FF68F752C40B51E2C400D882C4394
:1035B000751E2A400D892A434D882A436A4DA84228
:1035C0000BD06F4DA84208D0744DA84205D0744D61
:1035D000A84202D0734DA84213D14FF6F7752A4086
:1035E0004D892A434FF6FB752A408D882A434FF6B2
:1035F000FF652B404FF6FF552B408D892B43CD891E
:103600002B4383800483CD888586028470BD70B58A
:10361000002400220023058C4FF6EF763540058408
:10362000028C8388048B48F6FF752C404FF6FF45CB
:103630002C400D884FF6FF7606EA05252C434FF601
:10364000DF752A400D8906EA05152A434D8806EAEA
:1036500005152A43444DA84202D0494DA8421DD128
:103660004FF67F752A404D894FF6FF7606EA05151D
:103670002A434FF6BF752A408D8806EA05152A436E
:103680004FF6FF352B404FF2FF752B408D8906EA30
:1036900085052B43CD8906EA85052B43838004836A
:1036A000CD880587028470BD70B5002400220023F8
:1036B000058C4FF6FF6635400584028C8388848B29
:1036C0004FF68F752C404FF6FC752C400D882C431F
:1036D0004FF6FF552A400D894FF6FF7606EA05257D
:1036E0002A434D8806EA05252A431F4DA84202D0E9
:1036F000234DA8421DD14FF2FF752A404D894FF648
:10370000FF7606EA05252A434FF6FF352A408D88C5
:1037100006EA05252A434EF6FF752B404DF6FF7548
:103720002B408D8906EA05152B43CD8906EA051540
:103730002B4383808483CD888587028470BD70B5D8
:10374000002200230024058C4EF6FF7635400584C8
:10375000038C8488828B48F6FF752A404FF6FF451C
:103760002A400D8820E00000002C014000040040A9
:1037700000080040000C0040001000400014004011
:1037800000340140004C0140005001400054014011
:1037900000180040001C0040002000400040014094
:1037A00000440140004801404FF6FF7606EA052537
:1037B0002A434DF6FF752B400D8906EA05352B434C
:1037C0004D8806EA05352B43FA4DA84202D0FA4D42
:1037D000A84208D14BF6FF752C408D894FF6FF7635
:1037E00006EA85152C4384808283CD88A0F840505A
:1037F000038470BD828B4FF2FF331A408283828B29
:103800004FF6FF7303EA01231A4382837047F0B532
:103810000C461546002200210026078C4EF6FF7C40
:1038200007EA0C070784828B018C4FF6FF7707EAC3
:10383000043640F6FF473A404FF6FF7707EA052780
:103840003A434FF6FF7707EA03373A43D94FB84276
:103850000ED0D94FB8420BD0B0F1804F08D0D74F1F
:10386000B84205D0D64FB84202D0D64FB84206D1A2
:103870004DF6FF77394046F48057394305E047F667
:10388000FF57394044F48057394382830184F0BDA7
:10389000828B4FF6F3731A408283828B0A438283B2
:1038A0007047F0B50C461546002200210026078C13
:1038B0004FF6FF6C07EA0C070784828B018C4FF6EA
:1038C000FF7707EA04264FF60C773A404FF6FF776A
:1038D00007EA03172F433A43B64FB8420ED0B64F0C
:1038E000B8420BD0B0F1804F08D0B44FB84205D0E9
:1038F000B34FB84202D0B34FB84206D14FF6FF578C
:10390000394046F48077394305E04FF2FF5739409C
:1039100044F48077394382830184F0BD028B4FF2F7
:10392000FF331A400283028B4FF6FF7303EA012331
:103930001A4302837047F0B50C4615460022002159
:103940000026078C4FF6EF7C07EA0C070784028BF2
:10395000018C4FF6FF7707EA041640F6FF473A401E
:103960004FF6FF7707EA03373A434FF6FF7707EA48
:1039700005273A438F4FB8420ED08F4FB8420BD035
:10398000B0F1804F08D08D4FB84205D08C4FB8426F
:1039900002D08C4FB84206D14FF6DF77394046F05F
:1039A0001007394305E04FF65F77394044F01007C0
:1039B000394302830184F0BD028B4FF6F3731A4042
:1039C0000283028B0A4302837047F0B50C4615460A
:1039D00000220021068C4FF6FE773E400684028BC3
:1039E000018C4FF60C7632407E1C06EA03162E43FD
:1039F0003243704EB0420ED06F4EB0420BD0B0F199
:103A0000804F08D06D4EB04205D06D4EB04202D00E
:103A10006C4EB04206D14FF6FD76314044F00106BF
:103A2000314305E04FF6F576314044F0010631436D
:103A300002830184F0BD70B505460C465D488542A1
:103A40000ED05D4885420BD0B5F1804F08D05B4861
:103A5000854205D05A48854202D05A48854200D155
:103A600000E000BF208850B92389A28861882846D9
:103A7000FFF7ABFFE1882846FFF79EFF25E020888F
:103A800004280AD12389A28861882846FFF753FFBA
:103A9000E1882846FFF742FF17E0208808280AD16E
:103AA0002389A28861882846FFF7FBFEE188284623
:103AB000FFF7EEFE09E02389A28861882846FFF718
:103AC000A6FEE1882846FFF795FE70BD2DE9F0417E
:103AD00005460C4600260127608808B9022600E04A
:103AE0000026A088012801D1022700E001272088B4
:103AF000A0B92389A28861882846FFF766FFE1887C
:103B00002846FFF759FF23893A4631462846FFF7F2
:103B100012FFE1882846FFF701FF13E02389A288FE
:103B200061882846FFF707FFE1882846FFF7F6FE81
:103B300023893A4631462846FFF747FFE188284661
:103B4000FFF73AFFBDE8F0810A884B881A438B885B
:103B50001A43CB881A430B891A434B891A438B8922
:103B60001A43A0F8442070474FF6FF71818000216E
:103B70000180C18041800172704700210180418035
:103B80008180C180018141818181C1817047002193
:103B900001804180012181800021C1800181704725
:103BA0000021018041808180C1800181418181812A
:103BB00070470000002C0140003401400004004028
:103BC00000080040000C004021B1028842F00102D0
:103BD000028004E002884FF6FE731A4002807047AC
:103BE00031B1B0F8442042F40042A0F8442005E08E
:103BF000B0F84420C2F30E02A0F8442070471AB176
:103C000083890B43838102E083898B4383817047DF
:103C10008182704741EA0203A0F8483070471AB128
:103C200083890B43838102E083898B4383817047BF
:103C300001894FF6F8721140018170470A46002150
:103C400001894FF68F73194011430181704730B5D8
:103C500004460D4629462046FFF7F0FF208940F034
:103C60000700208130BD2DE9F04104460D4616467F
:103C70001F46602D06D13B46012231462046FFF704
:103C80005AFE05E03B46012231462046FFF79DFEE5
:103C900029462046FFF7D2FF208940F00700208107
:103CA000BDE8F08130B50C4600210189C9B24FF65C
:103CB000FF7505EA0325154325432943018130BDDE
:103CC0002DE9F04105460E46174698460024434626
:103CD0003A4631462846FFF7E5FF2C894FF6F87043
:103CE000044044F007044FF68F70044044F0700421
:103CF0002C81BDE8F081F0B504460D4616461F46FE
:103D00003B46324629462046FFF7CCFF208940F447
:103D100080402081F0BD0185828270470A460021E3
:103D200001884FF68F731940114301807047F0B539
:103D30000C4615461E460021002200230189028BF5
:103D4000038C4FF6F877394021434FF6FC473A4051
:103D500040F201173A434FF6DD773B404FF6FF77CD
:103D600007EA06172F433B43018102830384F0BD1A
:103D70000A460021018B4FF68F73194011430183CE
:103D800070470A460021018B48F6FF7319404FF631
:103D9000FF7303EA02231943018370470A46002197
:103DA000818B4FF68F7319401143818370470A4608
:103DB0000021818B48F6FF7319404FF6FF7303EA29
:103DC000022319438183704721B1028842F08002A7
:103DD000028004E002884FF67F731A400280704729
:103DE00021B1828842F00402828004E082884FF68A
:103DF000FB731A408280704721B1828842F008022A
:103E0000828004E082884FF6F7731A408280704700
:103E100021B1828842F00102828004E082884FF65C
:103E2000FE731A40828070470A460021018B4FF6CC
:103E3000F77319401143018370470A460021018B33
:103E40004FF2FF7319404FF6FF7303EA0223194341
:103E5000018370470A460021818B4FF6F7731940A2
:103E60001143818370470A460021818B4FF2FF7313
:103E700019404FF6FF7303EA022319438183704709
:103E80000A460021018B4FF6FB7319401143018351
:103E900070470A460021018B4FF6FF3319404FF659
:103EA000FF7303EA02231943018370470A46002186
:103EB000818B4FF6FB7319401143818370470A468B
:103EC0000021818B4FF6FF3319404FF6FF7303EA51
:103ED00002231943818370470A460021018B4FF664
:103EE0007F7319401143018370470A460021018BFB
:103EF000C1F30E014FF6FF7303EA02231943018356
:103F000070470A460021818B4FF67F731940114399
:103F1000818370470A460021818BC1F30E014FF661
:103F2000FF7303EA02231943818370470A46002185
:103F3000018C4FF6FD7319401143018470470A4606
:103F40000021018C4FF6F77319401143018470472B
:103F50000A460021018C4FF6DF7319404FF6FF73BC
:103F600003EA02131943018470470A460021018CB9
:103F70004FF67F7319404FF6FF7303EA021319439C
:103F8000018470470A460021018C4FF6FF53194007
:103F90004FF6FF7303EA02231943018470470A4670
:103FA0000021018C4FF2FF7319404FF6FF7303EAB3
:103FB00002231943018470470A460021018C4DF603
:103FC000FF7319404FF6FF7303EA0233194301846C
:103FD000704730B5002301248C40A3B2048C9C436D
:103FE0000484048C02FA01F5ADB22C43048430BD84
:103FF00030B5002304248C40A3B2048C9C43048479
:10400000048C02FA01F5ADB22C43048430BD70B5C6
:104010000346002000241846183001258D40ACB21C
:104020001D8CA5431D8409B1082909D100EB61004D
:10403000056825F0700505600568154305600EE00C
:104040000D1FC5F34E052844056825F4E0450560BD
:1040500005684FF6FF7606EA02263543056070BD17
:1040600021B1028842F00202028004E002884FF689
:10407000FD731A400280704721B1028842F00402A9
:10408000028004E002884FF6FB731A4002807047FA
:1040900021B1828842F08002828004E082884FF65B
:1040A0007F731A408280704702884FF6F7731A4078
:1040B000028002880A430280704782884FF68F731D
:1040C0001A40828082880A438280704702894FF6B4
:1040D000F8731A40028102890A43028170470289FB
:1040E0004FF67F731A40028102890A4302817047AA
:1040F000818470478185704781867047018770474A
:1041000081877047A0F84010704702884FF6FF4340
:104110001A40028002880A43028070470146888E56
:1041200070470146088F70470146888F70470146E7
:10413000B1F8400070470146888C70470146088DF1
:10414000704702460020138A0B400BB1012000E0AB
:1041500000207047CA430282704730B502460020F3
:1041600000230024158A05EA0103958905EA010464
:1041700013B10CB1012000E0002030BDCA4302821F
:104180007047000010B50446FB48844209D1012164
:104190008803FFF79FF800214FF48040FFF79AF85B
:1041A00032E0F648844209D101214804FFF79FF824
:1041B00000214FF40030FFF79AF825E0F0488442E0
:1041C00009D101218804FFF792F800214FF48020E3
:1041D000FFF78DF818E0EB48844209D10121C804AB
:1041E000FFF785F800214FF40020FFF780F80BE07F
:1041F000E548844208D101210805FFF778F800213D
:104200004FF48010FFF773F810BD2DE9F04786B02A
:1042100005460E460024A24600BFA1460027B089ED
:1042200000B100BF2F462C8A4CF6FF700440F08886
:1042300004432C82AC894EF6F3100440B0883189D7
:104240000843718908430443AC81AC8A4FF6FF40B0
:104250000440B0890443AC8201A8FEF7B4FFC6480D
:10426000874202D1DDF810A001E0DDF80CA0A8899A
:1042700000F4004040B10AEBCA0000EB0A103168BC
:104280004900B0FBF1F807E00AEBCA0000EB0A10A6
:1042900031688900B0FBF1F86420B8FBF0F004014C
:1042A0002009642101FB1089A88900F4004040B175
:1042B000322000EBC900B0FBF1F000F0070004432E
:1042C00008E0322000EB09106421B0FBF1F000F0AF
:1042D0000F0004432C8106B0BDE8F0874FF416515F
:1042E000016000218180C18001810C214181002178
:1042F0008181704710B502460020108A4FF2FF03FB
:1043000018400B884C8823438C882343CC88234354
:104310001843108210BD0021018041808180C1803E
:10432000704721B1828942F40052828104E082897F
:104330004DF6FF731A4082817047F0B503460024A2
:1043400000260025002040F66A17B94200D100BFC0
:104350001846C1F3421401F01F06012707FA06F5BB
:10436000012C01D10C3004E0022C01D1103000E00E
:1043700014301AB107682F43076002E00768AF43A3
:104380000760F0BD1AB1838A0B43838202E0838AFF
:104390008B4383827047028A4FF6F0731A40028281
:1043A000028A0A430282704782894FF2FF731A40E1
:1043B000828182890A438281704721B1828942F0D9
:1043C0000202828104E082894FF6FD731A408281E5
:1043D0007047028A4FF6DF731A400282028A0A434C
:1043E0000282704721B1028A42F48042028204E0D4
:1043F000028A4BF6FF731A4002827047C1F308022B
:104400008280704701468888C0F308007047818920
:1044100041F0010181817047028BD2B20283028B8D
:1044200042EA012202837047028B02F47F42028338
:10443000028B0A430283704721B1828A42F0200234
:10444000828204E0828A4FF6DF731A4082827047CC
:1044500021B1828A42F01002828204E0828A4FF601
:10446000EF731A408282704721B1828A42F00802BB
:10447000828204E0828A4FF6F7731A408282704784
:1044800021B1828942F40042828103E08289C2F331
:104490000E028281704721B1828A42F400628282D8
:1044A00004E0828A4FF2FF731A4082827047828A48
:1044B0004FF6FB731A408282828A0A4382827047D7
:1044C00021B1828A42F00202828204E0828A4FF69F
:1044D000FD731A408282704702460020B1F5007FCA
:1044E00000D100BF13880B400BB1012000E0002079
:1044F000704701F40072B2F5007F00D100BFCA43DB
:104500000280704770B50246002400230025002079
:1045100040F66A16B14200D100BFC1F3421501F066
:104520001F03012606FA03F3012D02D196893340B9
:1045300006E0022D02D1168A334001E0968A33400C
:104540000C12012606FA04F41688344013B10CB19B
:10455000012000E0002070BD10B50022002340F6CD
:104560006A14A14200D100BF0A1201249440A3B2F0
:10457000DC43048010BD00000038014000440040CE
:1045800000480040004C0040005000400146002020
:10459000FE4A106800F03800084310607047FB497D
:1045A000096821F00801F94A1160114609680143C0
:1045B00011607047F549096821F01001F34A116054
:1045C00011460968014311607047F148EF4948609E
:1045D000F04848607047EE48EC494860ED48486054
:1045E0007047EA48006940F08000E8490861704778
:1045F000E648006940F08000E44908617047042003
:10460000E249C96801F0010109B101200EE0DF496A
:10461000C96801F0040109B1022007E0DB49C9685B
:1046200001F0100109B1032000E00420704700B53B
:1046300002460423FFF7E3FF034603E0FFF7DFFF33
:104640000346521E012B01D1002AF7D102B90523DE
:10465000184600BD30B5044604254FF43020FFF75E
:10466000E6FF0546042D17D1C848006940F0020056
:10467000C649086108464461006940F0400008618D
:104680004FF43020FFF7D3FF0546C048006941F6DC
:10469000FD710840BD490861284630BD10B50424AD
:1046A0004FF43020FFF7C3FF0446042C16D1B7485F
:1046B000006940F00400B54908610846006940F00F
:1046C000400008614FF43020FFF7B1FF0446AF48C7
:1046D000006941F6FB710840AC490861204610BDF5
:1046E00000B502460423FFF78AFF034603E0FFF705
:1046F00086FF0346521E012B01D1002AF7D102B9D1
:104700000523184600BD10B504244FF43020FFF7F0
:10471000E7FF0446042C16D19C48006940F00400D1
:104720009A4908610846006940F0400008614FF46A
:104730003020FFF7D5FF04469448006941F6FB712D
:10474000084092490861204610BD00208F49C96980
:1047500001F0020109B1012000E00020704730B5EE
:10476000A5250424FFF7F1FF00B100254FF4302008
:10477000FFF75DFF0446042C3AD1854883498860E1
:10478000844888600846006940F0200008610846B7
:10479000006940F0400008614FF43020FFF747FF08
:1047A0000446042C1BD17948006941F6DF710840AA
:1047B000764908610846006940F0100008617648B3
:1047C0000580E002FFF733FF0446052C10D06F4848
:1047D000006941F6EF7108406C49086108E0052C5A
:1047E00006D06A48006941F6EF71084067490861E0
:1047F000204630BD78B506460C46042500200090C2
:10480000E802FFF714FF0546042D24D15F48006934
:1048100040F001005D4908613480E802FFF707FFBE
:104820000546042D10D1B01C0090200C0099088082
:10483000E802FFF7FCFE05465448006941F6FE71A8
:1048400008405249086106E05048006941F6FE718F
:1048500008404E490861284678BD70B504460D46AB
:104860000426F002FFF7E3FE0646042E11D1474866
:10487000006940F00100454908612580F002FFF71A
:10488000D6FE06464148006941F6FE7108403F49A0
:104890000861304670BD70B505460E460424E0023E
:1048A000FFF7C5FE0446042C17D139483749886004
:1048B000384888600846006940F0100008612E8082
:1048C000E002FFF7B4FE0446052C06D02F4800692D
:1048D00041F6EF7108402D490861204670BD2DE971
:1048E000F04304464FF6FF763746B046B1460425FE
:1048F000E443E6B2C4F30727C4F307484FEA146958
:10490000E802FFF794FE0546042D49D120481F49CF
:104910008860204888600846006940F010000861FF
:10492000FF2E06D01C4808300680E802FFF77FFE05
:104930000546042D08D1FF2F06D017480A300780FE
:10494000E802FFF774FE0546042D0AD1B8F1FF0F07
:1049500007D011480C30A0F80080E802FFF767FE8E
:104960000546042D0AD1B9F1FF0F07D00A480E30D1
:10497000A0F80090E802FFF75AFE0546052D0FD07B
:104980000248006941F6EF71084007E0002002404C
:1049900023016745AB89EFCD00F8FF1F6649086129
:1049A0002846BDE8F08330B5054604244FF4302096
:1049B000FFF73DFE0446042C41D160485E49886003
:1049C0005F4888600846006940F02000086108469A
:1049D000006940F0400008614FF43020FFF727FEE7
:1049E0000446042C22D15448006941F6DF71084086
:1049F000514908610846006940F0100008611DB186
:104A000000205049088002E0A5204E4908804FF45C
:104A10003020FFF70CFE0446052C10D046480069F4
:104A200041F6EF7108404449086108E0052C06D0C2
:104A30004148006941F6DF7108403F49086120465E
:104A400030BDF0B505460E46174604243B483A49AA
:104A500088603B488860E002FFF7E9FD0446042CCB
:104A600019D13548006940F010003349086147F01A
:104A7000F800304328433349891C0880E002FFF7DF
:104A8000D6FD0446052C06D02B48006941F6EF718F
:104A90000840294908612046F0BD2748C0698008C0
:104AA00070472548006A704700202349096801F0D3
:104AB000200109B1012000E00020704729B11E4A01
:104AC000126902431C4B1A6104E01B4A12698243BB
:104AD000194B1A61704701460020012908D1164A76
:104AE000D26902F001020AB1012008E0002006E0CC
:104AF000114AD2680A400AB1012000E00020704744
:104B00000D49C860704704200B49C96801F00101D4
:104B100009B101200EE00849C96801F0040109B19A
:104B2000022007E00449C96801F0100109B103201F
:104B300000E0042070470000002002402301674588
:104B4000AB89EFCD00F8FF1F2DE9F04104460D467B
:104B50002169206807F056FE60606169606807F0AF
:104B600051FE06463146606807F0D6FEE0602846F2
:104B7000A16807F099FE0746E16807F09BFE06462C
:104B8000A16807F03FFEA0604FF07E50E16807F09B
:104B90008BFE0646616807F08DFE2060BDE8F0815F
:104BA0002DE9F04F8DB007460D4616464FF07C5B61
:104BB0004FF07E500C90FE480B900A90FD48016823
:104BC000284607F071FE3146019007F073FE8246D9
:104BD000F9480168504607F015FEF7494860F74864
:104BE0004168F34807F060FE8246F4488168504609
:104BF00007F05AFE0290F148C06880F00040039030
:104C0000EE48C06880F000400490E94805903146C5
:104C1000029807F04FFE8246E8480168504607F0C8
:104C2000F1FDE64908603146039807F043FE8246ED
:104C3000E2484168504607F0E5FDE04948603146EA
:104C4000049807F037FE8246DC488168504607F03A
:104C5000D9FDDA4988603146059807F02BFE824677
:104C6000D648C168504607F0CDFDD449C860084613
:104C700001684FF07E5007F01DFE0446CF48816862
:104C80004FF07E5007F016FE069021464FF07E5002
:104C900007F010FE8246594607F0B4FD81464946AA
:104CA000204607F039FE09904946069807F034FE81
:104CB0000890A046C14841684FF07E5007F0FAFDC9
:104CC00007904146099807F0F5FD8246BB48016808
:104CD000504607F0ECFDB94908600799099807F0BC
:104CE000E9FD8246B5484168504607F0E0FDB3490A
:104CF00048604146089807F0DDFD8246AF4881686C
:104D0000504607F0D4FDAD498860DDE9071007F093
:104D1000D1FD8246A948C168504607F0C8FDA749A1
:104D2000C860A5484168384607F0BEFD0190099962
:104D300007F0C0FD8246A0484168504607F062FD7A
:104D40009D49886008464168384607F0ADFD0190EE
:104D5000089907F0AFFD824696480168504607F073
:104D600051FD94490860944880689349086008465A
:104D700080680DB0BDE8F08F016042604FF07E5357
:104D80008360C3608E4B03618E4B436170472DE996
:104D9000F04704460D462168A06807F08BFD2060AF
:104DA000A168084607F086FD0746616807F082FDA6
:104DB0000646216907F026FD6060E168606807F03B
:104DC00079FD8146E16807F075FD0746616907F0E6
:104DD00019FD0646E168606807F06CFD80463146C3
:104DE00007F09AFDA0612168E06807F063FD804646
:104DF000294607F05CFD0746A16907F05BFD064602
:104E0000216807F0FFFC2060E168A06907F052FD0F
:104E100007464FF07E5107F04AFD0646616807F0ED
:104E200049FD60602068BDE8F08710B50B6803603D
:104E30004B684360136883605468C460946804617D
:104E4000D46844614FF07E5383615F4CC461002499
:104E500004621C46446283620024C4625B4B0363A9
:104E60001C464463836310BD2DE9F05F04460D4684
:104E70006168E06907F01EFD81462168A06907F0BE
:104E800019FD8246494607F0BDFC20606168606AF2
:104E900007F010FD81462168206A07F00BFD82466D
:104EA000494607F0AFFC60602169E06907F002FD48
:104EB0008246A168A06907F0FDFC8346514607F0D1
:104EC000A1FC8146216B07F09DFCA0606169606ACE
:104ED00007F0F0FC8146E168A06907F0EBFC824630
:104EE000494607F08FFCE0602169E06907F0E2FCC9
:104EF0008146A168206A07F0DDFC8246494607F03A
:104F000081FC20616169606A07F0D4FC8246E16837
:104F1000206A07F0CFFC8346514607F073FC8146B8
:104F2000616B07F06FFC6061E16AE06807F0C2FC4A
:104F30008146A16AA06807F0BDFC8246494607F099
:104F400061FC0646E16A606907F0B4FC8146A16A2B
:104F5000206907F0AFFC8246494607F053FC07463C
:104F60003946E06A07F0A6FC82463146A06A07F09F
:104F7000A1FC8346A16B07F045FC8146514607F032
:104F800041FC80464146304607F0C6FCE06341469E
:104F9000384607F0C1FC20646168E06A07F08AFCCB
:104FA00081462168A06A07F085FC824649460FE0E9
:104FB0006F12833A1C01002084040020900400201A
:104FC000000048430000FA43CDCCCC3DBD378635C8
:104FD00007F018FC80464146284607F065FC8246EB
:104FE000E16B07F067FC8146216807F00BFC20604D
:104FF0004146284607F058FC8246216C07F05AFCCF
:105000008146616807F0FEFB6060A16AE06B07F013
:1050100051FC82464FF07E5107F049FC8146A16861
:1050200007F048FCA060E16AE06B07F043FC8246B1
:105030004FF07E5107F03BFC8146E16807F03AFCF7
:10504000E060A16A206C07F035FC82464FF07E518B
:1050500007F02DFC8146216907F02CFC2061E16AF4
:10506000206C07F027FC82464FF07E5107F01FFCB2
:105070008146616907F01EFC60612068BDE8F09F11
:105080002DE9F04106460F469046002418E0002521
:1050900012E004EB44022A4457F8221004EB4402C5
:1050A0002A4456F8220007F0ADFB04EB44012944E2
:1050B00048F82100681CC5B2032DEADB601CC4B2AD
:1050C000032CE4DBBDE8F0812DE9F04106460F46F4
:1050D0009046002418E0002512E004EB44022A4424
:1050E00057F8221004EB44022A4456F8220007F035
:1050F000DBFB04EB4401294448F82100681CC5B2DD
:10510000032DEADB601CC4B2032CE4DBBDE8F081B4
:105110002DE9F04780468946164600242DE00025FB
:1051200027E0002004EB4401294446F82100002731
:105130001BE007EB47022A4459F8221004EB440213
:105140003A4458F8220007F0B5FB824604EB4400CD
:10515000284456F82010504607F054FB04EB440155
:10516000294446F82100781CC7B2032FE1DB681CF4
:10517000C5B2032DD5DB601CC4B2032CCFDBBDE868
:10518000F08703B5CFB0CC4A10465099FFF778FFAF
:10519000CA4ACB491046FFF773FF44AAC6494F9845
:1051A000FFF792FF17AAC749C448FFF769FF18988D
:1051B00009901F980890099907F07CFB0A901A98AB
:1051C000014609900A9807F075FB0C901E9807900D
:1051D0001C980690079907F06DFB089017980146F8
:1051E0000790089807F066FB0A901B98059019989D
:1051F0000490059907F05EFB06901D980146059006
:10520000069807F057FB08901A9803901998029097
:10521000039907F04FFB04901E98014603900498F1
:1052200007F048FB06901C9801901898009001998F
:1052300007F040FB02901D9801460190029807F08C
:1052400039FB04901B98019017980090019907F082
:1052500031FB02901F9801460190029807F02AFB4B
:105260000390049907F0CEFA0590069907F0CAFA60
:105270000790089907F018FB09900A9907F014FBAA
:105280000B900C9907F010FB0D901E9809901C983C
:105290000890099907F00EFB0B901F9809901B9836
:1052A0000890099907F006FB0A900B9907F0FCFAA1
:1052B0000C900D9907F030FB0E901F9809901898EC
:1052C0000890099907F0F6FA0B901E980990199822
:1052D0000890099907F0EEFA0A900B9907F0E4FAA2
:1052E0000C900D9907F018FB0F901D9809901B98D2
:1052F0000890099907F0DEFA0B901E98099018980B
:105300000890099907F0D6FA0A900B9907F0CCFAA1
:105310000C900D9907F000FB10901F9809901A98B7
:105320000890099907F0C6FA0B901D9809901C98EF
:105330000890099907F0BEFA0A900B9907F0B4FAA1
:105340000C900D9907F0E8FA11901D9809901998A2
:105350000890099907F0AEFA0B901F9809901798DA
:105360000890099907F0A6FA0A900B9907F09CFAA1
:105370000C900D9907F0D0FA12901C98099017988C
:105380000890099907F096FA0B901A9809901998C5
:105390000890099907F08EFA0A900B9907F084FAA1
:1053A0000C900D9907F0B8FA13901D9809901B986E
:1053B0000890099907F07EFA0B901E9809901A98A8
:1053C0000890099907F076FA0A900B9907F06CFAA1
:1053D0000C900D9907F0A0FA14901E980990179858
:1053E0000890099907F066FA0B901D980990189893
:1053F0000890099907F05EFA0A900B9907F054FAA1
:105400000C900D9907F088FA15901A980990189841
:105410000890099907F04EFA0B901B98099017987D
:105420000890099907F046FA0A900B9907F03CFAA0
:105430000C900D9907F070FA169032AA0EA91F4829
:10544000FFF766FE29AA44A932A8FFF761FE1A4AAF
:1054500029A91046FFF714FE20AA32A91A48FFF71F
:1054600033FE3BAA154920A8FFF752FE00204E90BC
:105470001DE000204D9013E04E9800EB40014D9848
:1054800008443BA951F820104E9800EB40024D987B
:1054900010440A4A42F820104D98401CC0B24D906A
:1054A0004D980328E8DB4E98401CC0B24E904E98B1
:1054B0000328DEDB51B000BD600400208C0000201A
:1054C000F8000020D4000020B00000202DE9F05F9B
:1054D00004464FF07F594FF07C51204607F0EAF91F
:1054E000824625462E46FE48A0EB660635462946EE
:1054F000504607F0DFF98346294607F0DBF980467E
:10550000494607F0D4F90746294607F0D3F905467E
:105510002846BDE8F09F10B504460021204607F05C
:1055200049FC02D284F0004010BD2046FCE70FB5D4
:10553000ABB0EC480168006807F0BCF91490EA4889
:105540000168E848006807F0B5F91390E74801687A
:10555000E448006807F0AEF91290E5480168E148B8
:10556000006807F0A7F91190DF480168006807F0AC
:10557000A1F91090DD480168DB48006807F09AF94E
:105580000F90DB480168D848006807F093F90E9047
:10559000D6480168006807F08DF90D90D44801687D
:1055A000D248006807F086F90C90D148016800687D
:1055B00007F080F90B902D9807F0CDFBCD4ACE4B2C
:1055C000CDE9040107F08DFA00224FF08043CDE9C8
:1055D000060107F086FACDE9080107F0CFFB0A9033
:1055E0002B9807F0B8FBC54AC54BCDE9040107F07D
:1055F000EAFAC44AC44BCDE9060107F072FACDE9D4
:10560000080107F0BBFB2B902C9807F0A4FBBB4ACA
:10561000BB4BCDE9040107F0D6FABA4ABA4BCDE943
:10562000060107F05EFACDE9080107F0A7FB2C9010
:105630002D9807F090FBB14AB14BCDE9040107F07A
:10564000C2FAB04AB04BCDE9060107F04AFACDE9FB
:10565000080107F093FB2D903199084607F02AF9CD
:1056600008903099084607F025F906902E990846CB
:1056700007F020F90590069907F0C4F807900899FB
:1056800007F0C0F80990FFF721FF239023992E9887
:1056900007F010F92E902399309807F00BF930900D
:1056A0002399319807F006F9319012990E9807F076
:1056B000FBF84FF08041099007F0FCF81D900C9921
:1056C000139807F09FF84FF08041099007F0F2F827
:1056D0001C901099149807F0E7F808900D9907F0BE
:1056E000E3F809900B9907F08DF81B900021329890
:1056F00007F060FB34D10021339807F05BFB2FD11A
:105700000021349807F056FB2AD11C99319807F0F4
:10571000D1F809901B99309807F0CCF808900999B6
:1057200007F0C2F817901B992E9807F0C3F809905C
:105730001D99319807F0BEF80890099907F0B4F860
:1057400016901D99309807F0B5F809901C992E987D
:1057500007F0B0F80890099907F0A6F81590BEE197
:105760003499084607F0A6F808903399084607F0E0
:10577000A1F806903299084607F09CF80590069922
:1057800007F040F80790089907F03CF80990FFF7F8
:105790009DFE23902399329807F08CF8329023993C
:1057A000339807F087F833902399349807F082F8FC
:1057B000349012990E9807F025F80690349907F066
:1057C00079F8089011990F9807F06EF804903399C2
:1057D00007F070F806904FF07C500D9907F064F8D0
:1057E00003900B9907F060F80490329907F062F883
:1057F0000590069907F006F80790089907F002F857
:105800004FF08041099007F055F8229013990C98B9
:1058100007F04AF80690349907F04CF808904FF0DA
:105820007C50109907F040F803900B9907F03CF872
:105830000490339907F03EF8069011990F9806F0FE
:10584000E1FF0490329907F035F80590069906F0CB
:10585000D9FF0790089906F0D5FF4FF080410990D5
:1058600007F028F821904FF07C50109907F01CF8B1
:1058700005900D9907F018F807904FF08040349983
:1058800007F018F80690079907F014F80990139993
:105890000C9806F0B7FF05904FF08040339907F061
:1058A00009F80490059907F005F8079012990E98E9
:1058B00006F0FAFF05904FF08040329906F0FAFFAB
:1058C0000490059906F0F6FF0690079906F09AFFF6
:1058D0000890099906F096FF20902199084615E056
:1058E000DF59375F2001002024010020280100201B
:1058F0002C01002030689DC8FE3F9F3F52B81E8596
:10590000EB613040AF99D76C40DF913F06F0D2FF9A
:1059100004902299084606F0CDFF0390049906F002
:1059200071FF059007F017FACDE9060109F054FC64
:10593000CDE9080107F022FA1F9020981E901299D5
:105940000E9806F0B1FF07904FF080401E9906F0C8
:10595000B1FF0690079906F0ADFF09904FF07C501B
:105960000D9906F0A1FF05900B9906F09DFF079099
:105970004FF080401F9906F09DFF0690079906F0B2
:1059800099FF0890099906F03DFF1A900C99139819
:1059900006F038FF07904FF080401E9906F08AFF0E
:1059A0000690079906F086FF099011990F9806F066
:1059B0007BFF07904FF080401F9906F07BFF069019
:1059C000079906F077FF0890099906F01BFF1990D8
:1059D0004FF07C50109906F067FF05900D9906F086
:1059E00063FF07904FF080401E9906F063FF06901A
:1059F000079906F05FFF09900E99129806F002FFD2
:105A000007904FF080401F9906F054FF06900799C9
:105A100006F050FF0890099906F0F4FE18901999C5
:105A2000349806F047FF07901899339806F042FF24
:105A30000690079906F038FF09901C99319806F0F6
:105A400039FF07901B99309806F034FF06900799AC
:105A500006F02AFF0890099906F0D4FE17901899CD
:105A6000329806F027FF07901A99349806F022FF23
:105A70000690079906F018FF09901B992E9806F0DA
:105A800019FF07901D99319806F014FF06900799A9
:105A900006F00AFF0890099906F0B4FE16901A99CC
:105AA000339806F007FF07901999329806F002FF25
:105AB0000690079906F0F8FE09901D99309806F0B7
:105AC000F9FE07901C992E9806F0F4FE06900799AF
:105AD00006F0EAFE0890099906F094FE1590002160
