:020000040800F2
:10000000480E0020752A0008692800086B2800089F
:100010006F280008732800087728000800000000F7
:100020000000000000000000000000007B28000825
:100030007D280008000000007F2800084F270008E6
:100040008F2A00088F2A00088F2A00088F2A0008AC
:100050008F2A00088F2A00088F2A00088F2A00089C
:100060008F2A00088F2A00088F2A00088F2A00088C
:100070008F2A00088F2A00088F2A00088F2A00087C
:100080008F2A00088F2A00088F2A00088F2A00086C
:10009000812800088F2A00088F2A00088F2A00086C
:1000A0008F2A00082D6C00088F2A00088F2A00086C
:1000B0008F2A00088F2A0008112200088F2A0008C2
:1000C0008F2A00088F2A00088F2A00088F2A00082C
:1000D0008F2A00084D2800088F2A00088F2A000860
:1000E0008F2A00088F2A00088F2A00088F2A00080C
:1000F0008F2A00088F2A00088F2A00088F2A0008FC
:100100008F2A00088F2A00088F2A00088F2A0008EB
:100110008F2A00088F2A00088F2A00088F2A0008DB
:100120008F2A00088F2A00088F2A00088F2A0008CB
:1001300000F002F800F06AF80AA090E8000C82448F
:100140008344AAF10107DA4501D100F05FF8AFF26C
:10015000090EBAE80F0013F0010F18BFFB1A43F0A5
:100160000103184758C3000078C300000A444FF049
:10017000000C10F8013B13F0070408BF10F8014B06
:100180001D1108BF10F8015B641E05D010F8016B4B
:10019000641E01F8016BF9D113F0080F1EBF10F8AF
:1001A000014BAD1C0C1B09D16D1E58BF01F801CBD2
:1001B000FAD505E014F8016B01F8016B6D1EF9D555
:1001C0009142D6D37047000000230024002500266A
:1001D000103A28BF78C1FBD8520728BF30C148BFAA
:1001E0000B60704766290BF0DE87642909F0768280
:1001F000002070471FB509F0E5FD04000020002134
:100200000AF0E8FEE0601FBD10B510BD09F0FAFE6F
:100210001146FFF7EFFF00F009F809F018FF03B4EB
:10022000FFF7F2FF03BC02F0B5FA000086B007F05A
:10023000ECF902F02BFA4FF4A06002F03BFC4FF413
:10024000E13002F0B6FA02F003FA01F088FD00F0A6
:1002500078FB00F014F94FF4E16002F054FA00204A
:1002600007F09AFA4FF42F7002F04DFA012007F0D0
:1002700093FA07F039FA07F02CFA08F0F3FB06F0CE
:10028000DDFF472141F2873001F09AFE472144F615
:100290001F6001F050FF472144F61F6001F0C3FECC
:1002A000012211464A4803F03EFC90E04949486962
:1002B0000BF074FD04B2474908690BF06FFD05B2FD
:1002C0004449C8680BF06AFD06B2434988680BF0E0
:1002D00065FD07B2404948680BF060FD0FFA80F8F1
:1002E0003D4908680BF05AFD0FFA80F90020CDE96E
:1002F0000265CDE904403948B0F904003749B1F945
:100300000210CDE900103548B0F900303A464146B8
:10031000484605F05AFE012002F0F5F90020009051
:100320002F4B01901A6859689868002305F0D0FF98
:10033000012002F0E8F9002002900390049005905B
:100340000090284C0190A488A3B2264CA489A2B2A4
:10035000244C2489A1B2234C2488A0B205F0FBFED2
:10036000012002F0D0F900200090019002901E4C74
:1003700003902488A4F57A74A3B21C4C2488A4F5B5
:100380007A74A2B21A4C2488A4F57A74A1B2194CDA
:100390002488A4F57A74A0B206F043F8012002F094
:1003A000B2F91548007838B106F096FF012002F046
:1003B000AAF90020104908701048007838B106F0FA
:1003C000C6FF012002F09FF900200C4908706DE77C
:1003D000002C01401C030020C4030020E403002083
:1003E00040040020F0030020EE010020EC0100207A
:1003F000EA010020E8010020F0010020F1010020C6
:1004000070B505460C4601F0C3FC182001F074FDE0
:1004100001F0FFFC18B101F0DBFC012070BD2846A3
:1004200001F06AFD01F0F5FC204601F065FD01F0E8
:10043000F0FC18B101F0CCFC0120EFE701F0C8FCA2
:100440000020EBE770B5044601F0A2FC182001F093
:1004500053FD01F0DEFC204601F04EFD01F0D9FC19
:1004600001F096FC192001F047FD01F0D2FC0020BC
:1004700001F06DFD054601F0ABFC284670BD10B5DE
:1004800000240020FFF7DEFF0446482C04D0D1A052
:1004900009F018F9012010BDD3A009F013F91121BA
:1004A0000A20FFF7ADFF0020D5498861C8610862C6
:1004B0004FF07E50C86248628862D2488864D24851
:1004C000C864D2480865D2480863D2484863D24815
:1004D0008863D248C863D2480864D24848640A2076
:1004E00002F011F90020D6E72DE9F04106460F464B
:1004F00014461D4601F04CFC002141EA4601C8B2F9
:1005000001F0FAFC01F085FC20B101F061FC012052
:10051000BDE8F081384601F0EFFC01F07AFC01F013
:1005200037FC012101EB4601C8B201F0E5FC01F006
:1005300070FC0DE0012C04D1002001F008FD2870B2
:1005400003E0012001F003FD2870601EC4B26D1CA1
:10055000002CEFD101F03CFC0020D9E72DE9F04F51
:1005600089B007AB062203210C20FFF7BDFF0690E0
:100570000698B8B99DF81C009DF81D1040EA0120AE
:100580000FFA80F99DF81E009DF81F1040EA012027
:100590000FFA80FA9DF820009DF8211040EA012012
:1005A0000FFA80FB9649886C0BF068FACDE90201DE
:1005B00048460AF05FFF00229B4BCDE900010AF09C
:1005C00001FE0746DDE902230BF06EF9CDE90401D7
:1005D0000AF016FD04468A49C86C0BF04FFACDE9C3
:1005E000020150460AF046FF00228F4BCDE9000180
:1005F0000AF0E8FD0746DDE902230BF055F9CDE9E5
:1006000004010AF0FDFC05467D49086D0BF036FA41
:10061000CDE9020158460AF02DFF07460022824B21
:100620000AF0D0FDCDE90001DDE902230BF03CF931
:10063000CDE904010AF0E4FC06467149886B3146B5
:100640000BF034FC6E490590486B29460BF02EFCEC
:1006500080466B49086B21460BF028FC414604900C
:100660000BF038FA074605990BF034FA6449086034
:10067000086C31460BF01AFC61490590C86B29469D
:100680000BF014FC80465E49486B21460BF00EFCD3
:10069000414604900BF01EFA074605990BF01AFA32
:1006A00057494860486C31460BF000FC54490590AE
:1006B000086C29460BF0FAFB80465149886B2146AD
:1006C0000BF0F4FB414604900BF004FA0746059941
:1006D0000BF000FA4A4988600846006880F000473D
:1006E00038460BF0CBF90022504BCDE902010AF05D
:1006F000EBFECDE904010AF083FC4149C86048687B
:100700000BF0BCF907460022484B0AF0DDFECDE9AC
:1007100004010AF075FC3A49086188680BF0AEF9EB
:1007200007460022414B0AF0CFFECDE904010AF052
:1007300067FC3349486111210A20FFF761FE002060
:1007400009B0BDE8F08F4FF47A7001F0DCFF4FF490
:100750007A7001F0D8FF4FF47A7001F0D4FF4FF4B3
:100760007A7001F0D0FF04E0FFF7F8FE642001F09A
:10077000CAFFF9E72DE9F04105460E4617469846AF
:1007800001F006FB002141EA4501C8B201F0B4FBCB
:1007900001F03FFB20B101F01BFB0120BDE8F0811F
:1007A000304601F0A9FB01F034FB00240CE018F8FE
:1007B000040001F0A1FB01F02CFB18B101F008FBD3
:1007C0000120EBE7601CC4B2BC42F0DB01F000FB8F
:1007D0000020E3E7414B3839373520494E49542052
:1007E0004552524F520A0000414B383937352049A3
:1007F0004E495420535543434553530A00000000CB
:100800001C03002004CD8C3EF92790BE727E6FBE83
:100810005CB7793F1E0E043C8F1E43BC09647C3FCD
:100820004F33D93A1C20853F00D0744000507540AA
:1008300070B505460C4601F0ABFAD02001F05CFB28
:1008400001F0E7FA18B101F0C3FA012070BD2846A3
:1008500001F052FB01F0DDFA204601F04DFB01F002
:10086000D8FA18B101F0B4FA0120EFE701F0B0FABC
:100870000020EBE770B504460025BC2C01DB012508
:1008800010E0622C01DB02250CE02A2C01DB0325A1
:1008900008E0142C01DB042504E00A2C01DB05250B
:1008A00000E0062529461A20FFF7C2FF70BD70B58B
:1008B0000446B4F57A7F01DD4FF47A74042C00DA33
:1008C00004244FF47A7090FBF4F0401EC5B2294620
:1008D0001920FFF7ADFF0546264604EBD671C1F39C
:1008E0004F00FFF7C7FF70BD70B5044601F050FA26
:1008F000D02001F001FB01F08CFA204601F0FCFA57
:1009000001F087FA01F044FAD12001F0F5FA01F084
:1009100080FA002001F01BFB054601F059FA284639
:1009200070BD10B50446E006010E1C20FFF780FFE5
:1009300010BD10B50446E006010E1B20FFF778FF3E
:1009400010BD10B580216B20FFF772FF642001F00D
:10095000DAFE00216B20FFF76BFF0320FFF7E9FFB2
:100960000220FFF7DEFF4FF49670FFF7A0FF002193
:100970003820FFF75DFF00216A20FFF759FF0021B3
:100980002320FFF755FF80213720FFF751FF752007
:10099000FFF7AAFF0446682C0FD101216B20FFF757
:1009A00047FF00216C20FFF743FF4FF49670FFF7DD
:1009B0007EFFFBA008F086FE04E0FEA008F082FEA9
:1009C000012010BD40F28120FE49C8800520088129
:1009D0001720488140F2C710FB4988816FF08100E1
:1009E000C88140F29B1008820020EAE72DE9F0411F
:1009F00006460F4614461D4601F0CAF9002141EA99
:100A00004601C8B201F078FA01F003FA20B101F012
:100A1000DFF90120BDE8F081384601F06DFA01F000
:100A2000F8F901F0B5F9012101EB4601C8B201F076
:100A300063FA01F0EEF90DE0012C04D1002001F081
:100A400086FA287003E0012001F081FA2870601E08
:100A5000C4B26D1C002CEFD101F0BAF90020D9E727
:100A60002DE9F84F6B46022241216820FFF7BEFFB7
:100A70009DF801009DF8001040EA01200FFA80FA6D
:100A800050460AF0F7FC80460022D04B0AF09AFB51
:100A90000646CF4ACF4B0AF0E5FA04460AF0B0FA10
:100AA0008346CD4958460BF001FA04460BF076F91F
:100AB00000B2BDE8F88F2DE9FC4780468946924692
:100AC0006B46062243216820FFF790FF0446A4B935
:100AD0009DF801009DF8001040EA012005B29DF844
:100AE00003009DF8021040EA012006B29DF80500BF
:100AF0009DF8041040EA012007B2B248C088281AC5
:100B000000B2B049088008460089301A00B2488017
:100B100008464089381A00B288802046BDE8FC8724
:100B20002DE9FC478046894692466B4606223B21CA
:100B30006820FFF75BFF0446A4B99DF801009DF80B
:100B4000001040EA012005B29DF803009DF8021054
:100B500040EA012006B29DF805009DF8041040EA25
:100B6000012007B29849B1F90C10681A0BF052F93C
:100B700095490860B1F90E10701A0BF04BF99249C3
:100B80004860B1F91010781A0BF044F98E4988606A
:100B90002046BDE8FC872DE9F04105460E46174684
:100BA000984601F0F5F8002141EA4501C8B201F08C
:100BB000A3F901F02EF920B101F00AF90120BDE8F6
:100BC000F081304601F098F901F023F900240CE09F
:100BD00018F8040001F090F901F01BF918B101F0C8
:100BE000F7F80120EBE7601CC4B2BC42F0DB01F077
:100BF000EFF80020E3E72DE9F04F89B01E200890C0
:100C00004FF000094FF0000A4FF0000B0020069053
:100C10000790052003906FF00400029053E000BF9E
:100C20000A2001F070FD6B46062243216820FFF781
:100C3000DDFE0746A7B99DF801009DF8001040EAC7
:100C4000012004B29DF803009DF8021040EA012043
:100C500005B29DF805009DF8041040EA012006B297
:100C6000BDF81800201A00B2ADF81000BDF81A0047
:100C7000281A00B2ADF81200BDF81C00301A00B2FC
:100C8000ADF81400ADF81840ADF81A50ADF81C607E
:100C9000BDF910000528C3DCBDF9100010F1050FE7
:100CA000BEDBBDF912000528BADCBDF9120010F157
:100CB000050FB5DBBDF914000528B1DCBDF9140042
:100CC00010F1050FACDB0898411EC9B2089100284D
:100CD000A5D1804626E0052001F015FD6B460622D1
:100CE00043216820FFF782FE0746A7B99DF801005F
:100CF0009DF8001040EA012004B29DF803009DF821
:100D0000021040EA012005B29DF805009DF804108C
:100D100040EA012006B2A144AA44B34408F101000C
:100D200000F0FF08B8F1640FD5DB642099FBF0F008
:100D300000B22449C88064209AFBF0F000B2088118
:100D400064209BFBF0F000B248810846B0F90A30FD
:100D5000B0F90820B0F9061020A008F0B3FC09B0E3
:100D6000BDE8F08F2DE9FE4F1E20029000250026E1
:100D700000274FF0000B57E0052001F0C4FC6B4644
:100D800006223B216820FFF731FE0446A4BB9DF8F4
:100D900001009DF8001040EA01200FFA80F82CE0D5
:100DA0004D505520494E49542053554343455353C4
:100DB0000A0000004D505520494E495420455252DA
:100DC0004F520A00E4030020C40300200040754095
:100DD000A4703D0AD74342400000C84267786F665E
:100DE000663A25640967796F66663A256409677A09
:100DF0006F66663A25640A000FE09DF803009DF8CF
:100E0000021040EA01200FFA80F99DF805009DF8D4
:100E1000041040EA01200FFA80FA45444E4457443A
:100E20000BF1010000F0FF0BBBF1640FA4DB6420A9
:100E300095FBF0F000B2FE498881642096FBF0F04B
:100E400000B2C881642097FBF0F0A0F6AE7000B24B
:100E500008820846B0F91030B0F90E20B0F90C1035
:100E6000AFF2880008F02EFCBDE8FE8F70B5054695
:100E7000002400BF05E04FF47A7001F044FC601CD0
:100E8000C4B2082CF7DB70BD2DE9FC416B4606228D
:100E90003B216820FFF7AAFD0746A7B99DF801008E
:100EA0009DF8001040EA012004B29DF803009DF86F
:100EB000021040EA012005B29DF805009DF80410DB
:100EC00040EA012006B220460AF0A4FFD849086093
:100ED00028460AF09FFFD649486030460AF09AFF3C
:100EE000D34988600A2001F00EFCBDE8FC8130B5D2
:100EF00002460B46002011E0002442F82040002169
:100F000008E0002400EB400503EBC50545F821404F
:100F10004C1C21B20629F4DB441C20B20628EBDB72
:100F200030BD2DE9F05F06460F46914600244AE0A9
:100F3000601C05B243E004EB440207EBC20252F826
:100F4000241004EB440207EBC20252F825000AF019
:100F50002FFE8246002150460AF0ECFE2DD056F8B6
:100F6000241050460AF0A2FF834656F825100BF0D5
:100F70009AF846F82500A8461CE008EB480007EB65
:100F8000C00050F8241050460AF090FF834608EB4A
:100F9000480007EBC00050F8251058460BF083F8C6
:100FA00008EB480107EBC10141F8250008F10100F9
:100FB0000FFA80F8B8F1060FDFDB681C05B2062DCA
:100FC000B9DB601C04B2062CB2DB052434E004EB70
:100FD000440207EBC20252F8241056F824000AF02B
:100FE000E7FD46F824004FF07E5004EB440107EB88
:100FF000C10141F8240000251AE004EB440007EB8E
:10100000C00050F825A056F8241050460AF04EFFB4
:10101000834656F825100BF046F846F825000020C8
:1010200004EB440107EBC10141F82500681C05B23F
:10103000A542E2DB601E04B2002CC8DA002405E001
:1010400056F8240049F82400601C04B2062CF7DB93
:10105000BDE8F09F2DE9F04F8BB006460F46904655
:101060009A464FF07E50099000243DE0E01C58F86D
:10107000209058F824105AF824000BF01FF80A901A
:10108000494648460AF012FF01900A990AF00EFFFD
:1010900002900A990AF00AFF834609990BF003F8B7
:1010A000099049464FF080400AF000FF49460290FF
:1010B0000AF0FCFE83460A990AF0F8FE03A941F8FB
:1010C000240049464FF040400AF0F0FE02900A9991
:1010D0000AF0ECFE83460A990AF0E8FEE11C03AA36
:1010E00042F82100601C04B2032CBFDB00242BE07B
:1010F00003A951F8240009990AF0D8FE834656F84E
:1011000024100AF0E7FC46F82400002518E003AAA2
:1011100052F8251052F824000AF0C8FE834604EB6A
:10112000440007EBC00050F8251058460AF0D2FCE6
:1011300004EB440107EBC10141F82500681C05B22E
:10114000062DE4DB601C04B2062CD1DB0BB0BDE83D
:10115000F08F2DE9F04FC5B007460E4614464FF00C
:101160000008DFF8D090344844900020419042902D
:10117000439018213BA808F074FB182135A808F00B
:1011800070FB18212FA808F06CFB90210BA808F029
:1011900068FB00200A903D903C903B90274840908F
:1011A0003F903E909AE008F101000FFA80F80BA9F9
:1011B0002FA8FFF79CFE002518E005EB450057F827
:1011C0002000419005EB450007EB8000406842900D
:1011D00005EB450007EB80008068439041AB3BAADC
:1011E0000BA92FA8FFF736FF681C05B2062DE4DB1C
:1011F00035AA0BA92FA8FFF794FE409908460AF0DC
:1012000055FE82463A9908460AF050FE83465146FA
:101210000AF0CEFC09903F9908460AF047FE834643
:10122000399908460AF042FE5946069008E0000047
:10123000C40300205F7089300000C8427FD6D03DD3
:101240000AF0B6FC82463E9908460AF02FFE059049
:10125000389908460AF02AFE049005990AF0A8FC7D
:101260000690379908460AF021FE059036990846FF
:101270000AF01CFE0390359908460AF017FE01900B
:10128000359908460AF012FE009001990AF022FCF6
:10129000029003990AF01EFC049005990AF01AFCCA
:1012A000834606990AF016FC514607900AF012FC94
:1012B000089009990AF00EFC449000250CE035AA2C
:1012C00052F825103BAA52F825000AF0F7FE3BA978
:1012D00041F82500681C05B2062DF0DBB8F1140FAB
:1012E00005DA494644980AF0ADFEFFF45CAFFE49CA
:1012F0003E980AF0DBFD2060FB493F980AF0D6FDDE
:101300006060F94940980AF0D1FDA06021683B98DF
:101310000AF0CCFD306061683C980AF0C7FD70604F
:10132000A1683D980AF0C2FDB0604FF07E51206880
:101330000AF0C4FE20F0004AEC4950460AF082FE52
:1013400017D34FF07E5160680AF0B8FE20F0004AD3
:10135000E64950460AF076FE0BD34FF07E51A06866
:101360000AF0ACFE20F0004AE04950460AF06AFE5E
:1013700001D201200A90306820F0004ADC49504632
:101380000AF060FE0FD3706820F0004AD84950463A
:101390000AF058FE07D3B06820F0004AD4495046FE
:1013A0000AF050FE01D201200A900A9845B0BDE82B
:1013B000F08F00B59FB0002019901A901B90CD4A75
:1013C00007CA16AB07C30020CB49088006E0FFF729
:1013D0005BFDC9480088401CC7490880C648008892
:1013E000C828F4DB00201D9016E000211D9800EBBA
:1013F0004000C24A42F820101D9800EB400002EB6A
:10140000800041601D9800EB400002EB800081608D
:101410001D98401CC0B21D901D980628E5DB0020D9
:10142000B5490880B649886048600860B5A008F0F2
:1014300049F90520FFF71AFD0020AF49088045E073
:10144000FFF722FDB2480068A74913900AF02EFD6D
:101450004FF08D4114900AF0ABFB1590A84800683E
:101460000146149015980AF035FBA5490860A84874
:1014700040689D4913900AF019FD4FF08D4114907A
:101480000AF096FB15909E48406801461490159806
:101490000AF020FB9A4948609D4880689249139061
:1014A0000AF004FD4FF08D4114900AF081FB159075
:1014B000934880680146149015980AF00BFB9049F8
:1014C00088608D480088401C8B4908808A480088C5
:1014D000C828B5DB8A4800688E4915900AF068FB79
:1014E00086490860864840688A4915900AF060FB82
:1014F0008249486082488068864915900AF058FB06
:101500007E49886000207C49088000217C488160F9
:101510004160016080A008F0D5F8784880680F909D
:101520000AF0ACFACDE91401744840680F900AF053
:10153000A5FACDE91201714800680F900AF09EFAF1
:10154000CDE91001DDE91401CDE90201DDE9120167
:10155000CDE9000172A0DDE9102308F0B3F84FF4E3
:101560007A7001F0D0F874A008F0ACF80520FFF70D
:101570007DFC00206049088045E0FFF785FC644859
:101580000068594913900AF091FC4FF08D41149076
:101590000AF00EFB15905A48006801461490159801
:1015A0000AF098FA56490860594840684E49139025
:1015B0000AF07CFC4FF08D4114900AF0F9FA159076
:1015C0004F4840680146149015980AF083FA4C4938
:1015D00048604F488068444913900AF067FC4FF018
:1015E0008D4114900AF0E4FA159045488068014650
:1015F000149015980AF06EFA414988603E480088B8
:10160000401C3D4908803C480088C828B5DB3C4860
:101610000068404915900AF0CBFA3849C86038484C
:1016200040683C4915900AF0C3FA344908613448CF
:101630008068384915900AF0BBFA304948610020AB
:101640002D4908802E498860486008603DA008F058
:1016500039F82A4840690F900AF010FACDE91401D0
:10166000264800690F900AF009FACDE912012348D3
:10167000C0680F900AF002FACDE91001DDE914010B
:10168000CDE90201DDE91201CDE9000124A0DDE987
:10169000102308F017F84FF47A7001F034F82BA0FB
:1016A00008F010F80520FFF7E1FB00201249088040
:1016B0007EE0FFF7E9FB164800680B4913900AF03B
:1016C000F5FB4FF08D4114900AF072FA15900C481A
:1016D00000680146149015980AF0FCF90849086062
:1016E0000B484068004937E00AE81C41CDCC4C3E2D
:1016F000000060409CC20008180000207003002019
:10170000B803002066697273742063616C0A00007C
:10171000C4030020000048436F6E65206F6B0A0011
:10172000783A252E326609793A252E3266097A3AB8
:10173000252E32660A0A00007365636F6E642063AB
:10174000616C0A0074776F206F6B0A0074686972AD
:10175000642063616C0A000013900AF0A7FB4FF04D
:101760008D4114900AF024FA1590FE484068014615
:10177000149015980AF0AEF9FA494860FA48806862
:10178000FA4913900AF092FB4FF08D4114900AF041
:101790000FFA1590F34880680146149015980AF0E6
:1017A00099F9F0498860F2480088401CF0490880A7
:1017B000EF480088C828FFF67CAFEA480068ED498A
:1017C00015900AF0F5F9EC498861E6484068E94966
:1017D00015900AF0EDF9E849C861E2488068E549EA
:1017E00015900AF0E5F9E44908620020E049088014
:1017F000DC49886048600860E0A007F063FFDE48CD
:10180000006A0F900AF03AF9CDE91401DA48C0698C
:101810000F900AF033F9CDE91201D74880690F9093
:101820000AF02CF9CDE91001DDE91401CDE902013E
:10183000DDE91201CDE90001AFF21C10DDE9102352
:1018400007F040FF4FF47A7000F05DFFCEA007F084
:1018500039FF0520FFF70AFB0020C549088045E055
:10186000FFF712FBC0480068C04913900AF01EFB46
:101870004FF08D4114900AF09BF91590B94800681B
:101880000146149015980AF025F9B6490860B64843
:101890004068B64913900AF009FB4FF08D4114904F
:1018A0000AF086F91590AF484068014614901598E3
:1018B0000AF010F9AB494860AB488068AB49139017
:1018C0000AF0F4FA4FF08D4114900AF071F9159076
:1018D000A44880680146149015980AF0FBF8A149C5
:1018E0008860A3480088401CA1490880A04800885F
:1018F000C828B5DB9B4800689E4915900AF058F946
:101900009D494862974840689A4915900AF050F9F5
:101910009949886293488068964915900AF048F979
:101920009549C8620020924908808E4988604860C5
:10193000086098A007F0C6FE8F48C06A0F900AF0B2
:101940009DF8CDE914018C48806A0F900AF096F852
:10195000CDE912018848406A0F900AF08FF8CDE96E
:101960001001DDE91401CDE90201DDE91201CDE943
:101970000001AFF25420DDE9102307F0A3FE4FF47D
:101980007A7000F0C0FE86A007F09CFE0520FFF7ED
:101990006DFA00207649088045E0FFF775FA724835
:1019A0000068724913900AF081FA4FF08D4114904B
:1019B0000AF0FEF815906B480068014614901598DF
:1019C0000AF088F8674908606748406867491390DB
:1019D0000AF06CFA4FF08D4114900AF0E9F8159076
:1019E000604840680146149015980AF073F85D4904
:1019F00048605D4880685D4913900AF057FA4FF0DF
:101A00008D4114900AF0D4F815905648806801462C
:101A1000149015980AF05EF852498860544800887E
:101A2000401C5349088052480088C828B5DB4D48FF
:101A30000068504915900AF0BBF84F4908634948BF
:101A400040684C4915900AF0B3F84B494863454843
:101A50008068484915900AF0ABF847498863002030
:101A6000434908803F498860486008604FA007F0FC
:101A700029FE4148806B0F900AF000F8CDE914016F
:101A80003D48406B0F9009F0F9FFCDE912013A484B
:101A9000006B0F9009F0F2FFCDE91001DDE91401B0
:101AA000CDE90201DDE91201CDE90001AFF290308C
:101AB000DDE9102307F006FE4FF47A7000F023FEF4
:101AC0003DA007F0FFFD0520FFF7D0F904F0A4F8D2
:101AD00000202749088076E0FFF7D6F92248006801
:101AE000224913900AF0E2F94FF08D4114900AF068
:101AF0005FF815901B48006801461490159809F08E
:101B0000E9FF1849086018484068184913900AF01E
:101B1000CDF94FF08D4114900AF04AF81590114814
:101B2000406801461490159809F0D4FF0D494860AB
:101B30000D4880680D4913900AF0B8F94FF08D41B7
:101B400014900AF035F81590064880680146149004
:101B5000159809F0BFFF0349886005480088401CBC
:101B600003492FE0B8030020C40300200AE81C4109
:101B7000180000200000484370030020746872655C
:101B800065206F6B0A000000666F75722063616CE0
:101B90000A000000666F7572206F6B0A000000007B
:101BA000666976652063616C0A0000006669766587
:101BB000206F6B0A000000007369782063616C0A73
:101BC00000000000088050480088C82884DB4F4887
:101BD00000684F49159009F0EBFF4E49C8634B4828
:101BE00040684B49159009F0E3FF4A4908644748AB
:101BF00080684749159009F0DBFF4649486446A0D4
:101C000007F060FD4348406C0F9009F037FFCDE9C5
:101C100014014048006C0F9009F030FFCDE912012B
:101C20003C48C06B0F9009F029FFCDE91001DDE9B8
:101C30001401CDE90201DDE91201CDE90001AFF2A5
:101C40002050DDE9102307F03DFD4FF47A7000F0DD
:101C50005AFD16AA19A92F48FFF77BFA1C901C9869
:101C600068B92F49199808601A9848601B988860CD
:101C70002C4816990160179941601899816029488C
:101C80008068099009F0FAFECDE914012548406802
:101C9000099009F0F3FECDE912012248006809908D
:101CA00009F0ECFECDE910011D488068099009F0AB
:101CB000E5FECDE90E011A484068099009F0DEFE04
:101CC000CDE90C0116480068099009F0D7FECDE96E
:101CD0000A01DDE91401CDE90801DDE91201CDE9D0
:101CE0000601DDE91001CDE90401DDE90E01CDE9D0
:101CF0000201DDE90C01CDE900010BA0DDE90A23B9
:101D000007F0E0FC1FB000BD18000020B803002061
:101D10000000484370030020736978206F6B0A004D
:101D20000C000020000000206230252E326609627F
:101D300031252E3266096232252E3266096B302536
:101D40002E3266096B31252E3266096B32252E3212
:101D5000660A000010B5022000F0B1FC10BD08B505
:101D60000121082001F030FA4FF44060ADF8000086
:101D700010208DF8030003208DF8020069468D487D
:101D800000F066FF4FF440618A4801F00EF808BD8C
:101D900010B58848001D006820F470408549091D71
:101DA00008600846006840F44050086001208249FD
:101DB00008608249C1F8A801FFF7CCFF00207E49E6
:101DC0000860FFF7C7FF00207C49C1F8A80110BDDB
:101DD00010B57848001D006820F470407549091D51
:101DE00008600846006840F44050086000207249CE
:101DF000091F08607149C1F8AC01FFF7ABFF012072
:101E00006D49091F08606D49C1F8AC01FFF7A2FFD9
:101E100010BD10B500246748001D006820F4704014
:101E20006449091D08600846006840F400400860E5
:101E3000012061490860FFF78DFF01205F49C1F86B
:101E4000A801FFF787FF07E0601CC4B2FA2C03DD8E
:101E5000FFF7BEFF012010BD5748803800680028FA
:101E6000F2D15549091F086000BFF4E710B5002002
:101E70005149091F08604F48001D006820F4704058
:101E80004C49091D08600846006840F4405008604D
:101E900000204A49C1F8AC01FFF75CFF0120464928
:101EA000091F0860FFF756FF00204449C1F8A80148
:101EB00010BD10B500204049091F08603D48001DB5
:101EC000006820F470403B49091D0860084600681E
:101ED00040F44050086001203849C1F8AC01FFF7D8
:101EE00039FF01203449091F0860FFF733FF002044
:101EF0003249C1F8A80110BD70B504462D48001D37
:101F0000006820F470402B49091D086008460068ED
:101F100040F44050086000202749091F0860002550
:101F200012E0E009244908606006040E01202349FC
:101F3000C1F8A801FFF70EFF00201F49091F086024
:101F4000FFF708FF681CC5B2082DEADB70BD70B54D
:101F5000054600241748001D006820F4704015490C
:101F6000091D08600846006840F40040086000262B
:101F700015E000201049091F0860FFF7EBFE012063
:101F80000E49C1F8A8016006040E0B4880380068AD
:101F900008B1601CC4B2FFF7DDFE701CC6B2082E8B
:101FA000E7DB15B9FFF785FF01E0FFF75FFF20468C
:101FB00070BD0000000C0140AC8121420080214234
:101FC0007FB505460C460121C80201F0FDF8ADF8C9
:101FD0000850ADF804400020ADF80A00ADF8060046
:101FE0008DF80C0001A9864801F026FA01218448E9
:101FF00001F07EFD19208DF8000002208DF801000F
:1020000000208DF8020001208DF80300684600F0E2
:1020100056FD01217A4802F031F80022012178486A
:1020200001F081FD7FBD30B589B005460C46012128
:10203000042001F0D6F80121082001F0C5F84FF482
:102040007070ADF8140028208DF8170005A96D48B0
:1020500000F0FEFD4FF470716A4800F0A8FEADF884
:102060000C50ADF808400020ADF80E00ADF80A00A5
:1020700002A9654801F0E0F90020ADF81800ADF8BC
:102080001A000120ADF81C000020ADF81E00ADF8CC
:10209000200006A95C4801F062FC0420ADF818009D
:1020A0000020ADF81A000120ADF81C000020ADF8AA
:1020B0001E00ADF8200006A9534801F050FC08208E
:1020C000ADF818000020ADF81A000120ADF81C0092
:1020D0000020ADF81E00ADF8200006A94A4801F026
:1020E0003EFC0C20ADF818000020ADF81A000120CD
:1020F000ADF81C000020ADF81E00ADF8200006A9C8
:10210000414801F02CFC1E208DF8040001208DF8C0
:1021100005008DF806008DF8070001A800F0CFFC3F
:1021200001221E21384801F0FEFC0121364801F051
:10213000DFFC09B030BD30B589B005460C46012141
:10214000042001F041F80121084601F04AF80F206F
:10215000ADF8040003208DF8060018208DF8070064
:1021600001A92A4800F074FD0F21284800F01DFE47
:10217000ADF81C50ADF818400020ADF81E00ADF8C9
:102180001A0006A94FF0804001F056F96020ADF822
:1021900008000120ADF80A000020ADF80E00ADF8EF
:1021A000100002A94FF0804001F083F90821C80611
:1021B00001F0CEFD02A94FF0804001F0BCF90821EA
:1021C000C80601F0CEFD02A94FF0804001F000FAF0
:1021D0000821C80601F0D2FD02A94FF0804001F0AD
:1021E00042FA0821C80601F0D2FD0121880701F05A
:1021F0007FFD0121880701F07BFC09B030BD0000A4
:10220000002C0140000C0140000800400008014083
:1022100010B59048007800F08000002842D10221DB
:102220008D4801F02EFF00283CD002218A4801F0A1
:1022300039FF8848007800F0400020B3864801F05C
:1022400001FF864908800846008885490988884238
:1022500004DA44F61F608349086002E000208149E7
:1022600008607E4800887E490988401A7D490968CF
:1022700008447D49C86000207649087000217648EE
:1022800001F0E8FD0EE0744801F0DCFE74490880BE
:102290007048007840F040006E49087002216E4896
:1022A00001F0D8FD7148007800F08000002841D18D
:1022B0000421694801F0E5FE60B30421664801F09D
:1022C000F1FE6A48007800F0400020B3624801F057
:1022D000BCFE67490880084600886649098888422C
:1022E00004DA44F61F606449086002E00020624995
:1022F00008605F4800885F490988401A5E4909689C
:102300000844594948600020584908700021524843
:1023100001F0B2FD0EE0504801F097FE55490880EB
:102320005248007840F040005049087002214A4865
:1023300001F0A2FD5148007800F0800088BB082120
:10234000454801F09EFE60B30821434801F0AAFE13
:102350004A48007800F0400020B33F4801F078FE82
:10236000474908800846008846490988884204DAB7
:1023700044F61F604449086002E0002042490860BA
:102380003F4800883F490988401A3F490968084486
:102390003549086000203949087000212E4801F0B5
:1023A00085FD0EE02C4801F053FE36490880334885
:1023B000007840F04000314908700221264801F0C1
:1023C00075FD3248007800F0800088BB102122485B
:1023D00001F057FE60B310211F4801F063FE2B4847
:1023E000007800F0400020B31B4801F034FE28497B
:1023F00008800846008827490988884204DA44F69C
:102400001F602549086002E0002023490860204839
:10241000008820490988401A1F4909680844124960
:10242000886000201949087000210B4801F058FD10
:102430000EE0094801F00FFE1649088013480078A5
:1024400040F04000114908700221034801F048FDA6
:1024500010BD00001C0000200008004020000020EB
:102460001E00002034000020F00300202200002085
:102470002600002024000020380000202800002032
:102480002C0000202A0000203C0000202E0000200C
:1024900032000020300000204000002070B50446CB
:1024A0000026FFF775FC2546E11704EB11610912C0
:1024B000A02202EB4101C8B2FFF71EFDFFF7A9FC05
:1024C000E11704EB11610912A4EB0121C8B2FFF777
:1024D00013FDFFF79EFCFFF75BFCA120FFF70CFD4F
:1024E000FFF797FC0020FFF732FD0646FFF770FC70
:1024F000304670BD70B504460E46FFF749FC2546D0
:10250000E11704EB11610912A02202EB4101C8B2EC
:10251000FFF7F2FCFFF77DFCE11704EB11610912F4
:10252000A4EB0121C8B2FFF7E7FCFFF772FC3046CD
:10253000FFF7E2FCFFF76DFCFFF74AFC0A2000F012
:10254000E2F870BD10B5FF20FFF7A8FF0446552C38
:1025500001D1002010BD5521FF20FFF7CBFFFF2048
:10256000FFF79CFF0446552C01D10020F2E7012023
:10257000F0E710B506E02EA007F0A4F84FF42F7096
:1025800000F0C1F8FFF7DEFF0028F4D12DA007F01E
:1025900099F810BD2DE9F04105460E461746002476
:1025A00009E0E20026FA02F2D1B22A1990B2FFF74E
:1025B000A1FF601CC4B2BC42F3DBBDE8F0812DE991
:1025C000F04107460C460026002509E0360239197D
:1025D000491B491E88B2FFF761FF0644681CC5B25B
:1025E000A542F3DB3046BDE8F08170B506460C46E7
:1025F000154608E03046721C96B2FFF74FFF04F80C
:10260000010B681E85B2002DF4D170BD70B5054672
:102610000C46164606E021782846FFF76BFF681C3B
:1026200085B2641C301EA6F101018EB2F3D170BDDB
:1026300063616E7420636865636B20656570726F9B
:102640006D0A0000454550524F4D204F4B0A000087
:1026500008B50121042000F0B7FD3020ADF80000DE
:1026600010208DF8030003208DF80200694606480B
:1026700000F0EEFA1021044800F097FB20210248F8
:1026800000F093FB08BD00000008014010B56FF09A
:10269000040000F05EFA394800683949B0FBF1F0F7
:1026A000384908700846007800EB4001C1EBC010C3
:1026B0004FF6FF7101EAC0003349088010BD0146A2
:1026C000304A12784A434FF0E0235A6100229A615F
:1026D0001A46126942F001021A6100BF4FF0E0226F
:1026E000106900F001021AB100F48032002AF5D01E
:1026F0004FF0E022126922F001024FF0E0231A614C
:1027000000229A61704701461F4A12884A434FF0DF
:10271000E0235A6100229A611A46126942F00102CE
:102720001A6100BF4FF0E022106900F001021AB1F7
:1027300000F48032002AF5D04FF0E022126922F036
:1027400001024FF0E0231A6100229A6170470F489E
:102750000068401C0D49086008460068094909786E
:10276000884207D300200949086009480068401CD6
:102770000749086070470648006870475C00002001
:1027800000127A004400002046000020480000208B
:102790004C000020014600BF704700BF304A12883D
:1027A00002F04002002AF9D0C2B22D4B1B1D1A8044
:1027B000704710B586B00446012144F2040000F0D1
:1027C00003FD4FF40070ADF8140003208DF81600DF
:1027D00018208DF8170005A9224800F039FA4FF4A7
:1027E0008060ADF8140004208DF8170005A91D487D
:1027F00000F02EFA25208DF8000000208DF8010051
:1028000002208DF8020001208DF80300684600F0D8
:1028100056F901940020ADF80800ADF80A00ADF8B3
:102820000C00ADF810000C20ADF80E0001A90C480A
:1028300001F07FFC012240F22551094801F011FD11
:102840000121074801F001FD06B010BD10B5044894
:1028500001F06CFDC4B2204604F05FF910BD000029
:102860000038014000080140704700BFFEE700BF8C
:10287000FEE700BFFEE700BFFEE770477047704706
:1028800010B504F0F1FF10BD10B5002005F0CFF930
:1028900010BD00000CB50020019000906C4800684D
:1028A00040F480306A49086000BF6948006800F45D
:1028B000003000900198401C0190009818B90198D0
:1028C000B0F5A06FF1D16248006800F4003010B19B
:1028D0000120009001E0002000900098012843D1E1
:1028E0005C48006840F010005A49086008460068DB
:1028F00020F0030008600846006840F0020008600D
:102900005348406852494860084640684860084655
:10291000406840F4806048600846406820F47C10BD
:1029200048600846406840F4E8104860084600687F
:1029300040F08070086000BF4548006800F00070FB
:102940000028F9D04248406820F003004049486020
:102950000846406840F00200486000BF3C484068BC
:1029600000F00C000828F9D10CBD10B5FFF792FF5C
:1029700010BD10B53648006840F0010034490860C9
:1029800008464068344908403149486008460068B4
:10299000324908402E4908600846006820F480202B
:1029A00008600846406820F4FE0048604FF41F00AD
:1029B0008860FFF7DAFF4FF000602949086010BD1A
:1029C00010B5002100200022214B5B6803F00C01B0
:1029D00021B1042906D0082928D107E0214B224C37
:1029E000236027E01F4B204C236023E0184B5B68DB
:1029F00003F47010164B5B6803F48032022303EB80
:102A0000904022B9194B4343174C23600DE0104B03
:102A10005B6803F4003323B1144B4343124C23602F
:102A200003E0104B4343104C236003E00D4B0E4C6E
:102A3000236000BF00BF064B5B68C3F303130C4C5D
:102A4000E15C094B1B68CB40074C236010BD0000C4
:102A500000100240002002400000FFF8FFFFF6FED9
:102A600008ED00E000127A005C00002000093D0043
:102A7000600000200948804709480047FEE7FEE75C
:102A8000FEE7FEE7FEE7FEE7FEE7FEE7FEE7FEE71E
:102A900004480549054A064B7047000073290008A1
:102AA0003101000848080020480E0020480A002094
:102AB000480A002031490143314A1160704770B51E
:102AC000002100230F22C47804B32D4C246804F4A1
:102AD000E064C4F5E064210AC1F10403CA4044780B
:102AE00004FA03F18478144021430901254C067847
:102AF000A155047804F01F050124AC4005786D1140
:102B0000AD0005F1E025C5F8004109E0047804F0C6
:102B10001F050124AC401C4D0678761145F826406F
:102B200070BD1A4A0A400243154B1B1F1A607047BA
:102B300039B1134A121D12680243114B1B1D1A6052
:102B400006E00F4A121D126882430D4B1B1D1A60CE
:102B50007047042808D14FF0E021096941F00401D1
:102B60004FF0E022116107E04FF0E021096921F008
:102B700004014FF0E0221161704700000000FA05E7
:102B80000CED00E000E400E080E100E080FFFF1FCA
:102B900010B50446CC48844208D10121042000F03D
:102BA0002DFB0021042000F029FB46E0C7488442A9
:102BB00008D10121082000F021FB0021082000F0AD
:102BC0001DFB3AE0C248844208D10121102000F0E8
:102BD00015FB0021102000F011FB2EE0BD488442BF
:102BE00008D10121202000F009FB0021202000F065
:102BF00005FB22E0B848844208D10121402000F0C2
:102C0000FDFA0021402000F0F9FA16E0B3488442B2
:102C100008D10121802000F0F1FA0021802000F08D
:102C2000EDFA0AE0AE48844207D10121801500F098
:102C3000E5FA0021A01500F0E1FA10BD10B5012160
:102C4000084600F0DBFA0021012000F0D7FA10BDA1
:102C50002DE9F04102460025002600200023002433
:102C6000002791F803C00CF00F0591F803C00CF099
:102C7000100CBCF1000F03D091F802C04CEA05051E
:102C800091F800C0BCF1000F31D0146800202BE097
:102C90004FF0010C0CFA00F3B1F800C00CEA030687
:102CA0009E4220D183004FF00F0C0CFA03F7BC4377
:102CB00005FA03FC4CEA040491F803C0BCF1280FA8
:102CC00006D14FF0010C0CFA00FCC2F814C00AE067
:102CD00091F803C0BCF1480F05D14FF0010C0CFA7C
:102CE00000FCC2F810C0401C0828D1D31460B1F811
:102CF00000C0BCF1FF0F34DD546800202EE000F16D
:102D0000080C4FF0010808FA0CF3B1F800C00CEA07
:102D100003069E4221D183004FF00F0C0CFA03F7FB
:102D2000BC4305FA03FC4CEA040491F803C0BCF16F
:102D3000280F05D100F1080C08FA0CF8C2F814802D
:102D400091F803C0BCF1480F07D100F1080C4FF017
:102D5000010808FA0CF8C2F81080401C0828CED3ED
:102D60005460BDE8F0814FF6FF710180022181704F
:102D70000421C17070470246002093680B400BB1DC
:102D8000012000E0002070470146886880B270474B
:102D900002460020D3680B400BB1012000E0002068
:102DA00070470146C86880B2704701617047416151
:102DB00070470AB1016100E041617047C16070472E
:102DC0004FF480320A438261816182618269826943
:102DD000704702460020434B18684FF68073184036
:102DE00040EA021008433F4B186070473E49C861F3
:102DF0007047F0B50A46002300240021002500F0AA
:102E00000046B6F1004F02D1364EF16901E0354E71
:102E10007168C0F3034583B200F44016B6F5401F55
:102E200008D121F070612F4E766826F070662D4F24
:102E30007E6012E000F48016B6F5801F06D10326EE
:102E400006FA05F4A14341F0706106E0460D360133
:102E500003FA06F6B14341F0706122B1460D360126
:102E600003FA06F6314300F00046B6F1004F02D1F6
:102E70001C4EF16101E01B4E7160F0BD30B50022C7
:102E80008B071C0F0F2303FA04F2164B08338C1028
:102E900053F824309343134C08348D1044F82530F4
:102EA00023468C1053F824308C07240F00FA04F4C6
:102EB00023430C4C08348D1044F8253030BD0A49AA
:102EC000DC3108607047000000080140000C014040
:102ED000001001400014014000180140001C014096
:102EE000002001400000014000002042DF4800684F
:102EF00040F00100DD49086008464068DC490840B0
:102F0000DA49486008460068DA490840D74908604D
:102F10000846006820F4802008600846406820F4D5
:102F2000FE0048604FF41F0088607047CF49096871
:102F300021F48031CD4A11601146096821F48021C5
:102F40001160B0F5803F03D0B0F5802F0ED106E0C0
:102F5000C649096841F48031C44A116007E0C34999
:102F6000096841F4A021C14A116000E000BF00BF20
:102F7000704710B501460022002300204A11012AA3
:102F800002D1BA4C236806E0022A02D1B74C236A68
:102F900001E0B64C636A01F01F02012494401C401A
:102FA0000CB1012000E0002010BD38B500200090D9
:102FB0000024002500BF3120FFF7DBFF0546009805
:102FC000401C00900098B0F5A06F01D0002DF2D009
:102FD0003120FFF7CEFF08B1012400E00024204695
:102FE00038BD01460020A14A106820F0F80040EAF0
:102FF000C10010607047A049086070470246002079
:103000009A4B586820F47C1042EA01031843974B0E
:103010005860704798490866704701460020934AF7
:10302000506820F003000843506070478F484068A4
:1030300000F00C007047014600208C4A506820F0D8
:10304000F00008435060704701460020874A5068EE
:1030500020F4E06008435060704701460020834A36
:10306000506820F4605040EAC1005060704729B1B8
:103070007E4A527A02437D4B5A7204E07B4A527A6E
:1030800082437A4B5A7270477B49D8310860704747
:1030900001460020754A506820F4404008435060C3
:1030A00070470021714A20321170704A82F8201056
:1030B000012802D004280AD104E001216B4A203201
:1030C000117005E00521694A2032117000E000BF4F
:1030D00000BF70476949086070476449096A014345
:1030E000624A11627047654944390860704730B5DB
:1030F00000210022002400235C4D6D6805F00C01C6
:1031000021B1042905D0082923D105E05C4D0560D3
:1031100022E05B4D05601FE0544D6D6805F47012B0
:10312000524D6D6805F48034022505EB92421CB9BE
:10313000544D554305600BE04C4D6D6805F400356A
:103140001DB1504D5543056002E04D4D554305609E
:1031500002E04B4D056000BF00BF444D6D6805F0B7
:10316000F0010909484D6B5C0568DD4045603F4D45
:103170006D6805F4E061090A434D6B5C4568DD400C
:1031800085603A4D6D6805F46051C90A3E4D6B5C2F
:103190004568DD40C560354D6D6805F44041890BDB
:1031A0003A4D6B5CC568B5FBF3F5056130BD29B1DF
:1031B0002E4A526902432D4B5A6104E02B4A526950
:1031C00082432A4B5A61704729B1284A92690243C7
:1031D000264B9A6104E0254A92698243234B9A6107
:1031E000704729B1214AD2690243204BDA6104E0D9
:1031F0001E4AD26982431D4BDA61704729B11B4ACE
:10320000D2680243194BDA6004E0184AD26882435C
:10321000164BDA60704729B1144A12690243134B06
:103220001A6104E0114A12698243104B1A61704717
:1032300012494039086070470F49C86470470B490C
:10324000C87170470948406A40F080700749486279
:10325000704701460020054A92680A400AB10120E1
:1032600000E000207047014988727047001002405A
:103270000000FFF8FFFFF6FE0000424280044242D9
:1032800000127A0000093D0070000020800000203C
:1032900010B50446FE48844208D10121C014FFF74E
:1032A000ADFF0021E014FFF7A9FFC4E0B4F1804FA7
:1032B00008D101210846FFF7AEFF00210120FFF7EA
:1032C000AAFFB8E0F348844208D101210220FFF7A9
:1032D000A2FF00210220FFF79EFFACE0EE488442EF
:1032E00008D101210420FFF796FF00210420FFF7F9
:1032F00092FFA0E0E948844208D101210820FFF7AD
:103300008AFF00210820FFF786FF94E0E44884420A
:1033100008D101211020FFF77EFF00211020FFF7C8
:103320007AFF88E0DF48844208D101212020FFF79E
:1033300072FF00212020FFF76EFF7CE0DA48844214
:1033400008D101214014FFF759FF00216014FFF755
:1033500055FF70E0D548844209D10121C804FFF728
:103360004DFF00214FF40020FFF748FF63E0D048F5
:10337000844209D101210805FFF740FF00214FF4E5
:103380008010FFF73BFF56E0CA48844209D1012173
:103390004805FFF733FF00214FF40010FFF72EFF21
:1033A00049E0C548844208D101214020FFF733FF9E
:1033B00000214020FFF72FFF3DE0C048844208D1A4
:1033C00001218020FFF727FF00218020FFF723FF46
:1033D00031E0BB48844208D101218015FFF71BFF73
:1033E0000021A015FFF717FF25E0B648844209D158
:1033F00001210804FFF702FF00214FF48030FFF79E
:10340000FDFE18E0B048844209D101214804FFF7CD
:10341000F5FE00214FF40030FFF7F0FE0BE0AB4863
:10342000844208D101218804FFF7E8FE00214FF40F
:103430008020FFF7E3FE10BD00220288944B9842E3
:103440000ED0994B98420BD0B0F1804F08D0914BE1
:10345000984205D0904B984202D0904B984204D1AC
:103460004FF68F731A404B881A438D4B984207D002
:103470008C4B984204D04FF6FF431A40CB881A4336
:1034800002808B8883850B880385814B98420BD003
:10349000854B984208D08B4B984205D08A4B984276
:1034A00002D08A4B984201D10B7A03860123838292
:1034B000704770B5002400220023058C4FF6FE767D
:1034C00035400584028C8388048B4FF68F752C4021
:1034D000B51E2C400D882C43751E2A400D892A43A9
:1034E0004D882A436A4DA8420BD06F4DA84208D0A0
:1034F000744DA84205D0744DA84202D0734DA84225
:1035000013D14FF6F7752A404D892A434FF6FB75C4
:103510002A408D882A434FF6FF652B404FF6FF5512
:103520002B408D892B43CD892B4383800483CD8809
:103530008586028470BD70B5002400220023058CAE
:103540004FF6EF7635400584028C8388048B48F66D
:10355000FF752C404FF6FF452C400D884FF6FF7647
:1035600006EA05252C434FF6DF752A400D8906EA49
:1035700005152A434D8806EA05152A43444DA842FD
:1035800002D0494DA8421DD14FF67F752A404D8982
:103590004FF6FF7606EA05152A434FF6BF752A4017
:1035A0008D8806EA05152A434FF6FF352B404FF26A
:1035B000FF752B408D8906EA85052B43CD8906EAE8
:1035C00085052B4383800483CD880587028470BDE5
:1035D00070B5002400220023058C4FF6FF663540AD
:1035E0000584028C8388848B4FF68F752C404FF6B0
:1035F000FC752C400D882C434FF6FF552A400D8951
:103600004FF6FF7606EA05252A434D8806EA05258A
:103610002A431F4DA84202D0234DA8421DD14FF28C
:10362000FF752A404D894FF6FF7606EA05252A43A5
:103630004FF6FF352A408D8806EA05252A434EF6C7
:10364000FF752B404DF6FF752B408D8906EA051559
:103650002B43CD8906EA05152B4383808483CD88CF
:103660008587028470BD70B5002200230024058C7C
:103670004EF6FF7635400584038C8488828B48F6AD
:10368000FF752A404FF6FF452A400D8820E00000D4
:10369000002C01400004004000080040000C0040E5
:1036A000001000400014004000340140004C014074
:1036B000005001400054014000180040001C004030
:1036C000002000400040014000440140004801400B
:1036D0004FF6FF7606EA05252A434DF6FF752B4087
:1036E0000D8906EA05352B434D8806EA05352B433F
:1036F000FA4DA84202D0FA4DA84208D14BF6FF7508
:103700002C408D894FF6FF7606EA85152C43848080
:103710008283CD88A0F84050038470BD828B4FF225
:10372000FF331A408283828B4FF6FF7303EA012333
:103730001A4382837047F0B50C46154600220021DB
:103740000026078C4EF6FF7C07EA0C070784828B65
:10375000018C4FF6FF7707EA043640F6FF473A4000
:103760004FF6FF7707EA05273A434FF6FF7707EA58
:1037700003373A43D94FB8420ED0D94FB8420BD095
:10378000B0F1804F08D0D74FB84205D0D64FB842DD
:1037900002D0D64FB84206D14DF6FF77394046F4F5
:1037A0008057394305E047F6FF57394044F48057C6
:1037B000394382830184F0BD828B4FF6F3731A4044
:1037C0008283828B0A4382837047F0B50C4615468C
:1037D000002200210026078C4FF6FF6C07EA0C0739
:1037E0000784828B018C4FF6FF7707EA04264FF699
:1037F0000C773A404FF6FF7707EA03172F433A4317
:10380000B64FB8420ED0B64FB8420BD0B0F1804F91
:1038100008D0B44FB84205D0B34FB84202D0B34F2E
:10382000B84206D14FF6FF57394046F48077394306
:1038300005E04FF2FF57394044F4807739438283E3
:103840000184F0BD028B4FF2FF331A400283028BDA
:103850004FF6FF7303EA01231A4302837047F0B562
:103860000C461546002200210026078C4FF6EF7CFF
:1038700007EA0C070784028B018C4FF6FF7707EAF3
:10388000041640F6FF473A404FF6FF7707EA033742
:103890003A434FF6FF7707EA05273A438F4FB8427E
:1038A0000ED08F4FB8420BD0B0F1804F08D08D4F63
:1038B000B84205D08C4FB84202D08C4FB84206D1E6
:1038C0004FF6DF77394046F01007394305E04FF6F1
:1038D0005F77394044F01007394302830184F0BD1B
:1038E000028B4FF6F3731A400283028B0A43028362
:1038F0007047F0B50C46154600220021068C4FF6A5
:10390000FE773E400684028B018C4FF60C763240E7
:103910007E1C06EA03162E433243704EB0420ED090
:103920006F4EB0420BD0B0F1804F08D06D4EB04218
:1039300005D06D4EB04202D06C4EB04206D14FF66B
:10394000FD76314044F00106314305E04FF6F5764F
:10395000314044F00106314302830184F0BD70B56B
:1039600005460C465D4885420ED05D4885420BD029
:10397000B5F1804F08D05B48854205D05A48854252
:1039800002D05A48854200D100E000BF208850B9DB
:103990002389A28861882846FFF7ABFFE188284683
:1039A000FFF79EFF25E0208804280AD12389A288FA
:1039B00061882846FFF753FFE1882846FFF742FF5A
:1039C00017E0208808280AD12389A2886188284620
:1039D000FFF7FBFEE1882846FFF7EEFE09E02389AA
:1039E000A28861882846FFF7A6FEE1882846FFF7EF
:1039F00095FE70BD2DE9F04105460C4600260127D5
:103A0000608808B9022600E00026A088012801D1BC
:103A1000022700E001272088A0B92389A2886188B5
:103A20002846FFF766FFE1882846FFF759FF2389FC
:103A30003A4631462846FFF712FFE1882846FFF74D
:103A400001FF13E02389A28861882846FFF707FF5A
:103A5000E1882846FFF7F6FE23893A463146284694
:103A6000FFF747FFE1882846FFF73AFFBDE8F081FE
:103A70000A884B881A438B881A43CB881A430B89D0
:103A80001A434B891A438B891A43A0F84420704784
:103A90004FF6FF71818000210180C1804180017259
:103AA00070470021018041808180C1800181418176
:103AB0008181C18170470021018041800121818085
:103AC0000021C180018170470021018041808180F7
:103AD000C18001814181818170470000002C01403B
:103AE000003401400004004000080040000C004089
:103AF00021B1028842F00102028004E002884FF600
:103B0000FE731A400280704731B1B0F8442042F48D
:103B10000042A0F8442005E0B0F84420C2F30E02B1
:103B2000A0F8442070471AB183890B43838102E0D7
:103B300083898B43838170478182704741EA020306
:103B4000A0F8483070471AB183890B43838102E0A3
:103B500083898B438381704701894FF6F872114046
:103B6000018170470A46002101894FF68F73194081
:103B700011430181704730B504460D462946204661
:103B8000FFF7F0FF208940F00700208130BD2DE9CC
:103B9000F04104460D4616461F46602D06D13B46B1
:103BA000012231462046FFF75AFE05E03B4601223E
:103BB00031462046FFF79DFE29462046FFF7D2FFFB
:103BC000208940F007002081BDE8F08130B50C4627
:103BD00000210189C9B24FF6FF7505EA0325154397
:103BE00025432943018130BD2DE9F04105460E46AC
:103BF00017469846002443463A4631462846FFF782
:103C0000E5FF2C894FF6F870044044F007044FF6A6
:103C10008F70044044F070042C81BDE8F081F0B551
:103C200004460D4616461F463B4632462946204668
:103C3000FFF7CCFF208940F480402081F0BD018552
:103C4000828270470A46002101884FF68F7319401F
:103C5000114301807047F0B50C4615461E46002101
:103C6000002200230189028B038C4FF6F87739403C
:103C700021434FF6FC473A4040F201173A434FF6D2
:103C8000DD773B404FF6FF7707EA06172F433B43AC
:103C9000018102830384F0BD0A460021018B4FF6A7
:103CA0008F7319401143018370470A460021018B2D
:103CB00048F6FF7319404FF6FF7303EA02231943D6
:103CC000018370470A460021818B4FF68F7319409C
:103CD0001143818370470A460021818B48F6FF73A8
:103CE00019404FF6FF7303EA02231943818370479B
:103CF00021B1028842F08002028004E002884FF67F
:103D00007F731A400280704721B1828842F004021A
:103D1000828004E082884FF6FB731A4082807047ED
:103D200021B1828842F00802828004E082884FF646
:103D3000F7731A408280704721B1828842F00102F5
:103D4000828004E082884FF6FE731A4082807047BA
:103D50000A460021018B4FF6F77319401143018386
:103D600070470A460021018B4FF2FF7319404FF64E
:103D7000FF7303EA02231943018370470A460021B7
:103D8000818B4FF6F77319401143818370470A46C0
:103D90000021818B4FF2FF7319404FF6FF7303EA46
:103DA00002231943818370470A460021018B4FF695
:103DB000FB7319401143018370470A460021018BB0
:103DC0004FF6FF3319404FF6FF7303EA02231943FE
:103DD000018370470A460021818B4FF6FB7319401F
:103DE0001143818370470A460021818B4FF6FF33D0
:103DF00019404FF6FF7303EA02231943818370478A
:103E00000A460021018B4FF67F731940114301834D
:103E100070470A460021018BC1F30E014FF6FF7374
:103E200003EA02231943018370470A460021818B6C
:103E30004FF67F7319401143818370470A46002172
:103E4000818BC1F30E014FF6FF7303EA022319437E
:103E5000818370470A460021018C4FF6FD7319409B
:103E60001143018470470A460021018C4FF6F77315
:103E700019401143018470470A460021018C4FF616
:103E8000DF7319404FF6FF7303EA021319430184ED
:103E900070470A460021018C4FF67F7319404FF698
:103EA000FF7303EA02131943018470470A46002195
:103EB000018C4FF6FF5319404FF6FF7303EA0223BC
:103EC0001943018470470A460021018C4FF2FF73A9
:103ED00019404FF6FF7303EA022319430184704728
:103EE0000A460021018C4DF6FF7319404FF6FF730F
:103EF00003EA023319430184704730B500230124DB
:103F00008C40A3B2048C9C430484048C02FA01F517
:103F1000ADB22C43048430BD30B5002304248C4062
:103F2000A3B2048C9C430484048C02FA01F5ADB264
:103F30002C43048430BD70B503460020002418468D
:103F4000183001258D40ACB21D8CA5431D8409B1EC
:103F5000082909D100EB6100056825F070050560AE
:103F60000568154305600EE00D1FC5F34E05284496
:103F7000056825F4E045056005684FF6FF7606EA1A
:103F800002263543056070BD21B1028842F002026D
:103F9000028004E002884FF6FD731A4002807047E9
:103FA00021B1028842F00402028004E002884FF648
:103FB000FB731A400280704721B1828842F0800270
:103FC000828004E082884FF67F731A4082807047B7
:103FD00002884FF6F7731A40028002880A43028073
:103FE000704782884FF68F731A40828082880A4316
:103FF0008280704702894FF6F8731A400281028965
:104000000A430281704702894FF67F731A4002818A
:1040100002890A4302817047818470478185704715
:10402000818670470187704781877047A0F84010EC
:10403000704702884FF6FF431A40028002880A4305
:10404000028070470146888E70470146088F70478E
:104050000146888F70470146B1F84000704701461D
:10406000888C70470146088D704702460020138AED
:104070000B400BB1012000E000207047CA430282D0
:10408000704730B50246002000230024158A05EA57
:104090000103958905EA010413B10CB1012000E088
:1040A000002030BDCA4302827047000010B50446AC
:1040B000FB48844209D101218803FFF79FF80021C2
:1040C0004FF48040FFF79AF832E0F648844209D175
:1040D00001214804FFF79FF800214FF40030FFF75B
:1040E0009AF825E0F048844209D101218804FFF7BD
:1040F00092F800214FF48020FFF78DF818E0EB488C
:10410000844209D10121C804FFF785F800214FF44A
:104110000020FFF780F80BE0E548844208D1012138
:104120000805FFF778F800214FF48010FFF773F8C7
:1041300010BD2DE9F04786B005460E460024A24684
:1041400000BFA1460027B08900B100BF2F462C8ACE
:104150004CF6FF700440F08804432C82AC894EF684
:10416000F3100440B088318908437189084304433F
:10417000AC81AC8A4FF6FF400440B0890443AC8266
:1041800001A8FEF7B4FFC648874202D1DDF810A0AF
:1041900001E0DDF80CA0A88900F4004040B10AEB72
:1041A000CA0000EB0A1031684900B0FBF1F807E0E3
:1041B0000AEBCA0000EB0A1031688900B0FBF1F885
:1041C0006420B8FBF0F004012009642101FB108990
:1041D000A88900F4004040B1322000EBC900B0FBD8
:1041E000F1F000F00700044308E0322000EB091072
:1041F0006421B0FBF1F000F00F0004432C8106B005
:10420000BDE8F0874FF41651016000218180C18024
:1042100001810C21418100218181704710B5024646
:104220000020108A4FF2FF0318400B884C8823436C
:104230008C882343CC8823431843108210BD00216F
:10424000018041808180C180704721B1828942F420
:104250000052828104E082894DF6FF731A40828108
:104260007047F0B50346002400260025002040F6E4
:104270006A17B94200D100BF1846C1F3421401F0D9
:104280001F06012707FA06F5012C01D10C3004E0C6
:10429000022C01D1103000E014301AB107682F430E
:1042A000076002E00768AF430760F0BD1AB1838A78
:1042B0000B43838202E0838A8B4383827047028AA6
:1042C0004FF6F0731A400282028A0A430282704754
:1042D00082894FF2FF731A40828182890A43828168
:1042E000704721B1828942F00202828104E0828912
:1042F0004FF6FD731A4082817047028A4FF6DF73D2
:104300001A400282028A0A430282704721B1028A5D
:1043100042F48042028204E0028A4BF6FF731A40A4
:1043200002827047C1F30802828070470146888884
:10433000C0F308007047818941F001018181704715
:10434000028BD2B20283028B42EA012202837047BF
:10435000028B02F47F420283028B0A43028370477E
:1043600021B1828A42F02002828204E0828A4FF6E2
:10437000DF731A408282704721B1828A42F01002B4
:10438000828204E0828A4FF6EF731A40828270477D
:1043900021B1828A42F00802828204E0828A4FF6CA
:1043A000F7731A408282704721B1828942F4004239
:1043B000828103E08289C2F30E028281704721B1BB
:1043C000828A42F40062828204E0828A4FF2FF73A2
:1043D0001A4082827047828A4FF6FB731A408282AB
:1043E000828A0A438282704721B1828A42F00202A5
:1043F000828204E0828A4FF6FD731A4082827047FF
:1044000002460020B1F5007F00D100BF13880B40A9
:104410000BB1012000E00020704701F40072B2F5FA
:10442000007F00D100BFCA430280704770B50246CA
:10443000002400230025002040F66A16B14200D176
:1044400000BFC1F3421501F01F03012606FA03F372
:10445000012D02D19689334006E0022D02D1168A41
:10446000334001E0968A33400C12012606FA04F428
:104470001688344013B10CB1012000E0002070BD5B
:1044800010B50022002340F66A14A14200D100BFFB
:104490000A1201249440A3B2DC43048010BD000042
:1044A000003801400044004000480040004C0040FB
:1044B0000050004001460020FE4A106800F038001D
:1044C000084310607047FB49096821F00801F94A68
:1044D000116011460968014311607047F549096888
:1044E00021F01001F34A116011460968014311607F
:1044F0007047F148EF494860F04848607047EE481F
:10450000EC494860ED4848607047EA48006940F06F
:104510008000E84908617047E648006940F0800083
:10452000E449086170470420E249C96801F00101CB
:1045300009B101200EE0DF49C96801F0040109B1A9
:10454000022007E0DB49C96801F0100109B103202E
:1045500000E00420704700B502460423FFF7E3FFA4
:10456000034603E0FFF7DFFF0346521E012B01D194
:10457000002AF7D102B90523184600BD30B504461C
:1045800004254FF43020FFF7E6FF0546042D17D130
:10459000C848006940F00200C64908610846446105
:1045A000006940F0400008614FF43020FFF7D3FF6E
:1045B0000546C048006941F6FD710840BD490861E3
:1045C000284630BD10B504244FF43020FFF7C3FF58
:1045D0000446042C16D1B748006940F00400B549E0
:1045E00008610846006940F0400008614FF430203F
:1045F000FFF7B1FF0446AF48006941F6FB71084080
:10460000AC490861204610BD00B502460423FFF7FF
:104610008AFF034603E0FFF786FF0346521E012B85
:1046200001D1002AF7D102B90523184600BD10B503
:1046300004244FF43020FFF7E7FF0446042C16D182
:104640009C48006940F004009A49086108460069E6
:1046500040F0400008614FF43020FFF7D5FF0446DA
:104660009448006941F6FB71084092490861204670
:1046700010BD00208F49C96901F0020109B1012074
:1046800000E00020704730B5A5250424FFF7F1FFB6
:1046900000B100254FF43020FFF75DFF0446042CE5
:1046A0003AD1854883498860844888600846006913
:1046B00040F0200008610846006940F040000861B1
:1046C0004FF43020FFF747FF0446042C1BD17948F4
:1046D000006941F6DF7108407649086108460069C3
:1046E00040F01000086176480580E002FFF733FFD4
:1046F0000446052C10D06F48006941F6EF71084060
:104700006C49086108E0052C06D06A48006941F64A
:10471000EF71084067490861204630BD78B506460C
:104720000C46042500200090E802FFF714FF054620
:10473000042D24D15F48006940F001005D49086103
:104740003480E802FFF707FF0546042D10D1B01CA6
:104750000090200C00990880E802FFF7FCFE054657
:104760005448006941F6FE7108405249086106E06C
:104770005048006941F6FE7108404E4908612846DC
:1047800078BD70B504460D460426F002FFF7E3FE3F
:104790000646042E11D14748006940F00100454902
:1047A00008612580F002FFF7D6FE06464148006901
:1047B00041F6FE7108403F490861304670BD70B552
:1047C00005460E460424E002FFF7C5FE0446042C0D
:1047D00017D13948374988603848886008460069E9
:1047E00040F0100008612E80E002FFF7B4FE04469E
:1047F000052C06D02F48006941F6EF7108402D497D
:104800000861204670BD2DE9F04304464FF6FF765F
:104810003746B046B1460425E443E6B2C4F3072761
:10482000C4F307484FEA1469E802FFF794FE05460F
:10483000042D49D120481F498860204888600846D7
:10484000006940F010000861FF2E06D01C480830B7
:104850000680E802FFF77FFE0546042D08D1FF2FF2
:1048600006D017480A300780E802FFF774FE0546B5
:10487000042D0AD1B8F1FF0F07D011480C30A0F871
:104880000080E802FFF767FE0546042D0AD1B9F162
:10489000FF0F07D00A480E30A0F80090E802FFF79B
:1048A0005AFE0546052D0FD00248006941F6EF710A
:1048B000084007E00020024023016745AB89EFCDA7
:1048C00000F8FF1F664908612846BDE8F08330B54F
:1048D000054604244FF43020FFF73DFE0446042C27
:1048E00041D160485E4988605F4888600846006939
:1048F00040F0200008610846006940F0400008616F
:104900004FF43020FFF727FE0446042C22D15448F0
:10491000006941F6DF7108405149086108460069A5
:1049200040F0100008611DB100205049088002E0ED
:10493000A5204E4908804FF43020FFF70CFE0446B6
:10494000052C10D04648006941F6EF7108404449F3
:10495000086108E0052C06D04148006941F6DF7186
:1049600008403F490861204630BDF0B505460E4677
:10497000174604243B483A4988603B488860E00277
:10498000FFF7E9FD0446042C19D13548006940F0D1
:1049900010003349086147F0F80030432843334999
:1049A000891C0880E002FFF7D6FD0446052C06D0DE
:1049B0002B48006941F6EF710840294908612046FB
:1049C000F0BD2748C069800870472548006A7047D5
:1049D00000202349096801F0200109B1012000E00D
:1049E0000020704729B11E4A126902431C4B1A610C
:1049F00004E01B4A12698243194B1A617047014651
:104A00000020012908D1164AD26902F001020AB138
:104A1000012008E0002006E0114AD2680A400AB1ED
:104A2000012000E0002070470D49C8607047042055
:104A30000B49C96801F0010109B101200EE00849E4
:104A4000C96801F0040109B1022007E00449C968FE
:104A500001F0100109B1032000E0042070470000BC
:104A60000020024023016745AB89EFCD00F8FF1F0E
:104A70002DE9F04104460D462169206807F02AF827
:104A800060606169606807F025F806463146606835
:104A900007F08EF8E0602846A16807F00FFB074694
:104AA000E16807F003FA0646A16807F013F8A06072
:104AB0004FF07E50E16807F001FB0646616807F0A1
:104AC000F5F92060BDE8F0812DE9F04F8DB0074683
:104AD0000D4616464FF07C5B4FF07E500C90FE4822
:104AE0000B900A90FD480168284607F0E7FA314626
:104AF000019007F0DBF98246F9480168504606F05C
:104B0000E9FFF7494860F7484168F34807F0D6FAEB
:104B10008246F4488168504607F0D0FA0290F14886
:104B2000C06880F000400390EE48C06880F000400C
:104B30000490E94805903146029807F0B7F982469B
:104B4000E8480168504606F0C5FFE649086031466E
:104B5000039807F0ABF98246E2484168504606F0F8
:104B6000B9FFE04948603146049807F09FF9824652
:104B7000DC488168504606F0ADFFDA49886031466E
:104B8000059807F093F98246D648C168504606F06A
:104B9000A1FFD449C860084601684FF07E5007F075
:104BA00085F90446CF4881684FF07E5007F07EF9C2
:104BB000069021464FF07E5007F078F9824659461C
:104BC00006F088FF81464946204606F0F1FF09902D
:104BD0004946069806F0ECFF0890A046C148416897
:104BE0004FF07E5007F062F907904146099807F0B0
:104BF0005DF98246BB480168504607F054FAB9494E
:104C000008600799099807F051F98246B54841684C
:104C1000504607F048FAB34948604146089807F003
:104C200045F98246AF488168504607F03CFAAD49E5
:104C30008860DDE9071007F039F98246A948C168A4
:104C4000504607F030FAA749C860A5484168384681
:104C500007F034FA0190099907F028F98246A04834
:104C60004168504606F036FF9D4988600846416815
:104C7000384607F023FA0190089907F017F98246A1
:104C800096480168504606F025FF9449086094480C
:104C9000806893490860084680680DB0BDE8F08FD1
:104CA000016042604FF07E538360C3608E4B0361AE
:104CB0008E4B436170472DE9F04704460D4621684D
:104CC000A06807F0F3F82060A168084607F0EEF846
:104CD0000746616807F0EAF80646216906F0FAFE21
:104CE0006060E168606807F0E1F88146E16807F01C
:104CF000DDF80746616906F0EDFE0646E16860688A
:104D000007F0D4F88046314606F052FFA0612168D2
:104D1000E06807F0CBF88046294607F0C4F907465B
:104D2000A16907F0C3F80646216806F0D3FE2060AB
:104D3000E168A06907F0BAF807464FF07E5107F026
:104D4000B2F90646616807F0B1F860602068BDE816
:104D5000F08710B50B6803604B684360136883608D
:104D60005468C46094680461D46844614FF07E5311
:104D700083615F4CC461002404621C464462836208
:104D80000024C4625B4B03631C464463836310BD11
:104D90002DE9F05F04460D466168E06907F086F88A
:104DA00081462168A06907F081F88246494606F0ED
:104DB00091FE20606168606A07F078F8814621689A
:104DC000206A07F073F88246494606F083FE606069
:104DD0002169E06907F06AF88246A168A06907F0D6
:104DE00065F88346514606F075FE8146216B06F054
:104DF00071FEA0606169606A07F058F88146E16859
:104E0000A06907F053F88246494606F063FEE06069
:104E10002169E06907F04AF88146A168206A07F035
:104E200045F88246494606F055FE20616169606A90
:104E300007F03CF88246E168206A07F037F88346BD
:104E4000514606F047FE8146616B06F043FE606105
:104E5000E16AE06807F02AF88146A16AA06807F0D5
:104E600025F88246494606F035FE0646E16A606945
:104E700007F01CF88146A16A206907F017F88246FE
:104E8000494606F027FE07463946E06A07F00EF865
:104E900082463146A06A07F009F88346A16B06F006
:104EA00019FE8146514606F015FE804641463046C1
:104EB00006F07EFEE0634146384606F079FE206447
:104EC0006168E06A06F0F2FF81462168A06A06F098
:104ED000EDFF824649460FE06F12833A1801002029
:104EE0002404002030040020000048430000FA435E
:104EF000CDCCCC3DBD37863506F0ECFD8046414635
:104F0000284607F0DBF88246E16B06F0CFFF8146CA
:104F1000216806F0DFFD20604146284607F0CEF804
:104F20008246216C06F0C2FF8146616806F0D2FD20
:104F30006060A16AE06B06F0B9FF82464FF07E51D7
:104F400007F0B1F88146A16806F0B0FFA060E16A01
:104F5000E06B06F0ABFF82464FF07E5107F0A3F8FE
:104F60008146E16806F0A2FFE060A16A206C06F0CD
:104F70009DFF82464FF07E5107F095F881462169EA
:104F800006F094FF2061E16A206C06F08FFF8246F4
:104F90004FF07E5107F087F88146616906F086FF81
:104FA00060612068BDE8F09F2DE9F04106460F469C
:104FB0009046002418E0002512E004EB44022A4445
:104FC00057F8221004EB44022A4456F8220006F057
:104FD00081FD04EB4401294448F82100681CC5B256
:104FE000032DEADB601CC4B2032CE4DBBDE8F081D6
:104FF0002DE9F04106460F469046002418E00025B2
:1050000012E004EB44022A4457F8221004EB440255
:105010002A4456F8220007F051F804EB44012944D1
:1050200048F82100681CC5B2032DEADB601CC4B23D
:10503000032CE4DBBDE8F0812DE9F047804689468A
:10504000164600242DE0002527E0002004EB440153
:10505000294446F8210000271BE007EB47022A44B9
:1050600059F8221004EB44023A4458F8220006F0A2
:105070001DFF824604EB4400284456F82010504699
:1050800006F028FD04EB4401294446F82100781C71
:10509000C7B2032FE1DB681CC5B2032DD5DB601C52
:1050A000C4B2032CCFDBBDE8F08703B5CFB0CC4A48
:1050B00010465099FFF778FFCA4ACB491046FFF7D0
:1050C00073FF44AAC6494F98FFF792FF17AAC74932
:1050D000C448FFF769FF189809901F98089009992C
:1050E00006F0E4FE0A901A98014609900A9806F024
:1050F000DDFE0C901E9807901C980690079906F00C
:10510000D5FE0890179801460790089806F0CEFE45
:105110000A901B98059019980490059906F0C6FE10
:1051200006901D9801460590069806F0BFFE08906F
:105130001A98039019980290039906F0B7FE04900C
:105140001E9801460390049806F0B0FE06901C9845
:10515000019018980090019906F0A8FE02901D9801
:1051600001460190029806F0A1FE04901B98019060
:1051700017980090019906F099FE02901F98014639
:105180000190029806F092FE0390049906F0A2FCAA
:105190000590069906F09EFC0790089906F08EFF90
:1051A00009900A9906F08AFF0B900C9906F086FF89
:1051B0000D901E9809901C980890099906F076FEAB
:1051C0000B901F9809901B980890099906F06EFEA5
:1051D0000A900B9906F072FF0C900D9906F0E8FC0E
:1051E0000E901F98099018980890099906F05EFE95
:1051F0000B901E98099019980890099906F056FE90
:105200000A900B9906F05AFF0C900D9906F0D0FC0D
:105210000F901D9809901B980890099906F046FE7A
:105220000B901E98099018980890099906F03EFE78
:105230000A900B9906F042FF0C900D9906F0B8FC0D
:1052400010901F9809901A980890099906F02EFE60
:105250000B901D9809901C980890099906F026FE5D
:105260000A900B9906F02AFF0C900D9906F0A0FC0D
:1052700011901D98099019980890099906F016FE4A
:105280000B901F98099017980890099906F00EFE48
:105290000A900B9906F012FF0C900D9906F088FC0D
:1052A00012901C98099017980890099906F0FEFD35
:1052B0000B901A98099019980890099906F0F6FD34
:1052C0000A900B9906F0FAFE0C900D9906F070FC0E
:1052D00013901D9809901B980890099906F0E6FD17
:1052E0000B901E9809901A980890099906F0DEFD17
:1052F0000A900B9906F0E2FE0C900D9906F058FC0E
:1053000014901E98099017980890099906F0CEFD00
:105310000B901D98099018980890099906F0C6FD01
:105320000A900B9906F0CAFE0C900D9906F040FC0D
:1053300015901A98099018980890099906F0B6FDEA
:105340000B901B98099017980890099906F0AEFDEC
:105350000A900B9906F0B2FE0C900D9906F028FC0D
:10536000169032AA0EA91F48FFF766FE29AA44A983
:1053700032A8FFF761FE1A4A29A91046FFF714FE6A
:1053800020AA32A91A48FFF733FE3BAA154920A8E4
:10539000FFF752FE00204E901DE000204D9013E0DC
:1053A0004E9800EB40014D9808443BA951F820105D
:1053B0004E9800EB40024D9810440A4A42F82010E3
:1053C0004D98401CC0B24D904D980328E8DB4E9894
:1053D000401CC0B24E904E980328DEDB51B000BD99
:1053E0000004002088000020F4000020D0000020ED
:1053F000AC0000202DE9F05F04464FF07F594FF0DC
:105400007C51204606F052FD824625462E46FE4837
:10541000A0EB660635462946504606F047FD834612
:10542000294606F043FD8046494606F03CFE074605
:10543000294606F03BFD05462846BDE8F09F10B51D
:1054400004460021204606F0FDFC02D284F0004014
:1054500010BD2046FCE70FB5A3B0EC48016800681A
:1054600006F024FD1490EA480168E848006806F058
:105470001DFD1390E7480168E448006806F016FD3A
:105480001290E5480168E148006806F00FFD1190B0
:10549000DF480168006806F009FD1090DD480168EA
:1054A000DB48006806F002FD0F90DB480168D84831
:1054B000006806F0FBFC0E90D6480168006806F014
:1054C000F5FC0D90D4480168D248006806F0EEFC67
:1054D0000C90D1480168006806F0E8FC0B90259814
:1054E00006F0CCFACD4ACE4BCDE9040105F0ECFF35
:1054F00000224FF08043CDE9060105F0E5FFCDE93C
:10550000080105F07DFD0A90239806F0B7FAC54A18
:10551000C54BCDE9040105F055FEC44AC44BCDE9A5
:10552000060105F0D1FFCDE9080105F069FD2390E2
:10553000249806F0A3FABB4ABB4BCDE9040105F061
:1055400041FEBA4ABA4BCDE9060105F0BDFFCDE9EF
:10555000080105F055FD2490259806F08FFAB14A10
:10556000B14BCDE9040105F02DFEB04AB04BCDE9B9
:10557000060105F0A9FFCDE9080105F041FD2590E0
:105580002999084606F092FC08902899084606F0EA
:105590008DFC06902699084606F088FC0590069931
:1055A00006F098FA0790089906F094FA0990FFF728
:1055B00021FF1B901B99269806F078FC26901B99DA
:1055C000289806F073FC28901B99299806F06EFC29
:1055D000299012990E9806F071FD4FF080410990C4
:1055E00006F064FC1A900C99139806F073FA4FF0C9
:1055F0008041099006F05AFC19901099149806F011
:105600005DFD08900D9906F059FD09900B9906F083
:1056100061FA18901999299806F048FC0990189990
:10562000289806F043FC0890099906F047FD17906A
:105630001899269806F03AFC09901A99299806F0CC
:1056400035FC0890099906F039FD16901A992898AA
:1056500006F02CFC09901999269806F027FC089072
:10566000099906F02BFD15900021179806F062FBB2
:105670006FD00021169806F05DFB6AD000211598C6
:1056800006F058FB65D0179806F0F8F9694A6A4B9E
:10569000CDE9000105F018FF4FF06042674BCDE9FE
:1056A000020105F011FFCDE906016548006806F02A
:1056B000E5F9CDE90401DDE9062305F0D3FCCDE9E8
:1056C000080105F09DFC5E490860169806F0D6F9C1
:1056D000584A594BCDE9000105F0F6FE4FF0604203
:1056E000564BCDE9020105F0EFFECDE90601554824
:1056F000006806F0C3F9CDE90401DDE9062305F0F1
:10570000B1FCCDE9080105F07BFC4E490860159815
:1057100006F0B4F9474A484BCDE9000105F0D4FE44
:105720004FF06042454BCDE9020105F0CDFECDE9D9
:1057300006014548006806F0A1F9CDE90401DDE95C
:10574000062305F08FFCCDE9080105F059FC3E4920
:1057500008603E48179906F0A9FB0890239906F0C7
:10576000B9F9099036480168099806F0B3F9239011
:105770003648169906F09AFB0890249906F0AAF983
:10578000099030480168099806F0A4F924902F4840
:10579000159906F08BFB0890259906F09BF9099066
:1057A00029480168099806F095F925901A48259925
:1057B000006806F07BFB079016482499006806F005
:1057C00075FB05901248006880F000400390239913
:1057D00006F06CFB0490059906F070FC06900799A2
:1057E00006F06CFC1A49089006F060FB0990074827
:1057F0000168099806F06EF9044908600648249982
:10580000006806F053FB25E0DF59375F1C010020DC
:1058100020010020240100202801002030689DC8BC
:10582000FE3F9F3F52B81E85EB613040AF99D76C69
:1058300040DF913F7B14AE47E17A743FE2361A3F76
:105840002C01002030010020340100200000204104
:105850000AD7233B0790E0482599006806F026FB0D
:105860000590DE480168239806F020FB0490059916
:1058700006F030F90690079906F020FCD849089008
:1058800006F014FB0990D7480168099806F022F940
:10589000D4490860D4480168239806F007FB0790B4
:1058A000D0482599006806F001FB0590CB48249963
:1058B000006806F0FBFA0490059906F0FFFB0690DD
:1058C000079906F007F9C649089006F0EFFA099023
:1058D000C1480168099806F0FDF8BF49086008460C
:1058E0000168239806F0E2FA0790BE482499006800
:1058F00006F0DCFA0590B9482599006806F0D6FA5A
:105900000490059906F0E6F80690079906F0D6FB94
:10591000B349089006F0CAFA0990B348016809989B
:1059200006F0D8F8B04908601099149806F0D2F83B
:1059300007900D9906F0CEF808900B9906F0CAF87A
:105940000990FFF757FD1B90A4481B99006806F0CB
:10595000ADFAA2490860A3481B99006806F0A6FAB0
:10596000A04908609C481B99006806F09FFA9A4974
:1059700008609D481B99006806F098FA9A490860EB
:105980004FF080400D9906F091FA03904FF040409F
:10599000109906F08BFA0290039906F08FFB4FF0F6
:1059A0007E51049006F096F8059006F067F8CDE970
:1059B00008014FF08040139906F078FA04904FF0F8
:1059C00080400C9906F072FA0390049906F082F870
:1059D000059006F053F8CDE90601DDE9082305F04E
:1059E00013FACDE920014FF08040129906F05EFADB
:1059F00006904FF040400E9906F058FA059006992F
:105A000006F068F8079006F039F8CDE9080104F0CF
:105A1000B3FFCDE91E014FF080400B9906F046FA26
:105A200004904FF080400D9906F040FA4FF07E51FF
:105A3000029006F038FB0390049906F03FFB0590B6
:105A400006F01CF8CDE908014FF08040119906F0EE
:105A50002DFA04904FF080400F9906F027FA03903A
:105A6000049906F037F8059006F008F8CDE906012C
:105A7000DDE9082305F0C8F9CDE91C015B4A5C4B60
:105A8000DDE9200105F020FDCDE92001574A584B02
:105A9000DDE91E0105F018FDCDE91E01534A544B06
:105AA000DDE91C0105F010FDCDE91C01DDE9200157
:105AB00005F0A6FA4F498860DDE91E0105F0A0FA5D
:105AC0004C494860DDE91C0105F09AFA4949C86073
:105AD0004FF080410A9806F0B5FA05D34FF04041E7
